:10000000281F00100970000053390000E5010000AE
:100010000000000000000000000000009735FFEF26
:10002000000000000000000000000000E7010000E8
:100030000000000000000000390200004D2D00000B
:1000400037700000377000000000000061540000AD
:1000500037700000377000000000000037700000AB
:1000600037700000377000003770000037700000F4
:10007000BD3A000037700000377000003F3A0000C2
:1000800037700000377000003770000037700000D4
:10009000377000003770000037700000000000006B
:1000A00023680000336800003770000037700000DC
:1000B00037700000377000003770000037700000A4
:1000C000022801D1012070470020704780B5C0B2DE
:1000D000022803D1080002F0F1F902BD40A0006837
:1000E00002BD022800D0704780B5080002F03CFA3B
:1000F00001BD022800D0704780B5080002F044FA24
:1001000001BD80B50B001100022803D1180002F0D8
:100110006BFA02BD002002BD80B5022803D10800A1
:1001200002F0B2FA02BD002002BD10B504000800C2
:1001300011001A00022C03D1029B02F00DFB10BD2E
:10014000002010BD10B50400080011001A00022C98
:1001500002D1029B02F03AFB10BD80B50B001100EA
:10016000022803D1180002F073FB02BD002002BD7B
:1001700010B50400080011001A00022C02D102F090
:10018000BDFB10BD002010BD80B5022803D10800C2
:1001900002F014FC02BD002002BD022800D070470E
:1001A00080B5080002F00BFC01BD10B5040008008A
:1001B00011001A00022C03D1029B02F01DFC10BD9D
:1001C0000A2010BD10B50400080011001A00022C0E
:1001D00002D102F075FC10BD0800C0B210BD0000D5
:1001E00000000000FEE7FEE71206130A1A43130C94
:1001F0001A4300BF130030B414001500103902D3A5
:1002000010393CC0FCD2490700D30CC000D504C053
:10021000890002D30280801C002900D5027030BC06
:10022000704700000022E5E780B505F090FA01492B
:10023000086001BD18170010FEE700008900401893
:10024000016818239943D2000A43026070470000F6
:100250000449012282400868034B034013430B60AA
:100260007047000080800440FFFFEF2580B5062026
:06027000FFF7EEFF01BDE7
:0402FC00FFFFFFFF02
:1003000070B584B001F02FFE0600444C607B0228DB
:1003100003D04348C06A804701E000F0C1FE207C62
:1003200000282CD02500B835616E280001F00DFEA4
:10033000280001F01EFD607B022808D02500CC3586
:10034000A16E280001F001FE280001F012FD607B83
:10035000022802D0E07C002823D0122069460870D1
:10036000207BFFF7B3FE2F4DA16E0918280018302F
:1003700001F0EBFD1835280001F0FBFC11E0002036
:1003800029494870042060702020205C002802D198
:100390000120202160542020205C202101432020C6
:1003A000215422482021615C090705D521784A1E85
:1003B0009241D20F827501E000218175A07EE07626
:1003C00001A90870607C48700296207BFFF789FEC7
:1003D0002665E07C002805D1002013494870207E66
:1003E000401C20767FBD10B50C4CE06D40210143D0
:1003F000E165E07C002801D000F000FD2020205CB9
:10040000222101432020215490340121200001F0B9
:100410009CFD200001F0ADFC10BD0000B8030010F1
:10042000C06E000084160010D016001034110010A9
:10043000FBB58EB0002706973E003800CA49087108
:100440006D4CE28110A8007820746C4DE87F6074D8
:10045000380060806071A760A081A074676120701F
:100460006748C06A80472800CC3001F018FD0E981C
:100470000078694608706846007840090873684645
:10048000007B012809D0032800D194E0052800D181
:1004900091E0072800D120E236E2687C002800D0F5
:1004A000A4E0584E33005B1C6A6B6846808F411E87
:1004B00089B20E98401C01F0F9FE68460078307051
:1004C00006AB6A6B6846808F011F89B2300001F06D
:1004D000C6FE0698A98C401806906846808F301892
:1004E000001F0278417809021143827812040A43FE
:1004F000C078000610430699884259D12800803000
:10050000019000902B007033AA8C3100491C686B5D
:1005100001F0EEFE3079717909020143B0790004EF
:100520000843A863F079317A09020143707A000424
:100530000843B17A09060143E96310220199324860
:1005400001F036FF102229007031304801F030FFF1
:10055000E86B2F49C862A86B886208460079FE21C3
:100560000140022008432A49087169464020085684
:1005700002F067F802F0C5FAF17A26480A0012097B
:100580005207520F42740F2213000B400376317B47
:100590000A40026001D101210160FA21890002684C
:1005A0004A430260511841606F7001206874AFE1E6
:1005B00007206870ACE11748407F07A98870207950
:1005C0004870092069460877E87B002801D00A2096
:1005D000087707A9287BFFF779FD6946898F0D39D0
:1005E00009B2002900D53900884215D20120607077
:1005F000FFF7F9FEA7E100BF84160010B803001052
:10060000C06E00004C130010A80C0010980C0010D5
:10061000680C0010D01500100E9841788078000208
:1006200008430E99C978090401430E980079000621
:1006300008430890E96B884204D00B206070FFF7F4
:10064000D2FE80E1A86C04900E9840790AA9087047
:100650000F220AA80078024068464273104608300C
:10066000C0B205900E986946898F4018001F027825
:10067000417809021143827812040A43C0780006C7
:1006800010430C900E9880790E99C97909020143A4
:100690000498081A80B209906846808F001F694646
:1006A000C88109988021090288420498099915DABD
:1006B0004018049006A80290049801900120009030
:1006C000089B2A0070326846C1890E9801F018FD17
:1006D0000C98069988421CD101261AE009B24018EC
:1006E0008021490240180B9006A802900B980190B7
:1006F00001200090089B2A0070326846C1890E983C
:1007000001F0FEFC0C980699884202D101260B9854
:10071000049011206946087707A9287BFFF7D6FCCB
:100720000999814206D30A20607004986061FFF73E
:100730005AFE08E1002E00D1CAE069464020085662
:1007400001F07FFF38006070A0700AA800780100F7
:10075000C906C90F6171A7603800207304986061F1
:100760003800014902E000BFD01600104870EF6465
:10077000E8756846007B052825D101202875207082
:10078000A86C0499884207D1002805D02020285C55
:1007900004210143202029540498A864B14800781A
:1007A000012820D10AA800784009C1071DD53900C9
:1007B000A9750100C907C90FAA4A11710100C9072B
:1007C000C90FA17411E0380028752070A86C049935
:1007D0008842E1D10028DFD0082060700498606171
:1007E000FFF701FEAFE03800A8756846808F001F54
:1007F0000599401A012858DB0E98405C491CC9B283
:1008000005916946898F091F059A891A6A461173ED
:10081000E07000286846407B25D1002818D1924E10
:1008200002960498019001200090089B2A007032E3
:100830006846017B0E98059FC01901F005FD10A8C0
:1008400003786846027B0021300000F019FB38E095
:100850002020285C042101432020295438008149AC
:100860000871A7742DE0002808D010A80378059817
:10087000421ED2B208210E9800F002FB7A4E029678
:100880000498019001200090089B2A00803268465D
:10089000017B0E98059FC01901F0D6FCA660684642
:1008A000007B2073012060730BE06846407B0028CA
:1008B00007D010A803780A46D2B208210E9800F09B
:1008C000DFFA2020285C02210143202029541FE068
:1008D0000C206070FFF787FD35E0634E6846828F1D
:1008E0000E99491C300002F078F9032020706770DF
:1008F000A6606846808F401E20732020285C02215D
:1009000001432020295403E001206070FFF76BFDB4
:10091000287F00906B7F53480279697BE87C00F068
:1009200054FA2034207800280DD12020285C202182
:1009300001432020295490350121280001F005FBB6
:10094000280001F016FA11B0F0BD10B5474C607BDD
:10095000022803D04648C06A804701E000F0A0FBAF
:10096000022001003F4A517060702020205C20214D
:1009700001432034217010BD10B53C4C607B02282F
:1009800002D03B48C06A8047E07CE17F002919D152
:100990000521002801D0334841706170607B022836
:1009A0001FD0206D01F0E2FAA16E884219D3200019
:1009B000CC3001F074FA2020205C2021014320205B
:1009C00021540EE00621002801D0264841706170B4
:1009D000607B022805D02020205C202101432020BC
:1009E0002154607B022801D100F05AFB10BD10B5E4
:1009F0001E4C607B022802D01D48C06A8047E07C04
:100A0000E17F002919D10321002801D01548417048
:100A10006170607B02281FD0206D01F0A7FAA16EE3
:100A2000884219D32000CC3001F039FA2020205C14
:100A300020210143202021540EE00421002801D070
:100A4000084841706170607B022805D02020205C3E
:100A50002021014320202154607B022801D100F095
:100A60001FFB10BDD01600104C130010B80300106F
:100A7000C06E0000F0B585B0002420006946087201
:100A8000BB4D28009030009001F009FA2020285C2E
:100A90000127010049093A00114200D1CFE0E96D78
:100AA0004A0602D541229143E96509210140B14E30
:100AB00013D07278022A02D06A78022A0DD1EA6D28
:100AC0003B469A43EA652200AA756A7F727122004A
:100AD0003271B4603A006B461A72EA7C6B461B7A3C
:100AE000134335D1002933D00100C9083A0011421F
:100AF00009D02978002906D1687800281DD16C64B6
:100B00002000287619E002005208390011402A7EA0
:100B1000B94BDB7F9A4201D2002913D0002904D1BE
:100B20002000A875E86C401CE86420002876307D21
:100B3000002802D1686C401C6864E86D394688431F
:100B4000E86505E0DF2101402020295400F0DCF8B1
:100B50002020285C40083900084215D03079002850
:100B600003D1287F697F88420ED22000A877E874DD
:100B7000307D002802D1686C401C6864687F707109
:100B8000E86D39468843E865A87F002857D05C2087
:100B9000285CC00653D42000A877687F297F88424C
:100BA00039D2092837DA401C6877C00710D503A866
:100BB0001E210170BE492C228A5C8270491C019161
:100BC0000978417003A9287BFFF780FA0199087022
:100BD000384600F06FF9002806D12020285CDF217C
:100BE0000140202029542AE0092070702000A875B7
:100BF000E86D39468843E8652000E8743471687F01
:100C00007071AB484078B070307D002817D1686CA7
:100C1000401C686413E03946287BFFF76AFAE86DE8
:100C200039468843E8652000A875E8743471687F08
:100C30007071307D002802D1686C401C6864E86DDA
:100C4000810702D502218843E865E86D002822D19A
:100C50002020285C3900084207D0FE2101402020D6
:100C600029544448296E096888472020285C0100DF
:100C7000C9083A00114207D0F72101402020295429
:100C80002800296E896888472020285CDF210140E0
:100C90002020295407E0FA218900009801F055F935
:100CA000009801F066F82020285C010049083A000D
:100CB000114218D0FD21014020202954687B0228D0
:100CC00001D100F0EDF92020285C800839000842AD
:100CD00003D1C848296E496888472020285CFB2139
:100CE0000140202029542020285C010009093942B4
:100CF00008D0EF210140202029542800E030296E3F
:100D0000C968884705B0F0BD10B5194C2000A43063
:100D100001F0C5F8E06D10218843E065012000F086
:100D2000C9F810BD70B5124C2000B83001F0B7F80A
:100D30000020E077B04DA17E29705D490E000C3691
:100D4000727DEA702D3109782974E17B69746882BB
:100D5000607B022802D1CC48006B8047CB4A290037
:100D6000207BFFF7FAF93168A87C00F05FF870BDCE
:100D7000B8030010D0160010F8B5A04C2000CC30FD
:100D800001F08DF8C24DA07E2870494807000C374D
:100D9000B96969602D3000782874E07B6874012699
:100DA000EE74607B022802D00020A87400E0AE74CC
:100DB000B64A2900207BFFF7D0F9002804D0396813
:100DC000A87C00F033F8E677F1BD80B5002805D1A6
:100DD00002290FD1B64801F062F801BD002A03D004
:100DE000B34801F05CF801BD0298984202D2B048C5
:100DF00001F055F801BD0000C115001080B5AC48E8
:100E000001F04DF87D48C17C002905D00121817792
:100E1000C16D04229143C165417B022905D1202186
:100E2000415C20220A432030027001BD80B5964A01
:100E3000526B002802D10800904701BD0020904766
:100E400001BD38B50400150068469A4A12788270D0
:100E5000417009210170694AD17B002901D00A2122
:100E600001706946107BFFF731F9611980B289B2D0
:100E7000884203D3FF2901DC012032BD002032BDAE
:100E800070477CB55D4CA57CED016E4635710093D5
:100E900013000A0001A900F011F9002807D18648C3
:100EA00000218180616CC160002000F003F876BDF4
:100EB000C0150010F0B587B00700002001904F4C1E
:100EC000617EFF2901D1092076E0002900D160650B
:100ED000E07E00F073F8606D0390494D03A86978D7
:100EE0000172454E717D8172617C4172206D04906A
:100EF00020005430009001AB22001A3203A9207B5D
:100F0000FFF753F9002814D00B2855D1002F53D0E8
:100F1000019800280BD0E06D10210143E165A43455
:100F20000199200001F011F8200000F022FF0020BC
:100F300042E02800283002902F003F1D7B7F5BB2EB
:100F400001202A5602984179207BFFF73BF90100E6
:100F500000963B683A7949B2207BFFF7F3F84C489A
:100F600000903B683A790298017849B2207BFFF7FC
:100F7000E9F8607C002809D17869F168401860665A
:100F8000B8694349C9684018A06612E0A27D0120F3
:100F90002956307DFFF755FF002801D108200BE0CE
:100FA000F868F1684018606638693949C9684018BE
:100FB000A066A07E00F0D4F907B0F0BD70B584B093
:100FC0000E4C6D46617C29700B4E717DA970E870E6
:100FD000A06D00F0CBFF0190E06E0290B07D6870D4
:100FE0006946207BFFF7D9F8E06E218D4143081A4E
:100FF00060657FBD8416001034110010B803001026
:10100000C015001038B50024D34D200068746C64FE
:10101000AC64EC642876012001002977697721000F
:10102000A9776976010029852100E9822874CB4BD4
:101030003820185C18703920185C58705920185CDA
:1010400021215854D86D196E1A00243203C264202D
:10105000185C2C2158546520185C2D215854986E2A
:101060001863D86E58630221287BFFF742F82000EE
:10107000E874A882286C01E04462806A0028FBD1F1
:101080002000688331BD0000C06E0000881600108B
:10109000E8160010E12801DB0020704701207047AE
:1010A00080B5FFF769FE0220AB49C87701BD00009B
:1010B0009C160010EC150010D0160010F2B588B088
:1010C00000210391049369460A71A34C0021E18435
:1010D000E1740E99002B00D10021C14E3175082713
:1010E0000178E3220A40390011430170BD4D297097
:1010F0000078400907D0022849D0042845D00728A5
:1011000000D117E126E10120E0843A46216B280056
:10111000401C01F06DFDE08C0830E0843A46E16A45
:1011200080B2281801F064FDE08C0830E08401F002
:1011300031FDA084E08CA18C0A002A54401CE0847C
:10114000090A80B22954401CE08403AB626BC1B22F
:10115000280001F084F8E08C03992954401CE084B5
:101160000399090A80B22954401CE0840399090CB0
:1011700080B22954401CE0840399090E80B229549E
:10118000401CE084002009B0F0BD0120E074607CC8
:10119000002801D10720F6E705A801210170089970
:1011A0000978C9094A1E9241D243D20F4270E16CBC
:1011B00006916A4A51780172117841722C21515C72
:1011C000817220004C3000901300521C05A9207B36
:1011D000FEF7ABFF08990978BF220A40800110434F
:1011E00008990870217D002905D000212175202152
:1011F000014308980170E06B01006970090AA97049
:101200000100090CE970000E2871089800786871D7
:10121000606C0100A971000AE871E27D310098312B
:10122000A07D3018183001F0D8FCE07DA17D0918B0
:10123000A175049A002A1FD0327D002A1CD0627D3D
:10124000002A26D0C9B210291CDA089A1278F02395
:10125000134052181207120F1A43089B1A706A7132
:1012600000220B0092B29A4213D2B3181B7EFFB237
:10127000EB557F1C521CF4E7C9B2002909D0627DEE
:10128000002A06D0317531001831049100216A46D8
:10129000117100216175002801D00120607504984A
:1012A000002826D0307D002823D068460079FFB280
:1012B000E8557F1CFFB2E819E36B616C6A4612794E
:1012C000002A0CD10022A2750290019110460090D4
:1012D00022007032317D049800F057FF09E002903F
:1012E00001910020009022008032317D049800F0AE
:1012F0004CFFFFB2307D3918E18403A80290606C86
:10130000019000200090E36B2200703289B2280027
:1013100000F0F6FEE08C2918039A0A70039A120A6C
:101320004A70039A120C8A70039A120ECA70001D3A
:10133000E08427E7002B00D124E7327D002A00D18A
:1013400020E719006D1C280001F047FC307D401C8F
:10135000E08417E7022016E7B8030010C01500105C
:10136000F0B585B0070000206946087001A8077035
:101370009B4E7178417031788170316B0291716B45
:101380000391984CE18C818123006C336A4601A95A
:10139000207BFEF7EDFE01252800607092482900B1
:1013A00041707178817069460978C1700761E16E9A
:1013B0008160616026009036FA218900300000F0DB
:1013C000C4FD300000F0D5FCE18CC9B20548B84A34
:1013D000926A9047E06D0543E565002005B0F0BDD9
:1013E000341100104C120010F2B582B00500160046
:1013F000002D0BD02868002808D06868002805D088
:10140000A868002802D0E868002801D10320FEBDAA
:101410003000FEF755FE002801D10A20FEBD714CB8
:101420002566A44F0298B86426730020010020228C
:10143000A1546173E065E173206560650B20694626
:101440000870207BFEF742FE401E8041C043C00F63
:1014500099494875082069460870207BFEF736FEDA
:101460005F4D2E0038363070052069460870207BAD
:10147000FEF72CFE70700C2069460870207BFEF78A
:1014800025FEF0600D2069460870207BFEF71EFEE9
:1014900030610E2069460870207BFEF717FE7061F0
:1014A0000F2069460870207BFEF710FEB061102007
:1014B00069460870207BFEF709FEF061132069463B
:1014C0000870207BFEF702FE290058310191487018
:1014D000142069460870207BFEF7F8FD01994860EA
:1014E000152069460870207BFEF7F0FD019908720F
:1014F0001A2069460870207BFEF7E8FD0199087301
:101500001B2069460870207BFEF7E0FD01994873B7
:101510001C2069460870207BFEF7D8FD0199086100
:101520001D2069460870207BFEF7D0FD01994861B7
:101530000021207BFEF7DDFD0120019908700A20C3
:101540007060062131722D1D286008462871F068F0
:10155000A8603069E86070692861B0696861F06905
:10156000A861019800782877FFF74CFD2500903599
:10157000AA49280000F0F5FBFA218900280000F0B4
:10158000E4FCA7492000A43000F0EBFBA5492000B3
:10159000B83000F0E6FBA4492000CC3000F0E1FBBD
:1015A000A2493800183000F0DCFB00F0DCFCA0653C
:1015B0009F48F8629F4878639F48F8639F48386364
:1015C0009F48B8633A4D2C37380029688847012076
:1015D000A073A96D8847E86A80470020FEBD00001F
:1015E000C0150010B8030010D0160010F1B586B079
:1015F0000F00944D3920285C694648713820285CDA
:101600008871914C6846A17DE27D89180171002F97
:1016100001D1032049E0002603A831000170A17C1C
:101620004170E16C049169780172297841722C2132
:10163000695C817220004C30009001AB9B1C01AAB8
:10164000521C03A9207BFEF770FD02A82C352978D7
:10165000817069464979417009210170E17B002957
:1016600001D00A21017002A9207BFEF72FFD7870BE
:10167000787869460979884204D369460979401A1D
:10168000387004E03870300069460871E0826846BE
:1016900002796946052009566846007EFFF7D1FBAE
:1016A000002801D1082000E0304607B0F0BD00005E
:1016B000C06E0000841600103411001038B505000B
:1016C0000024002D01D1032032BD28781E2800D926
:1016D000A0E002A1095C49008F4400BF1014181C4F
:1016E0002024272A2E323B404F46585C6064686CA9
:1016F00070747C788084888C909498005248407BE9
:10170000287188E05048407C287184E04E48807CF5
:10171000287180E04C48806B68607CE04A48C06B70
:10172000686078E04948686075E04948686072E040
:101730004548807B28716EE04348C07B28716AE091
:101740001920694608704048007BFEF7BFFC6860BE
:1017500061E0404803C82D1D03C55CE0394AD06DE7
:10176000116E2D1D03C556E01720694608703648D6
:10177000007BFEF7ABFC68604DE016206946087000
:101780003148007BFEF7A2FC686044E032480078F4
:10179000287140E02B48C06868603CE02948006937
:1017A000686038E027484069686034E0254880690F
:1017B000686030E02348C06968602CE02748007802
:1017C000287128E01F484078287124E024480078D8
:1017D000287120E01B48007828711CE01A48406CF2
:1017E000686018E01848806C686014E01648006C67
:1017F000686010E01348406868600CE01148007AA7
:10180000287108E00F48406B686004E00D48C06E26
:10181000686000E00224200032BD0000750A00006C
:10182000090D0000250D0000790D0000FD0D0000E0
:101830000103000031040000790900004B09000099
:10184000EF090000C0150010B803001028040010B4
:1018500038040010E4150010E0150010F915001010
:10186000F8150010F0B585B0040000200700002C2A
:1018700001D1032050E10121A84DEA6D0A4001D0B9
:10188000084649E122781E2A00D943E101A352000B
:101890009B5A9F443C0076007C00820088008E00AA
:1018A000A400BA00C6007E02CC0026016A015001E5
:1018B000820196019E01A601AE01B601BE01E001C2
:1018C0002A0208024C0252027E02580262026E0292
:1018D000760221796973002902D0022904D01AE125
:1018E0008F48C06A804716E1E8748D48C06A804717
:1018F0008C4E8D4800907368327A2836317849B220
:10190000287BFEF71FFCFFF7CBFB04E1207968740E
:1019100001E12079A874FEE06068A863FBE06068DC
:10192000E863F8E06168002905D0102270352800CE
:1019300001F053F9EFE00327EDE06168002905D0DD
:1019400010228035280001F048F9E4E00327E2E0A6
:101950002079A8737249896D8847DCE02079E873A3
:10196000D9E0207A694608716E4E2D20305C01A9BD
:1019700048700622287BFEF7C4FB00281CD0241DDB
:1019800003CC3200243203C2687B022800D0C2E0BC
:10199000687C002800D1BEE06148C06A8047624888
:1019A00000907368327A2836317849B2287BFEF786
:1019B000C9FBFFF775FBAEE00327ACE0207A694670
:1019C0000871584E2D20305C01A948700622287BF2
:1019D000FEF797FB002804D0241D03CC5C3603C619
:1019E00099E0032797E06068029002A8017102A9BC
:1019F000287BFEF791FB002800D08CE003278AE0CB
:101A00006168029102A90871287BFEF785FB002816
:101A100000D080E003277EE02079002804D0102841
:101A200002DA6C49087076E0032774E060683D498B
:101A3000C86070E060683B4908616CE060683949E3
:101A4000486168E060683749886164E060683549EA
:101A5000C86160E0207969460871052201A9287BE8
:101A6000FEF74FFB002804D0684600795A490870F9
:101A700051E003274FE0207969460871294E2C2058
:101A8000305C01A988700422287BFEF73AFB00280D
:101A900003D06846007970703DE003273BE0207971
:101AA00069460871082201A9287BFEF72AFB002855
:101AB00004D068460079494908702CE003272AE0E1
:101AC000207969460871072201A9287BFEF719FBD6
:101AD000002804D068460079124908701BE00327EB
:101AE00019E06068686416E06068A86413E06068E4
:101AF0000C4EF06370600EE020790A4E4021705465
:101B0000307208E060680749486304E0606805498E
:101B1000C86600E00227380005B0F0BDB803001029
:101B2000C06E0000C0150010E816001070B582B03D
:101B300004000226002C1CD07C4DE86D00280DD13D
:101B40000C220021280001F060F801206870207844
:101B5000002831D15C20285CC00601D5012076BD6B
:101B60006068002805D0A068002802D0E06800283E
:101B700001D1032076BDFFF745FA2020285C08211B
:101B8000014320202954207828706068E862A0680A
:101B90002863E0686863217C49B2287BFEF7F4FA89
:101BA00063494870002069460870034602460146B2
:101BB0006846FFF766F90600002E07D00020E8749B
:101BC0002020285CF721014020352970300076BDA7
:101BD00000000000E0150010F9150010F8150010C5
:101BE000F0B585B0070002206946487000200870F3
:101BF00005460446002F00D190E04C4EF06D0028C1
:101C000001D0012090E02046087114220146494885
:101C100000F0FBFF012047494870707738780028B2
:101C200004D0012817D003282AD039E00124204607
:101C3000307768460079C006C00E402101436846EF
:101C40000171387969460870B8680290B88948808F
:101C50000E203D5624E00124F87B30776846007959
:101C6000C006C00E8021014368460171387969467B
:101C70000870B8680290B88948800E203D560FE081
:101C800001242046307768460079E0210143684608
:101C90000171786802903889694648800A203D566B
:101CA00068460078FFF7F6F9002837D004A801212C
:101CB000017021490978817004A9307BFEF706FA8A
:101CC000A84200D30500002C2CD0B07C00280ED1F7
:101CD00003AC257018480078A070042203A9307B5B
:101CE000FEF70FFA002819D020781149487068468D
:101CF0004388029A017801A8FFF7C3F86946487043
:101D00006846407800280BD138780A4908702020AE
:101D1000305C012101432036317003E0032003E0F1
:101D20000020F0746846407805B0F0BDB80300109C
:101D3000C0150010D0160010EC15001042691207F3
:101D4000120F0A4342617047C1680069814201D1A4
:101D50000120704700207047AA21816055218160D1
:101D6000704700220260426013000372C16002618A
:101D7000704738B5040000F099FF002C27D02000F0
:101D800000F0D7F8002822D160682060002020727F
:101D900080480568002D04D12168200000F047F834
:101DA00015E0287A002807D000F0D7F8296881428A
:101DB00000D20800091A00E029682068884203D28E
:101DC000200000F034F802E0200000F003F800F0FA
:101DD00073FF31BD30B46F4A12681369002B06D10E
:101DE0000368591A01601061002101611DE01C683F
:101DF0000C1902E021001D686419002A15D005683D
:101E0000A54209D2691A0160002B02D01C68611A30
:101E100019601061036108E01A001B69002BE9D109
:101E2000291B016010610021016130BC704710B5B1
:101E3000584A1368002B04D00468091B196000215C
:101E40001972036101210172106000F09AF810BD4F
:101E500038B5504C2568002D20D000F07EF8296858
:101E60000022884201D32A6001E0081A28602A7201
:101E700005E001692160C068010000D0804720684A
:101E8000002802D001680029F3D0002806D0017A8A
:101E9000002903D10121017200F073F831BD70B542
:101EA000060000F003FF3B4C25682A0028003DD0C7
:101EB000002E3BD0B54226D1287A002817D000F05A
:101EC0004CF83168814200D20800091A0022100043
:101ED00028722869002808D0206002685118016023
:101EE0000121017200F04DF820E022601EE0286917
:101EF000002805D02060016832688918016015E06B
:101F00000020206012E0316801E002001800002883
:101F10000CD00369B042F8D1002B05D01800106135
:101F200002685118016001E00020106100F0C4FE59
:101F300070BD1849096800E00969002903D0814291
:101F4000FAD1012070470020704738B505000C0019
:101F5000FFF7A5FF2C606C6031BD80B55848006864
:101F600000F004F802BD57480068704710B504003F
:101F7000FFF7F9FFA04202D2401E001B10BD001B5C
:101F800010BD80B5006850490860FFF7ECFF4C4970
:101F9000086001BD1C170010F8B58025ED0528006C
:101FA000FFF7DAFE494C06E02800FFF7D5FE684649
:101FB000407800F0F7FE012300AA521C210044489B
:101FC00001F02DF80128EFDA42480078002810D0FF
:101FD00041480068FFF7CAFFC9286FD3002001F00D
:101FE00095F86946087000231A46012001F005FAA9
:101FF000F1BD3A4D6620285C02285FD03848FFF7D3
:10200000A3FE002804D02000FFF79EFE002802D186
:10201000FFF7A9FF07003348007A3349097A0140E6
:102020003248007A014204D0314840688047012894
:1020300044D030480068002802D0FFF794FF060023
:102040003800FFF793FF0B2838D33000FFF78EFFDF
:102050000B2833D32D1D2848006800280DD128787F
:1020600080070AD5002001F051F869460870012365
:102070001A46104601F0C1F9F1BD022001F054FCEE
:102080001E4C01212000FFF759FE2878C00709D512
:102090000C212000FFF752FE03220621012001F04F
:1020A000D3FCF1BDE86C002803D00C212000FFF721
:1020B00045FE0322E96C012001F0C6FCF1BD0000E1
:1020C000440500103C05001040050010200F0010D2
:1020D00000400640B4040010D0040010680C00104A
:1020E0000C0F001070040010840400105C04001039
:1020F000C06E000014040010FC0300100000024039
:10210000F8B506000D0017009D4C06986071180088
:10211000A071000AE0711800000C20721800000E77
:10212000607207980100A172090AE1720100090CAE
:102130002173000E60732800E0732000203002F04D
:10214000C5F939002000203002F0D1F91022210019
:102150002000203002F0D3F9EAB231002000203014
:1021600002F0CDF9210020312000103002F02CFACD
:10217000E07C0006A17C09040143607C0002084366
:10218000217C014308980160F1BDFDB50F000026D8
:1021900001257C4CF02231462000203000F035FD36
:1021A000220020321021019802F06CFD0898607125
:1021B0000298A0710298000AE0710298000C207247
:1021C0000298000E607209980100A172090AE1727A
:1021D0000100090C2173000E60730DE07018009A65
:1021E000135C6218127C5A400A9B1A54491C10292D
:1021F000F4DB103F1036F6B2BFB2102F0BDB280015
:10220000E0736D1C2200203221001031200002F00A
:10221000BAFD0021EBE7002F15D0E5732200203234
:1022200021001031200002F0AEFD002109E07018FD
:10223000009A125C63181B7C53400A9A1354491C81
:1022400089B2B942F3DBF7BD10B584B0089C0294A3
:10225000079C0194069C0094FFF797FF1FBDF8B5FB
:1022600006000D001700464C2000203002F02EF929
:1022700039002000203002F03AF9EAB231002000A3
:10228000203002F03CF9210020312000103002F013
:102290009BF9E07C0006A17C09040143607C0002FC
:1022A0000843217C014300980160F1BDF4B50500AD
:1022B0000E001F00334CF02200212000203000F0DF
:1022C000A4FC220020321021009802F0DBFC220046
:1022D00020323900280002F056FD102E07DB203492
:1022E0002200103739001035280002F04CFDF1BDF6
:1022F000F4B584B004000E001F00224DF02200212E
:102300002800203000F081FC2A002032102120001B
:1023100002F0B8FC10220021684600F076FC6C4602
:1023200001202070062231002000401C00F055FCE6
:10233000022204A92000C01D00F04FFC2A00203218
:102340003900684602F01FFD10220021684600F0A7
:102350005CFC02202070062231002000401C00F0AE
:102360003CFC022204A9E41D200000F036FC2035CC
:102370002A000A99684602F006FD05B0F0BD00008B
:102380006C010010A4020010124207D08B0706D087
:102390000B78491C0370401C521EF7D87047830706
:1023A00006D00B78491C0370401C521EF9D17047AF
:1023B00070B4103A03D378C9103A78C0FBD25307EF
:1023C00001D318C918C001D508C908C0D20704D361
:1023D0000B880380891C801C002A01D50B780370B0
:1023E00070BC704702000800824201D1C0B201E017
:1023F000501EC0B240B27047A14980000858A149A0
:10240000884204D04900884203D000207047012050
:102410007047022070470200914200DB08007047BD
:10242000FFB583B00026354628460090019007E0AE
:1024300000981030C0B200900198401CC0B20190CA
:102440000098602833DA002407E000982100401843
:102450000C99F6B28855761C641C102CE8DA0498A6
:1024600001994900405A0121A1400842F4D0059841
:10247000009909194A00511889004718386800283E
:10248000EAD0082039560A001211090709176846D0
:10249000007B40B202F040FD0028DDD00698797A3A
:1024A00009014018C0680028CFD06D1CD4E70D98F2
:1024B00005703000C0B207B0F0BD000080B500BFAD
:1024C00028A1096802781E2A4AD801A39B5C9F4470
:1024D00084848E8E8E848E8E842C368440444A5022
:1024E00054585E84708474787C808484888C1E0048
:1024F000002101228056FFF775FF010030E08B4973
:1025000001228056095C2BE0894901228056095C32
:1025100026E0884924E0FA21890021E0FA21C90057
:102520001EE085491CE085491AE08021C90117E0B9
:10253000FA218900824800F045FBFA21C9004118C0
:102540000EE080490CE080490AE0804908E0602103
:1025500006E07F4904E0002102E07E4900E0B14945
:10256000080002BD0000000038B54268AE49784B53
:10257000047865002C19A4001B195B7A1B01C9188B
:10258000407802F0F9FC31BD10B5002803D00228D4
:1025900024D023D310BD00200100A44C0CE04A003D
:1025A000521892009A18A24B4B431B1913605023E8
:1025B000137203005372491C654B6029EFDB9D4881
:1025C0006249088048808880C88008814881062246
:1025D0009020C000181802F0BEFC10BD06225B4916
:1025E000594802F0B8FC10BD80B5091F012905D972
:1025F000891E0ED0491E012916D920E0052200218E
:102600000023C05602F088FC401E8041C043C00F2A
:1026100002BD052200210023C05602F07DFC401EB1
:102620008041C043C00F02BD072200210023C056D5
:1026300002F072FC401E8041C043C00F02BD00206A
:1026400002BD80B5002100E0491CA54A1278C9B23C
:10265000914205D2A34AA44B5B5CD2569042F3DA76
:10266000002900D0491EA048C9B2405CCF494A6D3C
:10267000904202D0486500F044FA01BD000000001D
:102680003828000090D00300F0B583B069460022DE
:1026900013460CC10179002902D0012907D042E07C
:1026A00006220168284802F056FC0120FEBD1446AF
:1026B0008B4D2100297006220168244802F04BFC52
:1026C000260001271EE03000C010000F8019010015
:1026D00009111E484A00805A0901711A3A008A40BD
:1026E00010420ED03000062102F077FD08000201F2
:1026F0001043174A73009B199B00D218107268464A
:102700004754761C602EDEDBE4B220000628CCDACB
:102710006946085C002804D0287873490C54401C92
:102720002870641CF0E71046FEBD0000F42800008D
:10273000EC280000B80B00008813000070170000A0
:1027400018FCFFFF20441E1ED40900100C170010B7
:102750005405001033339941F7B582B000242500A9
:10276000082146560921475640681860029840786B
:10277000002824D0002E01D11C6020E0029840687F
:10278000402801D301252700602818D3C006C00EB9
:10279000012814D168461E21017046700299897A79
:1027A0008170FFF78BFE060076B2002E07D1250060
:1027B00002980078002802D00120FFF7E5FE039878
:1027C000067004980770280005B0F0BDF4B584B019
:1027D0000D001C00052800DB05206070012020563C
:1027E000FFF70AFEA0700120205600BF12A1820050
:1027F000895800BF6EA2105C02F01EFC06000F009C
:102800006D48C06D8047010020000C3002900834F4
:1028100001940091049B2A003000390002F02AFC48
:1028200005B0F0BD9A9909402C0500106035081CD0
:10283000400D0300FFFF000048E8010048E80100E8
:1028400048E8010048E8010048E8010048E80100C4
:10285000F2B58AB00400012026566768564D6868B4
:102860008047002801D0002038E0E07C002807D114
:102870002078302102F0B1FC5D4841435D480F18DB
:102880003800E9688847A07C099001200890002062
:1028900007900690059004900390A06880B2029083
:1028A0000820019000200090012300BF40A0825D1D
:1028B00052B2A1781846AF69B847607C002802D0B0
:1028C0000AA0815D02E000BF0AA0815D0D31C9B29E
:1028D00001206A6D90470A98067001200BB0F0BD88
:1028E000B604001048050010BC04001033333373E5
:1028F000DEDE000033333373DEDE0000F6B58BB06E
:1029000004000120225609A8401C00BF28A1895CB0
:102910000170654E9020C0003318644821784D0046
:10292000691889007118497A090140180221415635
:1029300002202056FFF76FFD0700A268616802F0D1
:10294000F5FB09A908701C4D20784100081880008B
:102950003058E9688847564808900020079006904C
:10296000059001200490002003900820029001208F
:102970000190694625200856009000231A4624201D
:1029800009560120EE69B047A189C9B201206A6DDC
:102990009047A189C9B201206A6A90470C990860E2
:1029A0000B98077001200DB0F0BD0000680C0010FE
:1029B0000C0B0A0908070000C06E0000704700B544
:1029C00085B0394900913C490191694642780A72C3
:1029D00002784A7282788A72C278CA724168039118
:1029E00080680490684602F0B6FB05B000BD0000A8
:1029F000400D0300E0F8D11DF6B59DB006001F00A4
:102A000000252C0028006946087204A86021FDF703
:102A100009FC2A4803900622214602F085FA002884
:102A200002D10120FFF7B0FD7068FFF79FFA31680F
:102A3000884214D33D601D4C01232200B17A707A84
:102A400002F09FFA070002A8019004A8009023005A
:102A5000184A0399307AFFF7E3FC040009E068465E
:102A6000007A401C694608727068FFF77FFA316887
:102A70000F1A002C0CD0641E2100284600F0A2F88A
:102A800004A9085C1D9908701E980560284609E095
:102A90006846007A00281E9802D007600B2001E0EB
:102AA00005600C201FB0F0BD540500102C0500106F
:102AB000B80B0000540500102C050010D4090010BC
:102AC000881A010049B2002900D50020C0B2704721
:102AD0002B4A000910600800000980210906014303
:102AE0005160704780B509014118FFF7F1FF01BD42
:102AF00024480068C00F7047AA2181605521816079
:102B0000704738B5204C21212000401D01F036F9D6
:102B1000050430212000283001F030F905432560FC
:102B20001A4D002280212800FDF75EFB682221005B
:102B30002800FFF73DFC8020C005FFF7DDFF00F017
:102B4000B5F81F21084602F0A7FB1149481E02F004
:102B5000DDFB1F21084602F09FFB80222900FF2099
:102B6000C00102F0A7FB00F0A7F84021F820C00147
:102B7000FFF7B8FFFFF7BCFF0028FBD131BD000015
:102B80002000044024000440680C00104015001090
:102B9000FF01000000B507490868074A5043074A8B
:102BA00080180860064902F01BFB080000BD0149BF
:102BB00008607047500500106D4EC6413930000066
:102BC000FFFFFF7F38B504000D00FFF7E3FF291B6F
:102BD000491C02F002FB081932BD03E00B780370B8
:102BE000491C401C13005A1E9BB2002BF6D17047A3
:102BF0008018401E03E00B780370491C401E130030
:102C00005A1E9BB2002BF6D1704701E00170401CA8
:102C100013005A1E9BB2002BF8D1704710B48207E4
:102C2000920FD300FF249C40E2438901C9B299402E
:102C300003000BD54C481B071B0F083B9B089B0050
:102C4000C01803681A401143016007E047489B0819
:102C50009B00C01803681A401143016010BC704704
:102C6000BFF34F8F424843490860BFF34F8FFEE7E1
:102C700010B5401E80214904884201D3012010BDB7
:102C80003D4C606003210020C043FFF7C7FF0020D8
:102C9000A06007202060002010BD3849012282403A
:102CA0000868374B034013430B60704772B63548D2
:102CB0000178491C0170704732480178491E017043
:102CC000C9B2002900D162B6704700B583B0FDF7E4
:102CD000ABFA00F009FB01231A460021084602F076
:102CE0006CFB01F0E3F80020FFF7D7FF26480068EF
:102CF000FA21890002F074FAFFF7BAFF0020019070
:102D0000009001231A46014602F031FC07BD80B550
:102D1000FFF7CCFFFFF7A4FF01BD00B585B0684603
:102D200002F0DEFA009801994140029A4A40039865
:102D3000504005B000BD1FB50400684602F0D0FA4F
:102D4000082269462000FFF71FFB1FBD10B50F4C7E
:102D50002068401C2060A068FFF708F9616888427D
:102D600001D3FFF775F810BD1CED00E000E400E0B2
:102D70000400FA050CED00E010E000E08080044063
:102D8000FFFFEF2520170010181700103C0500105A
:102D900010B400231C00047004730381416042815D
:102DA00010BC704780B53E490A78002A10D0A12A8D
:102DB00029D0A22A2FD0A52A0CD0A62A10D0A82A22
:102DC00013D0B12A3FD0B22A4ED0B32A5CD005E04E
:102DD000A5220A70FF2801D1A6200870012002BD9B
:102DE0005528FBD1A8200870F8E70200612A01D01D
:102DF000412A02D1A1200870F0E7422AEED1B12287
:102E00000A700873EAE70200742A01D0542AE5D157
:102E1000A2200870E2E70D2805D1A320087001F078
:102E200075F8002002BD0A894B899A4205D1A42079
:102E3000087001F06BF8002002BD4B6898540889B7
:102E4000401C0881CAE702004B89934205D2B52095
:102E5000087001F05BF8002002BD4A810A7B5040F7
:102E60000873B2200870B9E74A680B89D0540A8900
:102E7000521C0A810B7B58400873488992B28242E7
:102E8000ACD1B3200870A9E70A7B504002D0B5202E
:102E9000087001E0B420087001F038F8002002BD8D
:102EA000FC1600102E490A68012383402D48184360
:102EB00082430A6070472A490122824008682A4BEF
:102EC000034013430B60704710B50400FFF7EAFF9F
:102ED0002000FFF7F0FF10BD24490122824008685E
:102EE000234B034013430B607047C1680069814264
:102EF00001D10120704700207047C16170474069CF
:102F0000C005C00D7047C16070470161704781689E
:102F10001848084070471849884201D10E20704770
:102F20001649884201D10F2070471020704710B514
:102F30000400FFF7F0FFFFF7CFFF0F48844203D1F3
:102F40000320FFF7C1FF10BD0C48844203D10420C9
:102F5000FFF7BAFF10BD0520FFF7B6FF10BD000058
:102F6000048004400020FEFFFFDF01008080044059
:102F7000FFFFEF257FFD0100004006400080064076
:102F800038B504000D0002F0EBFB290102F028F92E
:102F9000401E206231BD38B504000D0007E020005E
:102FA000FFF7ADFF69460870280002F087FC20009B
:102FB000FFF7ADFFC007F2D431BD38B504000D00F6
:102FC00004E0684601782000FFF797FF2000FFF734
:102FD0009EFF400705D56946280002F0D2FC002874
:102FE000EFD131BDF1B50F0014001D000421FFF732
:102FF0008CFF2A002100380002F079FC060039001D
:103000000098FFF7DAFFAA1BA119380002F06FFC45
:10301000341804210098FFF776FF2000F2BD80B538
:10302000080011001A0002F0C5FC02BD70B50400D2
:103030000D001600FFF76BFF40070CD53100200094
:10304000FFF7BBFF3000FFF750FF002803D004213B
:103050002000FFF75AFF29002000FFF79CFF70BDFA
:103060002C490122824008682B4B034013430B601C
:10307000704728490A68012383402848184382433F
:103080000A6070472649012282400868C001C009D1
:10309000104308607047490140188354704701236A
:1030A0009340890040188E218901435070470123C5
:1030B00093408900401890218901435070470000D7
:1030C00070B50024A0252D060EE000BF8BA0065D84
:1030D000320000212800FFF7E2FF01233200002127
:1030E0002800FFF7D8FF641C012CEEDB70BD10B583
:1030F0000C00002809D1012363400B220021A020ED
:103100000006FFF7C8FF7648047010BD74480078C9
:103110007047000080800440FFFFEF25000010DAB8
:10312000C0C1004010B50720FFF79AFF0020FFF74D
:10313000A9FF0120FFF7A6FF0220FFF7A3FF03204E
:10314000FFF7A0FF0620FFF79DFF0720FFF79AFF7C
:103150000920FFF797FF0A20FFF794FF0B20FFF7E6
:1031600091FF0C20FFF78EFF0D20FFF78BFF0E2045
:10317000FFF788FF0F20FFF785FF1020FFF782FF82
:103180001120FFF77FFF1220FFF77CFF1320FFF7CE
:1031900079FF1420FFF776FF1520FFF773FF162045
:1031A000FFF770FF1720FFF76DFF1820FFF76AFF8A
:1031B0000720FFF75EFFA02424060022114620000E
:1031C000FFF775FF042200212000FFF770FF454C38
:1031D000002211212000FDF731F800220B212000F0
:1031E000FDF72CF8002204212000FDF727F800222B
:1031F00003212000FDF722F8002210212000FDF716
:103200001DF800220F212000FDF718F800220E21E2
:103210002000FDF713F800220D212000FDF70EF825
:10322000002208212000FDF709F8002207212000D4
:10323000FDF704F8002202212000FCF7FFFF002226
:1032400001212000FCF7FAFF002212212000FCF7E8
:10325000F5FF00220A212000FCF7F0FF00220921DF
:103260002000FCF7EBFF002211462000FCF7E6FFF0
:1032700000221E212000FCF7E1FF00221D2120007A
:10328000FCF7DCFF00221C212000FCF7D7FF002206
:103290001B212000FCF7D2FF00221A212000FCF79E
:1032A000CDFF002219212000FCF7C8FF00221821C1
:1032B0002000FCF7C3FF002217212000FCF7BEFF0F
:1032C000002216212000FCF7B9FF00221521200062
:1032D000FCF7B4FF002214212000FCF7AFFF10BD63
:1032E000211700100040044080B5A0200006FCF724
:1032F000BDFFFFF717FFFFF7E3FE01BD0B0030B482
:10330000012100220368001D002B0BD00468001D62
:103310000C4202D04D466D1E64192260241D1B1FF5
:10332000F0D0FAE730BC704780B5012802D0E02821
:1033300009D001BD0120B14948750020FFF7E6FE24
:10334000AF49087001BDAD48817B00290DD0002137
:10335000817303214175AA4905220A70C27B4A7014
:10336000027C8A700121417001BD4178012904D09D
:1033700004290AD10121417001BD02214175A049F2
:103380008289120A0A708089487001BD70B586B0C2
:103390009C4C9A4E01AD6946707DFEF727F90028D6
:1033A00007D00020010029700390A881606DA873E8
:1033B00019E09348B17D002909D100212970317DA0
:1033C00029710390707DA881606DA8730BE00121C5
:1033D0002970317D29710390707DA881B07E4000F5
:1033E000E873606DA87301A8FEF7FAFB002801D10D
:1033F000002000E0012006B070BDFEB584B00700DB
:103400007E4C20005C30FEF74AFD01256E4635708B
:103410006846FEF753F9002830D1307900282DD0C6
:10342000E5766846007EA07527756846007D607564
:103430006846027D04997248FEF7A6FFFFF7A6FFD3
:10344000E076002801D100202076924DA87D022848
:103450000FD1286800280CD064216320C043FFF7F7
:10346000B1FB2968FA22920051430818A063032097
:103470002077E17E0120484007B0F0BD0020FBE747
:10348000F0B589B05D4C20005C30FEF708FD0126E8
:1034900005AD2E7005A8FEF711F9002827D128796F
:1034A000002803D002202077E67620E06E46002731
:1034B000377020003C300190200044300290200002
:1034C0004C3003901420287005A8FEF7F7F8002868
:1034D00002D12879307400E037746846FEF726FB85
:1034E000002802D10420207701E00320207709B0D2
:1034F000F0BD80B5417800290DD10078002802D0B8
:10350000012804D010E000203C49C8750CE00120DF
:103510003A49C87508E0042906D15F4800210170C6
:1035200081700A2000F076FB01203449C87601BD85
:1035300038B50400607800280DD00A285DD13148E4
:103540000179FD220A40012111430171FFF7D9FAE7
:10355000FFF7DDFB31BD294D2078012804D1012082
:103560002876FEF700FD68636079012801D1FFF736
:1035700087FF2878002802D0A889401CA881607B9A
:1035800000283AD0E07801280BD1207B012808D10F
:10359000A06800780100C907C90F69760020FFF70D
:1035A000A6FD3E480100D13100220A70EA7D012AC1
:1035B00006D1A27C002A01D0802200E040220A70BD
:1035C0000B780122657C002D03D002251D430D7070
:1035D00002E015001D430D700B7810251D430D7082
:1035E0004A70E278CA70227B8A70227BA168D5304B
:1035F000FEF7CAFE0D2000F00DFB31BD9C0400104B
:103600004C140010680C001010B586B00178002929
:1036100002D001292CD038E0BA4C4078002810D1D3
:10362000B9480078002802D10420207701E0022068
:103630002077062000F0EEFA00210846FFF757FD3C
:1036400023E068460021017022003C3201922200F2
:103650004432029222004C3203920174FEF766FA61
:10366000002802D1042020770FE0032020770CE00F
:103670004178002909D1A34C2178002905D00121E6
:10368000A173017AE173407A207401209D49C876C4
:1036900006B010BDB80C0010E10B0010100B0010AC
:1036A0000078042800D0704780B5FFF7E9FE01BD1F
:1036B000F0B58FB0FFF709FB924C0020207700F0A7
:1036C000E5F900F0FCF91EE00099097809180A00F4
:1036D000D210120F521812115300E3181E8D12014E
:1036E000891A8D4035431D85401C01250099497874
:1036F0008842E9DB01A8FEF7B5F80C20387001A874
:10370000FEF7B0F82577207F002809D0022800D1E5
:10371000C2E057D3042800D1EEE000D2DBE0EEE0B7
:10372000FFF7FBFAFFF743FA7848059078480690D0
:103730007848079078480890022204A905A8FDF768
:1037400053FE764920005C30FEF70BFB01AF0220F0
:1037500038700020387101A8FEF784F807253D7005
:103760000020387101A8FEF77DF81B203870322048
:10377000029001A8FEF776F8172038703D7101A875
:10378000FEF770F8142038702020205C387101A8F2
:10379000FEF768F800203870614E643600963046B7
:1037A0008078387101A8FEF75DF82000283002907B
:1037B0000D20387000220C2120002830FCF714FD69
:1037C000002092E7564E3000001D009001AF0078B7
:1037D000C00728D520003C30FFF7ADFA09AD002026
:1037E00028703000401D0A9030000D300B901536C7
:1037F0000C961420387001A8FDF760FF002802D154
:103800003879287401E00020287409A8FEF78EF9A1
:10381000002805D1052000F0FDF90420207772E78B
:10382000032020776FE7032038700098406A0290E9
:1038300001A8FEF717F8042038700098806A0290FB
:1038400001A8FEF70FF805203870300030300290E4
:1038500001A8FEF707F806203870300040300290CB
:1038600001A8FDF7FFFF0125280038703D7101A870
:10387000FDF7F8FF142038700098006D387101A82A
:10388000FDF7F0FF6436B078022802D102202077DD
:1038900039E70420207736E7E07E00280CD00125A8
:1038A00028002075A575FFF73FFDFFF76FFDE07657
:1038B000002801D10020207664216320C043FFF757
:1038C00081F91849C96CFA22920051430818A06383
:1038D0000320207717E7042020771248C06C0028C7
:1038E00000D110E7A16B20005C30FEF72EFB20001A
:1038F0005C30FEF73EFA06E7FEF74EFB03E70020DA
:10390000207700E79C040010CE0C0010F334000078
:103910003135000009360000A13600008134000076
:10392000680C00106C0C001010B400210A0000E0BC
:10393000521C82420BD20B0003E0641C052CFCD30A
:103940005B1CFA24A400A342F2D20C00F6E710BCE0
:103950007047FEE70121C006C00E8140704801603B
:1039600070470121C006C00E81406E48016070475B
:103970006D490A68012383406C48184382430A60FA
:1039800070476949012282400868694B034013432C
:103990000B60704710B50400FFF7EAFF2000FFF747
:1039A000F0FF10BD8F490A68D2B202430A61704726
:1039B00040014908491E01439248016070479249FD
:1039C000012282400868914B034013430B6070470B
:1039D00042691207120F0A434261704742690F237E
:1039E000DB430B439A434261704701684907490F23
:1039F00002220A430260704701684907490F042206
:103A00000A4302607047C160704741607047AA2155
:103A100081605521816070474161704781617047C5
:103A200002689206920E0A430260704710B50400C5
:103A30000121FFF7F5FF2000FFF7E9FF10BD80B57A
:103A40007348FFF7D2FF01BD70B50C001600704D32
:103A50000100280001F0FDFF280002F005F8010038
:103A600061432800FFF7CFFF482002F00BF8A720A2
:103A7000C04302F00EF83100BF4802F05FF80020AA
:103A800002F000F82800FFF7B7FF70BD10B58020E6
:103A90000002FFF787FF0920FFF791FF0920FFF7DA
:103AA00079FFB54C0A212000FFF798FF082120007C
:103AB000FFF78EFF0F20FFF74DFF10BD704738B5A1
:103AC00040210120FFF774FF402001F0F5FF01F0D5
:103AD000FCFD0500AD088024E405200002F04BF851
:103AE0006D0829002000FFF790FF610D2000FFF70F
:103AF00093FF29002000FFF791FF02212000FFF72C
:103B00008FFF0C21200002F04DF80C20FFF729FF59
:103B10000C20FFF71FFF2000FFF788FF31BD0000DA
:103B200000E100E080E200E0048004400020FEFFAD
:103B3000FFDF010038B59F4C2078002805D002280F
:103B400027D014D3032836D048E09B4D2800FEF739
:103B5000A6F901210020FFF7CAFA64212800FEF728
:103B6000F4F92800FEF705F90120207031BD924DCF
:103B70002800FEF794F900210846FFF7B8FAC8219B
:103B80002800FEF7E2F92800FEF7F3F80220207083
:103B900031BD894D2800FEF782F901210020FFF791
:103BA000A6FA64212800FEF7D0F92800FEF7E1F814
:103BB0000320207031BD804D2800FEF770F90021F0
:103BC0000846FFF794FAFA2189002800FEF7BDF9AC
:103BD0002800FEF7CEF80020207031BD00202070B4
:103BE00031BD00000482044010B500210846FFF7F3
:103BF0007EFA714C0A212000FEF7A7F92000FEF79B
:103C0000B8F810BD2480044080800440FFFFEF25F9
:103C100000800040F0B583B005002F00AF4E0528AE
:103C200002D0062803D00BE0FFF7DEFF08E0BC203F
:103C300080003018FEF733F900210846FFF757FAE5
:103C4000BA2080003058E840C00700D493E0A44C6C
:103C5000A80020189621490040180190006801F042
:103C6000B0FF05000A2F01D00D2F61D19D483018FB
:103C70000090077803229CA12000FEF799FBEDB28B
:103C80002A00019801682000C01CFEF77DFBED1C96
:103C900028002C25C0B22554401C0100491C3A00C4
:103CA000120601D5412205E03A00520601D54E2206
:103CB00000E03022C0B222540800401C3A00D20773
:103CC00001D531220AE03A00920701D5322205E0FF
:103CD0003A00520701D5502200E03022C9B26254A6
:103CE000F9060FD5C0B22554401C070001220098E8
:103CF000407830187D4941183800C0B2201801F0D2
:103D000089FF381800998978002920D0C0B225543D
:103D1000401C050000988278407830188121890085
:103D200041182800C0B2201801F074FF28180EE0D6
:103D300003226DA12000FEF73BFBEDB22A000198A3
:103D400001682000C01CFEF71FFBED1C28000D21A0
:103D5000C0B22154401C05000A20EDB26055FEF7A8
:103D6000A5FF6D1CEDB22B00220061496148FFF7F1
:103D700039F9FEF7A1FFF7BD0000024030B40200A0
:103D80000B000024210000E0641C9C420ED2105D58
:103D9000000248400100082001E02900401EF3D045
:103DA0004D000904F9D554496940F7E7080080B28D
:103DB00030BC704722170010D00C0010F0B589B04D
:103DC0000600464DA220800028180290FF27FF0120
:103DD00068223900FEF7ECFA4848281800902121A3
:103DE000FFF7CCFF0400AC208000281801903021A0
:103DF000FFF7C4FF396822040243914201D1002E2B
:103E000041D03F4C2000FEF796FF03A821A10CC92A
:103E10000CC000BF21A11022FEF7CAFA082203A994
:103E200020000830FEF7C4FA102205A92000103047
:103E3000FEF7BEFA00263000202160540127E76417
:103E4000212221000098FEF79FFAA3208000281865
:103E5000009007703022243421000198FEF7A8FA60
:103E600000984665009886650020C0430099C865A3
:103E7000BB20800028180670032141700221817048
:103E8000FEF73FFE04E0682239000298FEF790FA40
:103E900009B0F0BD4D4A2D4D6F64656D2B7E151632
:103EA00028AED2A6ABF7158809CF4F3C10B500203D
:103EB000FFF784FF094C0022982149002000FCF7FD
:103EC00093F99622520021000E48FEF761FF0E4939
:103ED000BC2080002018FDF744FF10BDE009001051
:103EE000000000100102000045565F0003020000C0
:103EF0000C0F001000400640211000008D02000051
:103F000030160010FC160010353B0000F0B59FB0D5
:103F10000024C04D287801F0D3FE0290BE480689E7
:103F20002F00204669460870002E01D1012482E24C
:103F30000298762810D1022E0ED168783F280BD136
:103F4000B6A1280001F0C3FE2C18B549200001F0ED
:103F5000BEFE271801246EE202987A280AD1012EAB
:103F600008D1B048C06A8047012630006946087011
:103F7000340060E2262812D1022E10D1687801F0B8
:103F80009FFE66280BD1A748C06A80470120FFF733
:103F900015FF012630006946087034004BE2029894
:103FA000732800D08DE0022E00DA8AE068783F287E
:103FB0002ED1022E2CD199A1280001F088FE2C18B8
:103FC000AC2080002958200001F03EFE26182C2449
:103FD00020003070761CAD2080002958300001F0A0
:103FE00033FE361820003070761CB9208000295826
:103FF000300001F029FE30180470401C0400B82085
:1040000080002958200001F01FFE2718012412E229
:104010003D2800D00FE2552E00D00CE2AC208000ED
:10402000281801903022014613A8FEF7C1F9082292
:104030002900891C13A801F019FE002800D1FAE11B
:10404000A87A2C2800D0F6E113AE082229000B3103
:104050003000001D01F00AFE002800D1EBE1E87CF1
:104060002C2800D0E7E1202229001431300008304C
:1040700001F0B0FD102800D0DDE13420285C2C28B0
:1040800000D0D8E12022290035311836300001F067
:10409000A1FD102800D0CEE1302213A90198FEF72F
:1040A00087F9A320800028180178FE220A40022107
:1040B00011430170FEF725FD0126340068460670A5
:1040C000B9E16A286BD1022E69DB68783F2823D1D9
:1040D000022E21D151A1280001F0F9FD2C1808224F
:1040E0005148291805A801F0DAFD082205A9200089
:1040F00001F090FD24182C202070641C08224B48ED
:10410000291805A801F0CBFD082205A9200001F01F
:1041100081FD271801248EE13D2800D08BE1332E4C
:1041200000D088E1404828180190212201460AA8C1
:10413000FEF72AF90AAE10222900891C3000083047
:1041400001F048FD082800D075E1A87C2C2800D09B
:1041500071E12022290013313000103001F03AFDC6
:10416000102800D067E108223100083108363000FD
:1041700001F095FD21220AA90198FEF705F9A32077
:104180008000281801260178FD220A4031001143E1
:104190000170FEF7B6FC3400684606704BE16728F4
:1041A00000D094E0022E00DA91E068783F283FD1F9
:1041B000022E3DD119A1280001F089FD2C18012201
:1041C000BB2080002918200001F024FD26182C2493
:1041D00020003070761C0122B2482918300001F00E
:1041E00019FD361820003070761C0122AE482918BF
:1041F000300001F00FFD30180470401C0400012253
:10420000A32080002918200001F004FD27180124B4
:1042100011E100BFE0090010FC1600104F4B2C000C
:104220009C6E0000C06E00008D0200009502000030
:104230003D2800D0FFE00A2E00D0FCE00222290039
:10424000891C00A8C01C01F0C5FC012800D0F2E0C8
:1042500028792C2800D0EEE002222900491D00A870
:10426000801C01F0B7FC012800D0E4E0E8792C289C
:1042700000D0E0E002222900083100A8401C01F033
:10428000A9FC012800D0D6E06846C078602800DB91
:10429000D1E068468078002800D1CCE068464078BC
:1042A000032800DBC7E06846C078BB21890068545A
:1042B00068468078491C685468464078491C6854B0
:1042C000FEF71FFC0126340068460670B3E06A283A
:1042D00011D1012E0FD1A3208000281801260178CA
:1042E000FD220A40310011430170FEF70AFC340040
:1042F000684606709FE074285CD1052E5ADB68780A
:10430000302802D0312800D095E0A8782C2800D0A1
:1043100091E0A72040002818019002222900C91C22
:1043200001F058FC012800D085E0019800780028B1
:1043300000D180E0FF205030281804906878303891
:1043400004990870A820400028180390204603997B
:104350000870062E0EDB68792C280BD13000821FE6
:1043600092B22900891DFF205230281801F032FC3A
:1043700003990870A3208000285C80075BD5052E78
:1043800003D003980078342855DA01980078002883
:1043900051D0E0284FDA049909784B1E9B41DB434A
:1043A000DB0F03990A78FF2152316918FFF725F8CE
:1043B000040040E061283ED1022E3CDB68783F28B3
:1043C00017D1022E15D107A80C21FBF72BFF37A11F
:1043D000280001F07CFC2C18B6208000295807A882
:1043E00001F032FC07A9200001F071FC271801241C
:1043F00021E03D281FD1B01E0100C90F0918491046
:104400004A00821A17D1012915DBB21ED2B2290047
:10441000891C01A801F02AFC00280CD0019824492D
:10442000884208D2B62189006850FEF76AFB01264F
:10443000340068460670002C07D0AF420BD11DA196
:10444000380001F044FC3F1805E000BF1DA1380012
:1044500001F03DFC3F180D2038707F1C0A20387099
:104460007F1C962040002C182800381A2080FEF768
:104470001DFC23882A0010491048FEF7B3FDFEF703
:104480001BFC68460078012804D10420FFF74CFA91
:10449000FEF73DFC9622520029000948FEF778FC01
:1044A0001FB0F0BDED020000EE0200004F4B2C00EB
:1044B000B88D06004F4B00000C0F00100040064066
:1044C000FC1600104552524F5200000010B5040077
:1044D00010220021F130FEF798FB00208A214900CC
:1044E0006050F02201462000FEF78FFB10BD80B522
:1044F0000B0002001021180000F0C4FB01BDF0B554
:1045000085B005000E0014008A20400028580028BD
:1045100049D010210F1AA74200D927003A0092B2C1
:1045200031002818FF239B1CC018FEF756FB8A2079
:1045300040002858C0198A2149006850102841D3EA
:10454000BC423FD0002006E02918F1310A780B7CEC
:1045500053400B70401C1028F6DB2A002900F13173
:104560002800F13000F00FFCF619E41B1BE068187E
:10457000F1300278735C53400370491C1029F6DB5C
:1045800010222900F1316846FEF727FB2A00694610
:10459000684600F0F8FB102269462800F130FEF76B
:1045A0001CFB1036103C112C01D30021E6E7220041
:1045B00092B23100FF20801C2818FEF70EFB8A20E3
:1045C00040002C5005B0F0BDF1B588B00C001022B1
:1045D00000216846FEF719FB22006946684600F094
:1045E000D2FB802100206A4613780B4211D00300D1
:1045F00007E0D5182E7876006F78FF0937432F70C3
:104600005B1C0F2BF5DBD37B5B0087255D40D573EF
:104610000EE0030007E0D5182E7876006F78FF09CA
:1046200037432F705B1C0F2BF5DBD37B5B00D37301
:104630008A235B00E358102B0CD10100102956DAB5
:104640006318FF25AD1C5B191D78565C6E401E700B
:10465000491CF3E713780B4211D0030007E0D5188B
:104660002E7876006F78FF0937432F705B1C0F2B75
:10467000F5DBD37B5B0087255D40D5730EE003003F
:1046800007E0D5182E7876006F78FF0937432F7032
:104690005B1C0F2BF5DBD37B5B00D3738A235B00A2
:1046A000E358E318FF25AD1C595502E003006118DB
:1046B0004B558A2149006158491C8A235B00E1500F
:1046C0001029F3D3010008E06318FF25AD1C5B1926
:1046D0001D78565C6E401E70491C1029F4DB06E004
:1046E0002118F1310A780B7C53400B70401C1028C4
:1046F000F6DB10222100F13104A8FEF76EFA220049
:10470000089904A800F03FFB102200216846FEF73C
:104710007CFA09B0F0BD00000A7802704A78427055
:104720008A788270CA78C2700A7902714A794271B5
:104730008A798271CA79C2710A7A02724A7A42729D
:104740008A7A8272CA7AC2720A7B02734A7B427385
:104750008A7B8273C97BC173704703E00B78037057
:10476000491C401C13005A1EDBB2002BF6D17047C7
:1047700002780B785340037042784B785340437073
:1047800082788B7853408370C278CB785340C37063
:1047900002790B795340037142794B79534043714D
:1047A00082798B7953408371C279CB795340C3713D
:1047B000027A0B7A53400372427A4B7A5340437227
:1047C000827A8B7A53408372C27ACB7A5340C37217
:1047D000027B0B7B53400373427B4B7B5340437301
:1047E000827B8B7B53408373C27BC97B5140C173F7
:1047F000704710B40B7814785C4004704B78547890
:104800005C4044708B7894785C408470CB78D4782A
:104810005C40C4700B7914795C4004714B79547915
:104820005C4044718B7994795C408471CB79D47904
:104830005C40C4710B7A147A5C4004724B7A547AEF
:104840005C4044728B7A947A5C408472CB7AD47ADE
:104850005C40C4720B7B147B5C4004734B7B547BC9
:104860005C4044738B7B947B5C408473C97BD27BBC
:104870004A40C27310BC704780B5FFF779FF01BD95
:104880007F4902788A5C027002798A5C0271027A3E
:104890008A5C0272027B8A5C027342784379CB5C49
:1048A0004370437ACB5C4371437BCB5C43728A5C3D
:1048B00042738278837ACB5C83708A5C827282795D
:1048C000837BCB5C83718A5C8273C27BC37ACB5C53
:1048D000C373C379CB5CC372C378CB5CC371895C8F
:1048E000C17070477FB5040021006846FFF714FFD0
:1048F000634800BF63A100BFA2A26B461D78565D4E
:104900005D794D5D75409E7A865D6E40DD7B455DCF
:10491000754025701D78465D5D79555D75409E7AC0
:104920008E5D6E40DD7B455D754065701D78465D32
:104930005D79455D75409E7A965D6E40DD7B4D5D8F
:104940007540A5701D784E5D5D79455D75409E7A18
:10495000865D6E40DD7B555D7540E5701D79565D69
:104960005D7A4D5D75409E7B865D6E40DD78455D70
:10497000754025711D79465D5D7A555D75409E7B5C
:104980008E5D6E40DD78455D754065711D79465DD3
:104990005D7A455D75409E7B965D6E40DD784D5D30
:1049A0007540A5711D794E5D5D7A455D75409E7BB4
:1049B000865D6E40DD78555D7540E5711D7A565D0A
:1049C0005D7B4D5D75409E78865D6E40DD79455D11
:1049D000754025721D7A465D5D7B555D75409E78FC
:1049E0008E5D6E40DD79455D754065721D7A465D70
:1049F0005D7B455D75409E78965D6E40DD794D5DD1
:104A00007540A5721D7A4E5D5D7B455D75409E7853
:104A1000865D6E40DD79555D7540E5721D7B565DA6
:104A20005D784D5D75409E79865D6E40DD7A455DB1
:104A3000754025731D7B465D5D78555D75409E799B
:104A40008E5D6E40DD7A455D754065731D7B465D0C
:104A50005D78455D75409E79965D6E40DD7A4D5D71
:104A60007540A5731D7B495D5D78455D4D40997925
:104A7000405C6840D97A515C4140E1737FBD0000E1
:104A8000D84D0000A584998D0DBDB1545003A97D6A
:104A90001962E69A459D408715EBC90BEC67FDEA64
:104AA000BFF7965BC21CAE6A5A41024F5CF43408F1
:104AB0009373533F0C52655E28A10FB509369B3D99
:104AC0002669CD9F1B9E742E2DB2EEFBF64D61CE56
:104AD0007B3E7197F568002C601FC8EDBE46D94B30
:104AE000DED4E84A6B2AE516C5D75594CF10068167
:104AF000F044BAE3F3FEC08AADBC4804DFC175637D
:104B0000301A0E6D4C14352FE1A2CC3957F2824782
:104B1000ACE72B95A098D17F667EAB83CA29D33CA6
:104B200079E21D763B564E1EDB0A6CE45D6EEFA605
:104B3000A8A4378B324359B78C64D2E0B4FA072566
:104B4000AF8EE918D5886F7224F1C751237C9C2160
:104B5000DDDC86859042C4AAD8050112A35FF9D096
:104B6000915827B93813B333BB7089A7B622922066
:104B700049FF787A8FF88017DA31C6B8C3B0771159
:104B8000CBFCD63AC6F8EEF6FFD6DE916002CE56E2
:104B9000E7B54DEC8F1F89FAEFB28EFB41B35F454D
:104BA0002353E49B75E13D4C6C7EF5836851D1F94C
:104BB000E2AB622A0895469D30370A2F0E241BDF90
:104BC000CD4E7FEA121D583436DCB45BA476B77D37
:104BD00052DD5E13A6B900C140E379B6D48D677289
:104BE0009498B085BBC54FED869A66118AE904FE9C
:104BF000A078254BA25D80053F2170F16377AF421D
:104C000020E5FDBF811826C3BE35882E9355FC7A5A
:104C1000C8BA32E6C0199EA344543B0B8CC76B281C
:104C2000A7BC16ADDB647414920C48B89FBD43C496
:104C30003931D3F2D58B6EDA01B19C49D8ACF3CFC0
:104C4000CAF447106FF04A5C38577397CBA1E83E1F
:104C500096610D0FE07C71CC9006F71CC26AAE69BC
:104C600017993A27D9EB2B22D2A907332D3C15C926
:104C700087AA50A50359091A65D784D082295A1EDC
:104C80007BA86D2CF6B585B069460C7D21001029F6
:104C900003D0182901D0202911D1224601000698FD
:104CA000FFF75BFD6846007D1C308000C0B20390BA
:104CB0000011401E0699F0310870012532E00020F5
:104CC0001146F0310870FF205BE0029819280DDBD7
:104CD00010290BD140A0865D69466A465278825CF5
:104CE0004A706A461278825C0A70C75D2000694685
:104CF000097D411AC9B20698401801784E400199C1
:104D00000E700199491C42786B465B7853400B70DA
:104D100082786B461B7853404B70C07847408F7049
:104D2000241DE4B2039884422ADA069800190190FF
:104D3000001F0678694642784A7082780A70C77800
:104D40006846007D02902000029900F046FA002992
:104D5000BBD1310020A06A465278825C2E005640BA
:104D60006A466B461B78C35C5370C35D1370475C27
:104D700028004000ED091B214D434540EDB2B5E749
:104D8000002007B0F0BDF0B585B00F001400F02191
:104D9000615C00291DD001006846FFF72AFD01254E
:104DA00006E0FFF79FFD31006846FFF765FD6D1CCB
:104DB000EDB228012618F020205C85426846F0D329
:104DC000FFF75EFD320069463800FFF712FD002054
:104DD00000E0FF2005B0F0BD637C777BF26B6FC510
:104DE0003001672BFED7AB76CA82C97DFA5947F0EE
:104DF000ADD4A2AF9CA472C0B7FD9326363FF7CCCA
:104E000034A5E5F171D8311504C723C31896059A66
:104E1000071280E2EB27B27509832C1A1B6E5AA089
:104E2000523BD6B329E32F8453D100ED20FCB15B74
:104E30006ACBBE394A4C58CFD0EFAAFB434D3385DD
:104E400045F9027F503C9FA851A3408F929D38F5B1
:104E5000BCB6DA2110FFF3D2CD0C13EC5F974417E8
:104E6000C4A77E3D645D197360814FDC222A90885F
:104E700046EEB814DE5E0BDBE0323A0A4906245CEB
:104E8000C2D3AC629195E479E7C8376D8DD54EA950
:104E90006C56F4EA657AAE08BA78252E1CA6B4C61C
:104EA000E8DD741F4BBD8B8A703EB5664803F60E75
:104EB000613557B986C11D9EE1F8981169D98E9464
:104EC0009B1E87E9CE5528DF8CA1890DBFE642687D
:104ED00041992D0FB054BB1630B4020000231800C6
:104EE00008E001249C4025001540A54200D1401C4B
:104EF0005B1CDBB28B42F4DBC0B230BC70475A495A
:104F0000884201D2642070475849884202D2FA2070
:104F10008000704756487047884203DB824201DBBD
:104F20000120704700207047F8B5040016000020EB
:104F3000002C0FD00D000AE0070010216800205A55
:104F4000FFF7CAFF010038004018C0B26D1CEDB277
:104F5000B542F1D3F2BD002800D1704730B400292A
:104F600008D0002304E05C000D5B05535B1CDBB242
:104F70009342F8DB30BC704700288A6000D14A6059
:104F80007047FFB581B00024E44300273E0003E0F2
:104F90003C00EF60761CF6B26846007C864248DA38
:104FA0000398310145186846007900286846007A60
:104FB00026D1002804D0A868FCF7D8FF009000E0B4
:104FC00000976868FCF7D2FF0099814203D26868B5
:104FD000FCF7CCFF08E06846007A002803D0A868F8
:104FE000FCF7C4FF00E03800E968884200D3EF60B6
:104FF000E9680029CED0081AA042CBD20400C9E744
:105000000028C5D0A868FCF7B1FFE968884200D342
:10501000EF60E8680028BDD0A868FCF7A7FFE96842
:10502000081AA042B6D2A868FCF7A0FFE9680C1ADB
:10503000B0E7200005B0F0BD70B50E000121814041
:10504000080000F0DBFE04000D00300000F0E0FE80
:1050500002000B002000290000F0EAFE0022304B85
:1050600000F047FF70BD000080EE3600803F5C021C
:1050700010270000FBB514001D006000083800F088
:10508000BDFE6A460CCA00F034FF06000F0068003F
:1050900000F0BEFE32003B0000F0EDFF6A460CCA95
:1050A00000F0C6FE06000F0001F0C0F801F0FCF8A9
:1050B000844206D23000390001F0B8F801F0F4F86B
:1050C00000E02000099E306068460CC800201549A9
:1050D00000F00FFF04000D00306800F099FE6A46F2
:1050E0000CCA00F006FF00220F4B00F002FF020086
:1050F0000B002000290001F021F804000D000898A1
:1051000000F086FE02000B002000290001F016F8D6
:1051100001F08CF801F0B6F80A990860F7BD0000BC
:1051200000408F40000010400000E03F38B50C0008
:105130001500400001F0D0F80100200001F00EF948
:10514000290001F00BF901F061F901F079F901F0A2
:1051500099F840B232BDF8B504002068E17A4A00FF
:10516000511889004018407A07016068C019058805
:105170000026C660607A00280FD1E068FFF7BFFE06
:10518000A84200D30500A07A002809D1207A00287F
:1051900006D16068C019C660F1BDA07A0028F8D0B9
:1051A00020694543281A6168C919C860F1BDF446F1
:1051B000002804D4494200F013F8404260474042BE
:1051C000002905D45FD000F00BF840424942604707
:1051D000494200F005F84942604703460B43E6D4D4
:1051E0000022030A8B420BD203098B4219D24308D7
:1051F0008B422ED2411A00D20146524110467047CE
:10520000FF2209023FD012068B4205D31212090277
:105210008B4201D31212090203098B4219D300E019
:10522000090AC3098B4201D3CB01C01A5241830939
:105230008B4201D38B01C01A524143098B4201D3E7
:105240004B01C01A524103098B4201D30B01C01A12
:105250005241C3088B4201D3CB00C01A524183088C
:105260008B4201D38B00C01A524143088B4201D3B9
:105270004B00C01A5241884200D3401A5241CFD24B
:1052800001461046704708B501F006F908BD000058
:1052900080B5294A904701BD00B58BB032220092FB
:1052A0000190029105A96846FFF7F2FF0598C0B288
:1052B0000BB000BD00B58BB0332300930190029179
:1052C00003921E480068FA218900FFF789FF0490C5
:1052D00005A96846FFF7DCFF0598C0B20BB000BD1A
:1052E00010B58AB004003A200590694605A8FFF77A
:1052F000CFFF002005E081006A46521852686250D4
:10530000401C0428F7D300980AB010BD00B58BB03C
:105310003B2200920190029108480068FA2189001E
:10532000FFF75EFF039005A96846FFF7B1FF0598F8
:10533000C0B20BB000BD0000F11FFF1F1817001016
:105340000121C006C00E81404A48016070474A49A9
:10535000012282400868494B034013430B607047A9
:1053600045490A68012383404548184382430A603F
:1053700070474449086070474349012282400868E9
:10538000C001C00910430860704701683F4A0A40E5
:10539000012111430160704741683D4A0A40426063
:1053A0007047C1607047016170470368394A1A400D
:1053B0001143016070478160704770B5FDF776FC5E
:1053C0000720FFF7C4FF0120FFF7D3FF0020FFF7FE
:1053D000D3FF0021084601F061F80421012001F00B
:1053E0005DF80720FFF7BCFF2B4D2800FDF79FFD60
:1053F00004212800FFF7D9FF0121E120400300F03C
:10540000D1F9E12149022800FDF7BAFD234CAE0D88
:1054100033000122210028312000143000F046FA28
:1054200033000122942040002118200000F03EFAB1
:105430000D212800FFF7BFFF01212800FFF7B1FF72
:1054400004212800FFF7AFFF2800FFF79EFF280088
:10545000FFF7A2FF0320FFF773FFFDF72DFC70BDE0
:1054600080B50E490A0014310B48FDF7DFFD01BD80
:105470000000000000E100E080800440FFFFEF2515
:10548000000010DA94800440C0C100407DDAFC00C6
:105490000603010001DAFC00004006400C0F00107A
:1054A00053490A68012383405248184382430A60E3
:1054B00070474F490122824008684F4B0340134315
:1054C0000B60704710B50400FFF7EAFF2000FFF7FC
:1054D000F0FF10BD4949012282400868484B034053
:1054E00013430B60704745490A68012383404548D0
:1054F000184382430A607047012393408900401893
:1055000088218901435070470268FF23BE3313404E
:105510000B43036070470268FF23BE338B43134085
:105520000360704780B53849884206D10C20FFF7E8
:10553000D1FF0120FFF7C6FF01BD0B20FFF7CAFF17
:105540000020FFF7BFFF01BD80B50121FFF7DCFFA1
:1055500001BD38B504000D003C21FFF7DCFF290038
:105560002000FFF7D1FFF0200003206231BD10B50D
:1055700082B0FDF79BFB0720FFF7ACFFA0242406B9
:10558000172200212000FFF7B7FF0E21612000F055
:1055900085FF0E2200212000FFF7AEFF19215220C7
:1055A00000F07CFF0721602000F078FF06215320E7
:1055B00000F074FF0720FFF796FF134C2000FFF761
:1055C000B1FF04212000FFF7C4FF1049200000F0C4
:1055D00083FF002069460860200000F095FF20004E
:1055E000FFF7B2FF0C20FFF775FFFDF765FB13BD5A
:1055F000048004400020FEFFFFDF010080800440A3
:10560000FFFFEF25000010DA00C0054040420F0008
:1056100079490A68012383407848184382430A6025
:1056200070477549012282400868754B0340134357
:105630000B60704710B50400FFF7EAFF2000FFF78A
:10564000F0FF10BD6F49086070476E480068C0B237
:1056500070476D49086070476B480068C0B270477A
:105660006A490860704769480068C0B27047684876
:1056700000687047674870476748006870470000D7
:1056800000B501006AA00A0052091207120F920029
:105690008058C906C90E491C4900FFF7A1FD00BD8D
:1056A00002000800D106C90E491C484370475B49F7
:1056B0000860002048600120486070475849086031
:1056C0000020486001204860704780B55548006858
:1056D000C005C00DFFF7D4FF02BD80B54F4800687C
:1056E0008007800F04D0012805D0032806D008E0E9
:1056F000FFF7C0FF02BDFFF7BAFF02BDFFF7BCFF17
:1057000002BD002002BD80B5FFF7E7FF010046485B
:1057100000684006400EFFF7C3FF02BD80B50020C1
:105720003F4909688907890F05D0022909D005D3A7
:10573000032909D002BDFFF79DFF02BDFFF7CDFF92
:1057400002BDFFF7C2FF02BDFFF7DDFF02BD80B55E
:10575000FFF7E4FF35490968C9B2FFF741FD02BD13
:1057600038B5FFF772FF040001D1002418E0FFF7FD
:10577000D5FF2100FFF734FD04000025FFF76CFF83
:10578000FF280DD1FFF76FFF802149004218002349
:10579000200E054324022000290000F0CCFE040066
:1057A000200032BDF8B507000C00FFF7B7FF050079
:1057B0003900FFF715FD060000D101263000C0B208
:1057C000FFF740FF002C11D00220FFF733FFFF202E
:1057D000FFF73FFF28003100FFF702FD000239000C
:1057E000FFF7FEFCC0B2FFF73BFF02E00020FFF72F
:1057F00030FFFFF7B5FFF2BD048004400020FEFF3C
:10580000FFDF010094800440F0800440F4800440F5
:1058100024700000001BB700287000004080044086
:105820007080044024800440088004407880044054
:1058300000000000C027090090051000C05C1500A2
:10584000F0B31A00200B2000009F2400E032290052
:10585000C0C62D0050973100E06735007038390020
:1058600000093D004016400080234300C030460040
:10587000C1680069081A704710B50400FFF7F8FF07
:105880006168081A10BD10B50400FFF7F1FF6168E8
:10589000884201DB012010BD002010BDC1680069F5
:1058A000814201D1012070470020704701604360B0
:1058B000826000210161C1600120704770B5040061
:1058C0000E002568FFF7DFFF002801D0002070BD23
:1058D000A2683100E06863685B1E03405343E81828
:1058E000FCF752FDE068401CE060012070BDF2B59D
:1058F00082B004001500206801902000FFF7C3FF6C
:10590000002801D00020FEBD2000FFF7B5FF0100F8
:105910006268531EE6681F003740009733401B182B
:10592000934201D30098101A091AA84200DD2800FA
:105930000600AD1BA94200DD29000D00A068320061
:1059400042430299019B009F4743D819FCF71CFD75
:10595000E0688319E360A0682A004243029F310097
:10596000414379188C46216867687F1E1F40474372
:10597000C8196146FCF708FDE0684019E06070193D
:10598000FEBD70B504000E002568FFF787FF0028F4
:1059900001D0002070BDA26820696168491E0140E5
:1059A000514369183000FCF7EFFC2069401C20616E
:1059B000012070BDFEB504000D00160020680290A5
:1059C0002000FFF76BFF002801D00020FEBD200063
:1059D000FFF74EFF019061684A1E236917001F40C0
:1059E00000971A4012188A4201D30098081A0199A8
:1059F000091AB04200DD30000700F61BB14200DD9D
:105A000031000E00A0683A0042430299009B4343D4
:105A1000C9182800FCF7B8FC2069C1192161A068E9
:105A2000320042439446226863685B1E0B40434346
:105A3000D118624678432818FCF7A6FC2069801923
:105A40002061B819FEBD000001680800C007C00F42
:105A500070470129016803D101220A43026070479F
:105A6000012291430160704780B5FFF7EDFF0028E8
:105A700001D1024802BD024802BD0000B0710B0016
:105A800010270000482101401148084311490860CF
:105A9000704711490140DA20C00108430F490860EE
:105AA00070470D490E4A13680B4001401943DA2034
:105AB000C0010843106070470749094A13680B404A
:105AC00001408B43DA20C00118431060704700008A
:105AD000B7FF000030820440FF80000034820440A1
:105AE0003882044014490A68122313400B600021D5
:105AF000016030BF704710490A6816231340042222
:105B00001A430A600121016030BF70470A490A68E0
:105B10001623134004221A430A600221016030BF99
:105B2000704705490A681623134004221A430A6085
:105B30000321016030BF704710ED00E080B50129FE
:105B400002D1FFF7D8FF01BD022902D1FFF7DEFF26
:105B500001BD032902D1FFF7E4FF01BDFFF7C2FF3A
