:10000000C01500107D6800005B390000633F0000F0
:100010000000000000000000000000000509FFEFE4
:10002000000000000000000000000000A73F0000EA
:1000300000000000000000001B4200004D260000F0
:10004000A3680000A368000000000000713A0000EF
:10005000A3680000A368000000000000A36800007F
:10006000A3680000A3680000A3680000A368000064
:10007000A3680000A3680000A3680000A368000054
:10008000A3680000A3680000A3680000A368000044
:10009000A3680000A3680000A3680000000000003F
:1000A0006D5D00007D5D0000A3680000A368000096
:1000B000A3680000A3680000A3680000A368000014
:1000C00000B507490868074A5043074A8018086086
:1000D000064900F067F8080000BD01490860704754
:1000E000480400106D4EC64139300000FFFFFF7F0D
:1000F00038B504000D00FFF7E3FF291B491C00F091
:100100004EF8081932BD03E00B780370491C401CFF
:1001100013005A1E9BB2002BF6D170478018401E68
:1001200003E00B780370491C401E13005A1E9BB25B
:10013000002BF6D1704701E00170401C13005A1EDD
:100140009BB2002BF8D1704730B401210022036824
:10015000001D002B0BD00468001D0C4202D04D4640
:100160006D1E64192260241D1B1FF0D0FAE730BCFD
:100170007047F446002804D4494200F013F8404286
:1001800060474042002905D45FD000F00BF84042A0
:1001900049426047494200F005F84942604703463A
:1001A0000B43E6D40022030A8B420BD203098B4295
:1001B00019D243088B422ED2411A00D20146524135
:1001C00010467047FF2209023FD012068B4205D32A
:1001D000121209028B4201D31212090203098B4247
:1001E00019D300E0090AC3098B4201D3CB01C01A1D
:1001F000524183098B4201D38B01C01A52414309FA
:100200008B4201D34B01C01A524103098B4201D3E7
:100210000B01C01A5241C3088B4201D3CB00C01A54
:10022000524183088B4201D38B00C01A52414308CC
:100230008B4201D34B00C01A5241884200D3401A6E
:100240005241CFD201461046704708B503F0AAFECE
:1002500008BD10B40F220B7813404C7814402401D1
:100260001C438B7813401B022343C978002904D018
:100270001C00491E0A4013032343436010BC70470F
:10028000124207D08B0706D00B78491C0370401C24
:10029000521EF7D87047830706D00B78491C0370AD
:1002A000401C521EF9D1704770B4103A03D378C97C
:1002B000103A78C0FBD2530701D318C918C001D532
:1002C00008C908C0D20704D30B880380891C801C8E
:1002D000002A01D50B78037070BC7047012070476D
:0802E000001BB7000000000044
:0402FC00FFFFFFFF02
:1003000070B584B001F00EFF0600444C607B0228FB
:1003100003D04348C06A804701E000F06FFF207CB3
:1003200000282CD09C2040002518616E280001F088
:10033000EBFE280001F0FCFD607B022809D0A6201E
:1003400040002518A16E280001F0DEFE280001F013
:10035000EFFD607B022802D0E07C002821D0122033
:1003600069460870207B01F003FF2E4DA16E09182D
:10037000280001F0C9FE280001F0DAFD11E000209C
:1003800029494870042060702020205C002802D198
:100390000120202160542020205C202101432020C6
:1003A0002154204D2020205C000705D52078411ED7
:1003B0008941C90FA97501E00020A875A07EE076EB
:1003C00001A90870607C48700296207B01F0DBFE7A
:1003D0002665E07C002805D1002013494870207E66
:1003E000401C20767FBD10B50C4CE06D40210143D0
:1003F000E165E07C002801D000F0F4FC2020205CC6
:100400002221014320202154F03024180121200012
:1004100001F07AFE200001F08BFD10BD00000010FD
:10042000386700000C11001044110010FBB592B0A9
:100430000020059007460646764D280070300A9049
:100440002800803001900E9030466946087388730A
:1004500071490871714CE28114A800782074E87F1A
:100460006074304660806071A060A081A07460619B
:1004700020706B48C06A8047A6204000281801F011
:10048000EDFD1298007869460870684600784009CA
:10049000C8736846C07B012806D0032800D195E0C8
:1004A000052800D192E033E2687C002800D0ACE05F
:1004B0005C4E33005B1C6A6B13A80088411E89B236
:1004C0001298401C01F0BEFF68460078307005AB02
:1004D0006A6B13A80088011F89B2300001F08BFFFE
:1004E000AA8C05988018059013A800883018001F62
:1004F000017843781B020B43817809041943C078C3
:10050000000608430599884200D005E20198009052
:100510002B0070333100491C686B01F0B5FF307956
:10052000717909020143B07900040843A863F079A6
:10053000317A09020143707A00040843B17A09064E
:100540000143E963F27AD448110009094907490FC8
:1005500041740F210B0013400376327B1140016080
:1005600001D101210160FA21890002684A43026039
:10057000511841600D360F9613A8008811380FA945
:100580000871287B01F01AFE3846687001206874F3
:10059000287F00906B7F20480279697BE87C00F01F
:1005A0000BFCBE48007A00280ED12020285C2021B8
:1005B000014320202954F0302C180121200001F0A3
:1005C000A3FD200001F0B4FC15B0F0BD687C00284C
:1005D00000D1A1E1B048407F06A988702079487019
:1005E000092069460876E87B002801D00A200876B1
:1005F00006A9287B01F0BCFD13A909880D3909B2B1
:10060000002900D5314688420ED201206070FFF7E4
:10061000EAFED9E70000001044110010601100103C
:1006200038670000280E0010129841788078000288
:1006300008431299C9780904014312980079000609
:1006400008430790E96B88421AD02E6C00E0B66A26
:10065000002E0CD031688842F9D101206946087318
:100660003000001D0A90300014300E90776A684602
:10067000007B002805D10B206070FFF7B4FEA3E7D4
:10068000AF6C129840790BA908700F210BA8007865
:1006900001406846417308460830C0B20490129881
:1006A00013A909884018001F0278417809021143F4
:1006B000827812040A43C078000610430D90129805
:1006C00080791299C979090201433800081A80B269
:1006D000099013A80088001F6946088409988021A2
:1006E0000902884214DA3F1805A8029001970120F8
:1006F0000090079B0A9A6846018C129801F0CCFD85
:100700000D98059988421DD101206946887319E02A
:1007100000B23818490040180C9005A802900C98B7
:10072000019001200090079B0A9A6846018C12985C
:1007300001F0B2FD0D980599884203D10120694668
:1007400088730C9F11206946087606A9287B01F062
:100750000FFD0999814205D30A2060706761FFF798
:1007600042FE31E76846807B002800D1CBE00020C4
:1007700060706846007BA0700BA800780100C90675
:10078000C90F61710020A06020736761AB49487098
:10079000E864E8756846007B012808D102202070D3
:1007A000706AB84201D1002831D1776212E0684600
:1007B000C07B052823D1012028752070A86CB84281
:1007C00007D1002805D02020285C042101432020E7
:1007D0002954AF649948007801281ED10BA80078ED
:1007E0004009C1071BD50021A9750100C907C90F20
:1007F000924A11710100C907C90FA1740FE00020CE
:1008000028752070A86CB842E3D10028E1D00820F8
:1008100060706761FFF7E7FDD6E60020A87513A8B2
:100820000088001F0499401A012859DB1298405C87
:10083000491CC9B2049113A90988091F049A891A8D
:100840006A461173E07000286846407B28D1002872
:1008500016D17B4E0296019701200090079B0A9AC1
:100860006846017B1298049C001901F0B9FD14A898
:1008700003786846027B0021300000F0AEFB3BE0CD
:100880002020285C042101432020295400206B49AA
:100890000871A07430E000BFAC1000100C11001003
:1008A000002808D014A803780498421ED2B2082168
:1008B000129800F092FB624E029601970120009080
:1008C000079B0E9A6846017B1298049FC01901F09D
:1008D00087FDA6606846007B2073012060730BE0F3
:1008E0006846407B002807D014A803780A46D2B295
:1008F0000821129800F071FB2020285C022101439E
:100900002020295444E60C206070FFF76CFD5BE664
:10091000687C002800D0AEE60720687038E610B585
:10092000484C607B022803D04748C06A804701E0FA
:1009300000F064FC02200100404A517060702020E9
:10094000205C202101432034217010BD10B53D4CA6
:10095000607B022802D03C48C06A8047E07CE17F8F
:1009600000291AD10521002801D034484170617056
:10097000607B022820D0206D01F0D7FBA16E884259
:100980001AD3A6204000201801F068FB2020205C2C
:1009900020210143202021540EE00621002801D00F
:1009A000264841706170607B022805D02020205CC1
:1009B0002021014320202154607B022801D100F036
:1009C0001DFC10BD10B51F4C607B022802D01E48D4
:1009D000C06A8047E07CE17F00291AD1032100280A
:1009E00001D0164841706170607B022820D0206DD4
:1009F00001F09BFBA16E88421AD3A620400020186C
:100A000001F02CFB2020205C2021014320202154D8
:100A10000EE00421002801D0084841706170607B1D
:100A2000022805D02020205C2021014320202154D1
:100A3000607B022801D100F0E1FB10BD44110010E1
:100A4000280E00100000001038670000F0B585B0D7
:100A50000024200069460872BF4D882040002818F5
:100A6000009001F0FBFA2020285C012701004909D1
:100A70003A00114200D1CFE0E96D4A0602D5412289
:100A80009143E96509210140B44E13D07278022ADE
:100A900002D06A78022A0DD1EA6D3B469A43EA6594
:100AA0002200AA756A7F727122003271B4603A0026
:100AB0006B461A72EA7C6B461B7A134335D10029C8
:100AC00033D00100C9083A00114209D02978002921
:100AD00006D1687800281DD16C642000287619E0C2
:100AE00002005208390011402A7EB24BDB7F9A4245
:100AF00001D2002913D0002904D12000A875E86C88
:100B0000401CE86420002876307D002802D1686C03
:100B1000401C6864E86D39468843E86505E0DF21DC
:100B200001402020295400F0E1F82020285C4008F2
:100B30003900084215D03079002803D1287F697F19
:100B400088420ED22000A877E874307D002802D1B8
:100B5000686C401C6864687F7071E86D3946884332
:100B6000E865A87F002857D05C20285CC00653D4D5
:100B70002000A877687F297F884239D2092837DA90
:100B8000401C6877C00710D503A81E210170C0491A
:100B90002C228A5C8270491C01910978417003A95A
:100BA000287B01F0E5FA01990870384600F038FA20
:100BB000002806D12020285CDF2101402020295474
:100BC0002AE0092070702000A875E86D3946884336
:100BD000E8652000E8743471687F7071AC48407833
:100BE000B070307D002817D1686C401C686413E039
:100BF0003946287B01F0CFFAE86D39468843E8652D
:100C00002000A875E8743471687F7071307D002809
:100C100002D1686C401C6864E86D810702D502212E
:100C20008843E865E86D002828D12020285C390039
:100C3000084207D0FE210140202029544748296E50
:100C4000096888472020285C0100C9083A00114241
:100C500007D0F7210140202029542800296E8968F7
:100C6000884700F001F9002801D000F005F92020A4
:100C7000285CDF2101402020295407E0FA21890067
:100C8000009801F041FA009801F052F92020285C08
:100C9000010049083A00114218D0FD2101402020EE
:100CA0002954687B022801D100F0A8FA2020285C92
:100CB00080083900084203D1AC48296E496888474A
:100CC0002020285CFB210140202029542020285C82
:100CD00001000909394207D0EF21014020202954A1
:100CE000A348296EC968884705B0F0BD10B51A4CF5
:100CF00092204000201801F0B1F9E06D10218843E6
:100D0000E065012000F08CF910BD70B5124D9C20FB
:100D10004000281801F0A2F90020E877954CA97E40
:100D200021705B490E000C36727DE2702D3109781E
:100D30002174E97B61746082687B022802D1B34828
:100D4000006B8047B24A2100287B01F060FA3168CD
:100D5000A07C00F05FF870BD00000010441100108E
:100D6000F8B5854DA6204000281801F077F9A94C68
:100D7000A87E2070464807000C37B96961602D30A5
:100D800000782074E87B60740126E674687B022892
:100D900002D00020A07400E0A6749D4A2100287BA8
:100DA00001F035FA002804D03968A07C00F032F850
:100DB000EE77F1BD9D10001080B5002805D1022905
:100DC0000FD1954801F04AF901BD002A03D092489D
:100DD00001F044F901BD0298984202D28E4801F018
:100DE0003DF901BD80B58C4801F038F96248C17CFD
:100DF000002905D001218177C16D04229143C1658D
:100E0000417B022905D12021415C20220A43203068
:100E1000027001BD80B57D4A526B002802D10800E6
:100E2000904701BD0020904701BD38B50400150072
:100E300068467A4A127882704170092101704E4AE0
:100E4000D17B002901D00A2101706946107B01F095
:100E50008FF9611980B289B2884203D3FF2901DC7E
:100E6000012032BD002032BD4348C07D002801D0A2
:100E700001207047002070470420BA4908763E4898
:100E80002021415C10220A4320300270704700008C
:100E90009C100010F4B5020001242300364D802080
:100EA000EE7D871BFFB21000801E08285BD801A6CC
:100EB000365CB7447E467E081A46647E9200A87D62
:100EC0007F1EB84243DB002B00D16C751800F2BDC9
:100ED000A87D0600BF1EBE42F5DAC44B06229A5515
:100EE000401CA875C0B21954401CA8756946097801
:100EF000C0B21954401CA8750023E4E7A87D060081
:100F00007F1EBE42DFDAB94B9A55401CA875C0B2AD
:100F10001954401CA8750023D5E7A87D0600BE42E1
:100F2000D1DA0821B14A9155401CA875FFF7A4FFFA
:100F30000023C8E7A87D0600BE42C4DAAB498A5543
:100F4000401CA8750023BEE7A87DB842BBDAA74BBA
:100F50001A54401CA875C0B21954401CA875FFF75C
:100F60008BFF0023AFE70220F2BD000060110010EC
:100F70005C110010781100100000001070B4030024
:100F800000242000002B26D0002A02D123E0641C7C
:100F9000641CE4B28C421DD21D5D2E00032EF6D0DF
:100FA000052E07D0062E13D0072EF0D0082E0BD01A
:100FB0000A2EEDD1C0B21554641C401CE4B21D5D74
:100FC000C0B21554401CE3E7C0B21554401CDFE723
:100FD000A41CDDE7C0B270BC704770477CB58B4C79
:100FE000A57CED016E463571009313000A0001A93E
:100FF00000F01AF9002807D15A4800218180616C5D
:10100000C160002000F00CF876BD000038670000D9
:10101000641100108C1100100C110010C810001089
:10102000F0B587B0050000200190784C617EFF2963
:1010300001D1092078E0002900D16065E07E00F050
:1010400075F8606D039003A8714949780172714980
:10105000497D8172617C4172206D04902000543082
:10106000009001AB22001A3203A9207B01F0F7F8AF
:10107000002816D00B2857D1002D55D001980028F4
:101080000DD0E06D10210143E1659220400024184D
:101090000199200001F038F8200000F049FF0020FD
:1010A00042E05D4802905D4D6B7F5BB25848012184
:1010B000425602984179207B01F0DEF80100584F3A
:1010C00000972B682A7949B2207B01F095F8554E9C
:1010D00000962B682A790298017849B2207B01F0AA
:1010E0008BF8607C002808D16869F9684018606650
:1010F000A869F1684018A06613E0A27D4448012168
:1011000041564448007DFFF790FE002801D1082099
:101110000AE0E868F968401860662869F1684018D4
:10112000A066A07E00F0D5F907B0F0BD70B584B020
:10113000364C6D46617C2970364E717DA970E87021
:10114000A06D00F0F2FF0190E06E0290B07D68703B
:101150006946207B01F07BF8E06E218D4143081A3F
:1011600060657FBD4411001038B50024274D200074
:1011700068746C64AC64EC64287601200100297703
:1011800069772100A9776976010029852100E98224
:1011900028741F4B3820185C18703920185C587060
:1011A0005920185C21215854D86D196E1A00243228
:1011B00003C26420185C2C2158546520185C2D2132
:1011C0005854986E1863D86E58630221287B00F03B
:1011D000E2FF2000E874A882286C01E04462806A83
:1011E0000028FBD12000688331BD00001C100010D6
:1011F000E12801DB002070470120704780B5FFF730
:10120000AFFD0220D349C87701BD000000000010E7
:101210009C1000100C110010C4100010A010001041
:10122000781100108C110010F2B588B000210391E4
:10123000049369460A71C74C0021E184E1740E9958
:10124000002B00D10021C44F397508260178E32214
:101250000A40310011430170C04D297000784009E7
:1012600007D0022849D0042845D0072800D11EE124
:101270002DE10120E0843246216B2800401CFEF75E
:101280004DFFE08C0830E0843246E16A80B22818D5
:10129000FEF744FFE08C0830E084FEF711FFA084E5
:1012A000E08CA18C0A002A54401CE084090A80B218
:1012B0002954401CE08403AB626BC1B2280001F0EA
:1012C0009AF8E08C03992954401CE0840399090A98
:1012D00080B22954401CE0840399090C80B229543F
:1012E000401CE0840399090E80B22954401CE0841C
:1012F000002009B0F0BD0120E074607C002801D11D
:101300000720F6E705A80121017008990978C909A5
:101310004A1E9241D243D20F4270E16C0691904A2C
:1013200051780172117841722C21515C8172200038
:101330004C3000901300521C05A9207B00F04FFF99
:1013400008990978BF220A40800110430899087063
:10135000217D002905D00021217520210143089815
:101360000170E06B01006970090AA9700100090CA5
:10137000E970000E2871089800786871606C0100AF
:10138000A971000AE871200090300090E27D0146CA
:101390007448A37DC018FEF7B6FEA07DE17D41181C
:1013A000A175049800281FD0387D00281CD0607DCE
:1013B000002825D0C9B210291CDA08980278F0203C
:1013C000104052181207120F0243089802706A71F7
:1013D00000200A0080B2904212D2624A125CF6B239
:1013E000AA55761C401CF4E7C9B2002908D0607DDC
:1013F000002805D039755B48049000206A461071BA
:1014000000206075009AC9B25648FFF7B7FDE07535
:10141000002801D0012060750498002826D0387D6E
:10142000002823D068460079F6B2A855761CF6B29B
:10143000A819E36B616C6A461279002A0CD100226C
:10144000A275029001911046009022007032397D01
:10145000049800F066FF09E00290019100200090DE
:1014600022008032397D049800F05BFFF6B2387DAF
:101470003118E18403A80290606C01900020009074
:10148000E36B2200703289B2280000F005FFE08C87
:101490002918039A0A70039A120A4A70039A120CC6
:1014A0008A70039A120ECA70001DE08420E7002B98
:1014B00000D11DE73A7D002A00D119E719006D1C03
:1014C0002800FEF720FE387D401CE08410E7022053
:1014D0000FE7F0B585B0070000206946087001A845
:1014E00007701F4E7178417031788170316B0291B5
:1014F000716B0391174CE18C818123006C336A4638
:1015000001A9207B00F08EFE01252800607097481D
:10151000290041707178817069460978C17007614E
:10152000E16E81606160882040002618FA21890000
:10153000300000F0E9FD300000F0FAFCE18CC9B2A7
:101540000648BC4A926A9047E06D0543E565002075
:1015500005B0F0BD000000100C110010280D0010A7
:101560009C1000101C1000100020704700207047D5
:10157000F2B582B005001600002D0BD028680028B7
:1015800008D06868002805D0A868002802D0E8685C
:10159000002801D10320FEBD300000F0E3FD00284B
:1015A00001D10A20FEBDA44C2566A44F02987863A1
:1015B0002673002001002022A1546173E065E173CD
:1015C000206560650B2069460870207B00F0D0FD27
:1015D000401E8041C043C00F7875082069460870DE
:1015E000207B00F0C5FD964D2E003836307005206A
:1015F00069460870207B00F0BBFD70700C206946C6
:101600000870207B00F0B4FDF0600D206946087082
:10161000207B00F0ADFD30610E2069460870207B14
:1016200000F0A6FD70610F2069460870207B00F075
:101630009FFDB061102069460870207B00F098FD86
:10164000F061132069460870207B00F091FD2900AD
:10165000583101914870142069460870207B00F0D1
:1016600087FD01994860152069460870207B00F0CD
:101670007FFD019908721A2069460870207B00F0EE
:1016800077FD019908731B2069460870207B00F0E4
:101690006FFD019948731C2069460870207B00F09B
:1016A00067FD019908611D2069460870207B00F0E4
:1016B0005FFD019948610021207B00F06CFD012055
:1016C000019908700A207060062131722D1D286072
:1016D00008462871F068A8603069E8607069286180
:1016E000B0696861F069A861019800782877FFF710
:1016F0003BFD882040002518AA49280000F010FC76
:10170000FA218900280000F0FFFCA7499220400040
:10171000201800F005FCA5499C204000201800F08E
:10172000FFFBA349A6204000201800F0F9FBA149C7
:10173000380000F0F5FB00F0F5FCA0659E48B861AC
:101740009E4838629E48B8629E48F8619E4878621A
:10175000384D18373800296888470120A073A96DD3
:101760008847E86A80470020FEBD00004411001051
:10177000F1B586B00F00324D3920285C69464871BA
:101780003820285C8871914C6846A17DE27D8918DB
:101790000171002F01D1032049E0002603A8310088
:1017A0000170A17C4170E16C049169780172297823
:1017B00041722C21695C817220004C30009001AB99
:1017C0009B1C01AA521C03A9207B00F008FD02A863
:1017D0002C35297881706946497941700921017059
:1017E000E17B002901D00A21017002A9207B00F0D1
:1017F000BFFC7870787869460979884204D36946D5
:101800000979401A387004E0387030006946087170
:10181000E082684602796946052009566846007EDE
:10182000FFF703FB002801D1082000E0304607B095
:10183000F0BD000038670000000000100C1100101F
:101840009C10001038B505000024002D01D10320A4
:1018500032BD28781E2800D9A0E002A1095C490009
:101860008F4400BF1014181C2024272A2E323B401E
:101870004F46585C6064686C70747C788084888C97
:10188000909498005148407B287188E04F48407CF4
:10189000287184E04D48807C287180E04B48806B43
:1018A00068607CE04948C06B686078E048486860E0
:1018B00075E04848686072E04448807B28716EE0BB
:1018C0004248C07B28716AE01920694608703F4889
:1018D000007B00F04DFC686061E03F4803C82D1DAF
:1018E00003C55CE03D4AD06D116E2D1D03C556E069
:1018F0001720694608703548007B00F039FC6860A5
:101900004DE01620694608703048007B00F030FC3E
:10191000686044E032480078287140E02F48C06891
:1019200068603CE02D480069686038E02B484069F9
:10193000686034E029488069686030E02748C06901
:1019400068602CE027480078287128E02348407818
:10195000287124E024480078287120E01F4800788E
:1019600028711CE01948406C686018E01748806CCA
:10197000686014E01548006C686010E01748406823
:1019800068600CE01548007A287108E01348406B45
:10199000686004E01148C06E686000E00224200026
:1019A00032BD00004D0A0000ED0C00000B0D0000E0
:1019B000610D0000E50D0000010300002D04000092
:1019C0004D0900001F090000C509000000000010BB
:1019D0007000001080000010C01000109C1000105B
:1019E000BC100010D5100010D4100010F0B585B058
:1019F000040000200700002C01D1032050E1012148
:101A0000A84DEA6D0A4001D0084649E122781E2A15
:101A100000D943E101A352009B5A9F443C00760049
:101A20007C00820088008E00A400BA00C6007E02FE
:101A3000CC0026016A015001820196019E01A60197
:101A4000AE01B601BE01E0012A0208024C025202B8
:101A50007E02580262026E027602217969730029C1
:101A600002D0022904D01AE18F48C06A804716E1EB
:101A7000E8748D48C06A80478C4E8D48009073682A
:101A8000327A2836317849B2287B00F0B5FBFFF76F
:101A9000B5FB04E12079687401E12079A874FEE0C7
:101AA0006068A863FBE06068E863F8E061680029AB
:101AB00005D0102270352800FEF725FBEFE0032744
:101AC000EDE06168002905D0102280352800FEF77E
:101AD0001AFBE4E00327E2E02079A8737249896DDC
:101AE0008847DCE02079E873D9E0207A69460871FC
:101AF0006E4E2D20305C01A948700622287B00F034
:101B000052FB00281CD0241D03CC3200243203C217
:101B1000687B022800D0C2E0687C002800D1BEE0CB
:101B20006148C06A8047624800907368327A2836FC
:101B3000317849B2287B00F05FFBFFF75FFBAEE036
:101B40000327ACE0207A69460871584E2D20305C9E
:101B500001A948700622287B00F025FB002804D04C
:101B6000241D03CC5C3603C699E0032797E0606828
:101B7000029002A8017102A9287B00F027FB00282F
:101B800000D08CE003278AE06168029102A9087105
:101B9000287B00F01BFB002800D080E003277EE0BC
:101BA0002079002804D0102802DA8349087076E0F2
:101BB000032774E060683D49C86070E060683B4995
:101BC00008616CE060683949486168E060683749DD
:101BD000886164E060683549C86160E020796946E1
:101BE0000871052201A9287B00F0DDFA002804D045
:101BF000684600797149087051E003274FE0207969
:101C000069460871294E2C20305C01A98870042295
:101C1000287B00F0C8FA002803D06846007970706D
:101C20003DE003273BE0207969460871082201A9BD
:101C3000287B00F0B8FA002804D068460079604993
:101C400008702CE003272AE02079694608710722F2
:101C500001A9287B00F0A7FA002804D06846007983
:101C6000124908701BE0032719E06068686416E0F9
:101C70006068A86413E060680C4EF06370600EE06A
:101C800020790A4E40217054307208E0606807499C
:101C9000486304E060680549C86600E00227380030
:101CA00005B0F0BD00000010386700009C10001067
:101CB0008C11001070B582B004000225002C22D0D7
:101CC000934EF06D002813D10C2200213000FEF756
:101CD00032FA012070702078002805D0022845D003
:101CE00035D303284ED05AE05C20305CC00601D5C5
:101CF000012076BD6068002805D0A068002802D0C9
:101D0000E068002801D1032076BDFFF72DFA2020DE
:101D1000305C082101432020315420783070606805
:101D2000F062A0683063E0687063217C49B2307B68
:101D300000F084FA7749487000206946087003462D
:101D4000024601466846FFF749F9050027E02020D2
:101D5000305C08210143202031542078307000226B
:101D600011462846FFF796F8050018E0307020204D
:101D7000305C0821014320203154A088FFF7F4FB98
:101D800005000CE030702020305C08210143202049
:101D90003154227BA168A088FFF7E8FB0500002DE5
:101DA00007D00020F0742020305CF721014020365D
:101DB0003170280076BD0000BC100010D510001056
:101DC000D4100010F0B585B00700022069464870B5
:101DD0000020087005460446002F00D190E04C4ECC
:101DE000F06D002801D0012090E0204608711422F7
:101DF00001464948FEF79FF901204749487070772E
:101E00003878002804D0012817D003282AD039E0D8
:101E100001242046307768460079C006C00E402174
:101E2000014368460171387969460870B8680290C4
:101E3000B88948800E203D5624E00124F87B307795
:101E400068460079C006C00E8021014368460171D2
:101E5000387969460870B8680290B88948800E20C1
:101E60003D560FE001242046307768460079E02196
:101E70000143684601717868029038896946488054
:101E80000A203D5668460078FFF7B2F9002837D09F
:101E900004A80121017021490978817004A9307BCF
:101EA00000F066F9A84200D30500002C2CD0B07CCD
:101EB00000280ED103AC257018480078A0700422C9
:101EC00003A9307B00F06FF9002819D02078114960
:101ED000487068464388029A017801A8FFF77EF8A7
:101EE000694648706846407800280BD138780A491E
:101EF00008702020305C012101432036317003E05E
:101F0000032003E00020F0746846407805B0F0BD7F
:101F1000000000109C10001044110010C8100010A8
:101F200000220260426013000372C16002617047C8
:101F300038B5040000F03CFB002C27D0200000F056
:101F4000D7F8002822D160682060002020728148E4
:101F50004568002D04D12168200000F047F815E005
:101F6000287A002807D000F0D7F82968814200D2EB
:101F70000800091A00E029682068884203D220007E
:101F800000F034F802E0200000F003F800F016FB47
:101F900031BD30B46F4A52681369002B06D1036813
:101FA000591A01601061002101611DE01C680C19C3
:101FB00002E021001D686419002A15D00568A542B9
:101FC00009D2691A0160002B02D01C68611A1960DD
:101FD0001061036108E01A001B69002BE9D1291B7D
:101FE000016010610021016130BC704710B5594A91
:101FF0005368002B04D00468091B19600021197272
:10200000036101210172506000F09AF810BD38B5EB
:10201000504C6568002D20D000F07EF82968002221
:10202000884201D32A6001E0081A28602A7205E07C
:1020300001696160C068010000D0804760680028C5
:1020400002D001680029F3D0002806D0017A0029C7
:1020500003D10121017200F073F831BD70B50600A3
:1020600000F0A6FA3B4C65682A0028003DD0002EFF
:102070003BD0B54226D1287A002817D000F04CF882
:102080003168814200D20800091A0022100028722B
:102090002869002808D06060026851180160012199
:1020A000017200F04DF820E062601EE0286900280F
:1020B00005D06060016832688918016015E0002071
:1020C000606012E0316801E00200180000280CD0C6
:1020D0000369B042F8D1002B05D0180010610268E6
:1020E0005118016001E00020106100F067FA70BD36
:1020F0001849496800E00969002903D08142FAD1F2
:10210000012070470020704738B505000C00FFF72C
:10211000A5FF2C606C6031BD80B50F48006800F0F1
:1021200004F802BD0D480068704710B50400FFF7C1
:10213000F9FFA04202D2401E001B10BD001B10BDC3
:1021400080B5006806490860FFF7ECFF02490860A7
:1021500001BD0000AC110010440400103C0400104C
:1021600040040010022801D1012070470020704770
:1021700080B5C0B2022803D1080000F0F5FA02BD14
:1021800044A0006802BD022800D0704780B5080056
:1021900000F040FB01BD022800D0704780B5080068
:1021A00000F048FB01BD80B50B001100022803D1EF
:1021B000180000F071FB02BD002002BD022800D013
:1021C000704780B5080000F094FB01BD80B502287F
:1021D00003D1080000F08EFB02BD002002BD10B547
:1021E0000400080011001A00022C03D1029B00F029
:1021F000B7FB10BD002010BD10B504000800110091
:102200001A00022C02D1029B00F0E4FB10BD80B545
:102210000B001100022803D1180000F029FC02BDB8
:10222000002002BD10B50400080011001A00022CA5
:1022300002D100F077FC10BD002010BD80B502284F
:1022400003D1080000F0CCFC02BD002002BD022832
:1022500000D0704780B5080000F0C3FC01BD10B588
:102260000400080011001A00022C03D1029B00F0A8
:10227000D3FC10BD0A2010BD10B5040008001100E9
:102280001A00022C02D100F02BFD10BD0800C0B2D4
:1022900010BD000000000000F8B506000D0017009A
:1022A0009D4C069860711800A071000AE07118003A
:1022B000000C20721800000E607207980100A172D5
:1022C000090AE1720100090C2173000E60732800F5
:1022D000E0732000203000F00BFD3900200020309A
:1022E00000F017FD102221002000203000F019FD21
:1022F000EAB231002000203000F013FD210020312F
:102300002000103000F072FDE07C0006A17C090482
:102310000143607C00020843217C0143089801606E
:10232000F1BDFDB50F00002601257C4CF0223146A1
:1023300020002030FDF7FFFE2200203210210198FE
:1023400001F0B2F8089860710298A0710298000A32
:10235000E0710298000C20720298000E60720998D9
:102360000100A172090AE1720100090C2173000E3B
:1023700060730DE07018009A135C6218127C5A406A
:102380000A9B1A54491C1029F4DB103F1036F6B290
:10239000BFB2102F0BDB2800E0736D1C220020322F
:1023A00021001031200001F000F90021EBE7002F9F
:1023B00015D0E5732200203221001031200001F0F9
:1023C000F4F8002109E07018009A125C63181B7C75
:1023D00053400A9A1354491C89B2B942F3DBF7BD42
:1023E00010B584B0089C0294079C0194069C00944C
:1023F000FFF797FF1FBDF8B506000D001700464C0C
:102400002000203000F074FC39002000203000F063
:1024100080FCEAB231002000203000F082FC210074
:1024200020312000103000F0E1FCE07C0006A17CAF
:1024300009040143607C00020843217C01430098A9
:102440000160F1BDF4B505000E001F00334CF02211
:10245000002120002030FDF76EFE220020321021E6
:10246000009801F021F8220020323900280001F004
:102470009CF8102E07DB203422001037390010356D
:10248000280001F092F8F1BDF4B584B004000E000C
:102490001F00224DF022002128002030FDF74BFEC6
:1024A0002A0020321021200000F0FEFF102200211F
:1024B0006846FDF740FE6C46012020700622310080
:1024C0002000401CFDF71FFE022204A92000C01DB1
:1024D000FDF719FE2A0020323900684601F065F840
:1024E000102200216846FDF726FE022020700622F9
:1024F00031002000401CFDF706FE022204A9E41D65
:102500002000FDF700FE20352A000A99684601F0F8
:102510004CF805B0F0BD00006001001098020010FA
:1025200010B48207920FD300FF249C40E24389013C
:10253000C9B2994003000BD54B481B071B0F083B42
:102540009B089B00C01803681A401143016007E014
:1025500046489B089B00C01803681A40114301605D
:1025600010BC7047BFF34F8F414842490860BFF32A
:102570004F8FFEE710B5401E80214904884201D3E9
:10258000012010BD3C4C606003210020C043FFF7D8
:10259000C7FF0020A06007202060002010BD374941
:1025A000012282400868364B034013430B6070479A
:1025B00072B634480178491C01707047314801787F
:1025C000491E0170C9B2002900D162B6704700B53A
:1025D00083B001F093F801F0B5F901231A46002108
:1025E000084601F0F6F90020FFF7D9FF26480068F9
:1025F000FA218900FDF7D6FDFFF7BCFF002001900E
:10260000009001231A46014601F0C0FA07BD80B5CB
:10261000FFF7CEFFFFF7A6FF01BD00B585B0684606
:1026200001F016FB009801994140029A4A40039834
:10263000504005B000BD1FB50400684601F008FB1E
:1026400008226946200001F01BFB1FBD10B50F4C8E
:102650002068401C2060A068FFF767FD6168884221
:1026600001D3FFF7D4FC10BD1CED00E000E400E056
:102670000400FA050CED00E010E000E0808004406A
:10268000FFFFEF25BA110010B41100103C04001038
:1026900002000800824201D1C0B201E0501EC0B267
:1026A00040B270477B4980000858AC49884204D04A
:1026B0004900884203D00020704701207047022063
:1026C00070470200914200DB08007047FFB583B0FD
:1026D0000026354628460090019007E0009810300B
:1026E000C0B200900198401CC0B2019000986028D0
:1026F00033DA002407E00098210040180C99F6B264
:102700008855761C641C102CE8DA0498019949005D
:10271000405A0121A1400842F4D0059800990919B6
:102720004A0051188900471838680028EAD0082064
:1027300039560A001211090709176846007B40B292
:1027400001F0C4FA0028DDD00698797A0901401812
:10275000C0680028CFD06D1CD4E70D9805703000FC
:10276000C0B207B0F0BD000080B500BF28A1096865
:1027700002781E2A4AD801A39B5C9F4484848E8ED3
:102780008E848E8E842C368440444A5054585E8405
:10279000708474787C808484888C1E0000210122DF
:1027A0008056FFF775FF010030E0A04901228056F6
:1027B000095C2BE09E4901228056095C26E09D4978
:1027C00024E0FA21890021E0FA21C9001EE09A499B
:1027D0001CE09A491AE08021C90117E0FA2189001A
:1027E0009748FDF785FCFA21C90041180EE095498C
:1027F0000CE095490AE0954908E0602106E094491B
:1028000004E0002102E0934900E0BD49080002BD58
:102810000000000038B54268BA498D4B0478650065
:102820002C19A4001B195B7A1B01C918407801F010
:102830007DFA31BD10B5002803D0022824D023D35F
:1028400010BD00200100B04C0CE04A00521892006C
:102850009A18AE4B4B431B1913605023137203009D
:102860005372491C7A4B6029EFDBA94877490880ED
:1028700048808880C8800881488106229020C00056
:10288000181801F042FA10BD062270496E4801F096
:102890003CFA10BD582A000080B5091F012905D94E
:1028A000891E0ED0491E012916D920E005220021DB
:1028B0000023C05601F00AFA401E8041C043C00FF9
:1028C00002BD052200210023C05601F0FFF9401E81
:1028D0008041C043C00F02BD072200210023C05623
:1028E00001F0F4F9401E8041C043C00F02BD00203A
:1028F00002BD704738B50179002902D0012907D0FF
:102900002AE006220168504801F0FFF9012032BD9B
:102910004E4C06220168200001F0F7F90025602DD9
:10292000F4DA2800C010000F401900114100615A6C
:1029300001220001281A824011420BD028000621F2
:10294000FDF72DFC0801014341486A00521992002D
:10295000801801726D1CE2E7002032BD90D00300A8
:10296000F7B582B0002425000821465609214756B4
:102970004068186002984078002824D0002E01D1C9
:102980001C6020E002984068402801D30125270000
:10299000602818D3C006C00E012814D168461E2135
:1029A000017046700299897A8170FFF7DDFE06009A
:1029B00076B2002E07D1250002980078002802D0B8
:1029C0000120FFF737FF039806700498077028006E
:1029D00005B0F0BDF4B584B00D001C00052800DB87
:1029E0000520607001202056FFF75CFEA0700120DA
:1029F000205600BF18A18200895800BF75A2105C44
:102A000001F0F4F906000F007448C06D8047010022
:102A100020000C300290083401940091049B2A009D
:102A20003000390001F000FA05B0F0BD1C2B0000A9
:102A3000142B0000B80B0000881300007017000072
:102A400018FCFFFF20441E1ECC080010A01100102F
:102A50004C0400103333994148E8010048E8010074
:102A600048E8010048E8010048E8010048E80100A2
:102A7000F2B58AB00400012026566768574D686891
:102A80008047002801D0002038E0E07C002807D1F2
:102A900020783021FDF783FB1C4841435D480F1827
:102AA0003800E9688847A07C099001200890002040
:102AB00007900690059004900390A06880B2029061
:102AC0000820019000200090012300BF41A0825DFA
:102AD00052B2A1781846AF69B847607C002802D08E
:102AE0000CA0815D02E000BF0CA0815D0D31C9B278
:102AF00001206A6D90470A98067001200BB0F0BD66
:102B00009A9909402C0400106035081C400D030000
:102B1000FFFF000033333373DEDE000033333373E3
:102B2000DEDE0000F6B58BB004000120225609A8B5
:102B3000401C00BF27A1895C0170634E9020C0003B
:102B40003318624821784D00691889007118497A54
:102B5000090140180221415602202056FFF7B1FD1D
:102B60000700A268616801F0BBF909A908701B4D54
:102B700020784100081880003058E9688847544898
:102B800008900020079006900590012004900020F6
:102B900003900820029001200190694625200856E4
:102BA000009000231A46242009560120EE69B04700
:102BB000A189C9B201206A6D9047A189C9B20120DB
:102BC0006A6A90470C9908600B98077001200DB055
:102BD000F0BD00000C0B0A09080700003867000070
:102BE000704700B585B0384900913B49019169466D
:102BF00042780A7202784A7282788A72C278CA72FD
:102C00004168039180680490684601F07EF905B040
:102C100000BD0000E0F8D11DF6B59DB006001F0014
:102C200000252C0028006946087204A8602101F0E4
:102C3000B7F92A4803900622214601F04FF80028F0
:102C400002D10120FFF7F6FD7068FFF76EFA3168D8
:102C5000884214D33D601D4C01232200B17A707A62
:102C600001F069F8070002A8019004A80090230071
:102C7000184A0399307AFFF729FD040009E06846F5
:102C8000007A401C694608727068FFF74EFA316896
:102C90000F1A002C0CD0641E21002846FDF728FADC
:102CA00004A9085C1D9908701E980560284609E073
:102CB0006846007A00281E9802D007600B2001E0C9
:102CC00005600C201FB0F0BD4C0400102C04001057
:102CD000B80B00004C0400102C040010CC080010AD
:102CE000881A010049B2002900D50020C0B27047FF
:102CF00010B5040010220021F130FDF71CFA00206D
:102D00008A2149006050F02201462000FDF713FAA5
:102D100010BD80B50B0002001021180000F0C4FBAC
:102D200001BDF0B585B005000E0014008A204000FA
:102D30002858002849D010210F1AA74200D927008F
:102D40003A0092B231002818FF239B1CC018FDF7EF
:102D5000DAF98A2040002858C0198A2149006850B1
:102D6000102841D3BC423FD0002006E02918F131A1
:102D70000A780B7C53400B70401C1028F6DB2A00AD
:102D80002900F1312800F13000F00FFCF619E41BA6
:102D90001BE06818F1300278735C53400370491CE3
:102DA0001029F6DB10222900F1316846FDF7ABF956
:102DB0002A006946684600F0F8FB102269462800A0
:102DC000F130FDF7A0F91036103C112C01D3002191
:102DD000E6E7220092B23100FF20801C2818FDF7A0
:102DE00092F98A2040002C5005B0F0BDF1B588B0B2
:102DF0000C00102200216846FDF79DF9220069466B
:102E0000684600F0D2FB802100206A4613780B420E
:102E100011D0030007E0D5182E7876006F78FF09EF
:102E200037432F705B1C0F2BF5DBD37B5B008725B3
:102E30005D40D5730EE0030007E0D5182E787600CC
:102E40006F78FF0937432F705B1C0F2BF5DBD37BAB
:102E50005B00D3738A235B00E358102B0CD1010075
:102E6000102956DA6318FF25AD1C5B191D78565CD6
:102E70006E401E70491CF3E713780B4211D003001B
:102E800007E0D5182E7876006F78FF0937432F704A
:102E90005B1C0F2BF5DBD37B5B0087255D40D57377
:102EA0000EE0030007E0D5182E7876006F78FF0952
:102EB00037432F705B1C0F2BF5DBD37B5B00D37389
:102EC0008A235B00E358E318FF25AD1C595502E047
:102ED000030061184B558A2149006158491C8A2317
:102EE0005B00E1501029F3D3010008E06318FF25CF
:102EF000AD1C5B191D78565C6E401E70491C102974
:102F0000F4DB06E02118F1310A780B7C53400B709A
:102F1000401C1028F6DB10222100F13104A8FDF737
:102F2000F2F82200089904A800F03FFB10220021CB
:102F30006846FDF700F909B0F0BD00000A7802709C
:102F40004A7842708A788270CA78C2700A790271AF
:102F50004A7942718A798271CA79C2710A7A027297
:102F60004A7A42728A7A8272CA7AC2720A7B02737F
:102F70004A7B42738A7B8273C97BC173704703E0CB
:102F80000B780370491C401C13005A1EDBB2002B47
:102F9000F6D1704702780B785340037042784B7833
:102FA0005340437082788B7853408370C278CB78DB
:102FB0005340C37002790B795340037142794B79C6
:102FC0005340437182798B7953408371C279CB79B5
:102FD0005340C371027A0B7A53400372427A4B7AA0
:102FE00053404372827A8B7A53408372C27ACB7A8F
:102FF0005340C372027B0B7B53400373427B4B7B7A
:1030000053404373827B8B7B53408373C27BC97B6A
:103010005140C173704710B40B7814785C40047051
:103020004B7854785C4044708B7894785C40847022
:10303000CB78D4785C40C4700B7914795C4004710F
:103040004B7954795C4044718B7994795C408471FC
:10305000CB79D4795C40C4710B7A147A5C400472E9
:103060004B7A547A5C4044728B7A947A5C408472D6
:10307000CB7AD47A5C40C4720B7B147B5C400473C3
:103080004B7B547B5C4044738B7B947B5C408473B0
:10309000C97BD27B4A40C27310BC704780B5FFF732
:1030A00079FF01BD7F4902788A5C027002798A5CEF
:1030B0000271027A8A5C0272027B8A5C0273427835
:1030C0004379CB5C4370437ACB5C4371437BCB5CED
:1030D00043728A5C42738278837ACB5C83708A5CA9
:1030E00082728279837BCB5C83718A5C8273C27BC0
:1030F000C37ACB5CC373C379CB5CC372C378CB5C3C
:10310000C371895CC17070477FB5040021006846B7
:10311000FFF714FF634800BF63A100BFA2A26B4684
:103120001D78565D5D794D5D75409E7A865D6E4079
:10313000DD7B455D754025701D78465D5D79555D8B
:1031400075409E7A8E5D6E40DD7B455D7540657095
:103150001D78465D5D79455D75409E7A965D6E4051
:10316000DD7B4D5D7540A5701D784E5D5D79455DDB
:1031700075409E7A865D6E40DD7B555D7540E570DD
:103180001D79565D5D7A4D5D75409E7B865D6E4016
:10319000DD78455D754025711D79465D5D7A555D2B
:1031A00075409E7B8E5D6E40DD78455D7540657136
:1031B0001D79465D5D7A455D75409E7B965D6E40EE
:1031C000DD784D5D7540A5711D794E5D5D7A455D7B
:1031D00075409E7B865D6E40DD78555D7540E5717E
:1031E0001D7A565D5D7B4D5D75409E78865D6E40B7
:1031F000DD79455D754025721D7A465D5D7B555DC7
:1032000075409E788E5D6E40DD79455D75406572D6
:103210001D7A465D5D7B455D75409E78965D6E408E
:10322000DD794D5D7540A5721D7A4E5D5D7B455D16
:1032300075409E78865D6E40DD79555D7540E5721E
:103240001D7B565D5D784D5D75409E79865D6E4057
:10325000DD7A455D754025731D7B465D5D78555D66
:1032600075409E798E5D6E40DD7A455D7540657373
:103270001D7B465D5D78455D75409E79965D6E402F
:10328000DD7A4D5D7540A5731D7B495D5D78455DBB
:103290004D409979405C6840D97A515C4140E17376
:1032A0007FBD0000FC350000A584998D0DBDB15493
:1032B0005003A97D1962E69A459D408715EBC90B1D
:1032C000EC67FDEABFF7965BC21CAE6A5A41024F3B
:1032D0005CF434089373533F0C52655E28A10FB51C
:1032E00009369B3D2669CD9F1B9E742E2DB2EEFBA9
:1032F000F64D61CE7B3E7197F568002C601FC8EDDE
:10330000BE46D94BDED4E84A6B2AE516C5D755949C
:10331000CF100681F044BAE3F3FEC08AADBC480486
:10332000DFC17563301A0E6D4C14352FE1A2CC3914
:1033300057F28247ACE72B95A098D17F667EAB838E
:10334000CA29D33C79E21D763B564E1EDB0A6CE45B
:103350005D6EEFA6A8A4378B324359B78C64D2E0D8
:10336000B4FA0725AF8EE918D5886F7224F1C751DA
:10337000237C9C21DDDC86859042C4AAD8050112FD
:10338000A35FF9D0915827B93813B333BB7089A71D
:10339000B622922049FF787A8FF88017DA31C6B8C2
:1033A000C3B07711CBFCD63AC6F8EEF6FFD6DE9165
:1033B0006002CE56E7B54DEC8F1F89FAEFB28EFB57
:1033C00041B35F452353E49B75E13D4C6C7EF5832F
:1033D0006851D1F9E2AB622A0895469D30370A2F31
:1033E0000E241BDFCD4E7FEA121D583436DCB45B51
:1033F000A476B77D52DD5E13A6B900C140E379B66D
:10340000D48D67729498B085BBC54FED869A6611CE
:103410008AE904FEA078254BA25D80053F2170F16A
:103420006377AF4220E5FDBF811826C3BE35882EE5
:103430009355FC7AC8BA32E6C0199EA344543B0B9C
:103440008CC76B28A7BC16ADDB647414920C48B80B
:103450009FBD43C43931D3F2D58B6EDA01B19C499B
:10346000D8ACF3CFCAF447106FF04A5C3857739763
:10347000CBA1E83E96610D0FE07C71CC9006F71C65
:10348000C26AAE6917993A27D9EB2B22D2A9073322
:103490002D3C15C987AA50A50359091A65D784D0B0
:1034A00082295A1E7BA86D2CF6B585B069460C7D25
:1034B0002100102903D0182901D0202911D122463A
:1034C00001000698FFF75BFD6846007D1C30800018
:1034D000C0B203900011401E0699F031087001251A
:1034E00032E000201146F0310870FF205BE00298C6
:1034F00019280DDB10290BD140A0865D69466A466C
:103500005278825C4A706A461278825C0A70C75DA3
:1035100020006946097D411AC9B206984018017811
:103520004E4001990E700199491C42786B465B78B8
:1035300053400B7082786B461B7853404B70C078B9
:1035400047408F70241DE4B2039884422ADA06981B
:1035500000190190001F0678694642784A70827807
:103560000A70C7786846007D029020000299FCF737
:1035700016FE0029BBD1310020A06A465278825C39
:103580002E0056406A466B461B78C35C5370C35D81
:103590001370475C28004000ED091B214D43454056
:1035A000EDB2B5E7002007B0F0BDF0B585B00F0073
:1035B0001400F021615C00291DD001006846FFF76E
:1035C0002AFD012506E0FFF79FFD31006846FFF761
:1035D00065FD6D1CEDB228012618F020205C8542A7
:1035E0006846F0D3FFF75EFD320069463800FFF70A
:1035F00012FD002000E0FF2005B0F0BD637C777B6A
:10360000F26B6FC53001672BFED7AB76CA82C97DDE
:10361000FA5947F0ADD4A2AF9CA472C0B7FD93266F
:10362000363FF7CC34A5E5F171D8311504C723C373
:103630001896059A071280E2EB27B27509832C1AB7
:103640001B6E5AA0523BD6B329E32F8453D100ED11
:1036500020FCB15B6ACBBE394A4C58CFD0EFAAFBF5
:10366000434D338545F9027F503C9FA851A3408FBD
:10367000929D38F5BCB6DA2110FFF3D2CD0C13ECD5
:103680005F974417C4A77E3D645D197360814FDC6A
:10369000222A908846EEB814DE5E0BDBE0323A0A4E
:1036A0004906245CC2D3AC629195E479E7C8376DD2
:1036B0008DD54EA96C56F4EA657AAE08BA78252EF7
:1036C0001CA6B4C6E8DD741F4BBD8B8A703EB56680
:1036D0004803F60E613557B986C11D9EE1F8981171
:1036E00069D98E949B1E87E9CE5528DF8CA1890D60
:1036F000BFE6426841992D0FB054BB1680B500F06B
:10370000F2FC0149086001BDB41100101F490122FB
:1037100082400868874B034013430B6070471B4986
:103720000A68012383408448184382430A60704733
:103730008249012282400868C001C0091043086024
:103740007047490140188354704701239340890012
:1037500040188E21890143507047000070B5002445
:10376000A0252D060EE000BF7BA0065D32000021E3
:103770002800FFF7EAFF0123320000212800FFF7AD
:10378000E0FF641C012CEEDB70BD00008080044073
:1037900010B50720FFF7BAFF0020FFF7C9FF01208F
:1037A000FFF7C6FF0220FFF7C3FF0320FFF7C0FFAC
:1037B0000620FFF7BDFF0720FFF7BAFF0920FFF73C
:1037C000B7FF0A20FFF7B4FF0B20FFF7B1FF0C2073
:1037D000FFF7AEFF0D20FFF7ABFF0E20FFF7A8FFAE
:1037E0000F20FFF7A5FF1020FFF7A2FF1120FFF722
:1037F0009FFF1220FFF79CFF1320FFF799FF142073
:10380000FFF796FF1520FFF793FF1620FFF790FFB5
:103810001720FFF78DFF1820FFF78AFF0720FFF71B
:103820007EFF474C00221121200000F0EDFC002219
:103830000B21200000F0E8FC00220421200000F011
:10384000E3FC00220321200000F0DEFC0022102116
:10385000200000F0D9FC00220F21200000F0D4FC51
:1038600000220E21200000F0CFFC00220D212000BC
:1038700000F0CAFC00220821200000F0C5FC002254
:103880000721200000F0C0FC00220221200000F0EF
:10389000BBFC00220121200000F0B6FC0022122116
:1038A000200000F0B1FC00220A21200000F0ACFC56
:1038B00000220921200000F0A7FC00221146200070
:1038C00000F0A2FC00221E21200000F09DFC00223E
:1038D0001D21200000F098FC00221C21200000F097
:1038E00093FC00221B21200000F08EFC00221A21F4
:1038F000200000F089FC00221921200000F084FC47
:1039000000221821200000F07FFC00221721200057
:1039100000F07AFC00221621200000F075FC002245
:103920001521200000F070FC00221421200000F07E
:103930006BFC10BDFFFFEF25000010DAC0C1004096
:103940000040044080B5A020000600F075FCFFF7A1
:103950001FFFFFF703FF01BD0B00FEE70121C006BB
:10396000C00E8140474801607047474901228240AC
:103970000868464B034013430B60704742490A688E
:10398000012383404248184382430A6070474149FB
:10399000086070474049012282400868C001C009A0
:1039A00010430860704701683C4A0A4001211143F6
:1039B0000160704741683A4A0A4042607047C160FE
:1039C0007047016170470368364A1A40114301602D
:1039D000704770B5FEF7ECFD0720FFF7C6FF01202A
:1039E000FFF7D5FF0020FFF7D5FF0021084600F0C4
:1039F00029FC0421012000F025FC0720FFF7BEFF71
:103A0000294D280000F075FC04212800FFF7DBFF9A
:103A10000121E120400300F091FBE121490228004F
:103A200000F090FC2800FFF7BEFF2800FFF7C2FF60
:103A30001E4CAE0D3300012221002831200014302D
:103A400000F0E3FC33000122942040002118200004
:103A500000F0DBFC01212800FFF7B1FF0421280062
:103A6000FFF7AFFF0320FFF779FFFEF7A7FD70BD5B
:103A700080B50E490A0014310B4800F095FC01BDD9
:103A80000000000000E100E080800440FFFFEF251F
:103A9000000010DA94800440C0C100407DDAFC00D0
:103AA0000603010001DAFC0000400640000B001094
:103AB0005B490A68012383405A48184382430A60DD
:103AC00070475749012282400868574B034013430F
:103AD0000B60704710B50400FFF7EAFF2000FFF706
:103AE000F0FF10BD5149012282400868504B03404D
:103AF00013430B6070474D490A68012383404D48CA
:103B0000184382430A6070478900401801684A4A96
:103B10000A400260704701239340890040188821C1
:103B20008901435070470268FF23BE3313400B43A3
:103B3000036070470268FF23BE338B43134003606A
:103B4000704780B53D49884206D10C20FFF7CAFF77
:103B50000120FFF7BFFF01BD0B20FFF7C3FF0020CF
:103B6000FFF7B8FF01BD80B50121FFF7DCFF01BD04
:103B700038B504000D003C21FFF7DCFF29002000D0
:103B8000FFF7D1FFF0200003206231BD10B582B0F5
:103B9000FEF70EFD0720FFF7A5FFA024240617223D
:103BA00000212000FFF7B7FF0E21612000F04AFB43
:103BB0000E2200212000FFF7AEFF214C172120002C
:103BC000FFF7A2FF1921522000F03CFB07216020E3
:103BD00000F038FB10212000FFF796FF062153204C
:103BE00000F030FB0720FFF786FF144C2000FFF7A2
:103BF000A8FF04212000FFF7BBFF1249200000F0BE
:103C000049FC0020694608602000FCF722FB2000E8
:103C1000FFF7A9FF0C20FFF765FFFEF7CFFC13BDF0
:103C2000048004400020FEFFFFDF0100808004408C
:103C3000FFFFEF25000010DAFFFBFFFF00C005408B
:103C40000040044040420F0080B50C4A904701BD3F
:103C500010B58AB004003A200590694605A8FFF720
:103C6000F3FF002005E081006A4652185268625056
:103C7000401C0428F7D300980AB010BDF11FFF1FA5
:103C800010B50400FCF7FCFA200010BD30B40200AF
:103C90000023180008E001249C4025001540A5429F
:103CA00000D1401C5B1CDBB28B42F4DBC0B230BCE9
:103CB00070475A49884201D2642070475849884267
:103CC00002D2FA208000704756487047884203DBD2
:103CD000824201DB0120704700207047F8B50400E4
:103CE00016000020002C0FD00D000AE00700102164
:103CF0006800205AFFF7CAFF010038004018C0B220
:103D00006D1CEDB2B542F1D3F2BD002800D1704771
:103D100030B4002908D0002304E05C000D5B05539B
:103D20005B1CDBB29342F8DB30BC704700288A6032
:103D300000D14A607047FFB581B00024E4430027FA
:103D40003E0003E03C00EF60761CF6B26846007C63
:103D5000864248DA03983101451868460079002800
:103D60006846007A26D1002804D0A868FEF7DDF95D
:103D7000009000E000976868FEF7D7F9009981424B
:103D800003D26868FEF7D1F908E06846007A002897
:103D900003D0A868FEF7C9F900E03800E968884256
:103DA00000D3EF60E9680029CED0081AA042CBD238
:103DB0000400C9E70028C5D0A868FEF7B6F9E9688D
:103DC000884200D3EF60E8680028BDD0A868FEF7FD
:103DD000ACF9E968081AA042B6D2A868FEF7A5F9BE
:103DE000E9680C1AB0E7200005B0F0BD70B50E0010
:103DF00001218140080000F065FB04000D00300047
:103E000000F06AFB02000B002000290000F074FBA8
:103E10000022304B00F0D1FB70BD000080EE360078
:103E2000803F5C0210270000FBB514001D006000FD
:103E3000083800F047FB6A460CCA00F0BEFB0600DB
:103E40000F00680000F048FB32003B0000F077FCF8
:103E50006A460CCA00F050FB06000F0000F04AFD55
:103E600000F086FD844206D23000390000F042FDA9
:103E700000F07EFD00E02000099E306068460CC81E
:103E80000020154900F099FB04000D00306800F097
:103E900023FB6A460CCA00F090FB00220F4B00F097
:103EA0008CFB02000B002000290000F0ABFC04009A
:103EB0000D00089800F010FB02000B002000290004
:103EC00000F0A0FC00F016FD00F040FD0A9908602B
:103ED000F7BD000000408F40000010400000E03FB0
:103EE00038B50C001500400000F05AFD010020001C
:103EF00000F098FD290000F095FD00F0EBFD00F0CA
:103F000003FE00F023FD40B232BDF8B50400206886
:103F1000E17A4A00511889004018407A0701606828
:103F2000C01905880026C660607A00280FD1E068B5
:103F3000FFF7BFFEA84200D30500A07A002809D1F0
:103F4000207A002806D16068C019C660F1BDA07A49
:103F50000028F8D020694543281A6168C919C8604B
:103F6000F1BDFEE71206130A1A43130C1A4300BFF1
:103F7000130030B414001500103902D310393CC0BE
:103F8000FCD2490700D30CC000D504C0890002D37D
:103F90000280801C002900D5027030BC70470000F0
:103FA0000022E5E77047FEE779490A68012383406C
:103FB0007848184382430A6070477549012282405D
:103FC0000868754B034013430B60704710B504003D
:103FD000FFF7EAFF2000FFF7F0FF10BD6F49086010
:103FE00070476E480068C0B270476D4908607047FE
:103FF0006B480068C0B270476A49086070476948FA
:104000000068C0B2704768480068704767487047EA
:10401000674800687047000000B501006AA00A0008
:1040200052091207120F92008058C906C90E491C86
:104030004900FCF7B7F800BD02000800D106C90E20
:10404000491C484370475B490860002048600120D4
:104050004860704758490860002048600120486067
:10406000704780B555480068C005C00DFFF7D4FF04
:1040700002BD80B54F4800688007800F04D001283A
:1040800005D0032806D008E0FFF7C0FF02BDFFF708
:10409000BAFF02BDFFF7BCFF02BD002002BD80B524
:1040A000FFF7E7FF0100464800684006400EFFF7B3
:1040B000C3FF02BD80B500203F4909688907890F09
:1040C00005D0022909D005D3032909D002BDFFF785
:1040D0009DFF02BDFFF7CDFF02BDFFF7C2FF02BD8E
:1040E000FFF7DDFF02BD80B5FFF7E4FF3549096842
:1040F000C9B2FCF757F802BD38B5FFF772FF0400EC
:1041000001D1002418E0FFF7D5FF2100FCF74AF8A1
:1041100004000025FFF76CFFFF280DD1FFF76FFFAC
:104120008021490042180023200E0543240220006C
:10413000290000F015FD0400200032BDF8B507008D
:104140000C00FFF7B7FF05003900FCF72BF806005D
:1041500000D101263000C0B2FFF740FF002C11D083
:104160000220FFF733FFFF20FFF73FFF2800310059
:10417000FCF718F800023900FCF714F8C0B2FFF79A
:104180003BFF02E00020FFF730FFFFF7B5FFF2BD75
:10419000048004400020FEFFFFDF01009480044003
:1041A000F0800440F4800440E0020000001BB700EF
:1041B000E4020000408004407080044024800440F9
:1041C000088004407880044000000000C0270900F7
:1041D00090051000C05C1500F0B31A00200B200001
:1041E000009F2400E0322900C0C62D005097310006
:1041F000E06735007038390000093D004016400086
:1042000080234300C030460089004018016818230D
:104210009943D2000A4302607047FEE70449012235
:1042200082400868034B034013430B607047000053
:1042300080800440FFFFEF2580B50620FFF7EEFFEA
:1042400001BD000010B40207120FD2000009064B96
:10425000800018180368FF249440A3439140194339
:10426000016010BC7047000000C000402D490A6882
:10427000012383402C48184382430A607047294930
:10428000012282400868294B034013430B607047AA
:1042900010B50400FFF7EAFF2000FFF7F0FF10BDA4
:1042A0002349012282400868224B034013430B60DC
:1042B0007047C1680069814201D101207047002028
:1042C0007047C16170474069C005C00D704701610A
:1042D000704781681848084070471849884201D1E2
:1042E0000E2070471649884201D10F2070471020D8
:1042F000704710B50400FFF7F0FFFFF7D1FF0F483C
:10430000844203D10320FFF7C3FF10BD0C48844251
:1043100003D10420FFF7BCFF10BD0520FFF7B8FF55
:1043200010BD0000048004400020FEFFFFDF0100FC
:1043300080800440FFFFEF257FFD01000040064024
:104340000080064038B504000D00FFF7D5FE2901B6
:10435000FBF728FF401E206231BD38B504000D0078
:1043600007E02000FFF7AFFF69460870280000F063
:1043700054F82000FFF7ADFFC007F2D431BD38B5C7
:1043800004000D0004E0684601782000FFF799FF63
:104390002000FFF79EFF400705D56946280000F082
:1043A00055F80028EFD131BD70B504000D0016009E
:1043B000FFF78FFF40070CD531002000FFF7DFFF2C
:1043C0003000FFF776FF002803D004212000FFF71C
:1043D0007EFF29002000FFF7C0FF70BDC1680069A3
:1043E000081A704710B50400FFF7F8FF61688842AB
:1043F00001DB012010BD002010BDC16800698142B1
:1044000001D1012070470020704701604360826045
:1044100000210161C1600120704770B504000E00E9
:104420002568FFF7DFFF002801D0002070BDA268DB
:104430003100E06863685B1E03405343E818FBF7F4
:104440001FFFE068401CE060012070BD70B50400F3
:104450000E002568FFF7D1FF002801D0002070BDB5
:10446000A26820696168491E014051436918300003
:10447000FBF706FF2069401C2061012070BD000091
:1044800010B50400FFF72FFE616A89B2491CFBF7E3
:1044900089FE10BD38B504000D00FFF724FE290089
:1044A000FBF780FE002801D1012003E00449884287
:1044B00000D3481E401E60622000FFF7E1FF32BDBE
:1044C00001000100010009D5F446404200F006F861
:1044D0000122D20711436047010000BF42221201AE
:1044E000D21E004207D002D4521E0018FCD5C10AC9
:1044F0004005120589187047F0B40E005E40012592
:10450000ED072E40B446AE0ADF184C18F4423BD2F9
:10451000F74241D2640D43D07F0D38D0E41BC9026D
:10452000DB0229432B43CF0ADB0A0600B61A9F4160
:1045300004D2641EB6197F41B6185F416812800D1F
:1045400024180018844222DAE80C0021B6197F41B1
:10455000B61A9F4102D2B6185F413F1C4041494103
:10456000F4D3241C21DD2405B6197F41B61A9F41DE
:1045700005D33743C60737430026012F70416141F9
:1045800066463143F0BC7047FCD1F74205D20020AB
:10459000C14349054908F3E704D00020C143F1E7CE
:1045A0007F0DFAD000206146ECE72442FAD1401C8E
:1045B00061410F03F6D30020E2E7F0B50E005E4044
:1045C0000125ED072E40B446AE0ADF184C18F44220
:1045D00008D2F7420ED2640D01D07F0D12D1002017
:1045E0006146F0BD05D1F74201D87F0D05D100200D
:1045F000C143F0BDFBD1640DF9D00020C143490592
:1046000049088FE0E419C902DB0229432B43DB0A86
:10461000460DC00231438E4630B487B295B27D4319
:104620002E0CADB2140C7C43A419260C2404254393
:104630009CB27C43A419190C7943270CC919A4B264
:104640000F043C43090C000C97B247432E0CBE19D3
:104650003543ADB2170C4743360CBF19A6B2BF198C
:104660003E043543240C3E0C36199FB24743BF1914
:10467000BCB23E0C89191F0C47437F183E043443DB
:10468000390C704680B297B247432E0CBE193543A1
:10469000ADB2170C4743360CBF19A6B2BF193E0482
:1046A0003543240C3E0C36199FB24743BF19BCB2A8
:1046B0003E0C89191F0C47437F183E043443390CC4
:1046C00077463F0C90B278432E0C80190604ADB2A9
:1046D0002E43050CA0B22D18120C7A435019020C6F
:1046E00080B2240CA4189AB27A43121914042043FD
:1046F000120C89181B0C7B43C91830BCEF0A3942D5
:1047000003D1B61940414941641E6F12BF0DE41B2D
:104710000BDBFF19BC4211DA240500274208AE4129
:104720007841614166463143F0BD641C05D1401CAF
:104730006141CF0201D34908F4E750E75DE7F0B4E7
:104740000125ED070F005F404FD48B4200D182421C
:1047500005D98446100062468C4619006346DF186E
:104760004C18640D7F0D3AD0661C760537D0E61BD9
:10477000352E34DCDB022B43DB0A0C0DC902294346
:10478000C912202E0DDB1700203E06D01F00F74176
:10479000F3405F400026012A7741C01871410DD2D5
:1047A00017E01700F741F2405740F3415A40B34039
:1047B000F3405A400026801859410AD3A21C5205E2
:1047C0000FD0C207012F724117004008CB071843D2
:1047D0004908641C24054208AF4170416141F0BCA6
:1047E0007047641C21050020F9E76B4010E06B4026
:1047F000ABE7F742F3D1E943F1E72442EFD10020E0
:104800000021ECE7F0B40125ED070F005F40EED486
:104810000C00871A9C4105D2C01BA141D2196341EB
:1048200069406B40AE0ADF184C18F442E1D2640DC7
:104830007F0DE2D0E61B362ED1DCDB022B43DB0AF8
:10484000A4460C0DC9022943C90A012E28DC04D153
:10485000D6075208DF073A435B08EF0A76429041D9
:10486000994114D039423BD1B61940414941761C97
:10487000394204D1761C001849413942FAD0B94373
:104880006746B74208D9A41B24052143A7E7004285
:10489000EAD13642E8D1A2E7E40AE10700209EE728
:1048A000202E0BDD203E1F00F340F7415F40012A20
:1048B000002257417E42984191410BE01700F74199
:1048C000F2405740F3415A40B340F3405A407E42D1
:1048D000904199410A0303D2641EB61940414941EF
:1048E0000027641E24054208AE4178416141F0BCB6
:1048F000704700004A00520DFF239B009B1CD21AF8
:1049000019DD35239B1A1EDD1300153B09DA9B4187
:10491000DB0AD340094201D4401E5941002099438B
:1049200070470022D243DA40094202D400238018A3
:104930005941904370470B0D5B0500D0024901D3EC
:104940000121C907002070470000F03FF4464A18D3
:1049500005D200F00FF801D580174008604700F03D
:1049600009F80121C907884200D908004042604780
:104970004A1812D2400DC90208430121C907084351
:10498000520D40210901521A521C06D452421F32C4
:1049900001D4D0407047C017704700207047000016
:1049A0009D2102000AD002D4491E9218FCD5C905E7
:1049B000100A1206524100D3012A48417047431A97
:1049C00001D2C01AC91830B44B180418240E1B0E9B
:1049D00022D0FF2C20D0E31A182B1DDC0902114332
:1049E000C40D641E0002104394461925ED1A0A00F6
:1049F000AA40D940451801D36D08A41CE405D2098A
:104A0000280A2D062A436546AA41604103181B0E59
:104A1000FF2B01D3C00DC00530BC7047514006E0EC
:104A20005140CCE70122D20703004B40F8D4431A8F
:104A300003D2C01AC9185040514030B44B18090273
:104A400011430418240E1B0E40D0FF2C3AD0250031
:104A50009D410BD31ED8C50D4002401A0BD3ED0566
:104A60000100400AC90591416841D5E7C50D4002E2
:104A70004918401AD0D001214008491C0018FCD523
:104A80008C4204D36D1A000AED054019C4E7E8050D
:104A90001040C1E7182DBFDCAC1C0D00E140E54122
:104AA0004D40012D4941C40D00021043451A01D467
:104AB0006D199543641EE405280A2D069541604151
:104AC00030BC7047FF2BA7D1D843A5E72442A3D120
:104AD0000020A1E7012212060118CA420AD28A4226
:104AE0000DD83822120609098918C20FD2071143BE
:104AF0004007704700D049080909014301E0C10F90
:104B0000C9070020704700004A00520DFF239B0098
:104B10009B1CD21A19DD35239B1A1DDD1300153B92
:104B200009DA9B41DB0AD340094201D5401E5941B5
:104B30000020994370470022D243DA40094202D54F
:104B4000002380185941904370474B00034300D025
:104B5000024900D200210020704700000000F0BF91
:104B6000124224D0994228D970B500251B4202D0A8
:104B70000C00002109E000240126491864419442F8
:104B800000D3A41A7641F8D33100012601E0764122
:104B900009D2001864416D41A41A9D41F7D2A418AE
:104BA0005D41B619F5D3300022002B0070BD1B42C9
:104BB000D8D108B500F00AF808BD01D19042D3D28F
:104BC00002000B0000210020704700007047000029
:104BD0008068C005C00D704781607047521E120783
:104BE000120F12060A438021890311438161704725
:104BF000C1617047521E1207120F12060A43C021EC
:104C00008903114381617047406980B27047F8B5EC
:104C1000754C6060754E764D2900F62040003018C6
:104C2000FDF77EF92900802080003018FDF778F923
:104C30002900852080003018FDF772F900F093FFFD
:104C400000F0E3FF422000F01DFD207000F084F82A
:104C5000002000F0C4FC0834200000F0B2FF002760
:104C60003C000BE0D048610009194518287800F095
:104C7000CEFCA978687800F0FFFC641C102CF1D3FE
:104C8000384600F0C4FC88363770F1BDC74800785C
:104C9000704710B5C6490860FFF71EFC0022C54BDF
:104CA000FFF72AFCFFF764FE04002100090CC9B2DB
:104CB000062000F0E1FC2100090AC9B2072000F03B
:104CC000DBFC2100C9B2082000F0D6FC10BDF4B511
:104CD00004000E001F00012500F099FC3000FFF7D2
:104CE000D8FF052000F07BFC284601F06BF8FDF7AB
:104CF00019FA06003000FDF718FAB84207D2200072
:104D000000F053FC009909B28142F3DA002500F06B
:104D1000D7FA2800F2BD38B500242500012000F0A4
:104D200076FCFF21112000F0A7FC052000F057FCC5
:104D30000CE0012001F046F82C2000F0A3FC01005B
:104D4000C907C90FA14029430D00641C202CF0DBCA
:104D500000F0B6FA280032BDF8B5092000F092FC48
:104D60000700062000F08EFC0400072000F08AFCFB
:104D7000210404020C43082000F084FC2043FFF7C8
:104D8000ABFB00228B4BFFF718FCFFF7F1FD060091
:104D90000021092000F070FC3B2000F073FC0100B2
:104DA000402421433B2000F067FC20253B2000F0FD
:104DB00069FC2842FAD1D148FFF76BFF3B2000F095
:104DC00061FC044321003B2000F056FC3B2000F036
:104DD00059FC2842FAD13900092000F04DFC30007E
:104DE000FFF757FFF1BD00000C040010D8080010B9
:104DF0001D580000F8B582B006000C00150000F048
:104E000006FC012E00D0CDE0032C00D3FEE7E41D0C
:104E1000BB4E30008C300090C46300980564D036DF
:104E20006846007A70706846808C70800B9F37717E
:104E30000CA8007870710DA80078B0710E98F07110
:104E40000F983072109870721198B0720D2D01D3B6
:104E50000C2502E0062D00D20625072C03D10B2DD0
:104E600005D00C2D03D0082C04D10C2D02D101202B
:104E7000307001E0002030701D2000F003FC2000A5
:104E800000016946097A490001433943C9B21D202E
:104E900000F0F2FB1E2000F0F5FB0821084029007D
:104EA000090101430DA80078800008436946098D77
:104EB000090A8907890F0143C9B21E2000F0DCFBF3
:104EC000262000F0DFFBF72202403078C1001143BA
:104ED000C9B2262000F0D0FB6846018DC9B21F2060
:104EE00000F0CAFB6846808C0100090A202000F00F
:104EF000C3FB6846818CC9B2212000F0BDFB002FA6
:104F000004D00CA80178222000F0B6FBF07900282C
:104F10000BD0442000F0B6FB80210143442000F078
:104F2000ABFB317A242000F0A7FB092C0DD10098AF
:104F30000068BE49884208D30221362000F09CFB5D
:104F400064213A2000F098FB0EE0092C08D10221E0
:104F5000362000F091FB7F213A2000F08DFB03E02A
:104F60000321362000F088FBF824062D0DD13120D6
:104F700000F088FB044005212143312000F07CFB38
:104F80000C21372000F078FBF7BD312000F07AFBD0
:104F9000044003212143312000F06EFB0A21372019
:104FA00000F06AFBF7BD0000445A000060090010E1
:104FB0006409001080844E40F8B504000D001E0006
:104FC00000F025FB280000F034FE012C00D094E016
:104FD000CE4C2570032E00D3FEE7F61D6660069DBD
:104FE000A5606846007F60736846008CE08109A870
:104FF000007820740B98E0740C9820750A9FA774B1
:105000000D9860750E98A0610D2D01D30C2502E05E
:10501000062D00D20625072E03D10B2D05D00C2D11
:1050200003D0082E04D10C2D02D10120207301E001
:1050300000202073E07C00280BD0442000F022FBED
:1050400080210143442000F017FB217D242000F043
:1050500013FB1D2000F016FB30016946097F4A0052
:10506000024309A801781143C9B21D2000F004FBD6
:105070001E2000F007FB0B2101402800000108431F
:10508000B9000143C9B21E2000F0F6FA262000F054
:10509000F9FAF7220240207BC1001143C9B2262051
:1050A00000F0EAFA6846008C0100090A202000F0AE
:1050B000E3FA6846018CC9B2212000F0DDFAF82439
:1050C000062D0DD1312000F0DDFA044005212143E9
:1050D000312000F0D1FA0C21372000F0CDFAF1BDDB
:1050E000312000F0CFFA044003212143312000F0A9
:1050F000C3FA0A21372000F0BFFAF1BD00A1BC338A
:10510000D8080010F2B588B001000020012900D0B5
:105110008AE00646074634003D007D48029000685C
:10512000072804D008D3092805D002D304E0794D1C
:1051300002E0794D00E0794D02984068039001202B
:1051400003998840FFF7BEF902000B0020002900F8
:10515000FFF7D2F902000B0020467149FFF7CCF9A6
:1051600004AA03C202984089FFF7B6F922466D4BA4
:10517000FFF7E5FA04AA0CCAFFF71FFA06AA03C252
:105180000298007B002801D0142000E020460299FC
:10519000097A002900D0022408A90978C900039AD5
:1051A0009200891A029A927B120189181C31081AFE
:1051B000FFF792F9009001910398001B8000FFF720
:1051C0008BF902000B0000980199FFF795F9FFF7A2
:1051D00091FB04000D000298407A001DFFF772F960
:1051E00022002B00FFF7E9F93246134600F0FFFDDD
:1051F00001D330003900BF4BFFF7A1FA02000B00CA
:1052000004A803C8FFF7D9F906AA0CCAFFF797FA52
:105210003246B94BFFF7D1F9D5A20CCAFFF78FFA86
:10522000FFF772FCFFF7A4FB09B0F0BD41DD4A1F98
:1052300070B506000C000020CF4D8921695C012962
:105240003BD1D920285C00280CD0332000F01AFA7A
:10525000BE210140332000F00FFA19213B2000F05D
:105260000BFA0DE0332000F00DFABF2202400121BD
:105270001143332000F000FA1D213B2000F0FCF91F
:10528000DC352C732100222000F0F6F900210E20DD
:1052900000F0F2F900210D2000F0EEF9012000F0FD
:1052A000F1F9400704D100F01EF8012000F08AFD5A
:1052B0002100300000F07CFA286800F01FF970BD72
:1052C00010B5AD4C802080002018FCF7C7FEF620FA
:1052D00040002018FCF7C2FE002000F080F90020FA
:1052E0008834207010BD10B5A34C80208000201899
:1052F000FCF7B4FEF62040002018FCF7AFFE0120BA
:1053000000F06DF900208834207010BD9C09001059
:10531000A00900108084FE4080840E4180841E41DC
:105320000000F03F00001140F8B507000025924C46
:10533000260088367078012800D0A9E02000D730F8
:105340000090807800280CD0332000F09BF9412198
:105350000143332000F090F919213B2000F08CF933
:105360000DE0332000F08EF9BF22024001211143ED
:10537000332000F081F91D213B2000F07DF9306CD5
:10538000092857D2312000F07DF94106490E31201D
:1053900000F072F92946302000F06EF9306C0828D0
:1053A00050D801A1095C8F44081C3044586C80809F
:1053B000800048212F2000F05FF97068A84940184C
:1053C000FFF767FC3EE044212F2000F055F970689C
:1053D000A4494018FFF75DFC34E044212F2000F081
:1053E0004BF97068A0494018FFF753FC2AE04421AC
:1053F0002F2000F041F970689C494018FFF749FCE4
:1054000020E044212F2000F037F9706898494018B7
:10541000FFF73FFC16E044212F2000F02DF97068C3
:1054200094494018FFF735FC0CE040212F2000F094
:1054300023F907E0312000F025F9802101433120D4
:1054400000F01AF90098C578007800280CD01D21CA
:10545000112000F011F9402000F014F9332101402F
:10546000402000F009F90BE01F21112000F004F9A1
:10547000402000F007F98106890E402000F0FCF87A
:1054800000210F2000F0F8F800210D2000F0F4F8C2
:105490000022802149002000EC30FEF763FD01204E
:1054A0003070002F08D04002201800903900FCF71F
:1054B0002BFE0098FCF73CFD707800280FD10520EA
:1054C00000F08DF8002D13D1852080002418B16ADA
:1054D0002000FCF719FE2000FCF72AFDF1BD002D8D
:1054E00003D0052000F07BF8F1BD062000F077F82E
:1054F000F1BD00000000204000408F40F8B51E4D77
:10550000F62149006F1801003800FCF7FDFD2E0060
:1055100088367078012821D14024D7352878002892
:105520000ED0F521112000F0A7F8204600F0AAF8CF
:10553000332101400C432100402000F09DF80DE094
:10554000F721112000F098F8204600F09BF8800623
:10555000800E04432100402000F08EF802203070BD
:105560003800FCF7E5FC032000F039F8F1BD00003D
:105570002B8716D9CEF7EF3FD808001010B5A34CF3
:105580006078012810D1FA21112000F075F8402030
:1055900000F078F8FC210140402000F06DF8032075
:1055A0002070072000F01BF810BD80B5010000201E
:1055B000002911D001290ED1B7480068B7498842A7
:1055C00004D31B2000F05EF89D3805E01B2000F09E
:1055D00059F8A43800E0C04300B202BD000010B585
:1055E000040003D1012000F080FB05E0002000F062
:1055F0007CFB200000F0A8FB012000F043F8F8211C
:1056000001400C432100012000F036F810BD70B5B8
:105610000500A34E8024012000F034F82040010052
:10562000491E8941C943C90F31703078A84215D04D
:1056300035702846012811D1FFF742FE012000F005
:1056400021F804432100012000F016F80021402039
:1056500000F012F80021412000F00EF870BD0000AB
:10566000821E0000B4280000043D00005E510000CE
:10567000127A0000C6A2000002B50122694600F0BD
:1056800009F801BD80B50122694600F048F8684676
:10569000007802BDF7B506000025824C3C212000B1
:1056A000FFF79AFA2000FFF793FA8007FAD508224D
:1056B000802131432000FFF791FA01272000FFF7F6
:1056C00087FA3840FAD02000FFF79EFA0DE0082252
:1056D0002000FFF78FFA2000FFF77AFA3840FAD05F
:1056E0002000FFF791FA6D1CADB26846067AB5420C
:1056F0000DDA2000FFF76CFA8007FAD50198415DBA
:10570000761EB542E3D02000FFF772FAE3E72000EF
:10571000FFF75EFA0C21014000D0FEE7F7BDF7B5B8
:10572000060000255F4C3C212000FFF755FA2000C1
:10573000FFF74EFA8007FAD508227106490E2000BD
:10574000FFF74CFA01272000FFF742FA3840FAD061
:105750002000FFF759FA0199087010E0082255213E
:105760002000FFF747FA2000FFF732FA3840FAD05E
:105770002000FFF749FA019948556D1CADB2684603
:10578000067AB5420CDA2000FFF722FA8007FAD534
:10579000761EB542E2D055212000FFF729FAE2E754
:1057A0002000FFF715FA0C21014000D0FEE7F7BDFD
:1057B00080B50A0001000020FFF76CFF01BD80B535
:1057C0000A0001000020FFF7AAFF01BD38B505005F
:1057D0000C00FFF71CFF012D03D121002320FFF750
:1057E0004BFF31BD10B504000120FFF710FF9148B9
:1057F0000470002C04D034213920FFF73DFF10BD88
:1058000012213920FFF738FF10BD00006009001099
:1058100080B500F0F8F9401C02BD0000F8B5864ED6
:105820003000883000900078012802D0022809D08A
:10583000F1BD8248406800282DD0C06801002AD000
:105840008047F1BD00F0E1F9FFF786FA0020FFF78D
:10585000C6FE00273C000BE07AA06100091945183C
:105860002878FFF7D4FEA9786878FFF705FF641C55
:10587000102CF1D33846FFF7CAFEE0363078FFF738
:10588000B1FF009807706D484068002803D0406859
:10589000010000D08047F1BD6409001041DD4A1FBE
:1058A0006109001000C00540F0B583B0002420005D
:1058B00069460871604D2F0088373878012803D079
:1058C000022800D182E0F7BD7878012800D092E06C
:1058D00040211220FFF7D0FE1220FFF7D3FE6946C9
:1058E00008712E00DA3668460079800615D5202129
:1058F0001220FFF7C1FE3078002800D13C708020D4
:1059000080002818FCF7AAFB4C484068002872D099
:10591000006901006FD08047F7BD1920FFF7B2FE84
:10592000B0720A2031563F200A0608D5CA43521CDD
:10593000110089100840414249B2009102E08910EB
:10594000084000901A20FFF79DFE010000110A1880
:1059500078683B49009B002B08D5D218884202D3B7
:105960009D3AB28109E0A43AB28106E0884202D3AE
:105970009D3AB28101E0A43AB2811320FFF782FE82
:10598000B0731020FFF77EFE01000D20FFF774FEBC
:105990002800EC300090B17BFFF711FF3078002831
:1059A00000D13C70802080002818FCF757FB23486A
:1059B000406800281FD0846820001CD00A2033567D
:1059C0000C20325EB17B0098A047F7BDF620400066
:1059D0002818FCF743FB7878012803D1082112200E
:1059E000FFF74AFE3C7015484068002803D0006865
:1059F000010000D08047F7BD10B50F48040088347F
:105A00002178012915D16178012912D180218900DD
:105A10004018FCF723FB80211220FFF72DFE002009
:105A2000207006484068002803D0C068010000D0FC
:105A3000804710BDB8090010D80800100C040010F1
:105A400041DD4A1F000C23000D1E000ED2001A017A
:105A5000001FAA0024070027120028C10029940073
:105A60002AC10030D800358F003B020040000041C1
:105A7000300123400121C006C00E8140C4480160AE
:105A8000704710B48207920FD300FF249C40E2437A
:105A90008901C9B2994003000BD5BE481B071B0FF3
:105AA000083B9B089B00C01803681A401143016023
:105AB00007E0B9489B089B00C01803681A401143CF
:105AC000016010BC7047B54A800011507047B4495E
:105AD000012282400868C0B2104308607047B14993
:105AE000012282400868B04B034013430B607047AB
