:10000000381F0010617F0000D57C0000B77D000024
:10001000000000000000000000000000DB66FEEFB2
:10002000000000000000000000000000630200006B
:100030000000000000000000D3540000B13B0000AD
:100040005D7F00005D7F000000000000BD580000E3
:100050005D7F00005D7F0000000000005D7F00000C
:100060005D7F00005D7F00005D7F00005D7F000020
:100070005D7F00005D7F00005D7F00005D7F000010
:100080005D7F00005D7F00005D7F00005D7F000000
:100090005D7F00005D7F00005D7F000000000000CC
:1000A00007650000176500005D7F00005D7F0000B0
:1000B0005D7F00005D7F00005D7F00005D7F0000D0
:1000C000022801D1012070470020704780B5C0B2DE
:1000D000022803D1080002F04FFA02BD40A00068D8
:1000E00002BD022800D0704780B5080002F09AFADD
:1000F00001BD022800D0704780B5080002F0A2FAC6
:1001000001BD80B50B001100022803D1180002F0D8
:10011000C9FA02BD002002BD80B5022803D1080043
:1001200002F00AFB02BD002002BD10B50400080069
:1001300011001A00022C03D1029B02F069FB10BDD2
:10014000002010BD10B50400080011001A00022C98
:1001500002D1029B02F096FB10BD80B50B0011008E
:10016000022803D1180002F0CFFB02BD002002BD1F
:1001700010B50400080011001A00022C02D102F090
:1001800019FC10BD002010BD80B5022803D1080065
:1001900002F070FC02BD002002BD022800D07047B2
:1001A00080B5080002F067FC01BD10B5040008002E
:1001B00011001A00022C03D1029B02F079FC10BD41
:1001C0000A2010BD10B50400080011001A00022C0E
:1001D00002D102F0D1FC10BD0800C0B210BD000079
:1001E0000000000014490A68122313400B6000212C
:1001F000016030BF704710490A681623134004227B
:100200001A430A600121016030BF70470A490A6839
:100210001623134004221A430A600221016030BFF2
:10022000704705490A681623134004221A430A60DE
:100230000321016030BF704710ED00E080B5012957
:1002400002D1FFF7D8FF01BD022902D1FFF7DEFF7F
:1002500001BD032902D1FFF7E4FF01BDFFF7C2FF93
:1002600001BDFEE7010000E0491C0A78002AFBD12D
:10027000081A70474A00520DFF239B009B1CD21A9C
:1002800019DD35239B1A1EDD1300153B09DA9B414E
:10029000DB0AD340094201D4401E59410020994352
:1002A00070470022D243DA40094202D4002380186A
:1002B0005941904370470B0D5B0500D0024901D3B3
:1002C0000121C907002070470000F03F9D21020076
:1002D0000AD002D4491E9218FCD5C905100A12068C
:1002E000524100D3012A484170470000001BB7006B
:0402F000000000000A
:0402FC0021436587AE
:1003000070B584B001F069FE0600444C607B0228A1
:1003100003D04348C06A804701E000F0C7FE207C5C
:1003200000282CD02500B835616E280001F047FE6A
:10033000280001F058FD607B022808D02500CC354C
:10034000A16E280001F03BFE280001F04CFD607B0F
:10035000022802D0E07C002823D0122069460870D1
:10036000207BFFF7B3FE2F4DA16E0918280018302F
:1003700001F025FE1835280001F035FD11E00020C0
:1003800029494870042060702020205C002802D198
:100390000120202160542020205C202101432020C6
:1003A000215422482021615C090705D521784A1E85
:1003B0009241D20F827501E000218175A07EE07626
:1003C00001A90870607C48700296207BFFF789FEC7
:1003D0002665E07C002805D1002013494870207E66
:1003E000401C20767FBD10B50C4CE06D40210143D0
:1003F000E165E07C002801D000F006FD2020205CB3
:10040000222101432020215490340121200001F0B9
:10041000D6FD200001F0E7FC10BD0000B80300107D
:100420005467000098160010E416001048110010E0
:10043000FBB58EB0002706973E003800CD49087105
:10044000704CE28110A8007820746F4DE87F6074D2
:10045000380060806071A760A081A074676120701F
:100460006A48C06A80472800CC3001F052FD0E98DF
:100470000078694608706846007840090873684645
:10048000007B012809D0032800D19BE0052800D17A
:1004900098E0072800D126E23CE2687C002800D0E2
:1004A000ABE05B4E33005B1C6A6B6846808F411E7D
:1004B00089B20E98401C01F057FF684600783070F2
:1004C00006AB6A6B6846808F011F89B2300001F06D
:1004D00024FF0698E98C401806906846808F3018F3
:1004E000001F0278417809021143827812040A43FE
:1004F000C078000610430699884260D128008030F9
:10050000019000902B007033EA8C3100491C686B1D
:1005100001F04CFF3079717909020143B079000490
:100520000843A863F079317A09020143707A000424
:100530000843B17A09060143E9631022019935485D
:1005400001F094FF102229007031334801F08EFF32
:10055000E86B3249C862A86B886208460079FE21C0
:100560000140022008432D49087169464020085681
:1005700002F0C5F802F021FBF17A29480A001209BD
:100580005207520F42740F2213000B400376317B47
:100590000A40026001D101210160FA21890002684C
:1005A0004A430260511841606F7001206874062050
:1005B00002F082FC3946084603F00BF9AEE1072051
:1005C0006870ABE11648407F07A9887020794870B1
:1005D000092069460877E87B002801D00A200877BF
:1005E00007A9287BFFF772FD6946898F0D3909B28B
:1005F000002900D53900884214D201206070FFF72D
:10060000F2FEA6E198160010B8030010546700002F
:1006100060130010B00C0010A00C0010700C001043
:10062000E41500100E9841788078000208430E9976
:10063000C978090401430E98007900060843089020
:10064000E96B884204D00B206070FFF7CCFE80E19C
:10065000A86C04900E9840790AA908700F220AA885
:10066000007802406846427310460830C0B20590D8
:100670000E986946898F4018001F02784178090258
:100680001143827812040A43C078000610430C908C
:100690000E9880790E99C979090201430498081AC5
:1006A00080B209906846808F001F6946C88109980A
:1006B0008021090288420498099915DA40180490AB
:1006C00006A802900498019001200090089B2A003F
:1006D00070326846C1890E9801F070FD0C98069939
:1006E00088421CD101261AE009B240188021490233
:1006F00040180B9006A802900B98019001200090E2
:10070000089B2A0070326846C1890E9801F056FD98
:100710000C980699884202D101260B98049011206A
:100720006946087707A9287BFFF7D0FC0999814221
:1007300006D30A20607004986061FFF754FE08E158
:10074000002E00D1CAE069464020085601F0D7FFCC
:1007500038006070A0700AA800780100C906C90FAF
:100760006171A76038002073049860613800014906
:1007700002E000BFE41600104870EF64E8756846B8
:10078000007B052825D1012028752070A86C0499CC
:10079000884207D1002805D02020285C042101438D
:1007A000202029540498A864B1480078012820D159
:1007B0000AA800784009C1071DD53900A9750100B4
:1007C000C907C90FAA4A11710100C907C90FA1744D
:1007D00011E0380028752070A86C04998842E1D196
:1007E0000028DFD00820607004986061FFF7FBFDEF
:1007F000AFE03800A8756846808F001F0599401A41
:10080000012858DB0E98405C491CC9B20591694625
:10081000898F091F059A891A6A461173E0700028AA
:100820006846407B25D1002818D1924E0296049844
:10083000019001200090089B2A0070326846017BDD
:100840000E98059FC01901F05DFD10A80378684659
:10085000027B0021300000F019FB38E02020285CEA
:100860000421014320202954380081490871A774CC
:100870002DE0002808D010A803780598421ED2B2B7
:1008800008210E9800F002FB7A4E0296049801901F
:1008900001200090089B2A0080326846017B0E9858
:1008A000059FC01901F02EFDA6606846007B2073ED
:1008B000012060730BE06846407B002807D010A839
:1008C00003780A46D2B208210E9800F0DFFA202001
:1008D000285C02210143202029541FE00C20607075
:1008E000FFF781FD35E0634E6846828F0E99491C03
:1008F000300003F0A4F8032020706770A6606846FB
:10090000808F401E20732020285C0221014320207C
:10091000295403E001206070FFF765FD287F0090F7
:100920006B7F53480279697BE87C00F054FA2034ED
:10093000207800280DD12020285C20210143202090
:10094000295490350121280001F039FB280001F0DD
:100950004AFA11B0F0BD10B5474C607B022803D0B5
:100960004648C06A804701E000F0A0FB0220010079
:100970003F4A517060702020205C202101432034C8
:10098000217010BD10B53C4C607B022802D03B4862
:10099000C06A8047E07CE17F002919D10521002849
:1009A00001D0334841706170607B02281FD0206DF8
:1009B00001F016FBA16E884219D32000CC3001F063
:1009C000A8FA2020205C20210143202021540EE0A1
:1009D0000621002801D0264841706170607B022802
:1009E00005D02020205C2021014320202154607B61
:1009F000022801D100F05AFB10BD10B51E4C607BDF
:100A0000022802D01D48C06A8047E07CE17F0029AF
:100A100019D10321002801D0154841706170607B15
:100A200002281FD0206D01F0DBFAA16E884219D395
:100A30002000CC3001F06DFA2020205C2021014301
:100A4000202021540EE00421002801D008484170E4
:100A50006170607B022805D02020205C20210143AA
:100A600020202154607B022801D100F01FFB10BD23
:100A7000E416001060130010B80300105467000063
:100A8000F0B585B00024200069460872BB4D2800EF
:100A90009030009001F03DFA2020285C01270100F1
:100AA00049093A00114200D1CFE0E96D4A0602D56A
:100AB00041229143E96509210140B14E13D072787A
:100AC000022A02D06A78022A0DD1EA6D3B469A4387
:100AD000EA652200AA756A7F727122003271B460E1
:100AE0003A006B461A72EA7C6B461B7A134335D187
:100AF000002933D00100C9083A00114209D02978F1
:100B0000002906D1687800281DD16C642000287661
:100B100019E002005208390011402A7EB94BDB7FF0
:100B20009A4201D2002913D0002904D12000A875CF
:100B3000E86C401CE86420002876307D002802D153
:100B4000686C401C6864E86D39468843E86505E0D8
:100B5000DF2101402020295400F0DCF82020285C0F
:100B600040083900084215D03079002803D1287F89
:100B7000697F88420ED22000A877E874307D002873
:100B800002D1686C401C6864687F7071E86D3946FA
:100B90008843E865A87F002857D05C20285CC00601
:100BA00053D42000A877687F297F884239D209284A
:100BB00037DA401C6877C00710D503A81E210170E2
:100BC000BE492C228A5C8270491C019109784170CF
:100BD00003A9287BFFF77AFA01990870384600F0DC
:100BE0006FF9002806D12020285CDF210140202059
:100BF00029542AE0092070702000A875E86D394654
:100C00008843E8652000E8743471687F7071AB48F0
:100C10004078B070307D002817D1686C401C686443
:100C200013E03946287BFFF764FAE86D39468843BC
:100C3000E8652000A875E8743471687F7071307DB4
:100C4000002802D1686C401C6864E86D810702D5F9
:100C500002218843E865E86D002822D12020285C25
:100C60003900084207D0FE21014020202954444881
:100C7000296E096888472020285C0100C9083A00CD
:100C8000114207D0F7210140202029542800296E65
:100C9000896888472020285CDF21014020202954D2
:100CA00007E0FA218900009801F089F9009801F025
:100CB0009AF82020285C010049083A00114218D017
:100CC000FD21014020202954687B022801D100F039
:100CD000EDF92020285C80083900084203D1C8487B
:100CE000296E496888472020285CFB21014020208C
:100CF00029542020285C01000909394208D0EF213D
:100D00000140202029542800E030296EC968884716
:100D100005B0F0BD10B5194C2000A43001F0F9F871
:100D2000E06D10218843E065012000F0C9F810BD96
:100D300070B5124C2000B83001F0EBF80020E077DD
:100D4000B04DA17E29705D490E000C36727DEA70AF
:100D50002D3109782974E17B69746882607B0228EF
:100D600002D1CC48006B8047CB4A2900207BFFF79B
:100D7000F4F93168A87C00F05FF870BDB80300108A
:100D8000E4160010F8B5A04C2000CC3001F0C1F8FA
:100D9000C24DA07E2870494807000C37B9696960C8
:100DA0002D3000782874E07B68740126EE74607B37
:100DB000022802D00020A87400E0AE74B64A2900D0
:100DC000207BFFF7CAF9002804D03968A87C00F01E
:100DD00033F8E677F1BD80B5002805D102290FD19F
:100DE000B64801F096F801BD002A03D0B34801F0DF
:100DF00090F801BD0298984202D2B04801F089F8FB
:100E000001BD0000D515001080B5AC4801F081F897
:100E1000AB48C17C002905D001218177C16D042236
:100E20009143C165417B022905D12021415C2022EB
:100E30000A432030027001BD80B5964A526B0028EB
:100E400002D10800904701BD0020904701BD38B590
:100E50000400150068469B4A12788270417009218F
:100E60000170974AD17B002901D00A21017069469F
:100E7000107BFFF72BF9611980B289B2884203D346
:100E8000FF2901DC012032BD002032BD70477CB556
:100E90005D4CA57CED016E463571009313000A0090
:100EA00001A900F013F9002807D1874800218180AB
:100EB000616CC160002000F003F876BDD41500100D
:100EC000F0B587B00700002001904F4C617EFF29EC
:100ED00001D1092076E0002900D16065E07E00F0B4
:100EE00073F8606D0390494D03A869780172454E0F
:100EF000717D8172617C4172206D049020005430BC
:100F0000009001AB22001A3203A9207BFFF74DF9B4
:100F1000002814D00B2855D1002F53D00198002859
:100F20000BD0E06D10210143E165A434019920004C
:100F300001F045F8200000F056FF002042E02800B4
:100F4000283002902F003F1D7B7F5BB201202A5684
:100F500002984179207BFFF735F9010000963B6844
:100F60003A7949B2207BFFF7EDF84C4800903B6896
:100F70003A790298017849B2207BFFF7E3F8607C68
:100F8000002809D17869F16840186066B86943495A
:100F9000C9684018A06612E0A27D01202956307D64
:100FA000FFF755FF002801D108200BE0F868F16831
:100FB0004018606638693949C9684018A066A07E43
:100FC00000F0D8F907B0F0BD70B584B00E4C6D4696
:100FD000617C29700B4E717DA970E870A06D00F0E6
:100FE000FFFF0190E06E0290B07D68706946207B43
:100FF000FFF7D3F8E06E618D4143081A60657FBD4D
:101000009816001048110010B8030010D4150010F5
:1010100038B500242A4D200068746C64AC64EC641C
:10102000287601200100297769772100A977697660
:10103000010069852100E9822874CD4B3820185CB5
:1010400018703920185C58705920185C21215854A8
:10105000D86D196E1A00243203C26420185C2C214A
:1010600058546520185C2D215854986E1863D86E1A
:1010700058630221287BFFF73CF82000E874A8821F
:10108000286C01E04462806A0028FBD1200068835C
:1010900031BD0000546700009C160010FC160010C3
:1010A000E12801DB002070470120704780B5FFF781
:1010B00069FE0220D349C87701BD0000B0160010B8
:1010C000B803001000160010E4160010F2B588B046
:1010D00000210391049369460A71CA4C00212185BD
:1010E000E1740E99002B00D10021C74F39750278A9
:1010F000E3211140C54A127895001C222A400A4378
:101100000270C34D2A700078400907D0022849D0E8
:10111000042845D0072800D118E127E101202085C7
:101120000822216B2800401C02F094FC208D08301E
:1011300020850822E16A80B2281802F08BFC208DFD
:101140000830208502F058FCA084208DA18C0A0074
:101150002A54401C2085090A80B22954401C20854D
:1011600003AB626BC1B2280001F0D7F8208D039960
:101170002954401C20850399090A80B22954401C37
:1011800020850399090C80B22954401C20850399BD
:10119000090E80B22954401C2085002009B0F0BD02
:1011A0000120E074607C002801D10720F6E705A843
:1011B0000121017008990978C9094A1E9241D24358
:1011C000D20F4270E16C0691694A51780172117830
:1011D00041722C21515C817220004C300090130030
:1011E000521C05A9207BFEF7A0FF08990978BF22B1
:1011F0000A408001104308990870217D002905D01C
:10120000002121752021014308980170E06B010045
:101210006970090AA9700100090CE970000E2871B3
:10122000089800786871606C0100A971000AE87183
:101230000826E27D39009831A07D3818183002F078
:10124000FEFBE07DA17D0918A175049A002A1FD03C
:101250003A7D002A1CD0627D002A26D0C9B210290E
:101260001CDA089A1278F023134052181207120F52
:101270001A43089B1A706A7100220B0092B29A42BC
:1012800013D2BB181B7EF6B2AB55761C521CF4E78A
:10129000C9B2002909D0627D002A06D0397539000B
:1012A0001831049100216A461171002161750028EE
:1012B00001D0012060750498002826D0387D0028D0
:1012C00023D068460079F6B2A855761CF6B2A81964
:1012D000E36B616C6A461279002A0CD10022A27578
:1012E000029001911046009022007032397D0498DE
:1012F00000F0A9FF09E00290019100200090220077
:101300008032397D049800F09EFFF6B2387D3118A6
:10131000218503A80290606C019000200090E36B8F
:101320002200703289B2280000F048FF208D291871
:10133000039A0A70039A120A4A70039A120C8A706E
:10134000039A120ECA70001D208526E7002B00D1DB
:1013500023E73A7D002A00D11FE719006D1C280001
:1013600002F06DFB387D401C208516E7022015E752
:10137000D4150010F1B586B000276846077001A8A3
:101380006946097E0170A14E717841703178817093
:10139000316B0291716B03911A4C218D8181230075
:1013A0006C336A4601A9207BFEF7E2FE0125280086
:1013B000607097482900417071788170694609789A
:1013C000C1706946097E0161E16E8160616026003D
:1013D0009036FA218900300000F0F1FD300000F075
:1013E00002FD218DC9B20A48BB4A926A9047BB48A8
:1013F0000770E06D0543E565A08CE084384607B0D2
:10140000F0BD0000B803001048110010E00C0010FF
:1014100060120010F2B582B005001600002D0BD04E
:101420002868002808D06868002805D0A868002827
:1014300002D0E868002801D10320FEBD3000FEF78D
:101440003FFE002801D10A20FEBDA54C2566A54F10
:101450000298B8642673002001002022A154617311
:10146000E065E173206560650B2069460870207BAC
:10147000FEF72CFE401E8041C043C00F9A494875BC
:10148000082069460870207BFEF720FE5F4D2E0085
:1014900038363070052069460870207BFEF716FE4E
:1014A00070700C2069460870207BFEF70FFEF0601C
:1014B0000D2069460870207BFEF708FE30610E2083
:1014C00069460870207BFEF701FE70610F206946B7
:1014D0000870207BFEF7FAFDB061102069460870A5
:1014E000207BFEF7F3FDF061132069460870207B36
:1014F000FEF7ECFD2900583101914870142069462F
:101500000870207BFEF7E2FD0199486015206946CE
:101510000870207BFEF7DAFD019908721A206946EF
:101520000870207BFEF7D2FD019908731B206946E5
:101530000870207BFEF7CAFD019948731C2069469C
:101540000870207BFEF7C2FD019908611D206946E5
:101550000870207BFEF7BAFD019948610021207BCD
:10156000FEF7C7FD0120019908700A20706006216E
:1015700031722D1D286008462871F068A860306916
:10158000E86070692861B0696861F069A8610198D4
:1015900000782877FFF73CFD25009035AB492800FF
:1015A00000F019FCFA218900280000F008FDA84984
:1015B0002000A43000F00FFCA6492000B83000F055
:1015C0000AFCA5492000CC3000F005FCA3493800F6
:1015D000183000F000FC00F000FDA065A048F862A3
:1015E000A0487863A048F863A0483863A048B8636F
:1015F000394D2C373800296888470120A073A96D20
:101600008847E86A80470020FEBD0000D41500101E
:10161000E4160010F1B586B00F00964D3920285C15
:10162000694648713820285C8871934C6846A17DD2
:10163000E27D89180171002F01D1032049E00026C5
:1016400003A831000170A17C4170E16C04916978BC
:101650000172297841722C21695C817220004C3022
:10166000009001AB9B1C01AA521C03A9207BFEF732
:101670005CFD02A82C352978817069464979417052
:1016800009210170E17B002901D00A21017002A922
:10169000207BFEF71BFD78707878694609798842CF
:1016A00004D369460979401A387004E03870300074
:1016B00069460871E0826846027969460520095644
:1016C0006846007EFFF7C3FB002801D1082000E038
:1016D000304607B0F0BD000054670000B4040010AD
:1016E000B8030010981600104811001038B5050016
:1016F0000024002D01D1032032BD28781E2800D9F6
:10170000A0E002A1095C49008F4400BF1014181C1E
:101710002024272A2E323B404F46585C6064686C78
:1017200070747C788084888C909498005248407BB8
:10173000287188E05048407C287184E04E48807CC5
:10174000287180E04C48806B68607CE04A48C06B40
:10175000686078E04948686075E04948686072E010
:101760004548807B28716EE04348C07B28716AE061
:101770001920694608704048007BFEF7A7FC6860A6
:1017800061E0404803C82D1D03C55CE0394AD06DB7
:10179000116E2D1D03C556E01720694608703648A6
:1017A000007BFEF793FC68604DE0162069460870E8
:1017B0003148007BFEF78AFC686044E032480078DC
:1017C000287140E02B48C06868603CE02948006907
:1017D000686038E027484069686034E025488069DF
:1017E000686030E02348C06968602CE027480078D2
:1017F000287128E01F484078287124E024480078A8
:10180000287120E01B48007828711CE01A48406CC1
:10181000686018E01848806C686014E01648006C36
:10182000686010E01348406868600CE01148007A76
:10183000287108E00F48406B686004E00D48C06EF6
:10184000686000E00224200032BD0000810A000030
:10185000150D0000310D0000850D0000090E00007F
:101860000103000031040000850900005709000051
:10187000FB090000D4150010B80300102804001064
:1018800038040010F8150010F41500100D160010A3
:101890000C160010F0B585B0040000200700002CE5
:1018A00001D1032050E10121A84DEA6D0A4001D089
:1018B000084649E122781E2A00D943E101A35200DB
:1018C0009B5A9F443C0076007C00820088008E007A
:1018D000A400BA00C6007E02CC0026016A015001B5
:1018E000820196019E01A601AE01B601BE01E00192
:1018F0002A0208024C0252027E02580262026E0262
:10190000760221796973002902D0022904D01AE1F4
:101910008F48C06A804716E1E8748D48C06A8047E6
:101920008C4E8D4800907368327A2836317849B2EF
:10193000287BFEF707FCFFF7B9FB04E12079687408
:1019400001E12079A874FEE06068A863FBE06068AC
:10195000E863F8E06168002905D01022703528009E
:1019600002F06DF8EFE00327EDE06168002905D093
:1019700010228035280002F062F8E4E00327E2E05C
:101980002079A8737249896D8847DCE02079E87373
:10199000D9E0207A694608716E4E2D20305C01A98D
:1019A00048700622287BFEF7ACFB00281CD0241DC3
:1019B00003CC3200243203C2687B022800D0C2E08C
:1019C000687C002800D1BEE06148C06A8047624858
:1019D00000907368327A2836317849B2287BFEF756
:1019E000B1FBFFF763FBAEE00327ACE0207A69466A
:1019F0000871584E2D20305C01A948700622287BC2
:101A0000FEF77FFB002804D0241D03CC5C3603C600
:101A100099E0032797E06068029002A8017102A98B
:101A2000287BFEF779FB002800D08CE003278AE0B2
:101A30006168029102A90871287BFEF76DFB0028FE
:101A400000D080E003277EE02079002804D0102811
:101A500002DA6C49087076E0032774E060683D495B
:101A6000C86070E060683B4908616CE060683949B3
:101A7000486168E060683749886164E060683549BA
:101A8000C86160E0207969460871052201A9287BB8
:101A9000FEF737FB002804D0684600795A490870E1
:101AA00051E003274FE0207969460871294E2C2028
:101AB000305C01A988700422287BFEF722FB0028F5
:101AC00003D06846007970703DE003273BE0207941
:101AD00069460871082201A9287BFEF712FB00283D
:101AE00004D068460079494908702CE003272AE0B1
:101AF000207969460871072201A9287BFEF701FBBE
:101B0000002804D068460079124908701BE00327BA
:101B100019E06068686416E06068A86413E06068B3
:101B20000C4EF06370600EE020790A4E4021705434
:101B3000307208E060680749486304E0606805495E
:101B4000C86600E00227380005B0F0BDB8030010F9
:101B500054670000D4150010FC16001070B582B058
:101B600004000226002C1CD07C4DE86D00280DD10D
:101B70000C220021280001F07AFF012068702078F3
:101B8000002831D15C20285CC00601D5012076BD3B
:101B90006068002805D0A068002802D0E06800280E
:101BA00001D1032076BDFFF733FA2020285C0821FD
:101BB000014320202954207828706068E862A068DA
:101BC0002863E0686863217C49B2287BFEF7DCFA71
:101BD0006349487000206946087003460246014682
:101BE0006846FFF754F90600002E07D00020E8747D
:101BF0002020285CF721014020352970300076BD77
:101C000000000000F41500100D1600100C16001056
:101C1000F0B585B0070002206946487000200870C2
:101C200005460446002F00D190E04C4EF06D002890
:101C300001D0012090E02046087114220146494855
:101C400001F015FF01204749487070773878002867
:101C500004D0012817D003282AD039E001242046D7
:101C6000307768460079C006C00E402101436846BF
:101C70000171387969460870B8680290B88948805F
:101C80000E203D5624E00124F87B30776846007929
:101C9000C006C00E8021014368460171387969464B
:101CA0000870B8680290B88948800E203D560FE051
:101CB00001242046307768460079E02101436846D8
:101CC0000171786802903889694648800A203D563B
:101CD00068460078FFF7E4F9002837D004A801210E
:101CE000017021490978817004A9307BFEF7EEF973
:101CF000A84200D30500002C2CD0B07C00280ED1C7
:101D000003AC257018480078A070042203A9307B2A
:101D1000FEF7F7F9002819D0207811494870684675
:101D20004388029A017801A8FFF7B1F86946487024
:101D30006846407800280BD138780A49087020207E
:101D4000305C012101432036317003E0032003E0C1
:101D50000020F0746846407805B0F0BDB80300106C
:101D6000D4150010E416001000160010A649012238
:101D700082400868A54B034013430B607047A2499B
:101D80000A6801238340A248184382430A607047CF
:101D9000A049012282400868C001C00910430860C0
:101DA000704742691207120F0A4342617047426945
:101DB0000F23DB430B439A4342617047C1680069BC
:101DC000814201D10120704700207047AA21816023
:101DD0005521816070470022026042601300037247
:101DE000C1600261704738B5040001F091FE002C1B
:101DF00027D0200000F0D7F8002822D160682060AA
:101E00000020207284480568002D04D1216820003C
:101E100000F047F815E0287A002807D000F0D7F83E
:101E20002968814200D20800091A00E02968206868
:101E3000884203D2200000F034F802E0200000F0D5
:101E400003F801F06BFE31BD30B4734A12681369B8
:101E5000002B06D10368591A01601061002101614D
:101E60001DE01C680C1902E021001D686419002A9D
:101E700015D00568A54209D2691A0160002B02D06D
:101E80001C68611A19601061036108E01A001B697F
:101E9000002BE9D1291B016010610021016130BCD8
:101EA000704710B55C4A1368002B04D00468091B06
:101EB000196000211972036101210172106000F0A4
:101EC0009AF810BD38B5544C2568002D20D000F08C
:101ED0007EF829680022884201D32A6001E0081AAE
:101EE00028602A7205E001692160C068010000D005
:101EF00080472068002802D001680029F3D000281C
:101F000006D0017A002903D10121017200F073F893
:101F100031BD70B5060001F0FBFD3F4C25682A007D
:101F200028003DD0002E3BD0B54226D1287A00288B
:101F300017D000F04CF83168814200D20800091A2D
:101F40000022100028722869002808D0206002684A
:101F5000511801600121017200F04DF820E022606B
:101F60001EE02869002805D02060016832688918C1
:101F7000016015E00020206012E0316801E00200FD
:101F8000180000280CD00369B042F8D1002B05D00E
:101F90001800106102685118016001E00020106112
:101FA00001F0BCFD70BD1C49096800E00969002909
:101FB00003D08142FAD1012070470020704738B524
:101FC00005000C00FFF7A5FF2C606C6031BD80B5EB
:101FD0006948006800F004F802BD6848006870476E
:101FE00010B50400FFF7F9FFA04202D2401E001B0B
:101FF00010BD001B10BD80B5006861490860FFF787
:10200000ECFF5D49086001BD80800440FFFFEF25C3
:10201000000010DAC0C100403017001070B582B067
:102020008025ED052800FFF7D1FE564C0AE0280078
:10203000FFF7CCFEFFF7D1FF534948606846407870
:1020400001F0E2FD012300AA521C21004F4801F0DB
:102050001FFF0128EBDA4E480078002813D04D48C6
:102060000068FFF7BDFFFF21F631884200D281E012
:10207000002001F0BDFB69460870002301221046D4
:1020800001F091FF73BD444E7020305C022871D086
:102090004248FFF793FE002804D02000FFF78EFE91
:1020A000002803D1FFF799FF374948603C48FFF704
:1020B0007AFF00285ED13B48FFF775FF002859D111
:1020C0003948FFF770FF002854D13848FFF76BFFFD
:1020D00000284FD1364C6568A84701284AD0A84748
:1020E000022847D033480068002843D1361D307895
:1020F000C1073FD4244D2978012910D180070ED57E
:10210000002001F075FB6946087001231A4610464D
:1021100001F049FF00282DD00020287073BD6868A9
:10212000FFF75EFF0B2825D3E06A8047224C012190
:102130002000FFF736FEF06C002803D00C212000B1
:10214000FFF72FFE0322F16C012000F0DDFD0121DD
:102150002000FFF72CFE0720FFF708FE1820FFF7EE
:1021600017FE0421012005F0A1FD0720FFF707FE5F
:102170000120287073BD0000440500103C050010CC
:1021800040050010340F00105005001000400640BC
:10219000B4040010C4040010700C0010200F0010D4
:1021A00070040010840400105C040010B0160010CD
:1021B000546700001404001000000240F8B5060047
:1021C0000D0017009D4C069860711800A071000A60
:1021D000E0711800000C20721800000E6072079861
:1021E0000100A172090AE1720100090C2173000EBD
:1021F00060732800E0732000203002F041F93900BC
:102200002000203002F04DF9102221002000203063
:1022100002F04FF9EAB231002000203002F049F913
:10222000210020312000103002F0A8F9E07C0006E7
:10223000A17C09040143607C00020843217C014326
:1022400008980160F1BDFDB50F00002601257C4C0A
:10225000F02231462000203001F009FC220020321B
:102260001021019802F0E8FC089860710298A071B2
:102270000298000AE0710298000C20720298000E89
:10228000607209980100A172090AE1720100090C4B
:102290002173000E60730DE07018009A135C6218D1
:1022A000127C5A400A9B1A54491C1029F4DB103F37
:1022B0001036F6B2BFB2102F0BDB2800E0736D1C96
:1022C0002200203221001031200002F036FD0021D2
:1022D000EBE7002F15D0E5732200203221001031EA
:1022E000200002F02AFD002109E07018009A125C1B
:1022F00063181B7C53400A9A1354491C89B2B94293
:10230000F3DBF7BD10B584B0089C0294079C0194E0
:10231000069C0094FFF797FF1FBDF8B506000D005F
:102320001700464C2000203002F0AAF839002000A7
:10233000203002F0B6F8EAB231002000203002F07E
:10234000B8F8210020312000103002F017F9E07CAD
:102350000006A17C09040143607C00020843217C43
:10236000014300980160F1BDF4B505000E001F00A7
:10237000334CF02200212000203001F078FB2200B5
:1023800020321021009802F057FC22002032390040
:10239000280002F0D2FC102E07DB20342200103778
:1023A00039001035280002F0C8FCF1BDF4B584B046
:1023B00004000E001F00224DF022002128002030D2
:1023C00001F055FB2A0020321021200002F034FCDD
:1023D00010220021684601F04AFB6C460120207063
:1023E000062231002000401C01F029FB022204A932
:1023F0002000C01D01F023FB2A002032390068466E
:1024000002F09BFC10220021684601F030FB022004
:102410002070062231002000401C01F010FB022237
:1024200004A9E41D200001F00AFB20352A000A99C6
:10243000684602F082FC05B0F0BD00006C0100109F
:10244000A4020010124207D08B0706D00B78491C5B
:102450000370401C521EF7D87047830706D00B78D4
:10246000491C0370401C521EF9D1704770B4103AD9
:1024700003D378C9103A78C0FBD2530701D318C9E7
:1024800018C001D508C908C0D20704D30B8803803F
:10249000891C801C002A01D50B78037070BC704722
:1024A00002000800824201D1C0B201E0501EC0B259
:1024B00040B270479E49800008589E49884204D027
:1024C0004900884203D00020704701207047022055
:1024D00070470200914200DB08007047FFB583B0EF
:1024E0000026354628460090019007E000981030FD
:1024F000C0B200900198401CC0B2019000986028C2
:1025000033DA002407E00098210040180C99F6B255
:102510008855761C641C102CE8DA0498019949004F
:10252000405A0121A1400842F4D0059800990919A8
:102530004A0051188900471838680028EAD0082056
:1025400039560A001211090709176846007B40B284
:1025500002F0BCFC0028DDD00698797A0901401809
:10256000C0680028CFD06D1CD4E70D9805703000EE
:10257000C0B207B0F0BD000080B500BF28A1096857
:1025800002781E2A4AD801A39B5C9F4484848E8EC5
:102590008E848E8E842C368440444A5054585E84F7
:1025A000708474787C808484888C1E0000210122D1
:1025B0008056FFF775FF010030E08A4901228056FE
:1025C000095C2BE0884901228056095C26E0874996
:1025D00024E0FA21890021E0FA21C9001EE08449A3
:1025E0001CE084491AE08021C90117E0FA21890022
:1025F000814801F019FAFA21C90041180EE07F491B
:102600000CE07F490AE07F4908E0602106E07E494E
:1026100004E0002102E07D4900E0B049080002BD6D
:102620000000000038B54268AD49774B047865007A
:102630002C19A4001B195B7A1B01C918407802F001
:1026400075FC31BD10B5002803D0022824D023D357
:1026500010BD00200100A34C0CE04A00521892006B
:102660009A18A14B4B431B1913605023137203009C
:102670005372491C644B6029EFDB9C486149088018
:1026800048808880C8800881488106229020C00048
:10269000181802F03AFC10BD06225A49584802F0B8
:1026A00034FC10BD80B5091F012905D9891E0ED043
:1026B000491E012916D920E0052200210023C05619
:1026C00002F004FC401E8041C043C00F02BD052241
:1026D00000210023C05602F0F9FB401E8041C04398
:1026E000C00F02BD072200210023C05602F0EEFBFE
:1026F000401E8041C043C00F02BD002002BD00212A
:1027000000E0491CA44A1278C9B2914205D2A34AFA
:10271000A34B5B5CD2569042F3DA002900D0491EED
:102720009F48C9B2405CCF4948657047000000002F
:10273000F028000090D00300F0B583B06946002275
:1027400013460CC10179002902D0012907D047E0C6
:10275000062201682A4802F0D8FB0120FEBD14467B
:102760008D4D2100297006220168264802F0CDFB1C
:10277000260001271EE03000C010000F8019010064
:10278000091120484A00805A0901711A3A008A400A
:1027900010420ED03000062105F0B3FA0800020105
:1027A0001043194A73009B199B00D2181072684697
:1027B0004754761C602EDEDB09E06946085C002881
:1027C00004D0287876490C54401C2870641CE4B26C
:1027D00020000628F1DB72480078A2494865BCE772
:1027E0001046FEBDAC290000A4290000B80B000073
:1027F000881300007017000018FCFFFF20441E1E05
:10280000DC090010201700105C05001033339941DB
:10281000F7B582B000242500082146560921475605
:102820004068186002984078002824D0002E01D11A
:102830001C6020E002984068402801D30125270051
:10284000602818D3C006C00E012814D168461E2186
:10285000017046700299897A8170FFF78DFE06003B
:1028600076B2002E07D1250002980078002802D009
:102870000120FFF7E7FE0398067004980770280010
:1028800005B0F0BDF4B584B00D001C00052800DBD8
:102890000520607001202056FFF70CFEA07001207B
:1028A000205600BF12A18200895800BF6EA2105CA2
:1028B00002F09CFB06000F006D48C06D80470100D0
:1028C00020000C300290083401940091049B2A00EF
:1028D0003000390002F0A8FB05B0F0BD9A9909401C
:1028E0002C0500106035081C400D0300FFFF0000A0
:1028F00048E8010048E8010048E8010048E8010014
:1029000048E8010048E80100F2B58AB0040001205F
:1029100026566768564D68688047002801D0002019
:1029200038E0E07C002807D12078302105F0E9F973
:102930005D4841435D480F183800E9688847A07C2E
:1029400009900120089000200790069005900490BF
:102950000390A06880B202900820019000200090AF
:10296000012300BF40A0825D52B2A1781846AF6932
:10297000B847607C002802D00AA0815D02E000BF59
:102980000AA0815D0D31C9B201206A6D90470A9895
:10299000067001200BB0F0BDB60400104805001011
:1029A000BC04001033333373DEDE00003333337383
:1029B000DEDE0000F6B58BB004000120225609A827
:1029C000401C00BF28A1895C0170654E9020C000AA
:1029D0003318644821784D00691889007118497AC4
:1029E000090140180221415602202056FFF771FDCF
:1029F0000700A268616802F073FB09A908701C4D0A
:102A000020784100081880003058E9688847564807
:102A10000890002007900690059001200490002067
:102A20000390082002900120019069462520085655
:102A3000009000231A46242009560120EE69B04771
:102A4000A189C9B201206A6D9047A189C9B201204C
:102A50006A6A90470C9908600B98077001200DB0C6
:102A6000F0BD0000700C00100C0B0A0908070000F4
:102A700054670000704700B585B0394900913C4962
:102A80000191694642780A7202784A7282788A72A3
:102A9000C278CA724168039180680490684602F067
:102AA00034FB05B000BD0000400D0300E0F8D11D6F
:102AB000F6B59DB006001F0000252C0028006946D1
:102AC000087204A8602105F095F92A4803900622AF
:102AD000214602F003FA002802D10120FFF7B2FDDF
:102AE0007068FFF77DFA3168884214D33D601D4C51
:102AF00001232200B17A707A02F01DFA070002A8C1
:102B0000019004A800902300184A0399307AFFF737
:102B1000E5FC040009E06846007A401C694608723A
:102B20007068FFF75DFA31680F1A002C0CD0641E34
:102B30002100284600F078FF04A9085C1D99087060
:102B40001E980560284609E06846007A00281E980D
:102B500002D007600B2001E005600C201FB0F0BD23
:102B60005C0500102C050010B80B00005C0500107F
:102B70002C050010DC090010881A010049B2002958
:102B800000D50020C0B270472B4A00091060080031
:102B900000098021090601435160704780B5090191
:102BA0004118FFF7F1FF01BD24480068C00F7047CE
:102BB000AA21816055218160704738B5204C2121C0
:102BC0002000401D00F02CFA0504302120002830A0
:102BD00000F026FA054325601A4D002280212800C6
:102BE00005F0EAF8742221002800FFF73FFC80205E
:102BF000C005FFF7DDFF00F08BFF1F21084602F044
:102C0000B5FAFF21F231481E02F0EAFA1F21084608
:102C100002F0ACFAF824E40180222900200002F03E
:102C2000B3FA00F07BFF40212000FFF7B7FFFFF76A
:102C3000BBFF0028FBD131BD20000440240004402C
:102C4000700C00105415001060490A68012383407D
:102C50008B48184382430A6070475C4901228240D6
:102C600008688F4B034013430B60704710B5040096
:102C7000FFF7EAFF2000FFF7F0FF10BD89490A685F
:102C8000D2B202430A61704740014908491E01431C
:102C90008548016070478549012282400868844B5D
:102CA000034013430B60704742691207120F0A4337
:102CB0004261704742690F23DB430B439A434261F1
:102CC000704701684907490F04220A4302607047B0
:102CD000C160704741607047AA21816055218160C1
:102CE0007047416170478161704702689206920E99
:102CF0000A430260704710B504000121FFF7F5FF99
:102D00002000FFF7E9FF10BD70B50C001600694DFB
:102D10000100280005F075F8280005F07DF8010095
:102D200061432800FFF7D4FF482005F083F8A7206F
:102D3000C04305F086F83100B848FDF77FFA00205F
:102D400005F078F82800FFF7BCFF70BD10B58020B3
:102D50000002FFF793FF0920FFF79DFF0920FFF70F
:102D600085FFAE4C0A212000FFF7A4FF09212000B7
:102D7000FFF79AFF10BD38B540210120FFF784FF0F
:102D8000402005F071F802F0A2FA0500AD08802499
:102D9000E405200002F077FB6D0829002000FFF712
:102DA00099FF610D2000FFF79CFF29002000FFF72D
:102DB0009AFF02212000FFF798FF0C21200002F06B
:102DC00079FB2000FFF797FF31BD0000048004402D
:102DD00038B5A14C2078002805D0022827D014D37C
:102DE000032836D048E09D4D2800FFF792F80121D6
:102DF000002000F0EEFC64212800FFF7E0F8280036
:102E0000FEF7F1FF0120207031BD944D2800FFF73F
:102E100080F80021084600F0DCFCC8212800FFF7FC
:102E2000CEF82800FEF7DFFF0220207031BD8B4D69
:102E30002800FFF76EF80121002000F0CAFC642191
:102E40002800FFF7BCF82800FEF7CDFF0320207014
:102E500031BD824D2800FFF75CF80021084600F0E4
:102E6000B8FCFA2189002800FFF7A9F82800FEF72E
:102E7000BAFF0020207031BD0020207031BD00005D
:102E80000020FEFF10B50021084600F0A2FC734CA4
:102E90000A212000FFF793F82000FEF7A4FF10BDE1
:102EA000FFDF01000482044024800440808004404D
:102EB000FFFFEF2500800040F0B583B005002F0034
:102EC000BA4E052802D0062803D00BE0FFF7DAFF40
:102ED00008E0BF2080003018FFF71BF800210846EB
:102EE00000F077FCBA2080003058E840C00700D4DA
:102EF00093E0AF4CA800201896214900401801909B
:102F00000068FDF7AFF905000A2F01D00D2F61D140
:102F1000A8483018009007780322A7A12000FFF7E7
:102F2000A5FAEDB22A00019801682000C01CFFF745
:102F300089FAED1C28002C25C0B22554401C010044
:102F4000491C3A00120601D5412205E03A0052061A
:102F500001D54E2200E03022C0B222540800401CAD
:102F60003A00D20701D531220AE03A00920701D592
:102F7000322205E03A00520701D5502200E030220B
:102F8000C9B26254F9060FD5C0B22554401C0700DF
:102F90000122009840783018884941183800C0B2A2
:102FA000201802F0B7FA381800998978002920D043
:102FB000C0B22554401C0500009882784078301833
:102FC0008121890041182800C0B2201802F0A2FA1D
:102FD00028180EE0032278A12000FFF747FAEDB28F
:102FE0002A00019801682000C01CFFF72BFAED1C95
:102FF00028000D21C0B22154401C05000A20EDB26A
:10300000605500F085FD6D1CEDB22B0022006C496F
:103010006C4800F008FF00F081FDF7BD00000240A1
:1030200030B402000B000024210000E0641C9C422C
:103030000ED2105D000248400100082001E0290086
:10304000401EF3D04D000904F9D55F496940F7E708
:10305000080080B230BC704736170010E40C001036
:10306000F0B58BB00500514CA220800020180290D2
:10307000F826F60174223100FFF7F8F953482018BA
:1030800000902121FFF7CCFFAC2080002018019098
:103090003021FFF7C5FF03A800210A4606C003A898
:1030A00000F07BFD0027380000E0401CC0B20100AA
:1030B000802902DA725CFF2AF7D0802901DA002D1C
:1030C00043D0434D082203A92800FFF7CFF905A8F4
:1030D00024A10CC90CC000BF24A11022FFF7C6F91F
:1030E000082205A928000830FFF7C0F9102207A917
:1030F00028001030FFF7BAF93800202168543C202E
:10310000E864212229000098FFF79CF9A3208000A1
:103110002618012030703022243529000198FFF74D
:10312000A5F97765B7650020C043F065BB20800036
:1031300024183A460C21200004F03EFE2548208049
:103140002773FFF73AFD0BB0F0BD742231000298EF
:10315000FFF78CF9082203A9009802F0CFFA0028A3
:10316000F1D0FEE74D4A2D4D6F64656D2B7E15162F
:1031700028AED2A6ABF7158809CF4F3C10B500207A
:10318000FFF76EFF094C002298214900200004F04F
:1031900013FE9622520021000F4800F02BFD0F492C
:1031A000BF2080002018FEF716FE10BDE8090010B1
:1031B000000000100102000045565F0003020000FD
:1031C000200F001000400640211000008D0200007A
:1031D000441600104110000010170010D12D0000FF
:1031E000F0B5A5B00024BA4D287802F0E9F90290B4
:1031F000B84806892F00204669460871002E01D183
:10320000012453E20298762810D1022E0ED168785C
:103210003F280BD1B0A1280002F0D9F92C18AF49F2
:10322000200002F0D4F9271801243FE202987A28FE
:103230000AD1012E08D1AA48C06A80470126300071
:1032400069460871340031E2262812D1022E10D1CD
:10325000687802F0B5F966280BD1A148C06A8047AA
:103260000120FFF7FDFE0126300069460871340099
:103270001CE20298732800D08DE0022E00DA8AE06A
:1032800068783F282ED1022E2CD193A1280002F07D
:103290009EF92C18AC2080002958200002F054F927
:1032A00026182C2420003070761CAD208000295870
:1032B000300002F049F9361820003070761CB92031
:1032C00080002958300002F03FF930180470401C8B
:1032D0000400B82080002958200002F035F9271892
:1032E0000124E3E13D2800D0E0E1552E00D0DDE1EE
:1032F000AC208000281800903022014619A8FFF762
:10330000B5F808222900891C19A802F02FF9002815
:1033100000D1CBE1A87A2C2800D0C7E119AE082251
:1033200029000B313000001D02F020F9002800D1E7
:10333000BCE1E87C2C2800D0B8E12022290014311F
:103340003000083002F0C6F8102800D0AEE134207A
:10335000285C2C2800D0A9E120222900353118361C
:10336000300002F0B7F8102800D09FE1302219A9F0
:103370000098FFF77BF8A320800028180178FE2230
:103380000A40022111430170FFF717FC01263400A7
:10339000684606718AE16A286BD1022E69DB68787B
:1033A0003F2823D1022E21D14BA1280002F00FF992
:1033B0002C180822C248291805A802F0F0F80822A3
:1033C00005A9200002F0A6F824182C202070641C07
:1033D0000822BC48291805A802F0E1F8082205A92E
:1033E000200002F097F8271801245FE13D2800D063
:1033F0005CE1332E00D059E1B14828180090212219
:10340000014610A8FFF71EF810AE10222900891CF3
:103410003000083002F05EF8082800D046E1A87CB1
:103420002C2800D042E12022290013313000103036
:1034300002F050F8102800D038E10822310008319D
:103440000836300002F0ABF8212210A90098FEF7F0
:10345000F9FFA3208000281801260178FD220A40E8
:10346000310011430170FFF7A8FB34006846067174
:103470001CE1672866D1022E64DB68783F2831D1D1
:10348000022E2FD114A1280002F0A1F82C180C2232
:10349000BB2080002918200002F03CF826182C24BC
:1034A00020003070761C0122BE20800029183000D8
:1034B00002F030F830180470401C04000122A320F0
:1034C00080002918200002F025F827180124EDE0DB
:1034D000E8090010101700104F4B2C003067000057
:1034E000546700003D2800D0E0E01D2E00D0DDE054
:1034F00018222900891C0AA801F0ECFF0C2800D032
:10350000D4E0A87E2C2800D0D0E0022229001B3174
:1035100001A8401C01F0DEFF012800D0C6E00C220B
:103520000AA9BB2080002818FEF7A0FF6846407952
:10353000BE2189006854FFF740FB0126340068462D
:103540000671B3E06A2811D1012E0FD1A3208000AB
:10355000281801260178FD220A403100114301702C
:10356000FFF72BFB3400684606719FE074285CD19E
:10357000052E5ADB6878302802D0312800D095E03B
:10358000A8782C2800D091E0A720400028180090AF
:1035900002222900C91C01F09DFF012800D085E00E
:1035A00000980078002800D180E0FF2050302818D3
:1035B00004906878303804990870A82040002818D2
:1035C0000390204603990870062E0EDB68792C289C
:1035D0000BD13000821F92B22900891DFF2052308A
:1035E000281801F077FF03990870A3208000285C59
:1035F00080075BD5052E03D003980078342855DA70
:1036000000980078002851D0E0284FDA0499097812
:103610004B1E9B41DB43DB0F03990A78FF2152319C
:10362000691800F0C0FC040040E061283ED1022E81
:103630003CDB68783F2817D1022E15D107A80C2152
:1036400004F0D8FB36A1280001F0C1FF2C18B620E9
:103650008000295807A801F077FF07A9200001F092
:10366000B6FF2718012421E03D281FD1B01E01001C
:10367000C90F091849104A00821A17D1012915DB10
:10368000B21ED2B22900891C684601F06FFF0028E3
:103690000CD000982349884208D2B621890068508E
:1036A000FFF78BFA0126340068460671002C0BD018
:1036B000AF420ED11CA1380001F089FF3F1808E08D
:1036C0008D020000950200001BA1380001F07FFF71
:1036D0003F180D2038707F1C0A2038707F1C962000
:1036E00040002C182800381A208000F011FA238896
:1036F0002A000E490E4800F096FB00F00FFA6846CB
:103700000079012804D1042002F00CF800F031FA0D
:10371000962252002900074800F06CFA25B0F0BD4F
:103720004F4B2C00B88D06004F4B0000200F0010AF
:1037300000400640101700104552524F5200000042
:103740002D490122824008682C4B034013430B6033
:10375000704729490A680123834029481843824356
:103760000A6070472749012282400868C001C009E9
:103770001043086070474901401883547047012383
:103780009340890040188E218901435070470123DE
:1037900093408900401890218901435070470000F0
:1037A00070B50024A0252D060EE000BF08A0065D20
:1037B000320000212800FFF7E2FF01233200002140
:1037C0002800FFF7D8FF641C012CEEDB70BD000061
:1037D0000B0010B50C00002809D1012363400B2217
:1037E0000021A0200006FFF7C6FF7648047010BD38
:1037F000744800787047000080800440FFFFEF2588
:10380000000010DAC0C1004010B50720FFF798FF94
:103810000020FFF7A7FF0120FFF7A4FF0220FFF71A
:10382000A1FF0320FFF79EFF0620FFF79BFF072065
:10383000FFF798FF0920FFF795FF0A20FFF792FF97
:103840000B20FFF78FFF0C20FFF78CFF0D20FFF7F9
:1038500089FF0E20FFF786FF0F20FFF783FF102060
:10386000FFF780FF1120FFF77DFF1220FFF77AFF9F
:103870001320FFF777FF1420FFF774FF1520FFF7E1
:1038800071FF1620FFF76EFF1720FFF76BFF182060
:10389000FFF768FF0720FFF75CFFA0242406002243
:1038A00011462000FFF773FF042200212000FFF7DC
:1038B0006EFF454C00221121200001F049FF00223B
:1038C0000B21200001F044FF00220421200001F020
:1038D0003FFF00220321200001F03AFF00221021C7
:1038E000200001F035FF00220F21200001F030FF01
:1038F00000220E21200001F02BFF00220D212000CC
:1039000001F026FF00220821200001F021FF002203
:103910000721200001F01CFF00220221200001F0FD
:1039200017FF00220121200001F012FF00221221C6
:10393000200001F00DFF00220A21200001F008FF05
:1039400000220921200001F003FF0022114620007F
:1039500001F0FEFE00221E21200001F0F9FE0022EF
:103960001D21200001F0F4FE00221C21200001F0A6
:10397000EFFE00221B21200001F0EAFE00221A21A6
:10398000200001F0E5FE00221921200001F0E0FEF8
:1039900000221821200001F0DBFE00221721200068
:1039A00001F0D6FE00221621200001F0D1FE0022F7
:1039B0001521200001F0CCFE00221421200001F08E
:1039C000C7FE10BD351700100040044010B5A024FC
:1039D0002406200001F0D4FEFFF716FF0C22002180
:1039E0002000FFF7CCFE00230C2219462000FFF731
:1039F000C2FEFFF7D5FE10BD00B507490868074AAB
:103A00005043074A80180860064904F07DF9080011
:103A100000BD014908607047580500106D4EC64151
:103A200039300000FFFFFF7F38B504000D00FFF7BD
:103A3000E3FF291B491C04F064F9081932BD03E0B7
:103A40000B780370491C401C13005A1E9BB2002BBC
:103A5000F6D170478018401E03E00B780370491CB4
:103A6000401E13005A1E9BB2002BF6D1704701E096
:103A70000170401C13005A1E9BB2002BF8D17047F6
:103A800010B48207920FD300FF249C40E2438901C7
:103A9000C9B2994003000BD54C481B071B0F083BCC
:103AA0009B089B00C01803681A401143016007E09F
:103AB00047489B089B00C01803681A4011430160E7
:103AC00010BC7047BFF34F8F424843490860BFF3B3
:103AD0004F8FFEE710B5401E80214904884201D374
:103AE000012010BD3D4C606003210020C043FFF762
:103AF000C7FF0020A06007202060002010BD3849CB
:103B0000012282400868374B034013430B60704723
:103B100072B635480178491C017070473248017807
:103B2000491E0170C9B2002900D162B6704700B5C4
:103B300083B001F02BFEFFF749FF01231A46002155
:103B4000084601F068FEFFF719FB0020FFF7D7FFDA
:103B500026480068FA21890004F0D6F8FFF7BAFF7A
:103B600000200190009001231A46014601F02DFF2C
:103B700007BD80B5FFF7CCFFFFF7A4FF01BD00B57F
:103B800085B0684601F016FB009801994140029A01
:103B90004A400398504005B000BD1FB50400684678
:103BA00001F008FB082269462000FEF74BFC1FBD10
:103BB00010B50F4C2068401C2060A068FEF710FA7A
:103BC0006168884201D3FEF77DF910BD1CED00E06D
:103BD00000E400E00400FA050CED00E010E000E075
:103BE00080800440FFFFEF25341700102C170010D1
:103BF0003C05001010B400231C0004700473038102
:103C00004160428110BC704780B53E490A78002A65
:103C100010D0A12A29D0A22A2FD0A52A0CD0A62ABA
:103C200010D0A82A13D0B12A3FD0B22A4ED0B32A3E
:103C30005CD005E0A5220A70FF2801D1A6200870FB
:103C4000012002BD5528FBD1A8200870F8E702002A
:103C5000612A01D0412A02D1A1200870F0E7422A4E
:103C6000EED1B1220A700873EAE70200742A01D08B
:103C7000542AE5D1A2200870E2E70D2805D1A3203F
:103C80000870FFF7ADFA002002BD0A894B899A42FD
:103C900005D1A4200870FFF7A3FA002002BD4B68ED
:103CA00098540889401C0881CAE702004B89934256
:103CB00005D2B5200870FFF793FA002002BD4A81B3
:103CC0000A7B50400873B2200870B9E74A680B8934
:103CD000D0540A89521C0A810B7B584008734889CA
:103CE00092B28242ACD1B3200870A9E70A7B50405F
:103CF00002D0B520087001E0B4200870FFF770FA18
:103D0000002002BD1017001058490A6801238340A3
:103D10005748184382430A60704754490122824041
:103D20000868544B034013430B60704710B5040000
:103D3000FFF7EAFF2000FFF7F0FF10BD4E49012218
:103D4000824008684D4B034013430B607047C168C5
:103D50000069814201D10120704700207047C16194
:103D600070474069C005C00D7047C1607047016170
:103D7000704781684248084070474249884201D1F3
:103D80000E2070474049884201D10F207047102013
:103D9000704710B50400FFF7F0FFFFF7CFFF394879
:103DA000844203D10320FFF7C1FF10BD364884428F
:103DB00003D10420FFF7BAFF10BD0520FFF7B6FFBF
:103DC00010BD38B504000D0001F0CCFA290103F054
:103DD0009BFF401E206231BD38B504000D0007E096
:103DE0002000FFF7BEFF69460870280001F064FE5E
:103DF0002000FFF7BEFFC007F2D431BD38B5040084
:103E00000D0004E0684601782000FFF7A8FF2000BD
:103E1000FFF7AFFF400705D56946280001F0AFFE68
:103E20000028EFD131BDF1B50F0014001D000421B1
:103E3000FFF79DFF2A002100380001F056FE060022
:103E400039000098FFF7DAFFAA1BA119380001F02A
:103E50004CFE341804210098FFF787FFFEF7BDF8E9
:103E60000A4908602000F2BD000000000480044000
:103E70000020FEFFFFDF010080800440FFFFEF25F0
:103E80007FFD010000400640008006405405001000
:103E900080B5080011001A0001F08AFE02BD70B55D
:103EA00004000D001600FFF764FF40070CD5310039
:103EB0002000FFF7A3FF3000FFF749FF002803D0E1
:103EC00004212000FFF753FF29002000FFF784FFA3
:103ED00070BD000080B5012802D0E02809D001BDE6
:103EE0000120AC4948750020FFF782FCAA49087000
:103EF00001BDA848817B00290DD0002181730321D9
:103F00004175A54905220A70C27B4A70027C8A70FD
:103F10000121417001BD4178012904D004290AD151
:103F20000121417001BD022141759B498289120A1C
:103F30000A708089487001BD70B586B0974C954E67
:103F400001AD6946707DFDF765FB002807D00020B4
:103F5000010029700390A881606DA87319E08E4854
:103F6000B17D002909D100212970317D297103908B
:103F7000707DA881606DA8730BE001212970317DEF
:103F800029710390707DA881B07E4000E873606D58
:103F9000A87301A8FDF73CFE002801D1002000E035
:103FA000012006B070BDFEB584B00700794C20003A
:103FB0005030FDF7AEFF01256E4635706846FDF7BF
:103FC00095FB00282DD1307900282AD0E576684667
:103FD000007EA07527756846007D60756846027D85
:103FE00004996D48FEF72EFAFFF7A6FFE0766B4DB9
:103FF0007020285C02280FD1286D00280CD0642185
:104000006320C043FFF710FD296DFA22920051434F
:104010000818E06203202077E17E0120484007B0C5
:10402000F0BD0020FBE7F0B589B05A4C20005030BD
:10403000FDF76FFF012605AD2E7005A8FDF756FBB5
:10404000002827D12879002803D002202077E6769F
:1040500020E06E46002737702000303001902000AD
:10406000383002902000403003901420287005A8BA
:10407000FDF73CFB002802D12879307400E037744A
:104080006846FDF76BFD002802D10420207701E08F
:104090000320207709B0F0BD80B5417800290DD10B
:1040A0000078002802D0012804D012E0002039490D
:1040B000C8750EE001203749C8750AE0042901D00F
:1040C000032906D156480021017081700A20FEF7AD
:1040D000F3FE01202F49C87601BD38B50400607891
:1040E000002804D00A2854D1FFF743FD31BD294DE3
:1040F0002078012804D101202876FDF76EFFA86200
:104100006079012801D1FFF78EFF2878002802D0BE
:10411000A889401CA881607B00283AD0E07801285B
:104120000BD1207B012808D1A06800780100C907C5
:10413000C90F69760020FFF74CFBC7480100D13159
:1041400000220A70EA7D012A06D1A27C002A01D051
:10415000802200E040220A700B780122657C002D4D
:1041600003D002251D430D7002E015001D430D70A4
:104170000B7810251D430D704A70E278CA70227BBF
:104180008A70227BA168D530FEF75CF90D20FEF71E
:1041900093FE31BD9C04001060140010700C0010E0
:1041A00010B586B00178002902D0012925D031E070
:1041B000AA4C4078002809D1A9480078002802D1EB
:1041C0000420207726E00220207723E068460021A3
:1041D0000170220030320192220038320292220015
:1041E000403203920174FDF7B9FC002802D104208B
:1041F00020770FE0032020770CE04178002909D1D7
:10420000964C2178002905D00121A173017AE17330
:10421000407A207401209149C87606B010BD000094
:10422000E90B00100078042800D0704780B5FFF734
:10423000FAFE01BDF0B58FB0FFF779FC874E002084
:104240003077FEF783FDFEF796FD5EE0FFF797FC03
:10425000FFF7DFFB8348059083480690834807906B
:1042600083480890022204A905A8FDF7D3F88149E4
:1042700030005030FDF7AFFD6D4602202870002061
:1042800028716846FDF706FB07242C700020287172
:104290006846FDF7FFFA1B2028703220019068461F
:1042A000FDF7F8FA172028702C716846FDF7F2FA2E
:1042B00000202870704C7020205C28716846FDF743
:1042C000E9FA3000643001900D20287000220C21A2
:1042D0003000643003F070FD0C22643421003000A3
:1042E0006430FEF7C3F86846FDF7D4FA0C20287056
:1042F0006846FDF7CFFA142028702020305C287122
:104300006846FDF7C7FA01203077307F00289DD03E
:1043100002286FD005D3042800D196E000D283E0B4
:1043200096E0554C2000001D03906D460078C007B4
:1043300028D530003030FFF730FC09AF002038704E
:104340002000401D0A9020000D300B9015340C9475
:10435000142028706846FDF7C9F9002802D1287991
:10436000387401E00020387409A8FDF7F7FB002835
:1043700005D10520FEF7A0FD04203077C5E7032016
:104380003077C2E7032028700398406A019068469E
:10439000FDF780FA0427380028700398806A01909E
:1043A0006846FDF777FA052028702000303001902C
:1043B0006846FDF76FFA0620287020004030019013
:1043C0006846FDF767FA0120287028716846FDF7F6
:1043D00061FA142028700398006D28716846FDF773
:1043E00059FA70342078022802D1022030778CE705
:1043F00037778AE7F07E002807D001203075B07546
:10440000FFF768FDFFF798FDF07664216320C04355
:10441000FFF70AFB1949C96CFA22920051430818A8
:10442000F0620320307770E7042030771348C06CC7
:10443000002800D169E7F16A30005030FDF7BFFD78
:1044400030005030FDF7CFFC5FE7FDF7E7FD5CE79C
:104450000020307759E70000180B00109C04001072
:10446000E00C001099400000DB400000A14100007A
:104470002542000027400000700C0010740C001052
:1044800010B5040010220021F130FFF7F0FA0020EF
:104490008A2149006050F02201462000FFF7E7FA28
:1044A00010BD80B50B0002001021180000F0C4FB05
:1044B00001BDF0B585B005000E0014008A20400053
:1044C0002858002849D010210F1AA74200D92700E8
:1044D0003A0092B231002818FF239B1CC018FFF746
:1044E000AEFA8A2040002858C0198A214900685035
:1044F000102841D3BC423FD0002006E02918F131FA
:104500000A780B7C53400B70401C1028F6DB2A0005
:104510002900F1312800F13000F00FFCF619E41BFE
:104520001BE06818F1300278735C53400370491C3B
:104530001029F6DB10222900F1316846FFF77FFAD7
:104540002A006946684600F0F8FB102269462800F8
:10455000F130FFF774FA1036103C112C01D3002112
:10456000E6E7220092B23100FF20801C2818FFF7F6
:1045700066FA8A2040002C5005B0F0BDF1B588B035
:104580000C00102200216846FFF771FA22006946EC
:10459000684600F0D2FB802100206A4613780B4267
:1045A00011D0030007E0D5182E7876006F78FF0948
:1045B00037432F705B1C0F2BF5DBD37B5B0087250C
:1045C0005D40D5730EE0030007E0D5182E78760025
:1045D0006F78FF0937432F705B1C0F2BF5DBD37B04
:1045E0005B00D3738A235B00E358102B0CD10100CE
:1045F000102956DA6318FF25AD1C5B191D78565C2F
:104600006E401E70491CF3E713780B4211D0030073
:1046100007E0D5182E7876006F78FF0937432F70A2
:104620005B1C0F2BF5DBD37B5B0087255D40D573CF
:104630000EE0030007E0D5182E7876006F78FF09AA
:1046400037432F705B1C0F2BF5DBD37B5B00D373E1
:104650008A235B00E358E318FF25AD1C595502E09F
:10466000030061184B558A2149006158491C8A236F
:104670005B00E1501029F3D3010008E06318FF2527
:10468000AD1C5B191D78565C6E401E70491C1029CC
:10469000F4DB06E02118F1310A780B7C53400B70F3
:1046A000401C1028F6DB10222100F13104A8FFF78E
:1046B000C6F92200089904A800F03FFB102200214F
:1046C0006846FFF7D4F909B0F0BD00000A7802701F
:1046D0004A7842708A788270CA78C2700A79027108
:1046E0004A7942718A798271CA79C2710A7A0272F0
:1046F0004A7A42728A7A8272CA7AC2720A7B0273D8
:104700004A7B42738A7B8273C97BC173704703E023
:104710000B780370491C401C13005A1EDBB2002B9F
:10472000F6D1704702780B785340037042784B788B
:104730005340437082788B7853408370C278CB7833
:104740005340C37002790B795340037142794B791E
:104750005340437182798B7953408371C279CB790D
:104760005340C371027A0B7A53400372427A4B7AF8
:1047700053404372827A8B7A53408372C27ACB7AE7
:104780005340C372027B0B7B53400373427B4B7BD2
:1047900053404373827B8B7B53408373C27BC97BC3
:1047A0005140C173704710B40B7814785C400470AA
:1047B0004B7854785C4044708B7894785C4084707B
:1047C000CB78D4785C40C4700B7914795C40047168
:1047D0004B7954795C4044718B7994795C40847155
:1047E000CB79D4795C40C4710B7A147A5C40047242
:1047F0004B7A547A5C4044728B7A947A5C4084722F
:10480000CB7AD47A5C40C4720B7B147B5C4004731B
:104810004B7B547B5C4044738B7B947B5C40847308
:10482000C97BD27B4A40C27310BC704780B5FFF78A
:1048300079FF01BD7F4902788A5C027002798A5C47
:104840000271027A8A5C0272027B8A5C027342788D
:104850004379CB5C4370437ACB5C4371437BCB5C45
:1048600043728A5C42738278837ACB5C83708A5C01
:1048700082728279837BCB5C83718A5C8273C27B18
:10488000C37ACB5CC373C379CB5CC372C378CB5C94
:10489000C371895CC17070477FB504002100684610
:1048A000FFF714FF634800BF63A100BFA2A26B46DD
:1048B0001D78565D5D794D5D75409E7A865D6E40D2
:1048C000DD7B455D754025701D78465D5D79555DE4
:1048D00075409E7A8E5D6E40DD7B455D75406570EE
:1048E0001D78465D5D79455D75409E7A965D6E40AA
:1048F000DD7B4D5D7540A5701D784E5D5D79455D34
:1049000075409E7A865D6E40DD7B555D7540E57035
:104910001D79565D5D7A4D5D75409E7B865D6E406E
:10492000DD78455D754025711D79465D5D7A555D83
:1049300075409E7B8E5D6E40DD78455D754065718E
:104940001D79465D5D7A455D75409E7B965D6E4046
:10495000DD784D5D7540A5711D794E5D5D7A455DD3
:1049600075409E7B865D6E40DD78555D7540E571D6
:104970001D7A565D5D7B4D5D75409E78865D6E400F
:10498000DD79455D754025721D7A465D5D7B555D1F
:1049900075409E788E5D6E40DD79455D754065722F
:1049A0001D7A465D5D7B455D75409E78965D6E40E7
:1049B000DD794D5D7540A5721D7A4E5D5D7B455D6F
:1049C00075409E78865D6E40DD79555D7540E57277
:1049D0001D7B565D5D784D5D75409E79865D6E40B0
:1049E000DD7A455D754025731D7B465D5D78555DBF
:1049F00075409E798E5D6E40DD7A455D75406573CC
:104A00001D7B465D5D78455D75409E79965D6E4087
:104A1000DD7A4D5D7540A5731D7B495D5D78455D13
:104A20004D409979405C6840D97A515C4140E173CE
:104A30007FBD00008C4D0000A584998D0DBDB15443
:104A40005003A97D1962E69A459D408715EBC90B75
:104A5000EC67FDEABFF7965BC21CAE6A5A41024F93
:104A60005CF434089373533F0C52655E28A10FB574
:104A700009369B3D2669CD9F1B9E742E2DB2EEFB01
:104A8000F64D61CE7B3E7197F568002C601FC8ED36
:104A9000BE46D94BDED4E84A6B2AE516C5D75594F5
:104AA000CF100681F044BAE3F3FEC08AADBC4804DF
:104AB000DFC17563301A0E6D4C14352FE1A2CC396D
:104AC00057F28247ACE72B95A098D17F667EAB83E7
:104AD000CA29D33C79E21D763B564E1EDB0A6CE4B4
:104AE0005D6EEFA6A8A4378B324359B78C64D2E031
:104AF000B4FA0725AF8EE918D5886F7224F1C75133
:104B0000237C9C21DDDC86859042C4AAD805011255
:104B1000A35FF9D0915827B93813B333BB7089A775
:104B2000B622922049FF787A8FF88017DA31C6B81A
:104B3000C3B07711CBFCD63AC6F8EEF6FFD6DE91BD
:104B40006002CE56E7B54DEC8F1F89FAEFB28EFBAF
:104B500041B35F452353E49B75E13D4C6C7EF58387
:104B60006851D1F9E2AB622A0895469D30370A2F89
:104B70000E241BDFCD4E7FEA121D583436DCB45BA9
:104B8000A476B77D52DD5E13A6B900C140E379B6C5
:104B9000D48D67729498B085BBC54FED869A661127
:104BA0008AE904FEA078254BA25D80053F2170F1C3
:104BB0006377AF4220E5FDBF811826C3BE35882E3E
:104BC0009355FC7AC8BA32E6C0199EA344543B0BF5
:104BD0008CC76B28A7BC16ADDB647414920C48B864
:104BE0009FBD43C43931D3F2D58B6EDA01B19C49F4
:104BF000D8ACF3CFCAF447106FF04A5C38577397BC
:104C0000CBA1E83E96610D0FE07C71CC9006F71CBD
:104C1000C26AAE6917993A27D9EB2B22D2A907337A
:104C20002D3C15C987AA50A50359091A65D784D008
:104C300082295A1E7BA86D2CF6B585B069460C7D7D
:104C40002100102903D0182901D0202911D1224692
:104C500001000698FFF75BFD6846007D1C30800070
:104C6000C0B203900011401E0699F0310870012572
:104C700032E000201146F0310870FF205BE002981E
:104C800019280DDB10290BD140A0865D69466A46C4
:104C90005278825C4A706A461278825C0A70C75DFC
:104CA00020006946097D411AC9B20698401801786A
:104CB0004E4001990E700199491C42786B465B7811
:104CC00053400B7082786B461B7853404B70C07812
:104CD00047408F70241DE4B2039884422ADA069874
:104CE00000190190001F0678694642784A70827860
:104CF0000A70C7786846007D02902000029903F090
:104D000000F80029BBD1310020A06A465278825CAD
:104D10002E0056406A466B461B78C35C5370C35DD9
:104D20001370475C28004000ED091B214D434540AE
:104D3000EDB2B5E7002007B0F0BDF0B585B00F00CB
:104D40001400F021615C00291DD001006846FFF7C6
:104D50002AFD012506E0FFF79FFD31006846FFF7B9
:104D600065FD6D1CEDB228012618F020205C8542FF
:104D70006846F0D3FFF75EFD320069463800FFF762
:104D800012FD002000E0FF2005B0F0BD637C777BC2
:104D9000F26B6FC53001672BFED7AB76CA82C97D37
:104DA000FA5947F0ADD4A2AF9CA472C0B7FD9326C8
:104DB000363FF7CC34A5E5F171D8311504C723C3CC
:104DC0001896059A071280E2EB27B27509832C1A10
:104DD0001B6E5AA0523BD6B329E32F8453D100ED6A
:104DE00020FCB15B6ACBBE394A4C58CFD0EFAAFB4E
:104DF000434D338545F9027F503C9FA851A3408F16
:104E0000929D38F5BCB6DA2110FFF3D2CD0C13EC2D
:104E10005F974417C4A77E3D645D197360814FDCC2
:104E2000222A908846EEB814DE5E0BDBE0323A0AA6
:104E30004906245CC2D3AC629195E479E7C8376D2A
:104E40008DD54EA96C56F4EA657AAE08BA78252E4F
:104E50001CA6B4C6E8DD741F4BBD8B8A703EB566D8
:104E60004803F60E613557B986C11D9EE1F89811C9
:104E700069D98E949B1E87E9CE5528DF8CA1890DB8
:104E8000BFE6426841992D0FB054BB1630B4020002
:104E90000023180008E001249C4025001540A5428D
:104EA00000D1401C5B1CDBB28B42F4DBC0B230BCD7
:104EB00070475A49884201D2642070475849884255
:104EC00002D2FA208000704756487047884203DBC0
:104ED000824201DB0120704700207047F8B50400D2
:104EE00016000020002C0FD00D000AE00700102152
:104EF0006800205AFFF7CAFF010038004018C0B20E
:104F00006D1CEDB2B542F1D3F2BD002800D170475F
:104F100030B4002908D0002304E05C000D5B055389
:104F20005B1CDBB29342F8DB30BC704700288A6020
:104F300000D14A607047FFB581B00024E4430027E8
:104F40003E0003E03C00EF60761CF6B26846007C51
:104F5000864248DA039831014518684600790028EE
:104F60006846007A26D1002804D0A868FDF738F8F2
:104F7000009000E000976868FDF732F800998142E0
:104F800003D26868FDF72CF808E06846007A00282C
:104F900003D0A868FDF724F800E03800E9688842EB
:104FA00000D3EF60E9680029CED0081AA042CBD226
:104FB0000400C9E70028C5D0A868FDF711F8E96822
:104FC000884200D3EF60E8680028BDD0A868FDF7EC
:104FD00007F8E968081AA042B6D2A868FDF700F8F9
:104FE000E9680C1AB0E7200005B0F0BD70B50E00FE
:104FF00001218140080000F025FE04000D00300072
:1050000000F02AFE02000B002000290002F042FFFF
:105010000022304B00F030FE70BD000080EE360004
:10502000803F5C0210270000FBB514001D006000EB
:10503000083800F007FE6A460CCA00F01DFE0600A4
:105040000F00680000F008FE32003B0000F0D6FEC2
:105050006A460CCA02F01EFF06000F00FBF70AF9B1
:1050600000F0B8FF844206D230003900FBF702F9A5
:1050700000F0B0FF00E02000099E306068460CC8D8
:105080000020154900F0F8FD04000D00306800F024
:10509000E3FD6A460CCA00F0EFFD00220F4B00F062
:1050A000EBFD02000B002000290000F00AFF0400C5
:1050B0000D00089800F0D0FD02000B002000290030
:1050C00000F0FFFEFBF7D6F800F072FF0A990860C7
:1050D000F7BD000000408F40000010400000E03F9E
:1050E00038B50C0015004000FBF7F0F80100200077
:1050F00000F0BAFF290000F0B7FF01F00DF801F051
:1051000025F800F055FF40B232BDF8B50400206824
:10511000E17A4A00511889004018407A0701606816
:10512000C01905880026C660607A00280FD1E068A3
:10513000FFF7BFFEA84200D30500A07A002809D1DE
:10514000207A002806D16068C019C660F1BDA07A37
:105150000028F8D020694543281A6168C919C86039
:10516000F1BD000080B5294A904701BD00B58BB064
:10517000322200920190029105A96846FFF7F2FFE2
:105180000598C0B20BB000BD00B58BB033230093BF
:105190000190029103921E480068FA21890002F0F2
:1051A000B3FD049005A96846FFF7DCFF0598C0B27F
:1051B0000BB000BD10B58AB004003A2005906946D6
:1051C00005A8FFF7CFFF002005E081006A465218CE
:1051D00052686250401C0428F7D300980AB010BDF2
:1051E00000B58BB03B220092019002910848006804
:1051F000FA21890002F088FD039005A96846FFF7AF
:10520000B1FF0598C0B20BB000BD0000F11FFF1F39
:105210002C17001079490A68012383407848184305
:1052200082430A6070477549012282400868754BC5
:10523000034013430B60704710B50400FFF7EAFF0B
:105240002000FFF7F0FF10BD6F49086070476E48FF
:105250000068C0B270476D49086070476B480068CD
:10526000C0B270476A490860704769480068C0B2B8
:10527000704768480068704767487047674800682B
:105280007047000000B501006AA00A005209120729
:10529000120F92008058C906C90E491C490002F03D
:1052A00033FD00BD02000800D106C90E491C484369
:1052B00070475B49086000204860012048607047E3
:1052C000584908600020486001204860704780B558
:1052D00055480068C005C00DFFF7D4FF02BD80B57A
:1052E0004F4800688007800F04D0012805D00328AC
:1052F00006D008E0FFF7C0FF02BDFFF7BAFF02BD0E
:10530000FFF7BCFF02BD002002BD80B5FFF7E7FF3D
:105310000100464800684006400EFFF7C3FF02BD8B
:1053200080B500203F4909688907890F05D0022907
:1053300009D005D3032909D002BDFFF79DFF02BDA7
:10534000FFF7CDFF02BDFFF7C2FF02BDFFF7DDFF94
:1053500002BD80B5FFF7E4FF35490968C9B202F024
:10536000D3FC02BD38B5FFF772FF040001D1002461
:1053700018E0FFF7D5FF210002F0C6FC040000256D
:10538000FFF76CFFFF280DD1FFF76FFF8021490069
:1053900042180023200E054324022000290000F0BB
:1053A00002FF0400200032BDF8B507000C00FFF733
:1053B000B7FF0500390002F0A7FC060000D1012666
:1053C0003000C0B2FFF740FF002C11D00220FFF7E1
:1053D00033FFFF20FFF73FFF2800310002F094FC6D
:1053E0000002390002F090FCC0B2FFF73BFF02E080
:1053F0000020FFF730FFFFF7B5FFF2BD0480044047
:105400000020FEFFFFDF010094800440F080044094
:10541000F4800440EC020000001BB700F002000022
:105420004080044070800440248004400880044090
:105430007880044000000000C0270900900510009B
:10544000C05C1500F0B31A00200B2000009F240060
:10545000E0322900C0C62D0050973100E0673500CA
:105460007038390000093D00401640008023430099
:10547000C03046000B490122824008680A4B0340B5
:1054800013430B60704710B504001120FFF7F2FFC3
:1054900000202060FF206060044860610448A06133
:1054A00010BD000080800440FFFFEF25FFFF0000DB
:1054B000FFFFFF004A0703D502681B231340036068
:1054C0000822114004D001688906890E0A4302604F
:1054D0007047FEE730B403000020D40714D407E07F
:1054E0001D782D012C431C70D40701D45B1C401C7B
:1054F0001400621EA4B2002C08D000BF3FA40D7897
:105500006457491C002CEBD5002000E0C0B230BC31
:105510007047000030B413000DE000BF32A40D78D6
:105520002D11655D0570401C0D782D072D0F645DF4
:105530000470401C491C1400621EE4B2002CECD123
:105540005800C0B230BC704780B56A460B001B0ED5
:1055500013700B001B0C53700B001B0A9370D1705F
:1055600004226946FFF7D6FF082002BD10B40023CD
:10557000036003E0046824012343036013005A1E00
:10558000DBB2002B08D000BF1CA30C781B57491CB2
:10559000002BEFD5002000E0012010BC704730B494
:1055A0000023521ED2B207E0CC5C8D5CC5548454FB
:1055B0005B1CDBB2521ED2B29342F5DB30BC7047AB
:1055C000010041391A2900D22030C0B270470200D0
:1055D000002000E0401C0B78491C1370521C002B6B
:1055E000F8D1C0B27047000030313233343536372D
:1055F000383941424344454600000000FFFFFFFFA9
:10560000FFFFFFFFFFFFFFFFFFFFFFFFFFFFFFFFAA
:10561000FFFFFFFFFFFFFFFFFFFFFFFFFFFFFFFF9A
:10562000FFFFFFFFFFFFFFFFFFFFFFFF0001020380
:10563000040506070809FFFFFFFFFFFFFF0A0B0C29
:105640000D0E0FFFFFFFFFFFFFFFFFFFFFFFFFFF3D
:10565000FFFFFFFFFFFFFFFFFFFFFFFFFF0A0B0C36
:105660000D0E0FFFFFFFFFFFFFFFFFFFFFFFFFFF1D
:10567000FFFFFFFFFFFFFFFFFFFFFFFFFFFFFFFF3A
:10568000FFFFFFFFFFFFFFFFFFFFFFFFFFFFFFFF2A
:10569000FFFFFFFFFFFFFFFFFFFFFFFFFFFFFFFF1A
:1056A000FFFFFFFFFFFFFFFFFFFFFFFFFFFFFFFF0A
:1056B000FFFFFFFFFFFFFFFFFFFFFFFFFFFFFFFFFA
:1056C000FFFFFFFFFFFFFFFFFFFFFFFFFFFFFFFFEA
:1056D000FFFFFFFFFFFFFFFFFFFFFFFFFFFFFFFFDA
:1056E000FFFFFFFFFFFFFFFFFFFFFFFFFFFFFFFFCA
:1056F000FFFFFFFFFFFFFFFFFFFFFFFF10B402E010
:10570000401C491C521E002A09D00B7804789C4288
:10571000F6D002D20020C04302E0012000E00020C9
:1057200010BC704710B400210A0000E0521C8242F5
:105730000BD20B0003E0641C052CFCD35B1CFA2489
:10574000A400A342F2D20C00F6E710BC70470000A0
:1057500089004018016818239943D2000A43026067
:10576000704700000449012282400868034B03404F
:1057700013430B607047000080800440FFFFEF255B
:1057800080B50620FFF7EEFF01BD000080B5FFF7F2
:10579000E0FD0149086001BD2C1700100121C00681
:1057A000C00E81404A48016070474A490122824048
:1057B0000868494B034013430B60704745490A682A
:1057C000012383404548184382430A607047444997
:1057D000086070474349012282400868C001C0093F
:1057E00010430860704701683F4A0A400121114395
:1057F0000160704741683D4A0A4042607047C1609D
:105800007047016170470368394A1A4011430160CB
:1058100070478160704770B5FEF77AF90720FFF78F
:10582000C4FF0120FFF7D3FF0020FFF7D3FF0021C3
:10583000084602F03BFA0421012002F037FA072063
:10584000FFF7BCFF2B4D2800FEF7A3FA0421280028
:10585000FFF7D9FF0121E1204003FFF7A5FDE1217A
:1058600049022800FEF7ADFA234CAE0D33000122A9
:10587000210028312000143000F016F933000122F5
:10588000942040002118200000F00EF90D2128007E
:10589000FFF7BFFF01212800FFF7B1FF0421280017
:1058A000FFF7AFFF2800FFF79EFF2800FFF7A2FFDA
:1058B0000320FFF773FFFEF731F970BD80B50E4985
:1058C0000A0014310B48FEF7EAFA01BD000000009F
:1058D00000E100E080800440FFFFEF25000010DAC7
:1058E00094800440C0C100407DDAFC000603010042
:1058F00001DAFC0000400640200F001053490A68FE
:10590000012383405248184382430A6070474F493D
:105910000122824008684F4B034013430B607047DD
:1059200010B50400FFF7EAFF2000FFF7F0FF10BDFD
:105930004949012282400868484B034013430B60E9
:10594000704745490A68012383404548184382430C
:105950000A6070470123934089004018882189011B
:10596000435070470268FF23BE3313400B4303606C
:1059700070470268FF23BE338B43134003607047B8
:1059800080B53849884206D10C20FFF7D1FF0120AD
:10599000FFF7C6FF01BD0B20FFF7CAFF0020FFF78E
:1059A000BFFF01BD80B50121FFF7DCFF01BD38B5A8
:1059B00004000D003C21FFF7DCFF29002000FFF769
:1059C000D1FFF0200003206231BD10B582B0FEF798
:1059D0009FF80720FFF7ACFFA02424061722002120
:1059E0002000FFF7B7FF0E21612002F05FF90E22C1
:1059F00000212000FFF7AEFF1921522002F056F9D6
:105A00000721602002F052F90621532002F04EF9DE
:105A10000720FFF796FF134C2000FFF7B1FF04218A
:105A20002000FFF7C4FF1049200000F0FBFB00201E
:105A300069460860200000F00DFC2000FFF7B2FF6F
:105A40000C20FFF775FFFEF769F813BD04800440D2
:105A50000020FEFFFFDF010080800440FFFFEF25F4
:105A6000000010DA00C0054040420F00C168006924
:105A7000081A704710B50400FFF7F8FF6168081AAC
:105A800010BD10B50400FFF7F1FF6168884201DB2B
:105A9000012010BD002010BDC1680069814201D104
:105AA0000120704700207047016043608260002140
:105AB0000161C1600120704770B504000E002568C7
:105AC000FFF7DFFF002801D0002070BDA268310081
:105AD000E06863685B1E03405343E818FCF7B2FCC0
