:10000000201F0010357F00008B7D00008102000062
:100010000000000000000000000000009FE1FEEF73
:10002000000000000000000000000000930200003B
:100030000000000000000000C35600008D3B0000DF
:100040005D6800005D680000000000001D580000B1
:100050005D6800005D680000000000005D68000051
:100060005D6800005D6800005D6800005D6800007C
:10007000D12C00005D6800005D680000532C00007A
:100080005D6800005D6800005D6800005D6800005C
:100090005D6800005D6800005D6800000000000011
:1000A000FB6400000B6500005D6800005D680000F7
:1000B0005D6800005D6800005D6800005D6800002C
:1000C000022801D1012070470020704780B5C0B2DE
:1000D000022803D1080002F0DFF902BD40A0006849
:1000E00002BD022800D0704780B5080002F02AFA4D
:1000F00001BD022800D0704780B5080002F032FA36
:1001000001BD80B50B001100022803D1180002F0D8
:1001100059FA02BD002002BD80B5022803D10800B3
:1001200002F09AFA02BD002002BD10B504000800DA
:1001300011001A00022C03D1029B02F0F9FA10BD43
:10014000002010BD10B50400080011001A00022C98
:1001500002D1029B02F026FB10BD80B50B001100FE
:10016000022803D1180002F05FFB02BD002002BD8F
:1001700010B50400080011001A00022C02D102F090
:10018000A9FB10BD002010BD80B5022803D10800D6
:1001900002F000FC02BD002002BD022800D0704722
:1001A00080B5080002F0F7FB01BD10B5040008009F
:1001B00011001A00022C03D1029B02F009FC10BDB1
:1001C0000A2010BD10B50400080011001A00022C0E
:1001D00002D102F061FC10BD0800C0B210BD0000E9
:1001E0000000000001680800C007C00F7047012927
:1001F000016803D101220A43026070470122914342
:100200000160704780B5FFF7EDFF002801D102487B
:1002100002BD024802BD0000B0710B0010270000B3
:1002200048210140114808431149086070471149AD
:100230000140DA20C00108430F49086070470D49AA
:100240000E4A13680B4001401943DA20C0010843ED
:10025000106070470749094A13680B4001408B43FF
:10026000DA20C0011843106070470000B7FF00009B
:1002700030820440FF800000348204403882044011
:10028000FEE7010000E0491C0A78002AFBD1081AA9
:100290007047FEE710B402E0401C491C521E002AC1
:1002A00009D00B7804789C42F6D002D20020C043DB
:1002B00002E0012000E0002010BC70479D210200F8
:1002C0000AD002D4491E9218FCD5C905100A12069C
:1002D000524100D3012A4841704700007047000096
:1002E0007047000080B5C046C046024A1100182081
:0802F000ABBEFBE72600020093
:0402FC00FFFFFFFF02
:1003000070B584B001F037FE0600444C607B0228D3
:1003100003D04348C06A804701E000F0C7FE207C5C
:1003200000282CD02500B835616E280001F015FE9C
:10033000280001F026FD607B022808D02500CC357E
:10034000A16E280001F009FE280001F01AFD607B73
:10035000022802D0E07C002823D0122069460870D1
:10036000207BFFF7B3FE2F4DA16E0918280018302F
:1003700001F0F3FD1835280001F003FD11E0002025
:1003800029494870042060702020205C002802D198
:100390000120202160542020205C202101432020C6
:1003A000215422482021615C090705D521784A1E85
:1003B0009241D20F827501E000218175A07EE07626
:1003C00001A90870607C48700296207BFFF789FEC7
:1003D0002665E07C002805D1002013494870207E66
:1003E000401C20767FBD10B50C4CE06D40210143D0
:1003F000E165E07C002801D000F006FD2020205CB3
:10040000222101432020215490340121200001F0B9
:10041000A4FD200001F0B5FC10BD0000B8030010E1
:100420002C6700007C160010C81600102C1100105C
:10043000FBB58EB0002706973E003800CD49087105
:10044000704CE28110A8007820746F4DE87F6074D2
:10045000380060806071A760A081A074676120701F
:100460006A48C06A80472800CC3001F020FD0E9811
:100470000078694608706846007840090873684645
:10048000007B012809D0032800D19BE0052800D17A
:1004900098E0072800D126E23CE2687C002800D0E2
:1004A000ABE05B4E33005B1C6A6B6846808F411E7D
:1004B00089B20E98401C01F0E7FE68460078307063
:1004C00006AB6A6B6846808F011F89B2300001F06D
:1004D000B4FE0698E98C401806906846808F301864
:1004E000001F0278417809021143827812040A43FE
:1004F000C078000610430699884260D128008030F9
:10050000019000902B007033EA8C3100491C686B1D
:1005100001F0DCFE3079717909020143B079000401
:100520000843A863F079317A09020143707A000424
:100530000843B17A09060143E9631022019935485D
:1005400001F024FF102229007031334801F01EFF12
:10055000E86B3249C862A86B886208460079FE21C0
:100560000140022008432D49087169464020085681
:1005700002F055F802F0B1FAF17A29480A0012099E
:100580005207520F42740F2213000B400376317B47
:100590000A40026001D101210160FA21890002684C
:1005A0004A430260511841606F7001206874062050
:1005B00002F03AFC3946084603F0EFF8AEE10720B6
:1005C0006870ABE11648407F07A9887020794870B1
:1005D000092069460877E87B002801D00A200877BF
:1005E00007A9287BFFF772FD6946898F0D3909B28B
:1005F000002900D53900884214D201206070FFF72D
:10060000F2FEA6E17C160010B80300102C67000073
:1006100044130010A00C0010900C0010600C00108F
:10062000C81500100E9841788078000208430E9992
:10063000C978090401430E98007900060843089020
:10064000E96B884204D00B206070FFF7CCFE80E19C
:10065000A86C04900E9840790AA908700F220AA885
:10066000007802406846427310460830C0B20590D8
:100670000E986946898F4018001F02784178090258
:100680001143827812040A43C078000610430C908C
:100690000E9880790E99C979090201430498081AC5
:1006A00080B209906846808F001F6946C88109980A
:1006B0008021090288420498099915DA40180490AB
:1006C00006A802900498019001200090089B2A003F
:1006D00070326846C1890E9801F000FD0C980699A9
:1006E00088421CD101261AE009B240188021490233
:1006F00040180B9006A802900B98019001200090E2
:10070000089B2A0070326846C1890E9801F0E6FC09
:100710000C980699884202D101260B98049011206A
:100720006946087707A9287BFFF7D0FC0999814221
:1007300006D30A20607004986061FFF754FE08E158
:10074000002E00D1CAE069464020085601F067FF3C
:1007500038006070A0700AA800780100C906C90FAF
:100760006171A76038002073049860613800014906
:1007700002E000BFC81600104870EF64E8756846D4
:10078000007B052825D1012028752070A86C0499CC
:10079000884207D1002805D02020285C042101438D
:1007A000202029540498A864B1480078012820D159
:1007B0000AA800784009C1071DD53900A9750100B4
:1007C000C907C90FAA4A11710100C907C90FA1744D
:1007D00011E0380028752070A86C04998842E1D196
:1007E0000028DFD00820607004986061FFF7FBFDEF
:1007F000AFE03800A8756846808F001F0599401A41
:10080000012858DB0E98405C491CC9B20591694625
:10081000898F091F059A891A6A461173E0700028AA
:100820006846407B25D1002818D1924E0296049844
:10083000019001200090089B2A0070326846017BDD
:100840000E98059FC01901F0EDFC10A803786846CA
:10085000027B0021300000F019FB38E02020285CEA
:100860000421014320202954380081490871A774CC
:100870002DE0002808D010A803780598421ED2B2B7
:1008800008210E9800F002FB7A4E0296049801901F
:1008900001200090089B2A0080326846017B0E9858
:1008A000059FC01901F0BEFCA6606846007B20735E
:1008B000012060730BE06846407B002807D010A839
:1008C00003780A46D2B208210E9800F0DFFA202001
:1008D000285C02210143202029541FE00C20607075
:1008E000FFF781FD35E0634E6846828F0E99491C03
:1008F000300003F092F8032020706770A66068460D
:10090000808F401E20732020285C0221014320207C
:10091000295403E001206070FFF765FD287F0090F7
:100920006B7F53480279697BE87C00F054FA2034ED
:10093000207800280DD12020285C20210143202090
:10094000295490350121280001F007FB280001F00F
:1009500018FA11B0F0BD10B5474C607B022803D0E7
:100960004648C06A804701E000F0A0FB0220010079
:100970003F4A517060702020205C202101432034C8
:10098000217010BD10B53C4C607B022802D03B4862
:10099000C06A8047E07CE17F002919D10521002849
:1009A00001D0334841706170607B02281FD0206DF8
:1009B00001F0E4FAA16E884219D32000CC3001F096
:1009C00076FA2020205C20210143202021540EE0D3
:1009D0000621002801D0264841706170607B022802
:1009E00005D02020205C2021014320202154607B61
:1009F000022801D100F05AFB10BD10B51E4C607BDF
:100A0000022802D01D48C06A8047E07CE17F0029AF
:100A100019D10321002801D0154841706170607B15
:100A200002281FD0206D01F0A9FAA16E884219D3C7
:100A30002000CC3001F03BFA2020205C2021014333
:100A4000202021540EE00421002801D008484170E4
:100A50006170607B022805D02020205C20210143AA
:100A600020202154607B022801D100F01FFB10BD23
:100A7000C816001044130010B80300102C670000C3
:100A8000F0B585B00024200069460872BB4D2800EF
:100A90009030009001F00BFA2020285C0127010023
:100AA00049093A00114200D1CFE0E96D4A0602D56A
:100AB00041229143E96509210140B14E13D072787A
:100AC000022A02D06A78022A0DD1EA6D3B469A4387
:100AD000EA652200AA756A7F727122003271B460E1
:100AE0003A006B461A72EA7C6B461B7A134335D187
:100AF000002933D00100C9083A00114209D02978F1
:100B0000002906D1687800281DD16C642000287661
:100B100019E002005208390011402A7EB94BDB7FF0
:100B20009A4201D2002913D0002904D12000A875CF
:100B3000E86C401CE86420002876307D002802D153
:100B4000686C401C6864E86D39468843E86505E0D8
:100B5000DF2101402020295400F0DCF82020285C0F
:100B600040083900084215D03079002803D1287F89
:100B7000697F88420ED22000A877E874307D002873
:100B800002D1686C401C6864687F7071E86D3946FA
:100B90008843E865A87F002857D05C20285CC00601
:100BA00053D42000A877687F297F884239D209284A
:100BB00037DA401C6877C00710D503A81E210170E2
:100BC000BE492C228A5C8270491C019109784170CF
:100BD00003A9287BFFF77AFA01990870384600F0DC
:100BE0006FF9002806D12020285CDF210140202059
:100BF00029542AE0092070702000A875E86D394654
:100C00008843E8652000E8743471687F7071AB48F0
:100C10004078B070307D002817D1686C401C686443
:100C200013E03946287BFFF764FAE86D39468843BC
:100C3000E8652000A875E8743471687F7071307DB4
:100C4000002802D1686C401C6864E86D810702D5F9
:100C500002218843E865E86D002822D12020285C25
:100C60003900084207D0FE21014020202954444881
:100C7000296E096888472020285C0100C9083A00CD
:100C8000114207D0F7210140202029542800296E65
:100C9000896888472020285CDF21014020202954D2
:100CA00007E0FA218900009801F057F9009801F057
:100CB00068F82020285C010049083A00114218D049
:100CC000FD21014020202954687B022801D100F039
:100CD000EDF92020285C80083900084203D1C8487B
:100CE000296E496888472020285CFB21014020208C
:100CF00029542020285C01000909394208D0EF213D
:100D00000140202029542800E030296EC968884716
:100D100005B0F0BD10B5194C2000A43001F0C7F8A3
:100D2000E06D10218843E065012000F0C9F810BD96
:100D300070B5124C2000B83001F0B9F80020E0770F
:100D4000B04DA17E29705D490E000C36727DEA70AF
:100D50002D3109782974E17B69746882607B0228EF
:100D600002D1CC48006B8047CB4A2900207BFFF79B
:100D7000F4F93168A87C00F05FF870BDB80300108A
:100D8000C8160010F8B5A04C2000CC3001F08FF848
:100D9000C24DA07E2870494807000C37B9696960C8
:100DA0002D3000782874E07B68740126EE74607B37
:100DB000022802D00020A87400E0AE74B64A2900D0
:100DC000207BFFF7CAF9002804D03968A87C00F01E
:100DD00033F8E677F1BD80B5002805D102290FD19F
:100DE000B64801F064F801BD002A03D0B34801F011
:100DF0005EF801BD0298984202D2B04801F057F85F
:100E000001BD0000B915001080B5AC4801F04FF8E5
:100E10007D48C17C002905D001218177C16D042264
:100E20009143C165417B022905D12021415C2022EB
:100E30000A432030027001BD80B5964A526B0028EB
:100E400002D10800904701BD0020904701BD38B590
:100E50000400150068469A4A127882704170092190
:100E60000170694AD17B002901D00A2101706946CD
:100E7000107BFFF72BF9611980B289B2884203D346
:100E8000FF2901DC012032BD002032BD70477CB556
:100E90005D4CA57CED016E463571009313000A0090
:100EA00001A900F011F9002807D1864800218180AE
:100EB000616CC160002000F003F876BDB815001029
:100EC000F0B587B00700002001904F4C617EFF29EC
:100ED00001D1092076E0002900D16065E07E00F0B4
:100EE00073F8606D0390494D03A869780172454E0F
:100EF000717D8172617C4172206D049020005430BC
:100F0000009001AB22001A3203A9207BFFF74DF9B4
:100F1000002814D00B2855D1002F53D00198002859
:100F20000BD0E06D10210143E165A434019920004C
:100F300001F013F8200000F024FF002042E0280018
:100F4000283002902F003F1D7B7F5BB201202A5684
:100F500002984179207BFFF735F9010000963B6844
:100F60003A7949B2207BFFF7EDF84C4800903B6896
:100F70003A790298017849B2207BFFF7E3F8607C68
:100F8000002809D17869F16840186066B86943495A
:100F9000C9684018A06612E0A27D01202956307D64
:100FA000FFF755FF002801D108200BE0F868F16831
:100FB0004018606638693949C9684018A066A07E43
:100FC00000F0D4F907B0F0BD70B584B00E4C6D469A
:100FD000617C29700B4E717DA970E870A06D00F0E6
:100FE000CDFF0190E06E0290B07D68706946207B75
:100FF000FFF7D3F8E06E618D4143081A60657FBD4D
:101000007C1600102C110010B8030010B815001049
:1010100038B50024D34D200068746C64AC64EC6473
:10102000287601200100297769772100A977697660
:10103000010069852100E9822874CB4B3820185CB7
:1010400018703920185C58705920185C21215854A8
:10105000D86D196E1A00243203C26420185C2C214A
:1010600058546520185C2D215854986E1863D86E1A
:1010700058630221287BFFF73CF82000E874A8821F
:10108000286C01E04462806A0028FBD1200068835C
:1010900031BD00002C67000080160010E016001023
:1010A000E12801DB002070470120704780B5FFF781
:1010B00069FE0220AB49C87701BD000094160010FC
:1010C000E4150010C8160010F2B588B00021039195
:1010D000049369460A71A34C00212185E1740E999D
:1010E000002B00D10021C24E317508270178E32280
:1010F0000A40390011430170BE4D29700078400943
:1011000007D0022849D0042845D0072800D117E18C
:1011100026E1012020853A46216B2800401C02F080
:1011200087FC208D083020853A46E16A80B2281875
:1011300002F07EFC208D0830208502F04BFCA0845C
:10114000208DA18C0A002A54401C2085090A80B2F7
:101150002954401C208503AB626BC1B2280001F00A
:101160006CF8208D03992954401C20850399090AA5
:1011700080B22954401C20850399090C80B229545F
:10118000401C20850399090E80B22954401C2085FB
:10119000002009B0F0BD0120E074607C002801D17E
:1011A0000720F6E705A80121017008990978C90907
:1011B0004A1E9241D243D20F4270E16C06916A4AB4
:1011C00051780172117841722C21515C817220009A
:1011D0004C3000901300521C05A9207BFEF7A5FFA0
:1011E00008990978BF220A408001104308990870C5
:1011F000217D002905D00021217520210143089877
:101200000170E06B01006970090AA9700100090C06
:10121000E970000E2871089800786871606C010010
:10122000A971000AE871E27D31009831A07D301883
:10123000183002F0F2FBE07DA17D0918A175049A37
:10124000002A1FD0327D002A1CD0627D002A26D0C1
:10125000C9B210291CDA089A1278F02313405218E8
:101260001207120F1A43089B1A706A7100220B00B2
:1012700092B29A4213D2B3181B7EFFB2EB557F1C79
:10128000521CF4E7C9B2002909D0627D002A06D0B9
:10129000317531001831049100216A461171002125
:1012A0006175002801D0012060750498002826D0BF
:1012B000307D002823D068460079FFB2E8557F1CB6
:1012C000FFB2E819E36B616C6A461279002A0CD10F
:1012D0000022A27502900191104600902200703207
:1012E000317D049800F03FFF09E002900191002059
:1012F000009022008032317D049800F034FFFFB26C
:10130000307D3918218503A80290606C019000207F
:101310000090E36B2200703289B2280000F0DEFEFC
:10132000208D2918039A0A70039A120A4A70039AA8
:10133000120C8A70039A120ECA70001D208527E7CE
:10134000002B00D124E7327D002A00D120E71900CC
:101350006D1C280002F061FB307D401C208517E7E2
:10136000022016E7B8030010B8150010F0B585B0DC
:10137000070000206946087001A807709C4E71782C
:10138000417031788170316B0291716B0391994C8E
:10139000218D818123006C336A4601A9207BFEF7F1
:1013A000E7FE01252800607093482900417071789C
:1013B000817069460978C1700761E16E8160616082
:1013C00026009036FA218900300000F0C6FD30007A
:1013D00000F0D7FC218DC9B20648B94A926A9047FD
:1013E000E06D0543E565A08CE084002005B0F0BD0C
:1013F0002C11001044120010F2B582B00500160046
:10140000002D0BD02868002808D06868002805D077
:10141000A868002802D0E868002801D10320FEBD9A
:101420003000FEF74DFE002801D10A20FEBD714CB0
:101430002566A44F0298B86426730020010020227C
:10144000A1546173E065E173206560650B20694616
:101450000870207BFEF73AFE401E8041C043C00F5B
:1014600099494875082069460870207BFEF72EFED2
:101470005F4D2E0038363070052069460870207B9D
:10148000FEF724FE70700C2069460870207BFEF782
:101490001DFEF0600D2069460870207BFEF716FEE9
:1014A00030610E2069460870207BFEF70FFE7061E8
:1014B0000F2069460870207BFEF708FEB0611020FF
:1014C00069460870207BFEF701FEF0611320694633
:1014D0000870207BFEF7FAFD290058310191487011
:1014E000142069460870207BFEF7F0FD01994860E2
:1014F000152069460870207BFEF7E8FD0199087207
:101500001A2069460870207BFEF7E0FD01990873F8
:101510001B2069460870207BFEF7D8FD01994873AF
:101520001C2069460870207BFEF7D0FD01990861F8
:101530001D2069460870207BFEF7C8FD01994861AF
:101540000021207BFEF7D5FD0120019908700A20BB
:101550007060062131722D1D286008462871F068E0
:10156000A8603069E86070692861B0696861F069F5
:10157000A861019800782877FFF74AFD250090358B
:10158000AA49280000F0F5FBFA218900280000F0A4
:10159000E4FCA7492000A43000F0EBFBA5492000A3
:1015A000B83000F0E6FBA4492000CC3000F0E1FBAD
:1015B000A2493800183000F0DCFB00F0DCFCA0652C
:1015C0009F48F8629F4878639F48F8639F48386354
:1015D0009F48B8633A4D2C37380029688847012066
:1015E000A073A96D8847E86A80470020FEBD00000F
:1015F000B8150010B8030010C8160010F1B586B079
:101600000F00944D3920285C694648713820285CC9
:101610008871914C6846A17DE27D89180171002F87
:1016200001D1032049E0002603A831000170A17C0C
:101630004170E16C049169780172297841722C2122
:10164000695C817220004C30009001AB9B1C01AAA8
:10165000521C03A9207BFEF768FD02A82C352978CF
:10166000817069464979417009210170E17B002947
:1016700001D00A21017002A9207BFEF727FD7870B6
:10168000787869460979884204D369460979401A0D
:10169000387004E03870300069460871E0826846AE
:1016A00002796946052009566846007EFFF7CFFBA0
:1016B000002801D1082000E0304607B0F0BD00004E
:1016C0002C6700007C1600102C11001038B50500A6
:1016D0000024002D01D1032032BD28781E2800D916
:1016E000A0E002A1095C49008F4400BF1014181C3F
:1016F0002024272A2E323B404F46585C6064686C99
:1017000070747C788084888C909498005248407BD8
:10171000287188E05048407C287184E04E48807CE5
:10172000287180E04C48806B68607CE04A48C06B60
:10173000686078E04948686075E04948686072E030
:101740004548807B28716EE04348C07B28716AE081
:101750001920694608704048007BFEF7B7FC6860B6
:1017600061E0404803C82D1D03C55CE0394AD06DD7
:10177000116E2D1D03C556E01720694608703648C6
:10178000007BFEF7A3FC68604DE0162069460870F8
:101790003148007BFEF79AFC686044E032480078EC
:1017A000287140E02B48C06868603CE02948006927
:1017B000686038E027484069686034E025488069FF
:1017C000686030E02348C06968602CE027480078F2
:1017D000287128E01F484078287124E024480078C8
:1017E000287120E01B48007828711CE01A48406CE2
:1017F000686018E01848806C686014E01648006C57
:10180000686010E01348406868600CE01148007A96
:10181000287108E00F48406B686004E00D48C06E16
:10182000686000E00224200032BD0000810A000050
:10183000150D0000310D0000850D0000090E00009F
:101840000103000031040000850900005709000071
:10185000FB090000B8150010B803001028040010A0
:1018600038040010DC150010D8150010F115001018
:10187000F0150010F0B585B0040000200700002C22
:1018800001D1032050E10121A84DEA6D0A4001D0A9
:10189000084649E122781E2A00D943E101A35200FB
:1018A0009B5A9F443C0076007C00820088008E009A
:1018B000A400BA00C6007E02CC0026016A015001D5
:1018C000820196019E01A601AE01B601BE01E001B2
:1018D0002A0208024C0252027E02580262026E0282
:1018E000760221796973002902D0022904D01AE115
:1018F0008F48C06A804716E1E8748D48C06A804707
:101900008C4E8D4800907368327A2836317849B20F
:10191000287BFEF717FCFFF7C9FB04E12079687408
:1019200001E12079A874FEE06068A863FBE06068CC
:10193000E863F8E06168002905D0102270352800BE
:1019400002F06BF8EFE00327EDE06168002905D0B5
:1019500010228035280002F060F8E4E00327E2E07E
:101960002079A8737249896D8847DCE02079E87393
:10197000D9E0207A694608716E4E2D20305C01A9AD
:1019800048700622287BFEF7BCFB00281CD0241DD3
:1019900003CC3200243203C2687B022800D0C2E0AC
:1019A000687C002800D1BEE06148C06A8047624878
:1019B00000907368327A2836317849B2287BFEF776
:1019C000C1FBFFF773FBAEE00327ACE0207A69466A
:1019D0000871584E2D20305C01A948700622287BE2
:1019E000FEF78FFB002804D0241D03CC5C3603C611
:1019F00099E0032797E06068029002A8017102A9AC
:101A0000287BFEF789FB002800D08CE003278AE0C2
:101A10006168029102A90871287BFEF77DFB00280E
:101A200000D080E003277EE02079002804D0102831
:101A300002DA6C49087076E0032774E060683D497B
:101A4000C86070E060683B4908616CE060683949D3
:101A5000486168E060683749886164E060683549DA
:101A6000C86160E0207969460871052201A9287BD8
:101A7000FEF747FB002804D0684600795A490870F1
:101A800051E003274FE0207969460871294E2C2048
:101A9000305C01A988700422287BFEF732FB002805
:101AA00003D06846007970703DE003273BE0207961
:101AB00069460871082201A9287BFEF722FB00284D
:101AC00004D068460079494908702CE003272AE0D1
:101AD000207969460871072201A9287BFEF711FBCE
:101AE000002804D068460079124908701BE00327DB
:101AF00019E06068686416E06068A86413E06068D4
:101B00000C4EF06370600EE020790A4E4021705454
:101B1000307208E060680749486304E0606805497E
:101B2000C86600E00227380005B0F0BDB803001019
:101B30002C670000B8150010E016001070B582B0D8
:101B400004000226002C1CD07C4DE86D00280DD12D
:101B50000C220021280001F078FF01206870207815
:101B6000002831D15C20285CC00601D5012076BD5B
:101B70006068002805D0A068002802D0E06800282E
:101B800001D1032076BDFFF743FA2020285C08210D
:101B9000014320202954207828706068E862A068FA
:101BA0002863E0686863217C49B2287BFEF7ECFA81
:101BB00063494870002069460870034602460146A2
:101BC0006846FFF764F90600002E07D00020E8748D
:101BD0002020285CF721014020352970300076BD97
:101BE00000000000D8150010F1150010F0150010CD
:101BF000F0B585B0070002206946487000200870E3
:101C000005460446002F00D190E04C4EF06D0028B0
:101C100001D0012090E02046087114220146494875
:101C200001F013FF01204749487070773878002889
:101C300004D0012817D003282AD039E001242046F7
:101C4000307768460079C006C00E402101436846DF
:101C50000171387969460870B8680290B88948807F
:101C60000E203D5624E00124F87B30776846007949
:101C7000C006C00E8021014368460171387969466B
:101C80000870B8680290B88948800E203D560FE071
:101C900001242046307768460079E02101436846F8
:101CA0000171786802903889694648800A203D565B
:101CB00068460078FFF7F4F9002837D004A801211E
:101CC000017021490978817004A9307BFEF7FEF983
:101CD000A84200D30500002C2CD0B07C00280ED1E7
:101CE00003AC257018480078A070042203A9307B4B
:101CF000FEF707FA002819D0207811494870684685
:101D00004388029A017801A8FFF7C1F86946487034
:101D10006846407800280BD138780A49087020209E
:101D2000305C012101432036317003E0032003E0E1
:101D30000020F0746846407805B0F0BDB80300108C
:101D4000B8150010C8160010E415001042691207FB
:101D5000120F0A4342617047C1680069814201D194
:101D60000120704700207047AA21816055218160C1
:101D7000704700220260426013000372C16002617A
:101D8000704738B5040001F0B1FE002C27D02000C8
:101D900000F0D7F8002822D160682060002020726F
:101DA00080480568002D04D12168200000F047F824
:101DB00015E0287A002807D000F0D7F8296881427A
:101DC00000D20800091A00E029682068884203D27E
:101DD000200000F034F802E0200000F003F801F0E9
:101DE0008BFE31BD30B46F4A12681369002B06D1E7
:101DF0000368591A01601061002101611DE01C682F
:101E00000C1902E021001D686419002A15D005682C
:101E1000A54209D2691A0160002B02D01C68611A20
:101E200019601061036108E01A001B69002BE9D1F9
:101E3000291B016010610021016130BC704710B5A1
:101E4000584A1368002B04D00468091B196000214C
:101E50001972036101210172106000F09AF810BD3F
:101E600038B5504C2568002D20D000F07EF8296848
:101E70000022884201D32A6001E0081A28602A72F1
:101E800005E001692160C068010000D0804720683A
:101E9000002802D001680029F3D0002806D0017A7A
:101EA000002903D10121017200F073F831BD70B532
:101EB000060001F01BFE3B4C25682A0028003DD09F
:101EC000002E3BD0B54226D1287A002817D000F04A
:101ED0004CF83168814200D20800091A0022100033
:101EE00028722869002808D0206002685118016013
:101EF0000121017200F04DF820E022601EE0286907
:101F0000002805D02060016832688918016015E05A
:101F10000020206012E0316801E002001800002873
:101F20000CD00369B042F8D1002B05D01800106125
:101F300002685118016001E00020106101F0DCFD31
:101F400070BD1849096800E00969002903D0814281
:101F5000FAD1012070470020704738B505000C0009
:101F6000FFF7A5FF2C606C6031BD80B54D4800685F
:101F700000F004F802BD4C480068704710B504003A
:101F8000FFF7F9FFA04202D2401E001B10BD001B4C
:101F900010BD80B5006845490860FFF7ECFF414976
:101FA000086001BD14170010F8B58025ED05280064
:101FB000FFF7DAFE3E4C06E02800FFF7D5FE684644
:101FC000407801F00FFE012300AA521C210039487D
:101FD00001F045FF0128EFDA374D6620285C022822
:101FE0005FD03648FFF7B8FE002804D02000FFF786
:101FF000B3FE002802D1FFF7BEFF07003048007A89
:102000003049097A01403048007A014204D02F4813
:1020100040688047012844D02D480068002802D03D
:10202000FFF7A9FF06003800FFF7A8FF0B2838D3F9
:102030003000FFF7A3FF0B2833D32D1D2548006880
:1020400000280DD1287880070AD5002001F0B4FBC4
:102050006946087001231A46104601F08AFFF1BD57
:10206000022005F00DFE1C4C01212000FFF76EFE42
:102070002878C00709D50C212000FFF767FE03224E
:102080000621012000F0EAFDF1BDE86C002803D034
:102090000C212000FFF75AFE0322E96C012000F01A
:1020A000DDFDF1BD3C0500103405001038050010C1
:1020B000180F001000400640600C0010040F0010C4
:1020C00070040010840400105C0400102C670000F1
:1020D00014040010FC03001000000240F8B50600D4
:1020E0000D0017009D4C069860711800A071000A41
:1020F000E0711800000C20721800000E6072079842
:102100000100A172090AE1720100090C2173000E9D
:1021100060732800E0732000203002F0A3F939003A
:102120002000203002F0AFF91022210020002030E2
:1021300002F0B1F9EAB231002000203002F0ABF930
:10214000210020312000103002F00AFAE07C000665
:10215000A17C09040143607C00020843217C014307
:1021600008980160F1BDFDB50F00002601257C4CEB
:10217000F02231462000203001F067FC220020329E
:102180001021019802F04AFD089860710298A07130
:102190000298000AE0710298000C20720298000E6A
:1021A000607209980100A172090AE1720100090C2C
:1021B0002173000E60730DE07018009A135C6218B2
:1021C000127C5A400A9B1A54491C1029F4DB103F18
:1021D0001036F6B2BFB2102F0BDB2800E0736D1C77
:1021E0002200203221001031200002F098FD002151
:1021F000EBE7002F15D0E5732200203221001031CB
:10220000200002F08CFD002109E07018009A125C99
:1022100063181B7C53400A9A1354491C89B2B94273
:10222000F3DBF7BD10B584B0089C0294079C0194C1
:10223000069C0094FFF797FF1FBDF8B506000D0040
:102240001700464C2000203002F00CF93900200025
:10225000203002F018F9EAB231002000203002F0FC
:102260001AF9210020312000103002F079F9E07CC9
:102270000006A17C09040143607C00020843217C24
:10228000014300980160F1BDF4B505000E001F0088
:10229000334CF02200212000203001F0D6FB220038
:1022A00020321021009802F0B9FC220020323900BF
:1022B000280002F034FD102E07DB203422001037F6
:1022C00039001035280002F02AFDF1BDF4B584B0C4
:1022D00004000E001F00224DF022002128002030B3
:1022E00001F0B3FB2A0020321021200002F096FCFE
:1022F00010220021684601F0A8FB6C4601202070E6
:10230000062231002000401C01F087FB022204A9B4
:102310002000C01D01F081FB2A00203239006846F0
:1023200002F0FDFC10220021684601F08EFB022025
:102330002070062231002000401C01F06EFB0222BA
:1023400004A9E41D200001F068FB20352A000A9949
:10235000684602F0E4FC05B0F0BD00006C0100101E
:10236000A4020010124207D08B0706D00B78491C3C
:102370000370401C521EF7D87047830706D00B78B5
:10238000491C0370401C521EF9D1704770B4103ABA
:1023900003D378C9103A78C0FBD2530701D318C9C8
:1023A00018C001D508C908C0D20704D30B88038020
:1023B000891C801C002A01D50B78037070BC704703
:1023C00002000800824201D1C0B201E0501EC0B23A
:1023D00040B270479E49800008589E49884204D008
:1023E0004900884203D00020704701207047022036
:1023F00070470200914200DB08007047FFB583B0D0
:102400000026354628460090019007E000981030DD
:10241000C0B200900198401CC0B2019000986028A2
:1024200033DA002407E00098210040180C99F6B236
:102430008855761C641C102CE8DA04980199490030
:10244000405A0121A1400842F4D005980099091989
:102450004A0051188900471838680028EAD0082037
:1024600039560A001211090709176846007B40B265
:1024700002F01EFD0028DDD00698797A0901401887
:10248000C0680028CFD06D1CD4E70D9805703000CF
:10249000C0B207B0F0BD000080B500BF28A1096838
:1024A00002781E2A4AD801A39B5C9F4484848E8EA6
:1024B0008E848E8E842C368440444A5054585E84D8
:1024C000708474787C808484888C1E0000210122B2
:1024D0008056FFF775FF010030E08A4901228056DF
:1024E000095C2BE0884901228056095C26E0874977
:1024F00024E0FA21890021E0FA21C9001EE0844984
:102500001CE084491AE08021C90117E0FA21890002
:10251000814801F077FAFA21C90041180EE07F499D
:102520000CE07F490AE07F4908E0602106E07E492F
:1025300004E0002102E07D4900E0B049080002BD4E
:102540000000000038B54268AD49774B047865005B
:102550002C19A4001B195B7A1B01C918407802F0E2
:10256000D7FC31BD10B5002803D0022824D023D3D6
:1025700010BD00200100A34C0CE04A00521892004C
:102580009A18A14B4B431B1913605023137203007D
:102590005372491C644B6029EFDB9C4861490880F9
:1025A00048808880C8800881488106229020C00029
:1025B000181802F09CFC10BD06225A49584802F037
:1025C00096FC10BD80B5091F012905D9891E0ED0C2
:1025D000491E012916D920E0052200210023C056FA
:1025E00002F066FC401E8041C043C00F02BD0522C0
:1025F00000210023C05602F05BFC401E8041C04316
:10260000C00F02BD072200210023C05602F050FC7B
:10261000401E8041C043C00F02BD002002BD00210A
:1026200000E0491CA44A1278C9B2914205D2A34ADB
:10263000A34B5B5CD2569042F3DA002900D0491ECE
:102640009F48C9B2405CCF49486570470000000010
:102650001028000090D00300F0B583B06946002236
:1026600013460CC10179002902D0012907D047E0A7
:10267000062201682A4802F03AFC0120FEBD1446F9
:102680008D4D2100297006220168264802F02FFC9A
:10269000260001271EE03000C010000F8019010045
:1026A000091120484A00805A0901711A3A008A40EB
:1026B00010420ED03000062105F00DFB080002018B
:1026C0001043194A73009B199B00D2181072684678
:1026D0004754761C602EDEDB09E06946085C002862
:1026E00004D0287876490C54401C2870641CE4B24D
:1026F00020000628F1DB72480078A2494865BCE753
:102700001046FEBDCC280000C4280000B80B000015
:10271000881300007017000018FCFFFF20441E1EE5
:10272000CC090010041700104C05001033339941F8
:10273000F7B582B0002425000821465609214756E6
:102740004068186002984078002824D0002E01D1FB
:102750001C6020E002984068402801D30125270032
:10276000602818D3C006C00E012814D168461E2167
:10277000017046700299897A8170FFF78DFE06001C
:1027800076B2002E07D1250002980078002802D0EA
:102790000120FFF7E7FE03980670049807702800F1
:1027A00005B0F0BDF4B584B00D001C00052800DBB9
:1027B0000520607001202056FFF70CFEA07001205C
:1027C000205600BF12A18200895800BF6EA2105C83
:1027D00002F0FEFB06000F006D48C06D804701004F
:1027E00020000C300290083401940091049B2A00D0
:1027F0003000390002F00AFC05B0F0BD9A9909409A
:10280000240500106035081C400D0300FFFF000088
:1028100048E8010048E8010048E8010048E80100F4
:1028200048E8010048E80100F2B58AB00400012040
:1028300026566768564D68688047002801D00020FA
:1028400038E0E07C002807D12078302105F043FAF9
:102850005D4841435D480F183800E9688847A07C0F
:1028600009900120089000200790069005900490A0
:102870000390A06880B20290082001900020009090
:10288000012300BF40A0825D52B2A1781846AF6913
:10289000B847607C002802D00AA0815D02E000BF3A
:1028A0000AA0815D0D31C9B201206A6D90470A9876
:1028B000067001200BB0F0BDB504001040050010FB
:1028C000B804001033333373DEDE00003333337368
:1028D000DEDE0000F6B58BB004000120225609A808
:1028E000401C00BF28A1895C0170654E9020C0008B
:1028F0003318644821784D00691889007118497AA5
:10290000090140180221415602202056FFF771FDAF
:102910000700A268616802F0D5FB09A908701C4D88
:1029200020784100081880003058E96888475648E8
:102930000890002007900690059001200490002048
:102940000390082002900120019069462520085636
:10295000009000231A46242009560120EE69B04752
:10296000A189C9B201206A6D9047A189C9B201202D
:102970006A6A90470C9908600B98077001200DB0A7
:10298000F0BD0000600C00100C0B0A0908070000E5
:102990002C670000704700B585B0394900913C496B
:1029A0000191694642780A7202784A7282788A7284
:1029B000C278CA724168039180680490684602F048
:1029C00096FB05B000BD0000400D0300E0F8D11DEE
:1029D000F6B59DB006001F0000252C0028006946B2
:1029E000087204A8602105F0EFF92A480390062236
:1029F000214602F065FA002802D10120FFF7B2FD5E
:102A00007068FFF7BBFA3168884214D33D601D4CF3
:102A100001232200B17A707A02F07FFA070002A83F
:102A2000019004A800902300184A0399307AFFF718
:102A3000E5FC040009E06846007A401C694608721B
:102A40007068FFF79BFA31680F1A002C0CD0641ED7
:102A50002100284600F0D6FF04A9085C1D990870E3
:102A60001E980560284609E06846007A00281E98EE
:102A700002D007600B2001E005600C201FB0F0BD04
:102A80004C05001024050010B80B00004C05001088
:102A900024050010CC090010881A010049B2002951
:102AA00000D50020C0B270472B4A00091060080012
:102AB00000098021090601435160704780B5090172
:102AC0004118FFF7F1FF01BD24480068C00F7047AF
:102AD000AA21816055218160704738B5204C2121A1
:102AE0002000401D00F054FA050430212000283059
:102AF00000F04EFA054325601A4D0022802128007F
:102B000005F044F9682221002800FFF73FFC8020EF
:102B1000C005FFF7DDFF00F0E9FF1F21084605F0C3
:102B200059F9FF21F231481E05F08EF91F210846A0
:102B300005F050F9F824E40180222900200005F076
:102B400057F900F0D9FF40212000FFF7B7FFFFF74A
:102B5000BBFF0028FBD131BD20000440240004400D
:102B6000600C0010381500100121C006C00E814015
:102B70007048016070470121C006C00E81406E4858
:102B8000016070476D490A68012383406C4818430F
:102B900082430A6070476949012282400868694B94
:102BA000034013430B60704710B50400FFF7EAFFC2
:102BB0002000FFF7F0FF10BD8F490A68D2B2024330
:102BC0000A61704740014908491E0143924801606B
:102BD00070479249012282400868914B0340134399
:102BE0000B60704742691207120F0A434261704737
:102BF00042690F23DB430B439A43426170470168EC
:102C00004907490F02220A430260704701684907D9
:102C1000490F04220A4302607047C1607047416057
:102C20007047AA21816055218160704741617047DA
:102C30008161704702689206920E0A4302607047F3
:102C400010B504000121FFF7F5FF2000FFF7E9FFB1
:102C500010BD80B57348FFF7D2FF01BD70B50C0001
:102C60001600704D01002800FDF7C1FA2800FDF79D
:102C7000C9FA010061432800FFF7CFFF4820FDF7A4
:102C8000CFFAA720C043FDF7D2FA3100BF4802F0C7
:102C900087FA0020FDF7C4FA2800FFF7B7FF70BDE0
:102CA00010B580200002FFF787FF0920FFF791FF92
:102CB0000920FFF779FFB54C0A212000FFF798FFA4
:102CC00008212000FFF78EFF0F20FFF74DFF10BDFA
:102CD000704738B540210120FFF774FF4020FDF711
:102CE000B9FA02F0CEFA0500AD088024E405200010
:102CF00002F0A3FB6D0829002000FFF790FF610D93
:102D00002000FFF793FF29002000FFF791FF022129
:102D10002000FFF78FFF0C21200002F0A5FB0C2004
:102D2000FFF729FF0C20FFF71FFF2000FFF788FFA8
:102D300031BD000000E100E080E200E004800440DA
:102D40000020FEFFFFDF010038B59F4C20780028EF
:102D500005D0022827D014D3032836D048E09B4D55
:102D60002800FFF7A4F80121002000F016FD6421DF
:102D70002800FFF7F2F82800FFF703F80120207081
:102D800031BD924D2800FFF792F80021084600F06F
:102D900004FDC8212800FFF7E0F82800FEF7F1FF46
:102DA0000220207031BD894D2800FFF780F80121F5
:102DB000002000F0F2FC64212800FFF7CEF8280084
:102DC000FEF7DFFF0320207031BD804D2800FFF7A4
:102DD0006EF80021084600F0E0FCFA218900280086
:102DE000FFF7BBF82800FEF7CCFF0020207031BDB4
:102DF0000020207031BD00000482044010B5002185
:102E0000084600F0CAFC714C0A212000FFF7A5F823
:102E10002000FEF7B6FF10BD2480044080800440EF
:102E2000FFFFEF2500800040F0B583B005002F00C4
:102E3000BA4E052802D0062803D00BE0FFF7DEFFCC
:102E400008E0BC2080003018FFF731F80021084668
:102E500000F0A3FCBA2080003058E840C00700D43E
:102E600093E0AF4CA800201896214900401801902B
:102E70000068FDF706FA05000A2F01D00D2F61D179
:102E8000A8483018009007780322A7A12000FFF778
:102E90007DFAEDB22A00019801682000C01CFFF7FE
:102EA00061FAED1C28002C25C0B22554401C0100FD
:102EB000491C3A00120601D5412205E03A005206AB
:102EC00001D54E2200E03022C0B222540800401C3E
:102ED0003A00D20701D531220AE03A00920701D523
:102EE000322205E03A00520701D5502200E030229C
:102EF000C9B26254F9060FD5C0B22554401C070070
:102F00000122009840783018884941183800C0B232
:102F1000201802F0D9FA381800998978002920D0B1
:102F2000C0B22554401C05000098827840783018C3
:102F30008121890041182800C0B2201802F0C4FA8B
:102F400028180EE0032278A12000FFF71FFAEDB247
:102F50002A00019801682000C01CFFF703FAED1C4D
:102F600028000D21C0B22154401C05000A20EDB2FA
:102F7000605500F0BBFD6D1CEDB22B0022006C49CA
:102F80006C4800F04FFF00F0B7FDF7BD00000240B5
:102F900030B402000B000024210000E0641C9C42BD
:102FA0000ED2105D000248400100082001E0290017
:102FB000401EF3D04D000904F9D55F496940F7E799
:102FC000080080B230BC70471A170010C80C0010FF
:102FD000F0B58DB00500514CA22080002018039060
:102FE000F826F60168223100FFF7D0F9534820187F
:102FF00001902121FFF7CCFFAC2080002018029027
:103000003021FFF7C5FF04A800210A4606C004A826
:1030100000F0B1FD0027380000E0401CC0B2010004
:10302000802902DA725CFF2AF7D0802901DA002DAC
:1030300043D0434D082204A92800FFF7A7F906A8AA
:1030400024A10CC90CC000BF24A11022FFF79EF9D7
:10305000082206A928000830FFF798F9102208A9CD
:1030600028001030FFF792F938002021685401261B
:10307000EE64212229000198FFF774F9A320800053
:103080002018009006703022243529000298FFF79E
:103090007DF900984765009887650020C043009936
:1030A000C865BB20800020180770032141700221F1
:1030B0008170FFF712FD0DB0F0BD6822310003985A
:1030C000FFF764F9082204A90198FDF7E3F8002846
:1030D000F1D0FEE74D4A2D4D6F64656D2B7E1516C0
:1030E00028AED2A6ABF7158809CF4F3C10B500200B
:1030F000FFF76EFF094C002298214900200004F0E0
:1031000045FE9622520021000E4800F061FD0E4956
:10311000BC2080002018FEF72CFE10BDD80900103E
:10312000000000100102000045565F00030200008D
:10313000040F001000400640211000008D02000026
:1031400028160010F4160010492D0000F0B59FB0AD
:103150000024C04D287802F00DFA0290BE4806897E
:103160002F00204669460870002E01D1012482E21A
:103170000298762810D1022E0ED168783F280BD104
:10318000B6A1280002F0FDF92C18B549200002F084
:10319000F8F9271801246EE202987A280AD1012E44
:1031A00008D1B048C06A80470126300069460870DF
:1031B000340060E2262812D1022E10D1687802F085
:1031C000D9F966280BD1A748C06A80470120FFF7CC
:1031D000FFFE012630006946087034004BE2029879
:1031E000732800D08DE0022E00DA8AE068783F284C
:1031F0002ED1022E2CD199A1280002F0C2F92C1850
:10320000AC2080002958200002F078F926182C24E0
:1032100020003070761CAD2080002958300002F06C
:103220006DF9361820003070761CB92080002958BE
:10323000300002F063F930180470401C0400B8201C
:1032400080002958200002F059F92718012412E2C1
:103250003D2800D00FE2552E00D00CE2AC208000BB
:10326000281801903022014613A8FFF78FF8082292
:103270002900891C13A802F053F9002800D1FAE1B3
:10328000A87A2C2800D0F6E113AE082229000B31D1
:103290003000001D02F044F9002800D1EBE1E87C89
:1032A0002C2800D0E7E1202229001431300008301A
:1032B00002F0EAF8102800D0DDE13420285C2C2848
:1032C00000D0D8E12022290035311836300002F034
:1032D000DBF8102800D0CEE1302213A90198FFF7C7
:1032E00055F8A320800028180178FE220A40022108
:1032F00011430170FFF7F1FB0126340068460670A8
:10330000B9E16A286BD1022E69DB68783F2823D1A6
:10331000022E21D151A1280002F033F92C180822E5
:103320005148291805A802F014F9082205A920001F
:1033300002F0CAF824182C202070641C08224B4884
:10334000291805A802F005F9082205A9200002F0B5
:10335000BBF8271801248EE13D2800D08BE1332EE5
:1033600000D088E1404828180190212201460AA88F
:10337000FEF7F8FF0AAE10222900891C3000083041
:1033800002F082F8082800D075E1A87C2C2800D033
:1033900071E12022290013313000103002F074F85E
:1033A000102800D067E108223100083108363000CB
:1033B00002F0CFF821220AA90198FEF7D3FFA3203B
:1033C0008000281801260178FD220A4031001143AF
:1033D0000170FFF782FB3400684606704BE16728F6
:1033E00000D094E0022E00DA91E068783F283FD1C7
:1033F000022E3DD119A1280002F0C3F82C18012299
:10340000BB2080002918200002F05EF826182C242A
:1034100020003070761C0122B2482918300002F0DA
:1034200053F8361820003070761C0122AE48291857
:10343000300002F049F830180470401C04000122EA
:10344000A32080002918200002F03EF8271801244C
:1034500011E100BFD8090010F41600104F4B2C00EA
:10346000086700002C6700008D0200009502000034
:103470003D2800D0FFE00A2E00D0FCE00222290007
:10348000891C00A8C01C01F0FFFF012800D0F2E059
:1034900028792C2800D0EEE002222900491D00A83E
:1034A000801C01F0F1FF012800D0E4E0E8792C282D
:1034B00000D0E0E002222900083100A8401C01F001
:1034C000E3FF012800D0D6E06846C078602800DB22
:1034D000D1E068468078002800D1CCE0684640788A
:1034E000032800DBC7E06846C078BB218900685428
:1034F00068468078491C685468464078491C68547E
:10350000FFF7EBFA0126340068460670B3E06A283C
:1035100011D1012E0FD1A320800028180126017897
:10352000FD220A40310011430170FFF7D6FA340042
:10353000684606709FE074285CD1052E5ADB6878D7
:10354000302802D0312800D095E0A8782C2800D06F
:1035500091E0A72040002818019002222900C91CF0
:1035600001F092FF012800D085E001980078002842
:1035700000D180E0FF20503028180490687830385F
:1035800004990870A8204000281803902046039949
:103590000870062E0EDB68792C280BD13000821FB4
:1035A00092B22900891DFF205230281801F06CFFCB
:1035B00003990870A3208000285C80075BD5052E46
:1035C00003D003980078342855DA01980078002851
:1035D00051D0E0284FDA049909784B1E9B41DB4318
:1035E000DB0F03990A78FF215231691800F0C1FC02
:1035F000040040E061283ED1022E3CDB68783F2881
:1036000017D1022E15D107A80C2104F0DDFB37A13C
:10361000280001F0B6FF2C18B6208000295807A812
:1036200001F06CFF07A9200001F0ABFF271801246F
:1036300021E03D281FD1B01E0100C90F0918491013
:103640004A00821A17D1012915DBB21ED2B2290015
:10365000891C01A801F064FF00280CD001982449BE
:10366000884208D2B62189006850FFF736FA012651
:10367000340068460670002C07D0AF420BD11DA164
:10368000380001F07EFF3F1805E000BF1DA13800A3
:1036900001F077FF3F180D2038707F1C0A2038702A
:1036A0007F1C962040002C182800381A208000F03B
:1036B0001DFA23882A001049104800F0B3FB00F0DF
:1036C0001BFA68460078012804D1042004F0D8FAD7
:1036D00000F03DFA962252002900094800F078FADD
:1036E0001FB0F0BDED020000EE0200004F4B2C00B9
:1036F000B88D06004F4B0000040F0010004006403C
:10370000F41600104552524F520000002C4901227D
:10371000824008682B4B034013430B6070472849D5
:103720000A68012383402848184382430A6070478F
:103730002649012282400868C001C0091043086080
:103740007047490140188354704701239340890012
:1037500040188E218901435070470123934089000E
:1037600040189021890143507047000070B5002433
:10377000A0252D060EE000BF8BA0065D32000021C3
:103780002800FFF7E2FF0123320000212800FFF7A5
:10379000D8FF641C012CEEDB70BD10B50C000028B6
:1037A00009D1012363400B220021A0200006FFF76E
:1037B000C8FF7648047010BD744800787047000058
:1037C00080800440FFFFEF25000010DAC0C10040F8
:1037D00010B50720FFF79AFF0020FFF7A9FF01208F
:1037E000FFF7A6FF0220FFF7A3FF0320FFF7A0FFCC
:1037F0000620FFF79DFF0720FFF79AFF0920FFF73C
:1038000097FF0A20FFF794FF0B20FFF791FF0C2092
:10381000FFF78EFF0D20FFF78BFF0E20FFF788FFCD
:103820000F20FFF785FF1020FFF782FF1120FFF721
:103830007FFF1220FFF77CFF1320FFF779FF142092
:10384000FFF776FF1520FFF773FF1620FFF770FFD5
:103850001720FFF76DFF1820FFF76AFF0720FFF71B
:103860005EFFA0242406002211462000FFF775FF0A
:10387000042200212000FFF770FF454C0022112197
:10388000200001F015FF00220B21200001F010FFA5
:1038900000220421200001F00BFF00220321200060
:1038A00001F006FF00221021200001F001FF00229C
:1038B0000F21200001F0FCFE00220E21200001F06B
:1038C000F7FE00220D21200001F0F2FE0022082167
:1038D000200001F0EDFE00220721200001F0E8FEAB
:1038E00000220221200001F0E3FE0022012120003D
:1038F00001F0DEFE00221221200001F0D9FE00229C
:103900000A21200001F0D4FE00220921200001F04C
:10391000CFFE00221146200001F0CAFE00221E2127
:10392000200001F0C5FE00221D21200001F0C0FE94
:1039300000221C21200001F0BBFE00221B212000E0
:1039400001F0B6FE00221A21200001F0B1FE002293
:103950001921200001F0ACFE00221821200001F006
:10396000A7FE00221721200001F0A2FE002216214E
:10397000200001F09DFE00221521200001F098FE9C
:1039800000221421200001F093FE10BD1917001031
:103990000040044080B5A020000601F0A1FEFFF722
:1039A00017FFFFF7E3FE01BD0B0030B40121002239
:1039B0000368001D002B0BD00468001D0C4202D0D0
:1039C0004D466D1E64192260241D1B1FF0D0FAE7BE
:1039D00030BC704700B507490868074A5043074A9A
:1039E00080180860064904F079F9080000BD014913
:1039F00008607047480500106D4EC6413930000020
:103A0000FFFFFF7F38B504000D00FFF7E3FF291B20
:103A1000491C04F060F9081932BD03E00B7803700B
:103A2000491C401C13005A1E9BB2002BF6D1704754
:103A30008018401E03E00B780370491C401E1300E1
:103A40005A1E9BB2002BF6D1704701E00170401C5A
:103A500013005A1E9BB2002BF8D1704710B4820796
:103A6000920FD300FF249C40E2438901C9B29940E0
:103A700003000BD54C481B071B0F083B9B089B0002
:103A8000C01803681A401143016007E047489B08CB
:103A90009B00C01803681A401143016010BC7047B6
:103AA000BFF34F8F424843490860BFF34F8FFEE793
:103AB00010B5401E80214904884201D3012010BD69
:103AC0003D4C606003210020C043FFF7C7FF00208A
:103AD000A06007202060002010BD384901228240EC
:103AE0000868374B034013430B60704772B6354884
:103AF0000178491C0170704732480178491E0170F5
:103B0000C9B2002900D162B6704700B583B001F098
:103B1000EDFDFFF73FFF01231A460021084601F0A3
:103B20002AFEFFF7E3FA0020FFF7D7FF26480068D8
:103B3000FA21890004F0D2F8FFF7BAFF00200190C3
:103B4000009001231A46014601F0EFFE07BD80B543
:103B5000FFF7CCFFFFF7A4FF01BD00B585B06846B5
:103B600004F05CF9009801994140029A4A40039898
:103B7000504005B000BD1FB50400684604F04EF982
:103B8000082269462000FEF7EDFB1FBD10B50F4C63
:103B90002068401C2060A068FEF7F0F96168884248
:103BA00001D3FEF75DF910BD1CED00E000E400E07C
:103BB0000400FA050CED00E010E000E08080044015
:103BC000FFFFEF2518170010101700103405001024
:103BD00010B400231C00047004730381416042810F
:103BE00010BC704780B53E490A78002A10D0A12A3F
:103BF00029D0A22A2FD0A52A0CD0A62A10D0A82AD4
:103C000013D0B12A3FD0B22A4ED0B32A5CD005E0FF
:103C1000A5220A70FF2801D1A6200870012002BD4C
:103C20005528FBD1A8200870F8E70200612A01D0CE
:103C3000412A02D1A1200870F0E7422AEED1B12238
:103C40000A700873EAE70200742A01D0542AE5D109
:103C5000A2200870E2E70D2805D1A3200870FFF725
:103C600075FA002002BD0A894B899A4205D1A42029
:103C70000870FFF76BFA002002BD4B689854088962
:103C8000401C0881CAE702004B89934205D2B52047
:103C90000870FFF75BFA002002BD4A810A7B5040A2
:103CA0000873B2200870B9E74A680B89D0540A89B2
:103CB000521C0A810B7B58400873488992B2824299
:103CC000ACD1B3200870A9E70A7B504002D0B520E0
:103CD000087001E0B4200870FFF738FA002002BD38
:103CE000F41600102E490A68012383402D4818431A
:103CF00082430A6070472A490122824008682A4BA1
:103D0000034013430B60704710B50400FFF7EAFF50
:103D10002000FFF7F0FF10BD24490122824008680F
:103D2000234B034013430B607047C1680069814215
:103D300001D10120704700207047C1617047406980
:103D4000C005C00D7047C160704701617047816850
:103D50001848084070471849884201D10E20704722
:103D60001649884201D10F2070471020704710B5C6
:103D70000400FFF7F0FFFFF7CFFF0F48844203D1A5
:103D80000320FFF7C1FF10BD0C48844203D104207B
:103D9000FFF7BAFF10BD0520FFF7B6FF10BD00000A
:103DA000048004400020FEFFFFDF0100808004400B
:103DB000FFFFEF257FFD0100004006400080064028
:103DC00038B504000D0001F0A7FA290103F086FFC1
:103DD000401E206231BD38B504000D0007E0200010
:103DE000FFF7ADFF69460870280001F015FE2000BE
:103DF000FFF7ADFFC007F2D431BD38B504000D00A8
:103E000004E0684601782000FFF797FF2000FFF7E5
:103E10009EFF400705D56946280001F060FE002896
:103E2000EFD131BDF1B50F0014001D000421FFF7E3
:103E30008CFF2A002100380001F007FE060039003F
:103E40000098FFF7DAFFAA1BA119380001F0FDFD69
:103E5000341804210098FFF776FF2000F2BD80B5EA
:103E6000080011001A0001F053FE02BD70B50400F5
:103E70000D001600FFF76BFF40070CD53100200046
:103E8000FFF7BBFF3000FFF750FF002803D00421ED
:103E90002000FFF75AFF29002000FFF79CFF70BDAC
:103EA00080B5012802D0E02809D001BD0120A74932
:103EB00048750020FFF780FCA549087001BDA348A4
:103EC000817B00290DD00021817303214175A04918
:103ED00005220A70C27B4A70027C8A7001214170FF
:103EE00001BD4178012904D004290AD10121417082
:103EF00001BD0221417596498289120A0A708089A2
:103F0000487001BD70B586B0B24C904E01AD6946A7
:103F1000707DFDF773FB002807D000200100297099
:103F20000390A881606DA87319E08948B17D0029CC
:103F300009D100212970317D29710390707DA881FC
:103F4000606DA8730BE001212970317D2971039008
:103F5000707DA881707E4000E873606DA87301A831
:103F6000FDF746FE002801D1002000E0012006B048
:103F700070BDFEB584B00700744C20005430FDF7CE
:103F800096FF01256E4635706846FDF79FFB0028B9
:103F90002CD13079002829D0A5766846007EA075FE
:103FA00027756846007D60756846027D04996848FB
:103FB000FEF7D8F9FFF7A6FFA076874DA87D022867
:103FC0000FD1286800280CD064216320C043FFF77C
:103FD00019FD2968FA229200514308182063032032
:103FE000E076A17E0120484007B0F0BD0020FBE74D
:103FF000F0B589B0554C20005430FDF758FF01262C
:1040000005AD2E7005A8FDF761FB002827D12879A2
:10401000002803D00220E076A67620E06E46002736
:10402000377020003430019020003C300290200096
:10403000443003901420287005A8FDF747FB0028A2
:1040400002D12879307400E037746846FDF776FDB8
:10405000002802D10420E07601E00320E07609B0D8
:10406000F0BD80B5417800290DD10078002802D03C
:10407000012804D010E000203449C8750CE001206C
:104080003249C87508E0042906D15448002101705E
:1040900081700A20FEF7C8FE01202C49887601BDF8
:1040A00038B504006078002804D00A284CD1FFF706
:1040B0004EFD31BD6079012801D1FFF799FF234DF5
:1040C0002878002802D0A889401CA881607B00289D
:1040D0003AD0E07801280BD1207B012808D1A068D4
:1040E00000780100C907C90F29760020FFF755FBAA
:1040F0003B480100D13100220A70EA7D012A06D135
:10410000A27C002A01D0802200E040220A700B78B5
:104110000122657C002D03D002251D430D7002E0B5
:1041200015001D430D700B7810251D430D704A704E
:10413000E278CA70227B8A70227BA168D530FEF7B4
:1041400011F90D20FEF770FE31BD00009C04001037
:104150004414001010B586B00178002902D001295E
:1041600025D031E0B64C4078002809D1B548007818
:10417000002802D10420E07626E00220E07623E049
:1041800068460021017022003432019222003C3244
:1041900002922200443203920174FDF7CFFC002802
:1041A00002D10420E0760FE00320E0760CE04178B5
:1041B000002909D1A24C2178002905D00121A17341
:1041C000017AE173407A207401209D49887606B017
:1041D00010BD0000600C0010B00C0010D90B0010D6
:1041E000080B00100078042800D0704780B5FFF756
:1041F000FFFE01BDF0B58FB0FFF787FC904F0020A8
:10420000F876FEF74DFDFEF764FD25E0009909788C
:1042100009180A00D210120F521812115300FB187D
:104220009E8C1201891A8D4035439D84401C0125C6
:10423000009949788842E9DB01A8FDF71BFB0C20B7
:10424000207001A8FDF716FB14202070387F207124
:1042500001A8FDF70FFBFD76F87E002809D00228A3
:1042600000D1BAE04FD3042800D1E2E000D2CFE081
:10427000E2E0FFF772FCFFF7BAFB73480590734862
:1042800006907348079073480890022204A905A875
:10429000FDF7B2F8704938005430FDF76AFD01AC03
:1042A000022020700020207101A8FDF7E3FA072505
:1042B00025700020207101A8FDF7DCFA1B2020707A
:1042C0003220029001A8FDF7D5FA17202070257141
:1042D00001A8FDF7CFFA00202070604E64360096EA
:1042E00030468078207101A8FDF7C4FA38002430E8
:1042F00002900D20207000220C213800243003F0A1
:1043000045FD002093E7554E3000001D009001ACA4
:104310000078C00728D538003430FFF72CFC09ADF1
:10432000002028703000401D0A9030000D300B90A6
:1043300015360C961420207001A8FDF7C7F9002847
:1043400002D12079287401E00020287409A8FDF723
:10435000F5FB002805D10520FEF766FD0420F87660
:104360007AE70320F87677E7032020700098406A08
:10437000029001A8FDF77EFA042020700098806A60
:10438000029001A8FDF776FA052020703000303049
:10439000029001A8FDF76EFA062020703000403030
:1043A000029001A8FDF766FA01252800207025710A
:1043B00001A8FDF75FFA142020700098006D2071AD
:1043C00001A8FDF757FA6436B078022802D102201E
:1043D000F87641E70420F8763EE7B87E002808D05A
:1043E000012528003875BD75FFF75AFDFFF78AFDD6
:1043F000B87664216320C043FFF704FB1849C96CF9
:10440000FA2292005143081838630320F87623E714
:104410000420F8761248C06C002800D11CE7396BE4
:1044200038005430FDF799FD38005430FDF7A9FCF1
:1044300012E7FDF7B9FD0FE70020F8760CE7000062
:104440009C040010C60C001063400000A140000056
:1044500055410000E5410000F13F0000600C0010F4
:10446000640C001010B5040010220021F130FFF799
:10447000ECFA00208A2149006050F0220146200019
:10448000FFF7E3FA10BD80B50B0002001021180001
:1044900000F0C4FB01BDF0B585B005000E001400AE
:1044A0008A2040002858002849D010210F1AA7421E
:1044B00000D927003A0092B231002818FF239B1C34
:1044C000C018FFF7AAFA8A2040002858C0198A218C
:1044D00049006850102841D3BC423FD0002006E07C
:1044E0002918F1310A780B7C53400B70401C1028BE
:1044F000F6DB2A002900F1312800F13000F00FFC32
:10450000F619E41B1BE06818F1300278735C534025
:104510000370491C1029F6DB10222900F13168468E
:10452000FFF77BFA2A006946684600F0F8FB102284
:1045300069462800F130FFF770FA1036103C112C54
:1045400001D30021E6E7220092B23100FF20801C57
:104550002818FFF762FA8A2040002C5005B0F0BD01
:10456000F1B588B00C00102200216846FFF76DFA03
:1045700022006946684600F0D2FB802100206A468E
:1045800013780B4211D0030007E0D5182E7876007F
:104590006F78FF0937432F705B1C0F2BF5DBD37B44
:1045A0005B0087255D40D5730EE0030007E0D5185A
:1045B0002E7876006F78FF0937432F705B1C0F2B26
:1045C000F5DBD37B5B00D3738A235B00E358102BAE
:1045D0000CD10100102956DA6318FF25AD1C5B19B8
:1045E0001D78565C6E401E70491CF3E713780B4231
:1045F00011D0030007E0D5182E7876006F78FF09F8
:1046000037432F705B1C0F2BF5DBD37B5B008725BB
:104610005D40D5730EE0030007E0D5182E787600D4
:104620006F78FF0937432F705B1C0F2BF5DBD37BB3
:104630005B00D3738A235B00E358E318FF25AD1CAE
:10464000595502E0030061184B558A214900615811
:10465000491C8A235B00E1501029F3D3010008E0D4
:104660006318FF25AD1C5B191D78565C6E401E70EB
:10467000491C1029F4DB06E02118F1310A780B7C83
:1046800053400B70401C1028F6DB10222100F13142
:1046900004A8FFF7C2F92200089904A800F03FFB24
:1046A000102200216846FFF7D0F909B0F0BD0000E4
:1046B0000A7802704A7842708A788270CA78C2702A
:1046C0000A7902714A7942718A798271CA79C27112
:1046D0000A7A02724A7A42728A7A8272CA7AC272FA
:1046E0000A7B02734A7B42738A7B8273C97BC173E4
:1046F000704703E00B780370491C401C13005A1EDE
:10470000DBB2002BF6D1704702780B785340037070
:1047100042784B785340437082788B785340837053
:10472000C278CB785340C37002790B795340037140
:1047300042794B795340437182798B79534083712D
:10474000C279CB795340C371027A0B7A534003721A
:10475000427A4B7A53404372827A8B7A5340837207
:10476000C27ACB7A5340C372027B0B7B53400373F4
:10477000427B4B7B53404373827B8B7B53408373E1
:10478000C27BC97B5140C173704710B40B78147859
:104790005C4004704B7854785C4044708B7894781B
:1047A0005C408470CB78D4785C40C4700B79147909
:1047B0005C4004714B7954795C4044718B799479F5
:1047C0005C408471CB79D4795C40C4710B7A147AE3
:1047D0005C4004724B7A547A5C4044728B7A947ACF
:1047E0005C408472CB7AD47A5C40C4720B7B147BBD
:1047F0005C4004734B7B547B5C4044738B7B947BA9
:104800005C408473C97BD27B4A40C27310BC704742
:1048100080B5FFF779FF01BD7F4902788A5C02709D
:1048200002798A5C0271027A8A5C0272027B8A5C7B
:10483000027342784379CB5C4370437ACB5C43711B
:10484000437BCB5C43728A5C42738278837ACB5C15
:1048500083708A5C82728279837BCB5C83718A5C91
:104860008273C27BC37ACB5CC373C379CB5CC372E4
:10487000C378CB5CC371895CC17070477FB504009D
:1048800021006846FFF714FF634800BF63A100BF23
:10489000A2A26B461D78565D5D794D5D75409E7A8E
:1048A000865D6E40DD7B455D754025701D78465DFB
:1048B0005D79555D75409E7A8E5D6E40DD7B455D10
:1048C000754065701D78465D5D79455D75409E7AE1
:1048D000965D6E40DD7B4D5D7540A5701D784E5D2B
:1048E0005D79455D75409E7A865D6E40DD7B555DE8
:1048F0007540E5701D79565D5D7A4D5D75409E7B16
:10490000865D6E40DD78455D754025711D79465D9B
:104910005D7A555D75409E7B8E5D6E40DD78455DB0
:10492000754065711D79465D5D7A455D75409E7B7C
:10493000965D6E40DD784D5D7540A5711D794E5DCB
:104940005D7A455D75409E7B865D6E40DD78555D88
:104950007540E5711D7A565D5D7B4D5D75409E78B5
:10496000865D6E40DD79455D754025721D7A465D38
:104970005D7B555D75409E788E5D6E40DD79455D51
:10498000754065721D7A465D5D7B455D75409E781C
:10499000965D6E40DD794D5D7540A5721D7A4E5D68
:1049A0005D7B455D75409E78865D6E40DD79555D29
:1049B0007540E5721D7B565D5D784D5D75409E7955
:1049C000865D6E40DD7A455D754025731D7B465DD5
:1049D0005D78555D75409E798E5D6E40DD7A455DF2
:1049E000754065731D7B465D5D78455D75409E79BC
:1049F000965D6E40DD7A4D5D7540A5731D7B495D0A
:104A00005D78455D4D409979405C6840D97A515C4C
:104A10004140E1737FBD0000704D0000A584998D79
:104A20000DBDB1545003A97D1962E69A459D40879A
:104A300015EBC90BEC67FDEABFF7965BC21CAE6ACB
:104A40005A41024F5CF434089373533F0C52655E35
:104A500028A10FB509369B3D2669CD9F1B9E742E5C
:104A60002DB2EEFBF64D61CE7B3E7197F568002CC2
:104A7000601FC8EDBE46D94BDED4E84A6B2AE51666
:104A8000C5D75594CF100681F044BAE3F3FEC08A2F
:104A9000ADBC4804DFC17563301A0E6D4C14352F60
:104AA000E1A2CC3957F28247ACE72B95A098D17F91
:104AB000667EAB83CA29D33C79E21D763B564E1EF7
:104AC000DB0A6CE45D6EEFA6A8A4378B324359B7BE
:104AD0008C64D2E0B4FA0725AF8EE918D5886F72DE
:104AE00024F1C751237C9C21DDDC86859042C4AA39
:104AF000D8050112A35FF9D0915827B93813B33301
:104B0000BB7089A7B622922049FF787A8FF8801768
:104B1000DA31C6B8C3B07711CBFCD63AC6F8EEF698
:104B2000FFD6DE916002CE56E7B54DEC8F1F89FAB5
:104B3000EFB28EFB41B35F452353E49B75E13D4CDF
:104B40006C7EF5836851D1F9E2AB622A0895469DE7
:104B500030370A2F0E241BDFCD4E7FEA121D58344A
:104B600036DCB45BA476B77D52DD5E13A6B900C116
:104B700040E379B6D48D67729498B085BBC54FED8C
:104B8000869A66118AE904FEA078254BA25D80050D
:104B90003F2170F16377AF4220E5FDBF811826C346
:104BA000BE35882E9355FC7AC8BA32E6C0199EA34A
:104BB00044543B0B8CC76B28A7BC16ADDB64741444
:104BC000920C48B89FBD43C43931D3F2D58B6EDA0D
:104BD00001B19C49D8ACF3CFCAF447106FF04A5CDE
:104BE00038577397CBA1E83E96610D0FE07C71CCEE
:104BF0009006F71CC26AAE6917993A27D9EB2B22A7
:104C0000D2A907332D3C15C987AA50A50359091A03
:104C100065D784D082295A1E7BA86D2CF6B585B045
:104C200069460C7D2100102903D0182901D02029C4
:104C300011D1224601000698FFF75BFD6846007D12
:104C40001C308000C0B203900011401E0699F03164
:104C50000870012532E000201146F0310870FF2075
:104C60005BE0029819280DDB10290BD140A0865D6E
:104C700069466A465278825C4A706A461278825C5B
:104C80000A70C75D20006946097D411AC9B20698BD
:104C9000401801784E4001990E700199491C4278E4
:104CA0006B465B7853400B7082786B461B785340A1
:104CB0004B70C07847408F70241DE4B20398844243
:104CC0002ADA069800190190001F06786946427892
:104CD0004A7082780A70C7786846007D029020008A
:104CE000029902F0F8FF0029BBD1310020A06A46EA
:104CF0005278825C2E0056406A466B461B78C35C35
:104D00005370C35D1370475C28004000ED091B2100
:104D10004D434540EDB2B5E7002007B0F0BDF0B51A
:104D200085B00F001400F021615C00291DD0010046
:104D30006846FFF72AFD012506E0FFF79FFD3100D9
:104D40006846FFF765FD6D1CEDB228012618F020BE
:104D5000205C85426846F0D3FFF75EFD320069466D
:104D60003800FFF712FD002000E0FF2005B0F0BD85
:104D7000637C777BF26B6FC53001672BFED7AB7618
:104D8000CA82C97DFA5947F0ADD4A2AF9CA472C0C3
:104D9000B7FD9326363FF7CC34A5E5F171D8311530
:104DA00004C723C31896059A071280E2EB27B27551
:104DB00009832C1A1B6E5AA0523BD6B329E32F84C9
:104DC00053D100ED20FCB15B6ACBBE394A4C58CFC1
:104DD000D0EFAAFB434D338545F9027F503C9FA895
:104DE00051A3408F929D38F5BCB6DA2110FFF3D263
:104DF000CD0C13EC5F974417C4A77E3D645D197317
:104E000060814FDC222A908846EEB814DE5E0BDB10
:104E1000E0323A0A4906245CC2D3AC629195E47947
:104E2000E7C8376D8DD54EA96C56F4EA657AAE08A1
:104E3000BA78252E1CA6B4C6E8DD741F4BBD8B8A3C
:104E4000703EB5664803F60E613557B986C11D9EA2
:104E5000E1F8981169D98E949B1E87E9CE5528DF19
:104E60008CA1890DBFE6426841992D0FB054BB1645
:104E700030B402000023180008E001249C40250003
:104E80001540A54200D1401C5B1CDBB28B42F4DB19
:104E9000C0B230BC70475A49884201D26420704782
:104EA0005849884202D2FA2080007047564870471D
:104EB000884203DB824201DB0120704700207047FB
:104EC000F8B5040016000020002C0FD00D000AE0F9
:104ED000070010216800205AFFF7CAFF01003800C0
:104EE0004018C0B26D1CEDB2B542F1D3F2BD00283E
:104EF00000D1704730B4002908D0002304E05C00E2
:104F00000D5B05535B1CDBB29342F8DB30BC704792
:104F100000288A6000D14A607047FFB581B0002444
:104F2000E44300273E0003E03C00EF60761CF6B24D
:104F30006846007C864248DA039831014518684685
:104F4000007900286846007A26D1002804D0A86895
:104F5000FDF714F8009000E000976868FDF70EF880
:104F60000099814203D26868FDF708F808E06846B6
:104F7000007A002803D0A868FDF700F800E03800A8
:104F8000E968884200D3EF60E9680029CED0081AAA
:104F9000A042CBD20400C9E70028C5D0A868FCF71E
:104FA000EDFFE968884200D3EF60E8680028BDD0D3
:104FB000A868FCF7E3FFE968081AA042B6D2A8681F
:104FC000FCF7DCFFE9680C1AB0E7200005B0F0BD83
:104FD00070B50E0001218140080000F0E3FD0400DF
:104FE0000D00300000F0E8FD02000B002000290059
:104FF00000F0F2FD0022304B00F04FFE70BD0000CB
:1050000080EE3600803F5C0210270000FBB51400E4
:105010001D006000083800F0C5FD6A460CCA00F0AB
:105020003CFE06000F00680000F0C6FD32003B00A9
:1050300000F0F5FE6A460CCA00F0CEFD06000F0037
:1050400002F01CFF02F058FF844206D23000390003
:1050500002F014FF02F050FF00E02000099E3060D3
:1050600068460CC80020154900F017FE04000D002A
:10507000306800F0A1FD6A460CCA00F00EFE002266
:105080000F4B00F00AFE02000B002000290000F088
:1050900029FF04000D00089800F08EFD02000B00AF
:1050A0002000290000F01EFF02F0E8FE02F012FFCF
:1050B0000A990860F7BD000000408F4000001040D2
:1050C0000000E03F38B50C0015004000FBF7F6F893
:1050D0000100200000F0B0FF290000F0ADFF01F05A
:1050E00003F801F01BF802F0F5FE40B232BDF8B54E
:1050F00004002068E17A4A00511889004018407A7B
:1051000007016068C01905880026C660607A00281B
:105110000FD1E068FFF7BFFEA84200D30500A07AD8
:10512000002809D1207A002806D16068C019C6601D
:10513000F1BDA07A0028F8D020694543281A61689B
:10514000C919C860F1BD000014490A681223134050
:105150000B600021016030BF704710490A681623B8
:10516000134004221A430A600121016030BF7047D6
:105170000A490A681623134004221A430A600221CE
:10518000016030BF704705490A68162313400422A6
:105190001A430A600321016030BF704710ED00E040
:1051A00080B5012902D1FFF7D8FF01BD022902D144
:1051B000FFF7DEFF01BD032902D1FFF7E4FF01BDC8
:1051C000FFF7C2FF01BD000079490A68012383404F
:1051D0007848184382430A6070477549012282402B
:1051E0000868754B034013430B60704710B504000B
:1051F000FFF7EAFF2000FFF7F0FF10BD6F490860DE
:1052000070476E480068C0B270476D4908607047CB
:105210006B480068C0B270476A49086070476948C7
:105220000068C0B2704768480068704767487047B8
:10523000674800687047000000B501006AA00A00D6
:1052400052091207120F92008058C906C90E491C54
:10525000490002F043FD00BD02000800D106C90E5E
:10526000491C484370475B490860002048600120A2
:105270004860704758490860002048600120486035
:10528000704780B555480068C005C00DFFF7D4FFD2
:1052900002BD80B54F4800688007800F04D0012808
:1052A00005D0032806D008E0FFF7C0FF02BDFFF7D6
:1052B000BAFF02BDFFF7BCFF02BD002002BD80B5F2
:1052C000FFF7E7FF0100464800684006400EFFF781
:1052D000C3FF02BD80B500203F4909688907890FD7
:1052E00005D0022909D005D3032909D002BDFFF753
:1052F0009DFF02BDFFF7CDFF02BDFFF7C2FF02BD5C
:10530000FFF7DDFF02BD80B5FFF7E4FF354909680F
:10531000C9B202F0E3FC02BD38B5FFF772FF04002A
:1053200001D1002418E0FFF7D5FF210002F0D6FCE0
:1053300004000025FFF76CFFFF280DD1FFF76FFF7A
:105340008021490042180023200E0543240220003A
:10535000290000F00FFF0400200032BDF8B507005F
:105360000C00FFF7B7FF0500390002F0B7FC06009C
:1053700000D101263000C0B2FFF740FF002C11D051
:105380000220FFF733FFFF20FFF73FFF2800310027
:1053900002F0A4FC0002390002F0A0FCC0B2FFF74A
:1053A0003BFF02E00020FFF730FFFFF7B5FFF2BD43
:1053B000048004400020FEFFFFDF010094800440D1
:1053C000F0800440F4800440747F0000001BB700AC
:1053D000787F0000408004407080044024800440B6
:1053E000088004407880044000000000C0270900C5
:1053F00090051000C05C1500F0B31A00200B2000CF
:10540000009F2400E0322900C0C62D0050973100D3
:10541000E06735007038390000093D004016400053
:1054200080234300C03046000B49012282400868B7
:105430000A4B034013430B60704710B50400112062
:10544000FFF7F2FF00202060FF20606004486061E9
:105450000448A06110BD000080800440FFFFEF25DC
:10546000FFFF0000FFFFFF004A0703D502681B2370
:10547000134003600822114004D001688906890E98
:105480000A4302607047000030B403000020D407D4
:1054900014D407E01D782D012C431C70D40701D4CF
:1054A0005B1C401C1400621EA4B2002C08D000BF7C
:1054B0003FA40D786457491C002CEBD5002000E078
:1054C000C0B230BC7047000030B413000DE000BF24
:1054D00032A40D782D11655D0570401C0D782D07E7
:1054E0002D0F645D0470401C491C1400621EE4B260
:1054F000002CECD15800C0B230BC704780B56A4671
:105500000B001B0E13700B001B0C53700B001B0ABF
:105510009370D17004226946FFF7D6FF082002BDC0
:1055200010B40023036003E00468240123430360F4
:1055300013005A1EDBB2002B08D000BF1CA30C784E
:105540001B57491C002BEFD5002000E0012010BCA8
:10555000704730B40023521ED2B207E0CC5C8D5CA1
:10556000C55484545B1CDBB2521ED2B29342F5DBAD
:1055700030BC7047010041391A2900D22030C0B236
:1055800070470200002000E0401C0B78491C13709B
:10559000521C002BF8D1C0B27047000030313233BA
:1055A000343536373839414243444546000000001F
:1055B000FFFFFFFFFFFFFFFFFFFFFFFFFFFFFFFFFB
:1055C000FFFFFFFFFFFFFFFFFFFFFFFFFFFFFFFFEB
:1055D000FFFFFFFFFFFFFFFFFFFFFFFFFFFFFFFFDB
:1055E00000010203040506070809FFFFFFFFFFFF94
:1055F000FF0A0B0C0D0E0FFFFFFFFFFFFFFFFFFF6A
:10560000FFFFFFFFFFFFFFFFFFFFFFFFFFFFFFFFAA
:10561000FF0A0B0C0D0E0FFFFFFFFFFFFFFFFFFF49
:10562000FFFFFFFFFFFFFFFFFFFFFFFFFFFFFFFF8A
:10563000FFFFFFFFFFFFFFFFFFFFFFFFFFFFFFFF7A
:10564000FFFFFFFFFFFFFFFFFFFFFFFFFFFFFFFF6A
:10565000FFFFFFFFFFFFFFFFFFFFFFFFFFFFFFFF5A
:10566000FFFFFFFFFFFFFFFFFFFFFFFFFFFFFFFF4A
:10567000FFFFFFFFFFFFFFFFFFFFFFFFFFFFFFFF3A
:10568000FFFFFFFFFFFFFFFFFFFFFFFFFFFFFFFF2A
:10569000FFFFFFFFFFFFFFFFFFFFFFFFFFFFFFFF1A
:1056A000FFFFFFFFFFFFFFFFFFFFFFFFFFFFFFFF0A
:1056B00089004018016818239943D2000A43026008
:1056C0007047FEE70449012282400868034B03400B
:1056D00013430B607047000080800440FFFFEF25FC
:1056E00080B50620FFF7EEFF01BD000080B5FFF793
:1056F0000AFE0149086001BD101700100121C00613
:10570000C00E81404A48016070474A4901228240E8
:105710000868494B034013430B60704745490A68CA
:10572000012383404548184382430A607047444937
:10573000086070474349012282400868C001C009DF
:1057400010430860704701683F4A0A400121114335
:105750000160704741683D4A0A4042607047C1603D
:105760007047016170470368394A1A40114301606C
:1057700070478160704770B5FEF7B8F90720FFF7F2
:10578000C4FF0120FFF7D3FF0020FFF7D3FF002164
:10579000084600F025FD0421012000F021FD07202E
:1057A000FFF7BCFF2B4D2800FEF7E1FA042128008B
:1057B000FFF7D9FF0121E1204003FFF7CFFDE121F1
:1057C00049022800FEF7FCFA234CAE0D33000122FB
:1057D000210028312000143000F016F93300012296
:1057E000942040002118200000F00EF90D2128001F
:1057F000FFF7BFFF01212800FFF7B1FF04212800B8
:10580000FFF7AFFF2800FFF79EFF2800FFF7A2FF7A
:105810000320FFF773FFFEF76FF970BD80B50E49E7
:105820000A0014310B48FEF721FB01BD0000000007
:1058300000E100E080800440FFFFEF25000010DA67
:1058400094800440C0C100407DDAFC0006030100E2
:1058500001DAFC0000400640040F001053490A68BA
:10586000012383405248184382430A6070474F49DE
:105870000122824008684F4B034013430B6070477E
:1058800010B50400FFF7EAFF2000FFF7F0FF10BD9E
:105890004949012282400868484B034013430B608A
:1058A000704745490A6801238340454818438243AD
:1058B0000A607047012393408900401888218901BC
:1058C000435070470268FF23BE3313400B4303600D
:1058D00070470268FF23BE338B4313400360704759
:1058E00080B53849884206D10C20FFF7D1FF01204E
:1058F000FFF7C6FF01BD0B20FFF7CAFF0020FFF72F
:10590000BFFF01BD80B50121FFF7DCFF01BD38B548
:1059100004000D003C21FFF7DCFF29002000FFF709
:10592000D1FFF0200003206231BD10B582B0FEF738
:10593000DDF80720FFF7ACFFA02424061722002182
:105940002000FFF7B7FF0E21612000F049FC0E2276
:1059500000212000FFF7AEFF1921522000F040FC8B
:105960000721602000F03CFC0621532000F038FCA9
:105970000720FFF796FF134C2000FFF7B1FF04212B
:105980002000FFF7C4FF1049200000F047FC002072
:1059900069460860200000F059FC2000FFF7B2FFC4
:1059A0000C20FFF775FFFEF7A7F813BD0480044035
:1059B0000020FEFFFFDF010080800440FFFFEF2595
:1059C000000010DA00C0054040420F00C1680069C5
:1059D000081A704710B50400FFF7F8FF6168081A4D
:1059E00010BD10B50400FFF7F1FF6168884201DBCC
:1059F000012010BD002010BDC1680069814201D1A5
:105A000001207047002070470160436082600021E0
:105A10000161C1600120704770B504000E00256867
:105A2000FFF7DFFF002801D0002070BDA268310021
:105A3000E06863685B1E03405343E818FCF792FC80
:105A4000E068401CE060012070BDF2B582B0040047
:105A50001500206801902000FFF7C3FF002801D047
:105A60000020FEBD2000FFF7B5FF01006268531E55
:105A7000E6681F003740009733401B18934201D35C
:105A80000098101A091AA84200DD28000600AD1B74
:105A9000A94200DD29000D00A068320042430299AE
:105AA000019B009F4743D819FCF75CFCE068831911
:105AB000E360A0682A004243029F31004143791805
:105AC0008C46216867687F1E1F404743C81961469E
:105AD000FCF748FCE0684019E0607019FEBD70B545
