:10000000B8190010356F0000F33D0000E101000059
:100010000000000000000000000000003F37FFEF7C
:100020000000000000000000000000003502000099
:10003000000000000000000037020000D12D000089
:10004000636F0000636F000000000000DD4D0000E2
:10005000636F0000636F000000000000636F00002A
:10006000636F0000636F0000636F0000636F000048
:1000700051320000636F0000636F0000D331000055
:10008000636F0000636F0000636F0000636F000028
:10009000636F0000636F0000636F000000000000EA
:1000A0004967000059670000636F0000636F00003C
:1000B000636F0000636F0000636F0000636F0000F8
:1000C000124207D08B0706D00B78491C0370401CE6
:1000D000521EF7D87047830706D00B78491C03706F
:1000E000401C521EF9D1704770B4103A03D378C93E
:1000F000103A78C0FBD2530701D318C918C001D5F4
:1001000008C908C0D20704D30B880380891C801C4F
:10011000002A01D50B78037070BC70472B4A000988
:1001200010600800000980210906014351607047F2
:1001300080B509014118FFF7F1FF01BD24480068AF
:10014000C00F7047AA21816055218160704738B582
:10015000204C21212000401D03F098F90504302196
:100160002000283003F092F9054325601A4D002243
:100170008021280000F036F8682221002800FFF7CF
:10018000B3FF8020C005FFF7DDFF02F0D1FD1F2186
:10019000084604F0EFFB1149481E04F025FC1F211E
:1001A000084604F0E7FB80222900FF20C00104F08C
:1001B000EFFB02F0C3FD4021F820C001FFF7B8FFBC
:1001C000FFF7BCFF0028FBD131BD00002000044038
:1001D00024000440F00A0010C8130010FF010000C2
:1001E000FEE700001206130A1A43130C1A4300BF5D
:1001F000130030B414001500103902D310393CC07C
:10020000FCD2490700D30CC000D504C0890002D33A
:100210000280801C002900D5027030BC70470000AD
:100220000022E5E780B504F050FF0149086001BDF8
:10023000A4150010FEE7FEE701680800C007C00F24
:1002400070470129016803D101220A430260704707
:10025000012291430160704780B5FFF7EDFF002850
:1002600001D1024802BD024802BD0000B0710B007E
:1002700010270000010000E0491C0A78002AFBD189
:04028000081A7047A1
:0402FC00FFFFFFFF02
:1003000070B584B001F095FE0600444C607B022875
:1003100003D04348C06A804701E000F01AFF207C08
:1003200000282CD02500B835616E280001F073FE3E
:10033000280001F084FD607B022808D02500CC3520
:10034000A16E280001F067FE280001F078FD607BB7
:10035000022802D0E07C002823D0122069460870D1
:10036000207B01F00BFF2F4DA16E091828001830DB
:1003700001F051FE1835280001F061FD11E0002068
:1003800029494870042060702020205C002802D198
:100390000120202160542020205C202101432020C6
:1003A000215422482021615C090705D521784A1E85
:1003B0009241D20F827501E000218175A07EE07626
:1003C00001A90870607C48700296207B01F0E1FE74
:1003D0002665E07C002805D1002013494870207E66
:1003E000401C20767FBD10B50C4CE06D40210143D0
:1003F000E165E07C002801D000F014FD2020205CA5
:10040000222101432020215490340121200001F0B9
:1004100002FE200001F013FD10BD00004C02001090
:10042000EC6D00000C15001058150010BC0F0010EA
:10043000FBB592B00020059007460646854D280082
:1004400070300A902800803001900E903046694646
:100450000873887380490871804CE28114A8007881
:100460002074E87F6074304660806071A060A08175
:10047000A074606120707A48C06A80472800CC3040
:1004800001F073FD1298007869460870684600789C
:100490004009C8736846C07B012806D0032800D1F4
:1004A000B3E0052800D1B0E056E2687C002800D017
:1004B000CAE06C4E33005B1C6A6B13A80088411EB7
:1004C00089B21298401C01F0C3FF68460078307072
:1004D00005AB6A6B13A80088011F89B2300001F0D8
:1004E00090FFAA8C05988018059013A800883018F2
:1004F000001F037841780902194383781B040B43DA
:10050000C078000618430599884200D028E2019877
:1005100000902B0070333100491C686B01F0BAFF6A
:100520003079717909020143B07900040843A86366
:10053000F079317A09020143707A00040843B17AF4
:1005400009060143E963484F102201993800403001
:10055000FFF7CAFD10222900703138003030FFF754
:10056000C3FDE86BF862A86BB8623879FE210140E0
:1005700002200843387169465020085602F006F9F7
:10058000FFF7E5FDF27A3948110009094907490FDB
:1005900041740F210B0013400376327B1140016040
:1005A00001D101210160FA21890002684A430260F9
:1005B000511841600D360F9613A8008811380FA905
:1005C0000871287B01F000FE00206870012068742B
:1005D000287F00906B7F20480279697BE87C00F0DF
:1005E0000BFC2034207800280DD12020285C20210D
:1005F00001432020295490350121280001F00BFDF2
:10060000280001F01CFC15B0F0BD687C002800D16A
:10061000A6E11648407F06A9887020794870092015
:1006200069460876E87B002801D00A20087606A9EA
:10063000287B01F0A3FD13A909880D3909B200290F
:1006400000D53146884213D201206070FFF7CBFEFF
:10065000D9E700BF4C020010581500100C1500100F
:10066000EC6D0000D4110010F00A001058140010B6
:10067000129841788078000208431299C9780904D9
:10068000014312980079000608430790E96B8842FD
:100690001AD02E6C00E0B66A002E0CD03168884269
:1006A000F9D10120694608733000001D0A9030001E
:1006B00014300E90776A6846007B002805D10B2025
:1006C0006070FFF790FE9EE7AF6C129840790BA91F
:1006D00008700F210BA80078014068464173084656
:1006E0000830C0B20490129813A909884018001F5E
:1006F0000278417809021143827812040A43C078D3
:10070000000610430D90129880791299C979090258
:1007100001433800081A80B2099013A80088001F0E
:1007200069460884099880210902884214DA3F1832
:1007300005A80290019701200090079B0A9A68463D
:10074000018C129801F0AEFD0D98059988421DD1DB
:1007500001206946887319E000B238184900401832
:100760000C9005A802900C98019001200090079B26
:100770000A9A6846018C129801F094FD0D9805992B
:10078000884203D10120694688730C9F1120694675
:10079000087606A9287B01F0F1FC0999814205D36E
:1007A0000A2060706761FFF71EFE2CE76846807BB9
:1007B000002800D1CBE069465020085601F0E6FF42
:1007C000002060706846007BA0700BA800780100D4
:1007D000C906C90F61710020A06020736761A84934
:1007E0004870E864E8756846007B012808D102205B
:1007F0002070706AB84201D1002831D1776212E0CE
:100800006846C07B052823D1012028752070A86C7C
:10081000B84207D1002805D02020285C04210143DC
:1008200020202954AF649648007801281ED10BA8D7
:1008300000784009C1071BD50021A9750100C9072F
:10084000C90F8F4A11710100C907C90FA1740FE0C8
:10085000002028752070A86CB842E3D10028E1D0B0
:10086000082060706761FFF7BEFDCCE60020A87528
:1008700013A80088001F0499401A012854DB12981D
:10088000405C491CC9B2049113A90988091F049A44
:10089000891A6A461173E07000286846407B23D1AC
:1008A000002816D1774E0296019701200090079BF1
:1008B0000A9A6846017B1298049FC01901F096FDC0
:1008C00014A803786846027B0021300000F031FB59
:1008D00036E02020285C04210143202029540020F8
:1008E00067490871A0742BE0002808D014A8037889
:1008F0000498421ED2B20821129800F01AFB614EF1
:100900000296019701200090079B0E9A6846017B92
:100910001298049FC01901F069FDA6606846007B2B
:100920002073012060730BE06846407B002807D0ED
:1009300014A803780A46D2B20821129800F0F9FAF6
:100940002020285C022101432020295440E60C206D
:100950006070FFF748FD56E6687C002800D0AEE6E0
:100960000720687034E610B5474C607B022803D03E
:100970004648C06A804701E000F0EBFB022001001E
:100980003F4A517060702020205C202101432034B8
:10099000217010BD10B53C4C607B022802D03B4852
:1009A000C06A8047E07CE17F002919D10521002839
:1009B00001D0334841706170607B02281FD0206DE8
:1009C00001F03AFBA16E884219D32000CC3001F02F
:1009D000CCFA2020205C20210143202021540EE06D
:1009E0000621002801D0264841706170607B0228F2
:1009F00005D02020205C2021014320202154607B51
:100A0000022801D100F0A5FB10BD10B51E4C607B83
:100A1000022802D01D48C06A8047E07CE17F00299F
:100A200019D10321002801D0154841706170607B05
:100A300002281FD0206D01F0FFFAA16E884219D361
:100A40002000CC3001F091FA2020205C20210143CD
:100A5000202021540EE00421002801D008484170D4
:100A60006170607B022805D02020205C202101439A
:100A700020202154607B022801D100F06AFB10BDC8
:100A800058150010D41100104C020010EC6D00003D
:100A9000F0B585B00024200069460872BE4D2800DC
:100AA0009030009001F061FA2020285C01270100BD
:100AB00049093A00114200D1CFE0E96D4A0602D55A
:100AC00041229143E96509210140B44E13D0727867
:100AD000022A02D06A78022A0DD1EA6D3B469A4377
:100AE000EA652200AA756A7F727122003271B460D1
:100AF0003A006B461A72EA7C6B461B7A134335D177
:100B0000002933D00100C9083A00114209D02978E0
:100B1000002906D1687800281DD16C642000287651
:100B200019E002005208390011402A7EB14BDB7FE8
:100B30009A4201D2002913D0002904D12000A875BF
:100B4000E86C401CE86420002876307D002802D143
:100B5000686C401C6864E86D39468843E86505E0C8
:100B6000DF2101402020295400F0E1F82020285CFA
:100B700040083900084215D03079002803D1287F79
:100B8000697F88420ED22000A877E874307D002863
:100B900002D1686C401C6864687F7071E86D3946EA
:100BA0008843E865A87F002857D05C20285CC006F1
:100BB00053D42000A877687F297F884239D209283A
:100BC00037DA401C6877C00710D503A81E210170D2
:100BD000BF492C228A5C8270491C019109784170BE
:100BE00003A9287B01F0CAFA01990870384600F081
:100BF000C1F9002806D12020285CDF2101402020F7
:100C000029542AE0092070702000A875E86D394643
:100C10008843E8652000E8743471687F7071AC48DF
:100C20004078B070307D002817D1686C401C686433
:100C300013E03946287B01F0B4FAE86D3946884361
:100C4000E8652000A875E8743471687F7071307DA4
:100C5000002802D1686C401C6864E86D810702D5E9
:100C600002218843E865E86D002828D12020285C0F
:100C70003900084207D0FE2101402020295447486E
:100C8000296E096888472020285C0100C9083A00BD
:100C9000114207D0F7210140202029542800296E55
:100CA0008968884700F000F9002801D000F004F9B5
:100CB0002020285CDF2101402020295407E0FA2170
:100CC0008900009801F0A7F9009801F0B8F82020F9
:100CD000285C010049083A00114218D0FD2101406A
:100CE00020202954687B022801D100F032FA20200C
:100CF000285C80083900084203D19A48296E496867
:100D000088472020285CFB210140202029542020F6
:100D1000285C01000909394207D0EF210140202059
:100D200029549148296EC968884705B0F0BD10B5AF
:100D3000194C2000A43001F018F9E06D102188430F
:100D4000E065012000F016F910BD70B5124C2000CE
:100D5000B83001F00AF90020E077844DA17E2970B7
:100D60005B490E000C36727DEA702D3109782974CA
:100D7000E17B69746882607B022802D1BF48006B06
:100D80008047BF4A2900207B01F047FA3168A87CE0
:100D900000F060F870BD00004C0200105815001003
:100DA000F8B5734C2000CC3001F0DFF8B54DA07ED3
:100DB0002870474807000C37B96969602D30007802
:100DC0002874E07B68740126EE74607B022802D0F0
:100DD0000020A87400E0AE74A94A2900207B01F02D
:100DE0001CFA002804D03968A87C00F033F8E677B4
:100DF000F1BD00004914001080B5002805D102297A
:100E00000FD1AF4801F0B1F801BD002A03D0AC48C2
:100E100001F0ABF801BD0298984202D2A84801F057
:100E2000A4F801BD80B5A64801F09FF85048C17CE8
:100E3000002905D001218177C16D04229143C1654C
:100E4000417B022905D12021415C20220A43203028
:100E5000027001BD80B5894A526B002802D108009A
:100E6000904701BD0020904701BD38B50400150032
:100E70006846BB4A12788270417009210170B94AF4
:100E8000D17B002901D00A2101706946107B01F055
:100E900075F9611980B289B2884203D3FF2901DC58
:100EA000012032BD002032BD3148C07D002801D074
:100EB00001207047002070470420AB4908762C4879
:100EC0002021415C10220A4320300270704700004C
:100ED0004814001070B4030000242000002B26D01A
:100EE000002A02D123E0641C641CE4B28C421DD2AF
:100EF0001D5D2E00032EF6D0052E07D0062E13D032
:100F0000072EF0D0082E0BD00A2EEDD1C0B215540A
:100F1000641C401CE4B21D5DC0B21554401CE3E7E4
:100F2000C0B21554401CDFE7A41CDDE7C0B270BCA2
:100F3000704770477CB50E4CA57CED016E4635714F
:100F4000009313000A0001A900F014F9002807D14A
:100F5000854800218180616CC160002000F00AF8A2
:100F600076BD00000C15001070150010BC0F0010AD
:100F70004C020010F0B587B0070000200190794CBA
:100F8000617EFF2901D1092076E0002900D160654A
:100F9000E07E00F079F8606D0390744D03A86978E5
:100FA0000172734E717D8172617C4172206D04907B
:100FB00020005430009001AB22001A3203A9207B9C
:100FC00001F053F9002814D00B2855D1002F53D02D
:100FD000019800280BD0E06D10210143E165A43495
:100FE0000199200001F017F8200000F028FF0020F0
:100FF00042E02800283002902F003F1D7B7F5BB22B
:1010000001202A5602984179207B01F03BF901002A
:1010100000963B683A7949B2207B01F0F3F8194811
:1010200000903B683A790298017849B2207B01F040
:10103000E9F8607C002809D17869F1684018606699
:10104000B8691049C9684018A06612E0A27D012065
:101050002956307DFFF709FF002801D108200BE059
:10106000F868F1684018606638690649C968401830
:10107000A066A07E00F0D5F907B0F0BDEC6D0000D1
:10108000101500107415001070B584B0354C6D4605
:10109000617C2970364E717DA970E870A06D00F0FA
:1010A000CBFF0190E06E0290B07D68706946207BB6
:1010B00001F0D3F8E06E218D4143081A60657FBDD1
:1010C0002415001038B50024264D200068746C6487
:1010D000AC64EC642876012001002977697721004F
:1010E000A9776976010029852100E98228741F4BC0
:1010F0003820185C18703920185C58705920185C1A
:1011000021215854D86D196E1A00243203C264206C
:10111000185C2C2158546520185C2D215854986E69
:101120001863D86E58630221287B01F03AF820003A
:10113000E874A882286C01E04462806A0028FBD130
:101140002000688331BDE12801DB002070470120C9
:10115000704780B5FFF724FE0220D249C87701BD51
:10116000741400104C0200105815001048140010A0
:10117000BC0F0010F2B588B00021039104936946BA
:101180000A71C84C0021E184E1740E99002B00D152
:101190000021C54E317508270178E3220A40390045
:1011A00011430170C14D29700078400907D0022811
:1011B00049D0042845D0072800D120E12FE10120A3
:1011C000E0843A46216B2800401C01F053FDE08C7E
:1011D0000830E0843A46E16A80B2281801F04AFDFE
:1011E000E08C0830E08401F017FDA084E08CA18C35
:1011F0000A002A54401CE084090A80B22954401C89
:10120000E08403AB626BC1B2280001F0FAF8E08C15
:1012100003992954401CE0840399090A80B2295497
:10122000401CE0840399090C80B22954401CE084DE
:101230000399090E80B22954401CE084002009B0B3
:10124000F0BD0120E074607C002801D10720F6E7A2
:1012500005A80121017008990978C9094A1E92411F
:10126000D243D20F4270E16C0691914A51780172DB
:10127000117841722C21515C817220004C30009019
:101280001300521C05A9207B00F0AFFF08990978D4
:10129000BF220A408001104308990870217D00296F
:1012A00005D0002121752021014308980170E06BD1
:1012B00001006970090AA9700100090CE970000EAB
:1012C0002871089800786871606C0100A971000AA3
:1012D000E871300098300090E27D0146A07D301822
:1012E000183001F0BCFCA07DE17D4118A175049887
:1012F00000281FD0307D00281CD0607D002826D01B
:10130000C9B210291CDA08980278F020104052184F
:101310001207120F0243089802706A7100200A0037
:1013200080B2904213D23218127EFFB2EA557F1C6F
:10133000401CF4E7C9B2002909D0607D002806D01E
:10134000317530001830049000206A46107100207A
:101350006075009AC9B230001830FFF7BBFDE07528
:10136000002801D0012060750498002826D0307D27
:10137000002823D068460079FFB2E8557F1CFFB2F1
:10138000E819E36B616C6A461279002A0CD10022DD
:10139000A275029001911046009022007032317DBA
:1013A000049800F0C4FF09E0029001910020009031
:1013B00022008032317D049800F0B9FFFFB2307D09
:1013C0003918E18403A80290606C0190002000901D
:1013D000E36B2200703289B2280000F063FFE08CDA
:1013E0002918039A0A70039A120A4A70039A120C77
:1013F0008A70039A120ECA70001DE0841EE7002B4B
:1014000000D11BE7327D002A00D117E719006D1CBF
:10141000280001F024FC307D401CE0840EE702200F
:101420000DE7F0B585B0070000206946087001A8F7
:1014300007701F4E7178417031788170316B029165
:10144000716B0391174CE18C818123006C336A46E8
:1014500001A9207B00F0ECFE012528006070934874
:10146000290041707178817069460978C1700761FF
:10147000E16E8160616026009036FA2189003000BB
:1014800000F0C9FD300000F0DAFCE18CC9B2074879
:10149000B94A926A9047E06D0543E565002005B0C2
:1014A000F0BD00004C020010BC0F0010D410001062
:1014B00048140010F2B582B005001600002D0BD0C4
:1014C0002868002808D06868002805D0A868002887
:1014D00002D0E868002801D10320FEBD300000F0F2
:1014E00047FE002801D10A20FEBDA44C2566A44F6A
:1014F0000298B8642673002001002022A154617371
:10150000E065E173206560650B2069460870207B0B
:1015100000F034FE401E8041C043C00F9949487519
:10152000082069460870207B00F028FE604D2E00E0
:1015300038363070052069460870207B00F01EFEAA
:1015400070700C2069460870207B00F017FEF06078
:101550000D2069460870207B00F010FE30610E20DF
:1015600069460870207B00F009FE70610F20694613
:101570000870207B00F002FEB06110206946087000
:10158000207B00F0FBFDF061132069460870207B92
:1015900000F0F4FD2900583101914870142069468B
:1015A0000870207B00F0EAFD01994860152069462B
:1015B0000870207B00F0E2FD019908721A2069464C
:1015C0000870207B00F0DAFD019908731B20694642
:1015D0000870207B00F0D2FD019948731C206946F9
:1015E0000870207B00F0CAFD019908611D20694642
:1015F0000870207B00F0C2FD019948610021207B2A
:1016000000F0CFFD0120019908700A2070600621CA
:1016100031722D1D286008462871F068A860306975
:10162000E86070692861B0696861F069A861019833
:1016300000782877FFF746FD25009035AA49280055
:1016400000F0F5FBFA218900280000F0E4FCA7492E
:101650002000A43000F0EBFBA5492000B83000F0DA
:10166000E6FBA4492000CC3000F0E1FBA2493800A1
:10167000183000F0DCFB00F0DCFCA0659F48F8624D
:101680009F4878639F48F8639F4838639F48B863D2
:10169000394D2C373800296888470120A073A96D7F
:1016A0008847E86A80470020FEBD000058150010FA
:1016B00048140010F1B586B00F00954D3920285C14
:1016C000694648713820285C8871924C6846A17D33
:1016D000E27D89180171002F01D1032049E0002625
:1016E00003A831000170A17C4170E16C049169781C
:1016F0000172297841722C21695C817220004C3082
:10170000009001AB9B1C01AA521C03A9207B00F096
:101710006CFD02A82C3529788170694649794170A1
:1017200009210170E17B002901D00A21017002A981
:10173000207B00F023FD787078786946097988422B
:1017400004D369460979401A387004E038703000D3
:1017500069460871E08268460279694605200956A3
:101760006846007EFFF781FB002801D1082000E0D9
:10177000304607B0F0BD0000EC6D00004C020010D8
:101780000C150010BC0F001038B505000024002D0A
:1017900001D1032032BD28781E2800D9A0E002A183
:1017A000095C49008F4400BF1014181C2024272A0C
:1017B0002E323B404F46585C6064686C70747C7895
:1017C0008084888C909498005248407B287188E0EF
:1017D0005048407C287184E04E48807C287180E02D
:1017E0004C48806B68607CE04A48C06B686078E079
:1017F0004948686075E04948686072E04548807B08
:1018000028716EE04348C07B28716AE01920694660
:1018100008704048007B00F0B1FC686061E040481F
:1018200003C82D1D03C55CE0394AD06D116E2D1D16
:1018300003C556E01720694608703648007B00F063
:101840009DFC68604DE01620694608703148007BB9
:1018500000F094FC686044E032480078287140E071
:101860002B48C06868603CE029480069686038E03F
:1018700027484069686034E025488069686030E046
:101880002348C06968602CE027480078287128E068
:101890001F484078287124E024480078287120E00F
:1018A0001B48007828711CE01A48406C686018E0FA
:1018B0001848806C686014E01648006C686010E09E
:1018C0001348406868600CE01148007A287108E00D
:1018D0000F48406B686004E00D48C06E686000E02F
:1018E0000224200032BD0000910A00002F0D0000EC
:1018F0004B0D0000A10D0000250E000001030000AB
:101900003104000095090000670900000B0A00007F
:10191000481400104C020010BC020010CC02001051
:101920006C14001068140010811400108014001052
:10193000F0B585B0040000200700002C01D1032081
:1019400050E10121A84DEA6D0A4001D0084649E165
:1019500022781E2A00D943E101A352009B5A9F44DA
:101960003C0076007C00820088008E00A400BA0053
:10197000C6007E02CC0026016A0150018201960158
:101980009E01A601AE01B601BE01E0012A020802D5
:101990004C0252027E02580262026E0276022179E5
:1019A0006973002902D0022904D01AE18F48C06A65
:1019B000804716E1E8748D48C06A80478C4E8D4898
:1019C00000907368327A2836317849B2287B00F06B
:1019D00019FCFFF7BEFB04E12079687401E120796E
:1019E000A874FEE06068A863FBE06068E863F8E064
:1019F0006168002905D010227035280001F02FF908
:101A0000EFE00327EDE06168002905D01022803562
:101A1000280001F024F9E4E00327E2E02079A8732C
:101A20007249896D8847DCE02079E873D9E0207A33
:101A3000694608716E4E2D20305C01A9487006225F
:101A4000287B00F0B6FB00281CD0241D03CC3200FC
:101A5000243203C2687B022800D0C2E0687C0028E0
:101A600000D1BEE06148C06A804762480090736858
:101A7000327A2836317849B2287B00F0C3FBFFF771
:101A800068FBAEE00327ACE0207A69460871584E47
:101A90002D20305C01A948700622287B00F089FBCC
:101AA000002804D0241D03CC5C3603C699E003272C
:101AB00097E06068029002A8017102A9287B00F0FB
:101AC0008BFB002800D08CE003278AE0616802913C
:101AD00002A90871287B00F07FFB002800D080E07D
:101AE00003277EE02079002804D0102802DA6C4910
:101AF000087076E0032774E060683D49C86070E0D4
:101B000060683B4908616CE060683949486168E099
:101B100060683749886164E060683549C86160E0A1
:101B2000207969460871052201A9287B00F041FB54
:101B3000002804D0684600795A49087051E003270C
:101B40004FE0207969460871294E2C20305C01A9AC
:101B500088700422287B00F02CFB002803D0684604
:101B6000007970703DE003273BE0207969460871F9
:101B7000082201A9287B00F01CFB002804D068463D
:101B80000079494908702CE003272AE0207969464A
:101B90000871072201A9287B00F00BFB002804D064
:101BA00068460079124908701BE0032719E0606855
:101BB000686416E06068A86413E060680C4EF06327
:101BC00070600EE020790A4E40217054307208E0B7
:101BD00060680749486304E060680549C86600E03A
:101BE0000227380005B0F0BD4C020010EC6D00007B
:101BF000481400107415001070B582B0040002265D
:101C0000002C1CD07C4DE86D00280DD10C22002149
:101C1000280001F03CF8012068702078002831D1BC
:101C20005C20285CC00601D5012076BD60680028D4
:101C300005D0A068002802D0E068002801D1032068
:101C400076BDFFF73FFA2020285C082101432020C1
:101C50002954207828706068E862A0682863E068EA
:101C60006863217C49B2287B00F0EEFA6349487032
:101C70000020694608700346024601466846FFF7A1
:101C800059F90600002E07D00020E8742020285CB7
:101C9000F721014020352970300076BD000000009A
:101CA000681400108114001080140010F0B585B085
:101CB0000700022069464870002008700546044667
:101CC000002F00D190E04C4EF06D002801D0012093
:101CD00090E02046087114220146494800F0D7FFE1
:101CE00001204749487070773878002804D00128CF
:101CF00017D003282AD039E00124204630776846DF
:101D00000079C006C00E4021014368460171387950
:101D100069460870B8680290B88948800E203D5620
:101D200024E00124F87B307768460079C006C00EB5
:101D30008021014368460171387969460870B868A6
:101D40000290B88948800E203D560FE001242046BD
:101D5000307768460079E021014368460171786870
:101D600002903889694648800A203D5668460078C6
:101D7000FFF7E9F9002837D004A8012101702149B3
:101D80000978817004A9307B00F0F8F9A84200D3EB
:101D90000500002C2CD0B07C00280ED103AC25709F
:101DA00018480078A070042203A9307B00F001FAE3
:101DB000002819D020781149487068464388029A53
:101DC000017801A8FFF7B6F8694648706846407880
:101DD00000280BD138780A4908702020305C012196
:101DE00001432036317003E0032003E00020F0744B
:101DF0006846407805B0F0BD4C0200104814001051
:101E0000581500107414001042691207120F0A438B
:101E100042617047C1680069814201D10120704769
:101E200000207047AA2181605521816070470022FF
:101E30000260426013000372C1600261704738B5EE
:101E4000040000F075FF002C27D0200000F0D7F828
:101E5000002822D160682060002020728048056838
:101E6000002D04D12168200000F047F815E0287A01
:101E7000002807D000F0D7F82968814200D2080076
:101E8000091A00E029682068884203D2200000F087
:101E900034F802E0200000F003F800F04FFF31BDFD
:101EA00030B46F4A12681369002B06D10368591ABF
:101EB00001601061002101611DE01C680C1902E045
:101EC00021001D686419002A15D00568A54209D2B1
:101ED000691A0160002B02D01C68611A1960106138
:101EE000036108E01A001B69002BE9D1291B01607E
:101EF00010610021016130BC704710B5584A136869
:101F0000002B04D00468091B1960002119720361B9
:101F100001210172106000F09AF810BD38B5504CE4
:101F20002568002D20D000F07EF829680022884224
:101F300001D32A6001E0081A28602A7205E00169CD
:101F40002160C068010000D080472068002802D0CE
:101F500001680029F3D0002806D0017A002903D1B6
:101F60000121017200F073F831BD70B5060000F078
:101F7000DFFE3B4C25682A0028003DD0002E3BD0D8
:101F8000B54226D1287A002817D000F04CF83168E5
:101F9000814200D20800091A002210002872286924
:101FA000002808D0206002685118016001210172E8
:101FB00000F04DF820E022601EE02869002805D0DE
:101FC0002060016832688918016015E000202060F7
:101FD00012E0316801E00200180000280CD003690B
:101FE000B042F8D1002B05D01800106102685118DA
:101FF000016001E00020106100F0A0FE70BD1849F2
:10200000096800E00969002903D08142FAD1012062
:1020100070470020704738B505000C00FFF7A5FF9A
:102020002C606C6031BD80B54248006800F004F857
:1020300002BD41480068704710B50400FFF7F9FF82
:10204000A04202D2401E001B10BD001B10BD80B577
:1020500000683A490860FFF7ECFF3649086001BDA7
:10206000A8150010F8B58025ED052800FFF7DAFE69
:10207000334C06E02800FFF7D5FE6846007800F0F4
:10208000D3FE01236A4621002E4801F00AF80128F8
:10209000F0DA2D4D6620285C022849D02B48FFF746
:1020A000B9FE002804D02000FFF7B4FE002802D1BA
:1020B000FFF7BFFF07002648007A2649097A01404A
:1020C0002548007A014204D024484068804701280E
:1020D0002ED023480068002802D0FFF7AAFF060090
:1020E0003800FFF7A9FF332822D33000FFF7A4FF01
:1020F0000B281DD32D1D1B480068002807D1022086
:1021000029780200114202D017490870F1BD174C1E
:102110000C212000FFF778FE022000F0E3FF0121F0
:102120002000FFF771FE0322E96C012001F056F850
:10213000F1BD00004C0400104404001048040010DD
:10214000A80D001000400640F00A0010940D001089
:102150000403001018030010F0020010EC6D0000E2
:10216000A802001090020010C603001000000240F8
:10217000022801D1012070470020704780B5C0B20D
:10218000022803D1080000F03DFA02BD44A0006817
:1021900002BD022800D0704780B5080000F088FA20
:1021A00001BD022800D0704780B5080000F090FA09
:1021B00001BD80B50B001100022803D1180000F00A
:1021C000B7FA02BD002002BD022800D0704780B5DA
:1021D000080000F0DAFA01BD80B5022803D108003A
:1021E00000F0F6FA02BD002002BD10B504000800A0
:1021F00011001A00022C03D1029B00F051FB10BD0C
:10220000002010BD10B50400080011001A00022CB7
:1022100002D1029B00F07EFB10BD80B50B001100C7
:10222000022803D1180000F0B7FB02BD002002BD58
:1022300010B50400080011001A00022C02D100F0B1
:1022400001FC10BD002010BD80B5022803D108009C
:1022500000F058FC02BD002002BD022800D07047EB
:1022600080B5080000F04FFC01BD10B50400080067
:1022700011001A00022C03D1029B00F061FC10BD7A
:102280000A2010BD10B50400080011001A00022C2D
:1022900002D100F0B9FC10BD0800C0B210BD0000B2
:1022A00000000000F8B506000D0017009D4C0698D0
:1022B00060711800A071000AE0711800000C207213
:1022C0001800000E607207980100A172090AE172FD
:1022D0000100090C2173000E60732800E0732000D8
:1022E000203001F061FC39002000203001F06DFC4D
:1022F000102221002000203001F06FFCEAB23100F2
:102300002000203001F069FC210020312000103035
:1023100001F0C8FCE07C0006A17C09040143607C5C
:1023200000020843217C014308980160F1BDFDB51E
:102330000F00002601257C4CF02231462000203081
:1023400000F0A5FC220020321021019802F008F8CC
:10235000089860710298A0710298000AE0710298D2
:10236000000C20720298000E607209980100A172A0
:10237000090AE1720100090C2173000E60730DE07F
:102380007018009A135C6218127C5A400A9B1A5407
:10239000491C1029F4DB103F1036F6B2BFB2102FE3
:1023A0000BDB2800E0736D1C22002032210010316D
:1023B000200002F056F80021EBE7002F15D0E5735E
:1023C0002200203221001031200002F04AF80021C2
:1023D00009E07018009A125C63181B7C53400A9A3B
:1023E0001354491C89B2B942F3DBF7BD10B584B070
:1023F000089C0294079C0194069C0094FFF797FFA9
:102400001FBDF8B506000D001700464C2000203017
:1024100001F0CAFB39002000203001F0D6FBEAB2FF
:1024200031002000203001F0D8FB210020312000B5
:10243000103001F037FCE07C0006A17C0904014368
:10244000607C00020843217C014300980160F1BDDB
:10245000F4B505000E001F00334CF02200212000CF
:10246000203000F014FC220020321021009801F0EE
:1024700077FF220020323900280001F0F2FF102EF1
:1024800007DB20342200103739001035280001F016
:10249000E8FFF1BDF4B584B004000E001F00224D2A
:1024A000F02200212800203000F0F1FB2A00203229
:1024B0001021200001F054FF10220021684600F096
:1024C000E6FB6C4601202070062231002000401CF3
:1024D00000F0C5FB022204A92000C01D00F0BFFBD4
:1024E0002A0020323900684601F0BBFF102200218B
:1024F000684600F0CCFB022020700622310020004C
:10250000401C00F0ACFB022204A9E41D200000F0F6
:10251000A6FB20352A000A99684601F0A2FF05B003
:10252000F0BD00000000001038010010020008009B
:10253000824201D1C0B201E0501EC0B240B2704729
:10254000A14980000858A149884204D04900884226
:1025500003D000207047012070470220704702001E
:10256000914200DB08007047FFB583B00026354676
:1025700028460090019007E000981030C0B200900B
:102580000198401CC0B201900098602833DA002402
:1025900007E00098210040180C99F6B28855761C87
:1025A000641C102CE8DA049801994900405A012172
:1025B000A1400842F4D00598009909194A00511821
:1025C0008900471838680028EAD0082039560A00E0
:1025D0001211090709176846007B40B202F00AF899
:1025E0000028DDD00698797A09014018C0680028D3
:1025F000CFD06D1CD4E70D9805703000C0B207B085
:10260000F0BD000080B500BF28A1096802781E2A2D
:102610004AD801A39B5C9F4484848E8E8E848E8EC8
:10262000842C368440444A5054585E8470847478B4
:102630007C808484888C1E00002101228056FFF754
:1026400075FF010030E08B4901228056095C2BE0C8
:10265000894901228056095C26E0884924E0FA2154
:10266000890021E0FA21C9001EE085491CE0854966
:102670001AE08021C90117E0FA218900824800F0A0
:10268000E3FAFA21C90041180EE080490CE08049C4
:102690000AE0804908E0602106E07F4904E000216B
:1026A00002E07E4900E0B149080002BD00000000E0
:1026B00038B54268AE49784B047865002C19A400FF
:1026C0001B195B7A1B01C918407801F0C3FF31BDAB
:1026D00010B5002803D0022824D023D310BD002039
:1026E0000100A44C0CE04A00521892009A18A24B28
:1026F0004B431B1913605023137203005372491C80
:10270000654B6029EFDB9D486249088048808880DE
:10271000C8800881488106229020C000181801F066
:1027200088FF10BD06225B49594801F082FF10BDA9
:1027300080B5091F012905D9891E0ED0491E01291E
:1027400016D920E0052200210023C05601F052FFD7
:10275000401E8041C043C00F02BD0522002100235E
:10276000C05601F047FF401E8041C043C00F02BD6C
:10277000072200210023C05601F03CFF401E80418B
:10278000C043C00F02BD002002BD704780B50021CC
:1027900000E0491CA44A1278C9B2914205D2A34A6A
:1027A000A34B5B5CD2569042F3DA002900D0491E5D
:1027B0009F48C9B2405CCF494A6D904202D04865FB
:1027C000FDF7C5FC01BD00008029000090D003008A
:1027D000F0B583B06946002213460CC10179002987
:1027E00002D0012907D042E006220168284801F002
:1027F00020FF0120FEBD14468B4D210029700622CA
:102800000168244801F015FF260001271EE0300072
:10281000C010000F8019010009111E484A00805A9B
:102820000901711A3A008A4010420ED03000062188
:1028300002F041F8080002011043174A73009B1987
:102840009B00D218107268464754761C602EDEDB5F
:10285000E4B220000628CCDA6946085C002804D0DF
:10286000287873490C54401C2870641CF0E710460B
:10287000FEBD00003C2A0000342A0000B80B000016
:10288000881300007017000018FCFFFF20441E1E74
:10289000DC080010981500105C04001033339941D7
:1028A000F7B582B000242500082146560921475675
:1028B0004068186002984078002824D0002E01D18A
:1028C0001C6020E002984068402801D301252700C1
:1028D000602818D3C006C00E012814D168461E21F6
:1028E000017046700299897A8170FFF78BFE0600AD
:1028F00076B2002E07D1250002980078002802D079
:102900000120FFF7E5FE0398067004980770280081
:1029100005B0F0BDF4B584B00D001C00052800DB47
:102920000520607001202056FFF70AFEA0700120EC
:10293000205600BF12A18200895800BF6EA2105C11
:1029400001F0E8FE06000F006D48C06D80470100F1
:1029500020000C300290083401940091049B2A005E
:102960003000390001F0F4FE05B0F0BD9A9909403D
:10297000340400106035081C400D0300FFFF000008
:1029800048E8010048E8010048E8010048E8010083
:1029900048E8010048E80100F2B58AB004000120CF
:1029A00026566768564D68688047002801D0002089
:1029B00038E0E07C002807D12078302101F07BFF4F
:1029C0005D4841435D480F183800E9688847A07C9E
:1029D000099001200890002007900690059004902F
:1029E0000390A06880B2029008200190002000901F
:1029F000012300BF40A0825D52B2A1781846AF69A2
:102A0000B847607C002802D00AA0815D02E000BFC8
:102A10000AA0815D0D31C9B201206A6D90470A9804
:102A2000067001200BB0F0BDB0150010500400106E
:102A3000C803001033333373DEDE000033333373E7
:102A4000DEDE0000F6B58BB004000120225609A896
:102A5000401C00BF28A1895C0170654E9020C00019
:102A60003318644821784D00691889007118497A33
:102A7000090140180221415602202056FFF76FFD40
:102A80000700A268616801F0BFFE09A908701C4D2B
:102A900020784100081880003058E9688847564877
:102AA00008900020079006900590012004900020D7
:102AB00003900820029001200190694625200856C5
:102AC000009000231A46242009560120EE69B047E1
:102AD000A189C9B201206A6D9047A189C9B20120BC
:102AE0006A6A90470C9908600B98077001200DB036
:102AF000F0BD0000F00A00100C0B0A0908070000E6
:102B0000EC6D0000704700B585B0394900913C4933
:102B10000191694642780A7202784A7282788A7212
:102B2000C278CA724168039180680490684601F0D7
:102B300080FE05B000BD0000400D0300E0F8D11D8F
:102B4000F6B59DB006001F0000252C002800694640
:102B5000087204A86021FDF763FB2A48039006224F
:102B6000214601F04FFD002802D10120FFF7B0FD02
:102B70007068FFF761FA3168884214D33D601D4CDC
:102B800001232200B17A707A01F069FD070002A8E2
:102B9000019004A800902300184A0399307AFFF7A7
:102BA000E3FC040009E06846007A401C69460872AC
:102BB0007068FFF741FA31680F1A002C0CD0641EC0
:102BC0002100284600F040F804A9085C1D9908700F
:102BD0001E980560284609E06846007A00281E987D
:102BE00002D007600B2001E005600C201FB0F0BD93
:102BF0005C04001034040010B80B00005C040010EA
:102C000034040010DC080010881A010049B20029C1
:102C100000D50020C0B2704700B507490868074AD0
:102C20005043074A80180860064901F047FE080033
:102C300000BD014908607047580400106D4EC64140
:102C400039300000FFFFFF7F38B504000D00FFF7AB
:102C5000E3FF291B491C01F02EFE081932BD03E0D9
:102C60000B780370491C401C13005A1E9BB2002BAA
:102C7000F6D170478018401E03E00B780370491CA2
:102C8000401E13005A1E9BB2002BF6D1704701E084
:102C90000170401C13005A1E9BB2002BF8D17047E4
:102CA00010B48207920FD300FF249C40E2438901B5
:102CB000C9B2994003000BD54C481B071B0F083BBA
:102CC0009B089B00C01803681A401143016007E08D
:102CD00047489B089B00C01803681A4011430160D5
:102CE00010BC7047BFF34F8F424843490860BFF3A1
:102CF0004F8FFEE710B5401E80214904884201D362
:102D0000012010BD3D4C606003210020C043FFF74F
:102D1000C7FF0020A06007202060002010BD3849B8
:102D2000012282400868374B034013430B60704711
:102D300072B635480178491C0170704732480178F5
:102D4000491E0170C9B2002900D162B6704700B5B2
:102D500083B0FDF767FA01F0A5FF01231A460021B1
:102D6000084601F0E8FF00F029FC0020FFF7D7FF3C
:102D700026480068FA21890001F0A0FDFFF7BAFF9C
:102D800000200190009001231A46014602F0ADF8A0
:102D900007BD80B5FFF7CCFFFFF7A4FF01BD00B56D
:102DA00085B0684601F00AFE009801994140029AF8
:102DB0004A400398504005B000BD1FB50400684666
:102DC00001F0FCFD082269462000FDF779F91FBDDE
:102DD00010B50F4C2068401C2060A068FFF72CF94C
:102DE0006168884201D3FFF799F810BD1CED00E03F
:102DF00000E400E00400FA050CED00E010E000E063
:102E000080800440FFFFEF25AE150010A4150010D0
:102E10004404001010B400231C00047004730381E8
:102E20004160428110BC704780B53E490A78002A53
:102E300010D0A12A29D0A22A2FD0A52A0CD0A62AA8
:102E400010D0A82A13D0B12A3FD0B22A4ED0B32A2C
:102E50005CD005E0A5220A70FF2801D1A6200870E9
:102E6000012002BD5528FBD1A8200870F8E7020018
:102E7000612A01D0412A02D1A1200870F0E7422A3C
:102E8000EED1B1220A700873EAE70200742A01D079
:102E9000542AE5D1A2200870E2E70D2805D1A3202D
:102EA000087000F0BDFB002002BD0A894B899A42E0
:102EB00005D1A420087000F0B3FB002002BD4B68D0
:102EC00098540889401C0881CAE702004B89934244
:102ED00005D2B520087000F0A3FB002002BD4A8196
:102EE0000A7B50400873B2200870B9E74A680B8922
:102EF000D0540A89521C0A810B7B584008734889B8
:102F000092B28242ACD1B3200870A9E70A7B50404C
:102F100002D0B520087001E0B420087000F080FBFA
:102F2000002002BD881500102E490A680123834045
:102F30002D48184382430A6070472A490122824083
:102F400008682A4B034013430B60704710B5040018
:102F5000FFF7EAFF2000FFF7F0FF10BD2449012230
:102F600082400868234B034013430B607047C168DD
:102F70000069814201D10120704700207047C16182
:102F800070474069C005C00D7047C160704701615E
:102F9000704781681848084070471849884201D135
:102FA0000E2070471649884201D10F20704710202B
:102FB000704710B50400FFF7F0FFFFF7CFFF0F4891
:102FC000844203D10320FFF7C1FF10BD0C488442A7
:102FD00003D10420FFF7BAFF10BD0520FFF7B6FFAD
:102FE00010BD0000048004400020FEFFFFDF010050
:102FF00080800440FFFFEF257FFD01000040064078
:103000000080064038B504000D0002F067F8290181
:1030100001F054FC401E206231BD38B504000D00A3
:1030200007E02000FFF7ADFF69460870280002F0B6
:1030300003F92000FFF7ADFFC007F2D431BD38B56A
:1030400004000D0004E0684601782000FFF797FFB8
:103050002000FFF79EFF400705D56946280002F0D3
:103060004EF90028EFD131BDF1B50F0014001D005D
:103070000421FFF78CFF2A002100380002F0F5F848
:10308000060039000098FFF7DAFFAA1BA1193800E3
:1030900002F0EBF8341804210098FFF776FF2000C7
:1030A000F2BD80B5080011001A0002F041F902BD1E
:1030B00070B504000D001600FFF76BFF40070CD53C
:1030C00031002000FFF7BBFF3000FFF750FF002862
:1030D00003D004212000FFF75AFF29002000FFF74A
:1030E0009CFF70BD10B400210A0000E0521C824217
:1030F0000BD20B0003E0641C052CFCD35B1CFA24F0
:10310000A400A342F2D20C00F6E710BC704730B422
:10311000012100220368001D002B0BD00468001D54
:103120000C4202D04D466D1E64192260241D1B1FE7
:10313000F0D0FAE730BC70470121C006C00E8140D4
:1031400044480160704744490A680123834043486A
:10315000184382430A6070473F4901228240086851
:103160003F4B034013430B60704710B50400FFF75B
:10317000EAFF2000FFF7F0FF10BD66490A68D2B2EF
:1031800002430A6170476B490122824008686A4B1A
:10319000034013430B60704742691207120F0A4342
:1031A0004261704742690F23DB430B439A434261FC
:1031B000704701684907490F02220A4302607047BD
:1031C00001684907490F04220A4302607047C16041
:1031D000704780B55948FFF7ECFF01BD70B50C0092
:1031E0001600564D01002800FDF72BF82800FDF7CA
:1031F00033F8010061432800FFF7E9FF482002F09F
:10320000E1F8A720C04302F0E4F831009E4802F044
:1032100035F9002002F0D6F82800FFF7D1FF70BD85
:1032200010B580200002FFF7A8FF0920FFF7ABFFD1
:103230000920FFF79AFF944C0A212000FFF7B2FF04
:1032400008212000FFF7A8FF0F20FFF775FF10BD32
:103250007047000000E100E0048004400020FEFF11
:10326000FFDF010038B5974C2078002805D00228F0
:1032700027D014D3032836D048E0C94D2800FEF7E4
:1032800074FE0121002001F010FC64212800FEF7EB
:10329000C2FE2800FEF7D3FD0120207031BDC04DD5
:1032A0002800FEF762FE0021084601F0FEFBC8215F
:1032B0002800FEF7B0FE2800FEF7C1FD02202070B6
:1032C00031BDB74D2800FEF750FE0121002001F06E
:1032D000ECFB64212800FEF79EFE2800FEF7AFFD00
:1032E0000320207031BDAE4D2800FEF73EFE0021C8
:1032F000084601F0DAFBFA2189002800FEF78BFE70
:103300002800FEF79CFD0020207031BD00202070B9
:1033100031BD00000482044010B50021084601F0D0
:10332000C4FBB24C0A212000FEF775FE2000FEF718
:1033300086FD10BD80800440FFFFEF250080004027
:10334000F8B505002E00052802D0062803D009E0B4
:10335000FFF7E2FF06E09248FEF707FE002108466D
:1033600001F0A3FBA2480068E840C00700D489E050
:10337000A04CA8002518286CFCF77CFF07000A2E3B
:1033800001D00D2E62D19C480090067803229BA1AB
:103390002000FCF7A9FEFFB23A00296C2000C01CF7
:1033A000FCF78EFEFF1C2C25FFB2E5557F1C380074
:1033B000401C3100090601D5412105E031004906D4
:1033C00001D54E2100E03021FFB2E15503005B1C26
:1033D0003100C90701D531210AE03100890701D543
:1033E000322105E03100490701D5502100E03021AC
:1033F000C0B22154F00611D5DBB2E5545B1C1E00AF
:1034000001227F48009949784018FF21C4314118B2
:103410003000C0B2201802F065F8331800988078A8
:10342000002821D0DBB2E5545B1C1D000098827897
:103430007348009949784018E22149004118280052
:10344000C0B2201802F04EF82B180DE003226BA139
:103450002000FCF749FEFFB23A00296C2000C01C96
:10346000FCF72EFEFF1C3B000D20DBB2E0545B1C82
:103470000A20DBB2E0545B1CDBB2220061496248E7
:10348000FFF7F2FDF1BD00000000024030B4020081
:103490000B000024210000E0641C9C420ED2105D51
:1034A000000248400100082001E02900401EF3D03E
:1034B0004D000904F9D555496940F7E7080080B285
:1034C00030BC7047B1150010F0B589B006004C4D06
:1034D0008220800028180290FF27FF01682239000F
:1034E000FCF702FE4A48281800902121FFF7CEFF82
:1034F00004008C208000281801903021FFF7C6FFBF
:10350000396822040243914201D1002E41D0414C3E
:103510002000FFF752FC03A822A10CC90CC000BF79
:1035200022A11022FCF7E0FD082203A920000830A8
:10353000FCF7DAFD102205A920001030FCF7D4FDBD
:1035400000263000202160540127E7642122210059
:103550000098FCF7B5FD83208000281800900770C4
:103560003022243421000198FCF7BEFD0098466506
:10357000009886650020C0430099C8659B208000A4
:10358000281831000170032141708670FCF7DFFDBF
:1035900004E0682239000298FCF7A6FD09B0F0BDEE
:1035A000580B00104D4A2D4D6F64656D2B7E15161E
:1035B00028AED2A6ABF7158809CF4F3C10B5002036
:1035C000FFF782FF0E4C0022982149002000FCF7F3
:1035D00009FE9622520021000F48FFF71BFC0F49FD
:1035E0009C2080002018FEF722FC10BD580B001014
:1035F000500B00102C030010A90A001045565F0064
:10360000E8080010940D0010004006402110000052
:103610000D020000B814001088150010653200007B
:10362000F0B59FB00024C94D287801F0B1FF00909B
:10363000C7480789FFB22E00204669460871002F4F
:1036400001D1012468E20098762810D1022F0ED112
:1036500068783F280BD1BFA1280001F0A0FF2C18EB
:10366000BD49200001F09BFF2618012454E2009878
:103670007A2809D1012F07D1B848C06A80470124B0
:1036800020006946087147E2262811D1022F0FD188
:10369000687801F07DFF66280AD1B048C06A80478B
:1036A0000120FFF711FF012420006946087133E271
:1036B0000098732800D096E0022F00DA93E0687833
:1036C0003F282ED1022F2CD1A2A1280001F067FFA4
:1036D0002C188C2080002958200001F01DFF26188E
:1036E0002C2420003070761C8D208000295830005A
:1036F00001F012FF361820003070761C99208000EF
:103700002958300001F008FF30180470401C0400F4
:10371000982080002958200001F0FEFE2618012480
:10372000FAE13D2800D0F7E1552F00D0F4E108225E
:103730002900891C13A801F001FF002800D1EBE14A
:10374000A87A2C2800D0E7E113AF082229000B311A
:103750003800001D01F0F2FE002800D1DCE1E87C19
:103760002C2800D0D8E1202229001431380008305C
:1037700001F098FE102800D0CEE13420285C2C28DF
:1037800000D0C9E12022290035311837380001F076
:1037900089FE102800D0BFE19620800028581D9097
:1037A0009720800028581E90302213A98C2080007A
:1037B0002818FCF799FCD620400028589921890048
:1037C0006850D42040002858091F6850832080008A
:1037D00028180178FE220A40022111430170FCF7EB
:1037E000B6FC012498E16A2877D1022F75DB68784E
:1037F0003F2823D1022F21D156A1280001F0CFFE6E
:103800002C180822C948291805A801F0B0FE082282
:1038100005A9200001F066FE24182C202070641CED
:103820000822C348291805A801F0A1FE082205A90D
:10383000200001F057FE261801246DE13D2800D03C
:103840006AE1442F00D067E10AAF20462021785476
:1038500010222900891C0AA801F024FE082800D0A3
:103860005AE1A87C2C2800D056E1102229001331FF
:103870003800083001F016FE082800D04CE1232063
:10388000285C2C2800D047E1202229002431380070
:10389000103001F007FE102800D03DE108220AA9EF
:1038A0000AA801F064FE0822390008310837380000
:1038B00001F05DFE21220AA99C482818FCF700FCB3
:1038C00083208000281801240178FD220A4021006D
:1038D00011430170FCF73BFC1EE1672800D07CE03F
:1038E000022F7ADB68783F283AD1022F38D119A10C
:1038F000280001F054FE2C1801229B20800029187A
:10390000200001F0EFFD26182C2420003070761CDA
:1039100001229C482918300001F0E4FD36182000EF
:103920003070761C012298482918300001F0DAFD29
:1039300030180470401C04000122832080002918E4
:10394000200001F0CFFD26180124E5E0E808001072
:10395000881500104F4B2C00C86D0000EC6D000066
:103960003D2800D0D8E00A2F00D0D5E0022229005F
:10397000891C01A8C01C01F095FD012800D0CBE0F6
:1039800028792C2800D0C7E002222900491D01A86F
:10399000801C01F087FD012800D0BDE0E8792C28CB
:1039A00000D0B9E002222900083101A8401C01F032
:1039B00079FD012800D0AFE06846C0799B218900DD
:1039C000685468468079491C685468464079491CA7
:1039D0006854FCF7BCFB01249EE06A2803D1012F48
:1039E00001D1012498E074285BD1052F59DB687858
:1039F000302802D0312800D08EE0A8782C2800D0C2
:103A00008AE0A72040002818039002222900C91C40
:103A100001F048FD012800D07EE0039800780028DE
:103A20007AD0FF20503028180490687830380499F4
:103A30000870A820400028180290204602990870BB
:103A4000062F0EDB68792C280BD13800821F92B22A
:103A50002900891DFF205230281801F023FD02990A
:103A6000087083208000285C800755D5052F03D07F
:103A70000298007800284FD00398007800284BD097
:103A8000E02849DA049909784B1E9B41DB43DB0FA0
:103A900002990A78FF215231691801F07FFE040073
:103AA0003AE0612838D1022F36DB68783F2817D1F9
:103AB000022F15D107A80C21FCF7B2FB33A1280077
:103AC00001F06DFD2C1896208000295807A801F000
:103AD00023FD07A9200001F062FD261801241BE048
:103AE0003D2819D1B81E0100C90F091849104A0014
:103AF000821A11D101290FDBBA1ED2B22900891C0A
:103B0000684601F01BFD002806D000989621890028
:103B10006850FCF71CFB0124002C0BD0AE420ED1E8
:103B20001BA1300001F03BFD361808E00D0200003B
:103B3000150200001AA1300001F031FD36180D20E9
:103B40003070761C0A203070761C2800331A9620BC
:103B500040002B529BB22A000E490F48FFF784FA0F
:103B600068460079012804D10420FFF7BBFAFFF76B
:103B700010F99622520029000848FFF74BF91FB0B0
:103B8000F0BD00006D0200006E0200004F4B2C00E3
:103B90004F4B0000940D00100040064088150010A7
:103BA0004552524F5200000010B50400102200216F
:103BB000F130FFF76CF800208A2149006050F022B4
:103BC00001462000FFF763F810BD80B50B0002002E
:103BD0001021180000F0C4FB01BDF0B585B0050050
:103BE0000E0014008A2040002858002849D01021D7
:103BF0000F1AA74200D927003A0092B231002818C4
:103C0000FF239B1CC018FFF72AF88A204000285881
:103C1000C0198A2149006850102841D3BC423FD0C6
:103C2000002006E02918F1310A780B7C53400B7014
:103C3000401C1028F6DB2A002900F1312800F13061
:103C400000F00FFCF619E41B1BE06818F130027855
:103C5000735C53400370491C1029F6DB10222900C5
:103C6000F1316846FEF7FBFF2A006946684600F01E
:103C7000F8FB102269462800F130FEF7F0FF1036FD
:103C8000103C112C01D30021E6E7220092B2310052
:103C9000FF20801C2818FEF7E2FF8A2040002C50ED
:103CA00005B0F0BDF1B588B00C00102200216846C7
:103CB000FEF7EDFF22006946684600F0D2FB802146
:103CC00000206A4613780B4211D0030007E0D51894
:103CD0002E7876006F78FF0937432F705B1C0F2B0F
:103CE000F5DBD37B5B0087255D40D5730EE00300D9
:103CF00007E0D5182E7876006F78FF0937432F70CC
:103D00005B1C0F2BF5DBD37B5B00D3738A235B003B
:103D1000E358102B0CD10100102956DA6318FF2547
:103D2000AD1C5B191D78565C6E401E70491CF3E794
:103D300013780B4211D0030007E0D5182E787600D7
:103D40006F78FF0937432F705B1C0F2BF5DBD37B9C
:103D50005B0087255D40D5730EE0030007E0D518B2
:103D60002E7876006F78FF0937432F705B1C0F2B7E
:103D7000F5DBD37B5B00D3738A235B00E358E31846
:103D8000FF25AD1C595502E0030061184B558A21EF
:103D900049006158491C8A235B00E1501029F3D384
:103DA000010008E06318FF25AD1C5B191D78565C07
:103DB0006E401E70491C1029F4DB06E02118F13119
:103DC0000A780B7C53400B70401C1028F6DB102245
:103DD0002100F13104A8FEF742FF2200089904A84F
:103DE00000F03FFB102200216846FEF750FF09B0AB
:103DF000F0BDFEE70A7802704A7842708A788270D5
:103E0000CA78C2700A7902714A7942718A798271DC
:103E1000CA79C2710A7A02724A7A42728A7A8272C4
:103E2000CA7AC2720A7B02734A7B42738A7B8273AC
:103E3000C97BC173704703E00B780370491C401CB9
:103E400013005A1EDBB2002BF6D1704702780B78B4
:103E50005340037042784B785340437082788B789C
:103E600053408370C278CB785340C37002790B798A
:103E70005340037142794B795340437182798B7976
:103E800053408371C279CB795340C371027A0B7A64
:103E900053400372427A4B7A53404372827A8B7A50
:103EA00053408372C27ACB7A5340C372027B0B7B3E
:103EB00053400373427B4B7B53404373827B8B7B2A
:103EC00053408373C27BC97B5140C173704710B4A8
:103ED0000B7814785C4004704B7854785C404470E4
:103EE0008B7894785C408470CB78D4785C40C470D4
:103EF0000B7914795C4004714B7954795C404471BE
:103F00008B7994795C408471CB79D4795C40C471AD
:103F10000B7A147A5C4004724B7A547A5C40447297
:103F20008B7A947A5C408472CB7AD47A5C40C47287
:103F30000B7B147B5C4004734B7B547B5C40447371
:103F40008B7B947B5C408473C97BD27B4A40C27379
:103F500010BC704780B5FFF779FF01BD7F4902783B
:103F60008A5C027002798A5C0271027A8A5C02724F
:103F7000027B8A5C027342784379CB5C4370437A5C
:103F8000CB5C4371437BCB5C43728A5C4273827827
:103F9000837ACB5C83708A5C82728279837BCB5C10
:103FA00083718A5C8273C27BC37ACB5CC373C3792F
:103FB000CB5CC372C378CB5CC371895CC170704742
:103FC0007FB5040021006846FFF714FF634800BF77
:103FD00063A100BFA2A26B461D78565D5D794D5D61
:103FE00075409E7A865D6E40DD7B455D754025702F
:103FF0001D78465D5D79555D75409E7A8E5D6E409B
:10400000DD7B455D754065701D78465D5D79455D7C
:1040100075409E7A965D6E40DD7B4D5D7540A57066
:104020001D784E5D5D79455D75409E7A865D6E407A
:10403000DD7B555D7540E5701D79565D5D7A4D5DA2
:1040400075409E7B865D6E40DD78455D75402571CF
:104050001D79465D5D7A555D75409E7B8E5D6E4037
:10406000DD78455D754065711D79465D5D7A455D1C
:1040700075409E7B965D6E40DD784D5D7540A57107
:104080001D794E5D5D7A455D75409E7B865D6E4017
:10409000DD78555D7540E5711D7A565D5D7B4D5D42
:1040A00075409E78865D6E40DD79455D7540257270
:1040B0001D7A465D5D7B555D75409E788E5D6E40D8
:1040C000DD79455D754065721D7A465D5D7B455DB8
:1040D00075409E78965D6E40DD794D5D7540A572A8
:1040E0001D7A4E5D5D7B455D75409E78865D6E40B8
:1040F000DD79555D7540E5721D7B565D5D784D5DE2
:1041000075409E79865D6E40DD7A455D754025730C
:104110001D7B465D5D78555D75409E798E5D6E4078
:10412000DD7A455D754065731D7B465D5D78455D57
:1041300075409E79965D6E40DD7A4D5D7540A57344
:104140001D7B495D5D78455D4D409979405C6840D7
:10415000D97A515C4140E1737FBD0000B444000056
:10416000A584998D0DBDB1545003A97D1962E69ABD
:10417000459D408715EBC90BEC67FDEABFF7965BE1
:10418000C21CAE6A5A41024F5CF434089373533F29
:104190000C52655E28A10FB509369B3D2669CD9F5F
:1041A0001B9E742E2DB2EEFBF64D61CE7B3E7197B9
:1041B000F568002C601FC8EDBE46D94BDED4E84A36
:1041C0006B2AE516C5D75594CF100681F044BAE3A3
:1041D000F3FEC08AADBC4804DFC17563301A0E6DB2
:1041E0004C14352FE1A2CC3957F28247ACE72B951E
:1041F000A098D17F667EAB83CA29D33C79E21D7635
:104200003B564E1EDB0A6CE45D6EEFA6A8A4378B0E
:10421000324359B78C64D2E0B4FA0725AF8EE9185F
:10422000D5886F7224F1C751237C9C21DDDC868503
:104230009042C4AAD8050112A35FF9D0915827B9BA
:104240003813B333BB7089A7B622922049FF787A1E
:104250008FF88017DA31C6B8C3B07711CBFCD63AE5
:10426000C6F8EEF6FFD6DE916002CE56E7B54DEC0D
:104270008F1F89FAEFB28EFB41B35F452353E49B56
:1042800075E13D4C6C7EF5836851D1F9E2AB622A51
:104290000895469D30370A2F0E241BDFCD4E7FEA4E
:1042A000121D583436DCB45BA476B77D52DD5E1344
:1042B000A6B900C140E379B6D48D67729498B085F1
:1042C000BBC54FED869A66118AE904FEA078254B9E
:1042D000A25D80053F2170F16377AF4220E5FDBF0D
:1042E000811826C3BE35882E9355FC7AC8BA32E6AB
:1042F000C0199EA344543B0B8CC76B28A7BC16ADBA
:10430000DB647414920C48B89FBD43C43931D3F2B6
:10431000D58B6EDA01B19C49D8ACF3CFCAF4471003
:104320006FF04A5C38577397CBA1E83E96610D0F4A
:10433000E07C71CC9006F71CC26AAE6917993A27E7
:10434000D9EB2B22D2A907332D3C15C987AA50A53A
:104350000359091A65D784D082295A1E7BA86D2C6F
:10436000F6B585B069460C7D2100102903D01829C7
:1043700001D0202911D1224601000698FFF75BFDEC
:104380006846007D1C308000C0B203900011401EC2
:104390000699F0310870012532E000201146F03115
:1043A0000870FF205BE0029819280DDB10290BD163
:1043B00040A0865D69466A465278825C4A706A46C9
:1043C0001278825C0A70C75D20006946097D411A37
:1043D000C9B20698401801784E4001990E700199B3
:1043E000491C42786B465B7853400B7082786B4671
:1043F0001B7853404B70C07847408F70241DE4B247
:10440000039884422ADA069800190190001F067862
:10441000694642784A7082780A70C7786846007D9B
:1044200002902000029900F046FA0029BBD1310029
:1044300020A06A465278825C2E0056406A466B463F
:104440001B78C35C5370C35D1370475C2800400049
:10445000ED091B214D434540EDB2B5E7002007B003
:10446000F0BDF0B585B00F001400F021615C0029AB
:104470001DD001006846FFF72AFD012506E0FFF781
:104480009FFD31006846FFF765FD6D1CEDB2280108
:104490002618F020205C85426846F0D3FFF75EFDC9
:1044A000320069463800FFF712FD002000E0FF20CF
:1044B00005B0F0BD637C777BF26B6FC53001672B75
:1044C000FED7AB76CA82C97DFA5947F0ADD4A2AF08
:1044D0009CA472C0B7FD9326363FF7CC34A5E5F116
:1044E00071D8311504C723C31896059A071280E2C4
:1044F000EB27B27509832C1A1B6E5AA0523BD6B318
:1045000029E32F8453D100ED20FCB15B6ACBBE3987
:104510004A4C58CFD0EFAAFB434D338545F9027F73
:10452000503C9FA851A3408F929D38F5BCB6DA212C
:1045300010FFF3D2CD0C13EC5F974417C4A77E3D58
:10454000645D197360814FDC222A908846EEB814AE
:10455000DE5E0BDBE0323A0A4906245CC2D3AC6271
:104560009195E479E7C8376D8DD54EA96C56F4EA7C
:10457000657AAE08BA78252E1CA6B4C6E8DD741F8D
:104580004BBD8B8A703EB5664803F60E613557B950
:1045900086C11D9EE1F8981169D98E949B1E87E90A
:1045A000CE5528DF8CA1890DBFE6426841992D0FB9
:1045B000B054BB1630B402000023180008E00124F8
:1045C0009C4025001540A54200D1401C5B1CDBB27D
:1045D0008B42F4DBC0B230BC70475A49884201D2EA
:1045E000642070475849884202D2FA208000704700
:1045F00056487047884203DB824201DB0120704746
:1046000000207047F8B5040016000020002C0FD0E1
:104610000D000AE0070010216800205AFFF7CAFFCA
:10462000010038004018C0B26D1CEDB2B542F1D3A4
:10463000F2BD002800D1704730B4002908D0002313
:1046400004E05C000D5B05535B1CDBB29342F8DBBE
:1046500030BC704700288A6000D14A607047FFB5BF
:1046600081B00024E44300273E0003E03C00EF60FB
:10467000761CF6B26846007C864248DA039831011F
:1046800045186846007900286846007A26D1002837
:1046900004D0A868FDF7D0FC009000E0009768689F
:1046A000FDF7CAFC0099814203D26868FDF7C4FC9B
:1046B00008E06846007A002803D0A868FDF7BCFC33
:1046C00000E03800E968884200D3EF60E96800291B
:1046D000CED0081AA042CBD20400C9E70028C5D02A
:1046E000A868FDF7A9FCE968884200D3EF60E86894
:1046F0000028BDD0A868FDF79FFCE968081AA04211
:10470000B6D2A868FDF798FCE9680C1AB0E720005B
:1047100005B0F0BD70B50E0001218140080001F028
:10472000A5FA04000D00300001F0AAFA02000B0007
:104730002000290001F0B4FA0022304B01F011FBF7
:1047400070BD000080EE3600803F5C021027000044
:10475000FBB514001D006000083801F087FA6A46B6
:104760000CCA01F0FEFA06000F00680001F088FA9A
:1047700032003B0001F0B7FB6A460CCA01F090FA28
:1047800006000F0001F08AFC01F0C6FC844206D24C
:104790003000390001F082FC01F0BEFC00E0200096
:1047A000099E306068460CC80020154901F0D9FA0E
:1047B00004000D00306801F063FA6A460CCA01F08B
:1047C000D0FA00220F4B01F0CCFA02000B002000BF
:1047D000290001F0EBFB04000D00089801F050FAED
:1047E00002000B002000290001F0E0FB01F056FC64
:1047F00001F080FC0A990860F7BD000000408F407E
:10480000000010400000E03F38B50C0015004000EB
:1048100001F09AFC0100200001F0D8FC290001F011
:10482000D5FC01F02BFD01F043FD01F063FC40B22B
:1048300032BDF8B504002068E17A4A0051188900B9
:104840004018407A07016068C01905880026C660D4
:10485000607A00280FD1E068FFF7BFFEA84200D3BE
:104860000500A07A002809D1207A002806D16068C6
:10487000C019C660F1BDA07A0028F8D02069454370
:10488000281A6168C919C860F1BDF446002804D42B
:10489000494200F013F8404260474042002905D4E5
:1048A0005FD000F00BF8404249426047494200F0B7
:1048B00005F84942604703460B43E6D40022030A49
:1048C0008B420BD203098B4219D243088B422ED262
:1048D000411A00D20146524110467047FF22090298
:1048E0003FD012068B4205D3121209028B4201D32C
:1048F0001212090203098B4219D300E0090AC30905
:104900008B4201D3CB01C01A524183098B4201D3A0
:104910008B01C01A524143098B4201D34B01C01A8B
:10492000524103098B4201D30B01C01A5241C30803
:104930008B4201D3CB00C01A524183088B4201D372
:104940008B00C01A524143088B4201D34B00C01A5E
:104950005241884200D3401A5241CFD201461046FC
:10496000704708B501F0D0FC08BD000080B5294AA9
:10497000904701BD00B58BB03222009201900291A8
:1049800005A96846FFF7F2FF0598C0B20BB000BD5D
:1049900000B58BB0332300930190029103921E481F
:1049A0000068FA218900FFF789FF049005A968468D
:1049B000FFF7DCFF0598C0B20BB000BD10B58AB0A0
:1049C00004003A200590694605A8FFF7CFFF0020B4
:1049D00005E081006A46521852686250401C042863
:1049E000F7D300980AB010BD00B58BB03B220092FF
:1049F0000190029108480068FA218900FFF75EFFE4
:104A0000039005A96846FFF7B1FF0598C0B20BB047
:104A100000BD0000F11FFF1FA41500102C4901224A
:104A2000824008682B4B034013430B6070472849B2
:104A30000A68012383402848184382430A6070476C
:104A40002649012282400868C001C009104308605D
:104A500070474901401883547047012393408900EF
:104A600040188E21890143507047012393408900EB
:104A700040189021890143507047000070B5002410
:104A8000A0252D060EE000BF8BA0065D32000021A0
:104A90002800FFF7E2FF0123320000212800FFF782
:104AA000D8FF641C012CEEDB70BD10B50C00002893
:104AB00009D1012363400B220021A0200006FFF74B
:104AC000C8FF7648047010BD744800787047000035
:104AD00080800440FFFFEF25000010DAC0C10040D5
:104AE00010B50720FFF79AFF0020FFF7A9FF01206C
:104AF000FFF7A6FF0220FFF7A3FF0320FFF7A0FFA9
:104B00000620FFF79DFF0720FFF79AFF0920FFF718
:104B100097FF0A20FFF794FF0B20FFF791FF0C206F
:104B2000FFF78EFF0D20FFF78BFF0E20FFF788FFAA
:104B30000F20FFF785FF1020FFF782FF1120FFF7FE
:104B40007FFF1220FFF77CFF1320FFF779FF14206F
:104B5000FFF776FF1520FFF773FF1620FFF770FFB2
:104B60001720FFF76DFF1820FFF76AFF0720FFF7F8
:104B70005EFFA0242406002211462000FFF775FFE7
:104B8000042200212000FFF770FF454C0022112174
:104B9000200001F0BBFB00220B21200001F0B6FB3E
:104BA00000220421200001F0B1FB0022032120009B
:104BB00001F0ACFB00221021200001F0A7FB002235
:104BC0000F21200001F0A2FB00220E21200001F0A5
:104BD0009DFB00220D21200001F098FB00220821FE
:104BE000200001F093FB00220721200001F08EFB42
:104BF00000220221200001F089FB00220121200077
:104C000001F084FB00221221200001F07FFB002232
:104C10000A21200001F07AFB00220921200001F086
:104C200075FB00221146200001F070FB00221E21BE
:104C3000200001F06BFB00221D21200001F066FB2B
:104C400000221C21200001F061FB00221B2120001A
:104C500001F05CFB00221A21200001F057FB00222A
:104C60001921200001F052FB00221821200001F040
:104C70004DFB00221721200001F048FB00221621E5
:104C8000200001F043FB00221521200001F03EFB33
:104C900000221421200001F039FB10BDAF150010D7
:104CA0000040044080B5A020000601F047FBFFF75C
:104CB00017FFFFF7E3FE01BD0B0000000121C00656
:104CC000C00E81404A48016070474A490122824033
:104CD0000868494B034013430B60704745490A6815
:104CE000012383404548184382430A607047444982
:104CF000086070474349012282400868C001C0092A
:104D000010430860704701683F4A0A40012111437F
:104D10000160704741683D4A0A4042607047C16087
:104D20007047016170470368394A1A4011430160B6
:104D300070478160704770B5FDF7FAFF0720FFF7F5
:104D4000C4FF0120FFF7D3FF0020FFF7D3FF0021AE
:104D5000084601F0F9FA0421012001F0F5FA0720D4
:104D6000FFF7BCFF2B4D2800FEF723F90421280094
:104D7000FFF7D9FF0121E120400300F0D1F9E12143
:104D800049022800FEF73EF9234CAE0D3300012204
:104D9000210028312000143000F046FA33000122AF
:104DA000942040002118200000F03EFA0D21280038
:104DB000FFF7BFFF01212800FFF7B1FF0421280002
:104DC000FFF7AFFF2800FFF79EFF2800FFF7A2FFC5
:104DD0000320FFF773FFFDF7B1FF70BD80B50E49EB
:104DE0000A0014310B48FEF763F901BD0000000012
:104DF00000E100E080800440FFFFEF25000010DAB2
:104E000094800440C0C100407DDAFC00060301002C
:104E100001DAFC0000400640940D001053490A6876
:104E2000012383405248184382430A6070474F4928
:104E30000122824008684F4B034013430B607047C8
:104E400010B50400FFF7EAFF2000FFF7F0FF10BDE8
:104E50004949012282400868484B034013430B60D4
:104E6000704745490A6801238340454818438243F7
:104E70000A60704701239340890040188821890106
:104E8000435070470268FF23BE3313400B43036057
:104E900070470268FF23BE338B43134003607047A3
:104EA00080B53849884206D10C20FFF7D1FF012098
:104EB000FFF7C6FF01BD0B20FFF7CAFF0020FFF779
:104EC000BFFF01BD80B50121FFF7DCFF01BD38B593
:104ED00004000D003C21FFF7DCFF29002000FFF754
:104EE000D1FFF0200003206231BD10B582B0FDF784
:104EF0001FFF0720FFF7ACFFA02424061722002184
:104F00002000FFF7B7FF0E21612001F01DFA0E22ED
:104F100000212000FFF7AEFF1921522001F014FA02
:104F20000721602001F010FA0621532001F00CFA4D
:104F30000720FFF796FF134C2000FFF7B1FF042175
:104F40002000FFF7C4FF1049200001F01BFA0020E9
:104F500069460860200001F02DFA2000FFF7B2FF3B
:104F60000C20FFF775FFFDF7E9FE13BD0480044038
:104F70000020FEFFFFDF010080800440FFFFEF25DF
:104F8000000010DA00C0054040420F0079490A686D
:104F9000012383407848184382430A60704775496B
:104FA000012282400868754B034013430B60704731
:104FB00010B50400FFF7EAFF2000FFF7F0FF10BD77
:104FC0006F49086070476E480068C0B270476D490D
:104FD000086070476B480068C0B270476A49086053
:104FE000704769480068C0B27047684800687047F9
:104FF00067487047674800687047000000B50100C7
:105000006AA00A0052091207120F92008058C906BE
:10501000C90E491C4900FFF751FC00BD0200080001
:10502000D106C90E491C484370475B4908600020FF
:105030004860012048607047584908600020486077
:1050400001204860704780B555480068C005C00D14
:10505000FFF7D4FF02BD80B54F4800688007800F7E
:1050600004D0012805D0032806D008E0FFF7C0FFD0
:1050700002BDFFF7BAFF02BDFFF7BCFF02BD002073
:1050800002BD80B5FFF7E7FF010046480068400613
:10509000400EFFF7C3FF02BD80B500203F490968FD
:1050A0008907890F05D0022909D005D3032909D022
:1050B00002BDFFF79DFF02BDFFF7CDFF02BDFFF769
:1050C000C2FF02BDFFF7DDFF02BD80B5FFF7E4FFC1
:1050D00035490968C9B2FFF7F1FB02BD38B5FFF7E2
:1050E00072FF040001D1002418E0FFF7D5FF210072
:1050F000FFF7E4FB04000025FFF76CFFFF280DD14C
:10510000FFF76FFF8021490042180023200E05435E
:1051100024022000290001F064F90400200032BDBF
:10512000F8B507000C00FFF7B7FF05003900FFF7DF
:10513000C5FB060000D101263000C0B2FFF740FFDA
:10514000002C11D00220FFF733FFFF20FFF73FFFB5
:1051500028003100FFF7B2FB00023900FFF7AEFB79
:10516000C0B2FFF73BFF02E00020FFF730FFFFF780
:10517000B5FFF2BD048004400020FEFFFFDF010008
:1051800094800440F0800440F4800440506F00009C
:10519000001BB700546F0000408004407080044042
:1051A000248004400880044078800440000000000F
:1051B000C027090090051000C05C1500F0B31A006C
:1051C000200B2000009F2400E0322900C0C62D00E3
:1051D00050973100E06735007038390000093D0014
:1051E0004016400080234300C0304600C16800697B
:1051F000081A704710B50400FFF7F8FF6168081A35
:1052000010BD10B50400FFF7F1FF6168884201DBB3
:10521000012010BD002010BDC1680069814201D18C
:1052200001207047002070470160436082600021C8
:105230000161C1600120704770B504000E0025684F
:10524000FFF7DFFF002801D0002070BDA268310009
:10525000E06863685B1E03405343E818FAF730FFC9
:10526000E068401CE060012070BDF2B582B004002F
:105270001500206801902000FFF7C3FF002801D02F
:105280000020FEBD2000FFF7B5FF01006268531E3D
:10529000E6681F003740009733401B18934201D344
:1052A0000098101A091AA84200DD28000600AD1B5C
:1052B000A94200DD29000D00A06832004243029996
:1052C000019B009F4743D819FAF7FAFEE06883195B
:1052D000E360A0682A004243029F310041437918ED
:1052E0008C46216867687F1E1F404743C819614686
:1052F000FAF7E6FEE0684019E0607019FEBD70B58F
:1053000004000E002568FFF787FF002801D0002069
:1053100070BDA26820696168491E01405143691847
:105320003000FAF7CDFE2069401C2061012070BDDD
:10533000FEB504000D001600206802902000FFF763
:105340006BFF002801D00020FEBD2000FFF74EFFBC
:10535000019061684A1E236917001F4000971A4098
:1053600012188A4201D30098081A0199091AB0420A
:1053700000DD30000700F61BB14200DD31000E00F9
:10538000A0683A0042430299009B4343C918280091
:10539000FAF796FE2069C1192161A06832004243E4
:1053A0009446226863685B1E0B404343D1186246F3
:1053B00078432818FAF784FE206980192061B8190B
:1053C000FEBD000048210140114808431149086012
:1053D000704711490140DA20C00108430F490860B5
:1053E00070470D490E4A13680B4001401943DA20FB
:1053F000C0010843106070470749094A13680B4011
:1054000001408B43DA20C001184310607047000050
:10541000B7FF000030820440FF8000003482044067
:105420003882044014490A68122313400B6000219B
:10543000016030BF704710490A68162313400422E8
:105440001A430A600121016030BF70470A490A68A7
:105450001623134004221A430A600221016030BF60
:10546000704705490A681623134004221A430A604C
:105470000321016030BF704710ED00E080B50129C5
:1054800002D1FFF7D8FF01BD022902D1FFF7DEFFED
:1054900001BD032902D1FFF7E4FF01BDFFF7C2FF01
:1054A00001BD000030B403000020D40714D407E08D
:1054B0001D782D012C431C70D40701D45B1C401CAB
:1054C0001400621EA4B2002C08D000BF3FA40D78C7
:1054D0006457491C002CEBD5002000E0C0B230BC62
:1054E0007047000030B413000DE000BF32A40D7807
:1054F0002D11655D0570401C0D782D072D0F645D25
:105500000470401C491C1400621EE4B2002CECD153
:105510005800C0B230BC704780B56A460B001B0E05
:1055200013700B001B0C53700B001B0A9370D1708F
:1055300004226946FFF7D6FF082002BD10B40023FD
:10554000036003E0046824012343036013005A1E30
:10555000DBB2002B08D000BF1CA30C781B57491CE2
:10556000002BEFD5002000E0012010BC704730B4C4
:105570000023521ED2B207E0CC5C8D5CC55484542B
:105580005B1CDBB2521ED2B29342F5DB30BC7047DB
:10559000010041391A2900D22030C0B27047020000
:1055A000002000E0401C0B78491C1370521C002B9B
:1055B000F8D1C0B27047000030313233343536375D
:1055C000383941424344454600000000FFFFFFFFD9
:1055D000FFFFFFFFFFFFFFFFFFFFFFFFFFFFFFFFDB
:1055E000FFFFFFFFFFFFFFFFFFFFFFFFFFFFFFFFCB
:1055F000FFFFFFFFFFFFFFFFFFFFFFFF00010203B1
:10560000040506070809FFFFFFFFFFFFFF0A0B0C59
:105610000D0E0FFFFFFFFFFFFFFFFFFFFFFFFFFF6D
:10562000FFFFFFFFFFFFFFFFFFFFFFFFFF0A0B0C66
:105630000D0E0FFFFFFFFFFFFFFFFFFFFFFFFFFF4D
:10564000FFFFFFFFFFFFFFFFFFFFFFFFFFFFFFFF6A
:10565000FFFFFFFFFFFFFFFFFFFFFFFFFFFFFFFF5A
:10566000FFFFFFFFFFFFFFFFFFFFFFFFFFFFFFFF4A
:10567000FFFFFFFFFFFFFFFFFFFFFFFFFFFFFFFF3A
:10568000FFFFFFFFFFFFFFFFFFFFFFFFFFFFFFFF2A
:10569000FFFFFFFFFFFFFFFFFFFFFFFFFFFFFFFF1A
:1056A000FFFFFFFFFFFFFFFFFFFFFFFFFFFFFFFF0A
:1056B000FFFFFFFFFFFFFFFFFFFFFFFFFFFFFFFFFA
:1056C000FFFFFFFFFFFFFFFFFFFFFFFF80B5012888
:1056D00002D0E02809D001BD0120A449487500206E
:1056E000FFF7F2F9A249087001BDA048817B0029AB
:1056F0000DD000218173032141759D4905220A7057
:10570000C27B4A70027C8A700121417001BD4178E0
:10571000012904D004290AD10121417001BD0221CF
:10572000417593498289120A0A708089487001BDC7
:1057300070B586B0B24C8D4E01AD6946707DFBF7F9
:10574000B9FF002807D00020010029700390A8812C
:10575000606DA87318E08648B17D002909D1002149
:105760002970317D29710390707DA881606DA873C7
:105770000AE001212970317D29710390707DA88193
:105780000820E873606DA87301A8FCF78FFA002861
:1057900001D1002000E0012006B070BDFEB584B04C
:1057A0000700724C20005430FCF7DFFB01256E46E9
:1057B00035706846FBF7E8FF00281ED130790028D5
:1057C0001BD00220A07665766846007EA0752775FE
:1057D0006846007D60756846027D04996448FAF762
:1057E0006FFCFFF7A5FF607686490020FDF72CFAD5
:1057F00020630320A076607E00E0002007B0F0BDAB
:10580000F0B589B0594C20005430FCF7AEFB0126AE
:1058100005AD2E7005A8FBF7B7FF002827D1287922
:10582000002803D00220A076667620E06E4600278E
:10583000377020003430019020003C30029020006E
:10584000443003901420287005A8FBF79DFF002822
:1058500002D12879307400E037746846FCF7CCF93F
:10586000002802D10420A07601E00320A07609B030
:10587000F0BD80B5417800290DD10078002802D014
:10588000012804D010E000203849C8750CE0012040
:105890003649C87508E0042906D15B48002101702B
:1058A00081700A20FDF74CFD01203049487601BD8A
:1058B00038B50400607800280DD00A2855D150482A
:1058C0000179FD220A40012111430171FAF73FFCE1
:1058D000FDF75FFA31BD6079012801D1FFF790FF34
:1058E000224D2878002802D0A889401CA881607B1E
:1058F00000283AD0E07801280BD1207B012808D17C
:10590000A06800780100C907C90F29760020FFF7B9
:10591000CCF83E480100913100220A70EA7D012A4C
:1059200006D1A27C002A01D0802200E040220A7029
:105930000B780122657C002D03D002251D430D70DC
:1059400002E015001D430D700B7810251D430D70EE
:105950004A70E278CA70227B8A70227BA1689530F7
:10596000FAF7AEFB0D20FDF7EBFC31BDAC030010E8
:10597000D412001010B586B00178002902D0012998
:105980002CD038E0AF4C4078002810D1AE480078D9
:10599000002802D10420A07601E00220A076062093
:1059A000FDF7CEFC00210846FFF77FF823E06846AC
:1059B0000021017022003432019222003C32029216
:1059C0002200443203920174FCF716F9002802D138
:1059D0000420A0760FE00320A0760CE04178002997
:1059E00009D1984C2178002905D00121A173017AB1
:1059F000E173407A207401209249487606B010BDC8
:105A0000F00A0010DC050000A90A0010180A0010B6
:105A10000078042800D0704780B5FFF7F1FE01BD83
:105A2000F0B58FB0FDF793F9864C0020A076FDF716
:105A3000F7FB1EE00399097809180A00D210120F2B
:105A4000521812115300E3189F8C1201891A8E40CC
:105A50003E439E84401C0126039949788842E9DB35
:105A60006846FBF765FF0C2028706846FBF760FF6F
:105A7000A676A07E002809D0022800D1B5E056D332
:105A8000042800D1D8E000D2CAE0D8E0FDF787F9B9
:105A9000FDF7CFF86D4805906D4806906D4807906A
:105AA0006D480890022204A905A8FBF703FD6B4985
:105AB00020005430FCF7BBF96D460220287000200E
:105AC00028716846FBF734FF07262E7000202871E6
:105AD0006846FBF72DFF1B20287032200190684696
:105AE000FBF726FF172028702E716846FBF720FF72
:105AF00014202870207F28716846FBF719FF0020CA
:105B00002870574E64360396304680782871684670
:105B1000FBF70EFF2000243001900D20287000229A
:105B20000C2120002430FAF75DFB002093E74C4E57
:105B300037003F1D6D463878C00728D52000343027
:105B4000FDF73BF909AF002038703000401D0A9086
