:10000000A8190010ED6C0000F1010000F3010000E0
:100010000000000000000000000000008775FFEFF6
:1000200000000000000000000000000005020000C9
:1000300000000000000000003102000071270000F5
:100040001B6D00001B6D000000000000C549000092
:100050001B6D00001B6D0000000000001B6D000008
:100060001B6D00001B6D00001B6D00001B6D000070
:10007000313B00001B6D00001B6D0000273B0000A2
:100080001B6D00001B6D00001B6D00001B6D000050
:100090001B6D00001B6D00001B6D000000000000C8
:1000A000C9640000D96400001B6D00001B6D0000D6
:1000B0001B6D00001B6D00001B6D00001B6D000020
:1000C000124207D08B0706D00B78491C0370401CE6
:1000D000521EF7D87047830706D00B78491C03706F
:1000E000401C521EF9D1704770B4103A03D378C93E
:1000F000103A78C0FBD2530701D318C918C001D5F4
:1001000008C908C0D20704D30B880380891C801C4F
:10011000002A01D50B78037070BC70472B4A000988
:1001200010600800000980210906014351607047F2
:1001300080B509014118FFF7F1FF01BD24480068AF
:10014000C00F7047AA21816055218160704738B582
:10015000204C21212000401D03F0F8FD0504302132
:100160002000283003F0F2FD054325601A4D0022DF
:100170008021280004F078F9682221002800FFF788
:10018000B3FF8020C005FFF7DDFF02F0A1FA1F21B9
:10019000084604F08DF91149481E04F0C3F91F21E7
:1001A000084604F085F980222900FF20C00104F0F0
:1001B0008DF902F093FA4021F820C001FFF7B8FF53
:1001C000FFF7BCFF0028FBD131BD00002000044038
:1001D00024000440600B001020130010FF010000F9
:1001E00080B504F07AFD0149086001BD9C1500103E
:1001F000FEE7FEE7010000E0491C0A78002AFBD177
:10020000081A7047FEE710B400210A0000E0521CF3
:1002100082420BD20B0003E0641C052CFCD35B1C58
:10022000FA24A400A342F2D20C00F6E710BC7047F7
:10023000FEE700007047000089004018016818239D
:100240009943D2000A43026070470000044901222A
:1002500082400868034B034013430B607047000063
:1002600080800440FFFFEF2580B50620FFF7EEFFFA
:1002700001BD000010B40207120FD2000009064BA6
:10028000800018180368FF249440A3439140194349
:0C029000016010BC7047000000C000407E
:0402FC00FFFFFFFF02
:1003000070B584B001F02FFF0600444C607B0228DA
:1003100003D04348C06A804701E000F08BFF207C97
:1003200000282CD09C2040002518616E280001F088
:100330000CFF280001F01DFE607B022809D0A620DA
:1003400040002518A16E280001F0FFFE280001F0F2
:1003500010FE607B022802D0E07C002821D0122011
:1003600069460870207B01F04FFF2E4DA16E0918E1
:10037000280001F0EAFE280001F0FBFD11E000205A
:1003800029494870042060702020205C002802D198
:100390000120202160542020205C202101432020C6
:1003A0002154204D2020205C000705D52078411ED7
:1003B0008941C90FA97501E00020A875A07EE076EB
:1003C00001A90870607C48700296207B01F027FF2D
:1003D0002665E07C002805D1002013494870207E66
:1003E000401C20767FBD10B50C4CE06D40210143D0
:1003F000E165E07C002801D000F010FD2020205CA9
:100400002221014320202154F03024180121200012
:1004100001F09BFE200001F0ACFD10BD00000010BB
:10042000A46B0000E41400101C150010FBB592B082
:100430000020059007460646834D280070300A903C
:100440002800803001900E9030466946087388730A
:100450007E4908717E4CE28114A800782074E87F00
:100460006074304660806071A060A081A07460619B
:1004700020707848C06A8047A6204000281801F004
:100480000EFE1298007869460870684600784009A8
:10049000C8736846C07B012806D0032800D1AFE0AE
:1004A000052800D1ACE04FE2687C002800D0C6E00F
:1004B000694E33005B1C6A6B13A80088411E89B229
:1004C0001298401C02F00AF868460078307005ABBC
:1004D0006A6B13A80088011F89B2300001F0D7FFB2
:1004E000AA8C05988018059013A800883018001F62
:1004F000017843781B020B43817809041943C078C3
:10050000000608430599884200D021E20198009036
:100510002B0070333100491C686B02F001F8307910
:10052000717909020143B07900040843A863F079A6
:10053000317A09020143707A00040843B17A09064E
:100540000143E963454C1022019920004030FFF738
:10055000CBFD10222900703120003030FFF7C4FDA0
:10056000E86BE062A86BA0622079FE2101400220C6
:1005700008432071FFF7EBFDF27AD5481100090915
:100580004907490F41740F210B0013400376327B5A
:100590001140016001D101210160FA218900026846
:1005A0004A430260511841600D360F9613A8008827
:1005B00011380FA90871287B01F04CFE384668708D
:1005C00001206874287F00906B7F20480279697B46
:1005D000E87C00F00DFCBF48007A00280ED12020F6
:1005E000285C2021014320202954F0302C180121BF
:1005F000200001F0AAFD200001F0BBFC15B0F0BD09
:10060000687C002800D1A3E1B148407F06A988702A
:1006100020794870092069460876E87B002801D0D7
:100620000A20087606A9287B01F0EEFD13A90988A7
:100630000D3909B2002900D53146884210D2012077
:100640006070FFF7D0FED9E7000000101C15001005
:1006500038150010A46B00002C110010600B001066
:10066000129841788078000208431299C9780904E9
:10067000014312980079000608430790E96B88420D
:100680001AD02E6C00E0B66A002E0CD03168884279
:10069000F9D10120694608733000001D0A9030002E
:1006A00014300E90776A6846007B002805D10B2035
:1006B0006070FFF798FEA1E7AF6C129840790BA924
:1006C00008700F210BA80078014068464173084666
:1006D0000830C0B20490129813A909884018001F6E
:1006E0000278417809021143827812040A43C078E3
:1006F000000610430D90129880791299C979090269
:1007000001433800081A80B2099013A80088001F1E
:1007100069460884099880210902884214DA3F1842
:1007200005A80290019701200090079B0A9A68464D
:10073000018C129801F0FCFD0D98059988421DD19D
:1007400001206946887319E000B238184900401842
:100750000C9005A802900C98019001200090079B36
:100760000A9A6846018C129801F0E2FD0D980599ED
:10077000884203D10120694688730C9F1120694685
:10078000087606A9287B01F03FFD0999814205D32F
:100790000A2060706761FFF726FE2FE76846807BBE
:1007A000002800D1CBE0002060706846007BA0707C
:1007B0000BA800780100C906C90F61710020A06074
:1007C00020736761AB494870E864E8756846007B50
:1007D000012808D102202070706AB84201D1002897
:1007E00031D1776212E06846C07B052823D1012011
:1007F00028752070A86CB84207D1002805D02020A9
:10080000285C0421014320202954AF6499480078D2
:1008100001281ED10BA800784009C1071BD5002173
:10082000A9750100C907C90F924A11710100C907D2
:10083000C90FA1740FE0002028752070A86CB84281
:10084000E3D10028E1D0082060706761FFF7CBFD9D
:10085000D4E60020A87513A80088001F0499401A48
:10086000012859DB1298405C491CC9B2049113A9B4
:100870000988091F049A891A6A461173E0700028D2
:100880006846407B28D1002816D17B4E02960197FE
:1008900001200090079B0A9A6846017B1298049CED
:1008A000001901F0E9FD14A803786846027B0021D5
:1008B000300000F0AEFB3BE02020285C0421014327
:1008C0002020295400206B490871A07430E000BF3B
:1008D00030140010E4140010002808D014A8037885
:1008E0000498421ED2B20821129800F092FB624E88
:1008F0000296019701200090079B0E9A6846017BA3
:100900001298049FC01901F0B7FDA6606846007BED
:100910002073012060730BE06846407B002807D0FD
:1009200014A803780A46D2B20821129800F071FB8D
:100930002020285C022101432020295442E60C207B
:100940006070FFF750FD59E6687C002800D0AEE6E5
:100950000720687036E610B5484C607B022803D04B
:100960004748C06A804701E000F064FC02200100B3
:10097000404A517060702020205C202101432034C7
:10098000217010BD10B53D4C607B022802D03C4860
:10099000C06A8047E07CE17F00291AD10521002848
:1009A00001D0344841706170607B022820D0206DF6
:1009B00001F0DCFBA16E88421AD3A620400020186B
:1009C00001F06DFB2020205C2021014320202154D8
:1009D0000EE00621002801D0264841706170607B3E
:1009E000022805D02020205C202101432020215412
:1009F000607B022801D100F01DFC10BD10B51F4C1A
:100A0000607B022802D01E48C06A8047E07CE17FFC
:100A100000291AD10321002801D0164841706170C5
:100A2000607B022820D0206D01F0A0FBA16E8842DF
:100A30001AD3A6204000201801F031FB2020205CB2
:100A400020210143202021540EE00421002801D060
:100A5000084841706170607B022805D02020205C2E
:100A60002021014320202154607B022801D100F085
:100A7000E1FB10BD1C1500102C110010000000102F
:100A8000A46B0000F0B585B0002420006946087210
:100A9000BF4D882040002818009001F000FB202066
:100AA000285C0127010049093A00114200D1CFE03A
:100AB000E96D4A0602D541229143E96509210140C9
:100AC000B44E13D07278022A02D06A78022A0DD16D
:100AD000EA6D3B469A43EA652200AA756A7F727105
:100AE00022003271B4603A006B461A72EA7C6B469F
:100AF0001B7A134335D1002933D00100C9083A00CD
:100B0000114209D02978002906D1687800281DD122
:100B10006C642000287619E0020052083900114068
:100B20002A7EB24BDB7F9A4201D2002913D00029E2
:100B300004D12000A875E86C401CE86420002876E9
:100B4000307D002802D1686C401C6864E86D39462D
:100B50008843E86505E0DF2101402020295400F0AA
:100B6000E1F82020285C40083900084215D030798F
:100B7000002803D1287F697F88420ED22000A87701
:100B8000E874307D002802D1686C401C6864687F7E
:100B90007071E86D39468843E865A87F002857D012
:100BA0005C20285CC00653D42000A877687F297F8A
:100BB000884239D2092837DA401C6877C00710D537
:100BC00003A81E210170C0492C228A5C8270491C36
:100BD00001910978417003A9287B01F015FB019967
:100BE0000870384600F038FA002806D12020285C2A
:100BF000DF210140202029542AE0092070702000C4
:100C0000A875E86D39468843E8652000E8743471BA
:100C1000687F7071AC484078B070307D002817D183
:100C2000686C401C686413E03946287B01F0FFFAC9
:100C3000E86D39468843E8652000A875E87434718A
:100C4000687F7071307D002802D1686C401C686438
:100C5000E86D810702D502218843E865E86D002828
:100C600028D12020285C3900084207D0FE2101400D
:100C7000202029544748296E096888472020285C8D
:100C80000100C9083A00114207D0F7210140202095
:100C900029542800296E8968884700F001F9002846
:100CA00001D000F005F92020285CDF210140202040
:100CB000295407E0FA218900009801F046FA0098CB
:100CC00001F057F92020285C010049083A00114240
:100CD00018D0FD21014020202954687B022801D131
:100CE00000F0A8FA2020285C80083900084203D1CF
:100CF000AC48296E496888472020285CFB210140C8
:100D0000202029542020285C01000909394207D0FD
:100D1000EF21014020202954A348296EC968884743
:100D200005B0F0BD10B51A4C92204000201801F01B
:100D3000B6F9E06D10218843E065012000F08CF9E0
:100D400010BD70B5124D9C204000281801F0A7F985
:100D50000020E877954CA97E21705B490E000C3687
:100D6000727DE2702D3109782174E97B61746082B3
:100D7000687B022802D1B348006B8047B24A210049
:100D8000287B01F090FA3168A07C00F05FF870BD1C
:100D9000000000101C150010F8B5854DA62040007D
:100DA000281801F07CF9A94CA87E2070464807005D
:100DB0000C37B96961602D3000782074E87B60746D
:100DC0000126E674687B022802D00020A07400E0AF
:100DD000A6749D4A2100287B01F065FA002804D002
:100DE0003968A07C00F032F8EE77F1BD21140010D4
:100DF00080B5002805D102290FD1954801F04FF99F
:100E000001BD002A03D0924801F049F901BD0298C2
:100E1000984202D28E4801F042F901BD80B58C485B
:100E200001F03DF96248C17C002905D0012181779C
:100E3000C16D04229143C165417B022905D1202166
:100E4000415C20220A432030027001BD80B57D4AFA
:100E5000526B002802D10800904701BD0020904746
:100E600001BD38B50400150068467A4A12788270D0
:100E70004170092101704E4AD17B002901D00A211D
:100E800001706946107B01F0BFF9611980B289B227
:100E9000884203D3FF2901DC012032BD002032BD8E
:100EA0004348C07D002801D00120704700207047D2
:100EB0000420BA4908763E482021415C10220A43AA
:100EC000203002707047000020140010F4B50200BA
:100ED00001242300364D8020EE7D871BFFB21000D9
:100EE000801E08285BD801A6365CB7447E467E0883
:100EF0001A46647E9200A87D7F1EB84243DB002B19
:100F000000D16C751800F2BDA87D0600BF1EBE4260
:100F1000F5DAC44B06229A55401CA875C0B2195484
:100F2000401CA87569460978C0B21954401CA875C0
:100F30000023E4E7A87D06007F1EBE42DFDAB94B3E
:100F40009A55401CA875C0B21954401CA8750023BE
:100F5000D5E7A87D0600BE42D1DA0821B14A9155F5
:100F6000401CA875FFF7A4FF0023C8E7A87D060072
:100F7000BE42C4DAAB498A55401CA8750023BEE7BF
:100F8000A87DB842BBDAA74B1A54401CA875C0B262
:100F90001954401CA875FFF78BFF0023AFE7022010
:100FA000F2BD000038150010341500105015001067
:100FB0000000001070B4030000242000002B26D095
:100FC000002A02D123E0641C641CE4B28C421DD2CE
:100FD0001D5D2E00032EF6D0052E07D0062E13D051
:100FE000072EF0D0082E0BD00A2EEDD1C0B215542A
:100FF000641C401CE4B21D5DC0B21554401CE3E704
:10100000C0B21554401CDFE7A41CDDE7C0B270BCC1
:10101000704770477CB58B4CA57CED016E463571F1
:10102000009313000A0001A900F01AF9002807D163
:101030005A4800218180616CC160002000F00CF8EA
:1010400076BD0000A46B00003C1500106415001074
:10105000E41400104C140010F0B587B00500002017
:101060000190784C617EFF2901D1092078E00029A8
:1010700000D16065E07E00F075F8606D039003A814
:101080007149497801727149497D8172617C41726F
:10109000206D049020005430009001AB22001A32E1
:1010A00003A9207B01F027F9002816D00B2857D17F
:1010B000002D55D0019800280DD0E06D102101437E
:1010C000E1659220400024180199200001F03DF8CC
:1010D000200000F04EFF002042E05D4802905D4D90
:1010E0006B7F5BB258480121425602984179207BC0
:1010F00001F00EF90100584F00972B682A7949B288
:10110000207B01F0C5F8554E00962B682A7902988D
:10111000017849B2207B01F0BBF8607C002808D13F
:101120006869F96840186066A869F1684018A066A7
:1011300013E0A27D4448012141564448007DFFF759
:1011400090FE002801D108200AE0E868F9684018FC
:1011500060662869F1684018A066A07E00F0D5F9A5
:1011600007B0F0BD70B584B0364C6D46617C297017
:10117000364E717DA970E870A06D00F0F7FF019008
:10118000E06E0290B07D68706946207B01F0ABF89C
:10119000E06E218D4143081A60657FBD1C1500106B
:1011A00038B50024274D200068746C64AC64EC648E
:1011B000287601200100297769772100A9776976CF
:1011C000010029852100E98228741F4B3820185C12
:1011D00018703920185C58705920185C2121585417
:1011E000D86D196E1A00243203C26420185C2C21B9
:1011F00058546520185C2D215854986E1863D86E89
:1012000058630221287B01F012F82000E874A882BC
:10121000286C01E04462806A0028FBD120006883CA
:1012200031BD0000A0130010E12801DB0020704751
:101230000120704780B5FFF7AFFD0220D349C87782
:1012400001BD00000000001020140010E414001084
:1012500048140010241400105015001064150010DC
:10126000F2B588B000210391049369460A71C74C16
:101270000021E184E1740E99002B00D10021C44FBC
:10128000397508260178E3220A40310011430170C4
:10129000C04D29700078400907D0022849D00428A1
:1012A00045D0072800D11EE12DE10120E08432461F
:1012B000216B2800401C01F0ADF9E08C0830E0847F
:1012C0003246E16A80B2281801F0A4F9E08C0830B7
:1012D000E08401F071F9A084E08CA18C0A002A540A
:1012E000401CE084090A80B22954401CE08403AB0E
:1012F000626BC1B2280001F0CAF8E08C039929544E
:10130000401CE0840399090A80B22954401CE084FF
:101310000399090C80B22954401CE0840399090EFA
:1013200080B22954401CE084002009B0F0BD0120A7
:10133000E074607C002801D10720F6E705A80121B0
:10134000017008990978C9094A1E9241D243D20F07
:101350004270E16C0691904A5178017211784172A5
:101360002C21515C817220004C3000901300521CE3
:1013700005A9207B00F07FFF08990978BF220A4069
:101380008001104308990870217D002905D00021B3
:1013900021752021014308980170E06B01006970FC
:1013A000090AA9700100090CE970000E287108985B
:1013B00000786871606C0100A971000AE871200072
:1013C00090300090E27D01467448A37DC01801F082
:1013D00016F9A07DE17D4118A175049800281FD061
:1013E000387D00281CD0607D002825D0C9B2102986
:1013F0001CDA08980278F020104052181207120FD9
:101400000243089802706A7100200A0080B290427C
:1014100012D2624A125CF6B2AA55761C401CF4E75E
:10142000C9B2002908D0607D002805D039755B4815
:10143000049000206A46107100206075009AC9B2BD
:101440005648FFF7B7FDE075002801D00120607510
:101450000498002826D0387D002823D068460079DB
:10146000F6B2A855761CF6B2A819E36B616C6A4611
:101470001279002A0CD10022A27502900191104627
:10148000009022007032397D049800F096FF09E048
:10149000029001910020009022008032397D049852
:1014A00000F08BFFF6B2387D3118E18403A802907A
:1014B000606C019000200090E36B2200703289B2D2
:1014C000280000F035FFE08C2918039A0A70039A6F
:1014D000120A4A70039A120C8A70039A120ECA708A
:1014E000001DE08420E7002B00D11DE73A7D002A93
:1014F00000D119E719006D1C280001F080F8387D33
:10150000401CE08410E702200FE7F0B585B007002B
:1015100000206946087001A807701F4E717841705D
:1015200031788170316B0291716B0391174CE18CB2
:10153000818123006C336A4601A9207B00F0BEFE46
:1015400001252800607097482900417071788170EA
:1015500069460978C1700761E16E81606160882029
:1015600040002618FA218900300000F0EEFD30001E
:1015700000F0FFFCE18CC9B20648BC4A926A904771
:10158000E06D0543E565002005B0F0BD00000010EA
:10159000E41400102C10001020140010A0130010F0
:1015A0000020704700207047F2B582B00500160099
:1015B000002D0BD02868002808D06868002805D0C6
:1015C000A868002802D0E868002801D10320FEBDE9
:1015D000300000F013FE002801D10A20FEBDA44C0B
:1015E0002566A44F0298786326730020010020220C
:1015F000A1546173E065E173206560650B20694665
:101600000870207B00F000FE401E8041C043C00FE8
:101610007875082069460870207B00F0F5FD964D2E
:101620002E0038363070052069460870207B00F0A7
:10163000EBFD70700C2069460870207B00F0E4FD23
:10164000F0600D2069460870207B00F0DDFD306100
:101650000E2069460870207B00F0D6FD70610F20D7
:1016600069460870207B00F0CFFDB061102069460C
:101670000870207B00F0C8FDF061132069460870F7
:10168000207B00F0C1FD29005831019148701420E1
:1016900069460870207B00F0B7FD0199486015206D
:1016A00069460870207B00F0AFFD019908721A208E
:1016B00069460870207B00F0A7FD019908731B2084
:1016C00069460870207B00F09FFD019948731C203B
:1016D00069460870207B00F097FD019908611D2084
:1016E00069460870207B00F08FFD01994861002158
:1016F000207B00F09CFD0120019908700A20706099
:10170000062131722D1D286008462871F068A860F6
:101710003069E86070692861B0696861F069A86142
:10172000019800782877FFF73BFD882040002518B6
:10173000AA49280000F015FCFA218900280000F0D1
:1017400004FDA74992204000201800F00AFCA5499A
:101750009C204000201800F004FCA349A620400073
:10176000201800F0FEFBA149380000F0FAFB00F061
:10177000FAFCA0659E48B8619E4838629E48B862EF
:101780009E48F8619E487862384D183738002968BD
:1017900088470120A073A96D8847E86A8047002028
:1017A000FEBD00001C150010F1B586B00F00324DD3
:1017B0003920285C694648713820285C8871914C32
:1017C0006846A17DE27D89180171002F01D10320B7
:1017D00049E0002603A831000170A17C4170E16C52
:1017E000049169780172297841722C21695C8172B7
:1017F00020004C30009001AB9B1C01AA521C03A995
:10180000207B00F038FD02A82C35297881706946CC
:101810004979417009210170E17B002901D00A2139
:10182000017002A9207B00F0EFFC7870787869469F
:101830000979884204D369460979401A387004E06E
:101840003870300069460871E0826846027969465E
:10185000052009566846007EFFF703FB002801D1EA
:10186000082000E0304607B0F0BD0000A46B000087
:1018700000000010E41400102014001038B505001A
:101880000024002D01D1032032BD28781E2800D964
:10189000A0E002A1095C49008F4400BF1014181C8D
:1018A0002024272A2E323B404F46585C6064686CE7
:1018B00070747C788084888C909498005148407B28
:1018C000287188E04F48407C287184E04D48807C36
:1018D000287180E04B48806B68607CE04948C06BB1
:1018E000686078E04848686075E04848686072E081
:1018F0004448807B28716EE04248C07B28716AE0D2
:101900001920694608703F48007B00F07DFC686044
:1019100061E03F4803C82D1D03C55CE03D4AD06D22
:10192000116E2D1D03C556E0172069460870354815
:10193000007B00F069FC68604DE016206946087085
:101940003048007B00F060FC686044E0324800787A
:10195000287140E02F48C06868603CE02D4800696D
:10196000686038E02B484069686034E02948806945
:10197000686030E02748C06968602CE0274800783C
:10198000287128E023484078287124E02448007812
:10199000287120E01F48007828711CE01948406C2D
:1019A000686018E01748806C686014E01548006CA7
:1019B000686010E01748406868600CE01548007ADD
:1019C000287108E01348406B686004E01148C06E5D
:1019D000686000E00224200032BD0000850A00009B
:1019E000250D0000430D0000990D00001D0E0000A4
:1019F000010300002D0400008509000057090000C4
:101A0000FD090000000000107000001080000010B0
:101A10004414001020140010401400105914001039
:101A200058140010F0B585B0040000200700002C09
:101A300001D1032050E10121A84DEA6D0A4001D0F7
:101A4000084649E122781E2A00D943E101A3520049
:101A50009B5A9F443C0076007C00820088008E00E8
:101A6000A400BA00C6007E02CC0026016A01500123
:101A7000820196019E01A601AE01B601BE01E00100
:101A80002A0208024C0252027E02580262026E02D0
:101A9000760221796973002902D0022904D01AE163
:101AA0008F48C06A804716E1E8748D48C06A804755
:101AB0008C4E8D4800907368327A2836317849B25E
:101AC000287B00F0E5FBFFF7B5FB04E120796874A3
:101AD00001E12079A874FEE06068A863FBE060681B
:101AE000E863F8E06168002905D01022703528000D
:101AF00000F085FDEFE00327EDE06168002905D0E7
:101B000010228035280000F07AFDE4E00327E2E0AF
:101B10002079A8737249896D8847DCE02079E873E1
:101B2000D9E0207A694608716E4E2D20305C01A9FB
:101B300048700622287B00F082FB00281CD0241D60
:101B400003CC3200243203C2687B022800D0C2E0FA
:101B5000687C002800D1BEE06148C06A80476248C6
:101B600000907368327A2836317849B2287B00F0C9
:101B70008FFBFFF75FFBAEE00327ACE0207A6946FE
:101B80000871584E2D20305C01A948700622287B30
:101B900000F055FB002804D0241D03CC5C3603C69E
:101BA00099E0032797E06068029002A8017102A9FA
:101BB000287B00F057FB002800D08CE003278AE048
:101BC0006168029102A90871287B00F04BFB002894
:101BD00000D080E003277EE02079002804D0102880
:101BE00002DA8349087076E0032774E060683D49B3
:101BF000C86070E060683B4908616CE06068394922
:101C0000486168E060683749886164E06068354928
:101C1000C86160E0207969460871052201A9287B26
:101C200000F00DFB002804D0684600797149087067
:101C300051E003274FE0207969460871294E2C2096
:101C4000305C01A988700422287B00F0F8FA002893
:101C500003D06846007970703DE003273BE02079AF
:101C600069460871082201A9287B00F0E8FA0028DB
:101C700004D068460079604908702CE003272AE008
:101C8000207969460871072201A9287B00F0D7FA5C
:101C9000002804D068460079124908701BE0032729
:101CA00019E06068686416E06068A86413E0606822
:101CB0000C4EF06370600EE020790A4E40217054A3
:101CC000307208E060680749486304E060680549CD
:101CD000C86600E00227380005B0F0BD0000001023
:101CE000A46B0000201400106415001070B582B0C1
:101CF00004000225002C22D0934EF06D002813D151
:101D00000C220021300000F092FC0120707020783D
:101D1000002805D0022845D035D303284ED05AE0FC
:101D20005C20305CC00601D5012076BD60680028CB
:101D300005D0A068002802D0E068002801D1032067
:101D400076BDFFF72DFA2020305C082101432020CA
:101D50003154207830706068F062A0683063E068C9
:101D60007063217C49B2307B00F0B4FA7749487047
:101D70000020694608700346024601466846FFF7A0
:101D800049F9050027E02020305C0821014320208C
:101D9000315420783070002211462846FFF796F81B
:101DA000050018E030702020305C0821014320201D
:101DB0003154A088FFF7F4FB05000CE030702020C0
:101DC000305C0821014320203154227BA168A08887
:101DD000FFF7E8FB0500002D07D00020F07420205D
:101DE000305CF721014020363170280076BD0000BC
:101DF000401400105914001058140010F0B585B0AC
:101E00000700022069464870002008700546044615
:101E1000002F00D190E04C4EF06D002801D0012041
:101E200090E02046087114220146494800F0FFFB6B
:101E300001204749487070773878002804D001287D
:101E400017D003282AD039E001242046307768468D
:101E50000079C006C00E40210143684601713879FF
:101E600069460870B8680290B88948800E203D56CF
:101E700024E00124F87B307768460079C006C00E64
:101E80008021014368460171387969460870B86855
:101E90000290B88948800E203D560FE0012420466C
:101EA000307768460079E02101436846017178681F
:101EB00002903889694648800A203D566846007875
:101EC000FFF7B2F9002837D004A801210170214999
:101ED0000978817004A9307B00F096F9A84200D3FC
:101EE0000500002C2CD0B07C00280ED103AC25704E
:101EF00018480078A070042203A9307B00F09FF9F5
:101F0000002819D020781149487068464388029A01
:101F1000017801A8FFF77EF8694648706846407866
:101F200000280BD138780A4908702020305C012144
:101F300001432036317003E0032003E00020F074F9
:101F40006846407805B0F0BD000000102014001075
:101F50001C1500104C140010AA21816055218160CD
:101F6000704700220260426013000372C160026188
:101F7000704738B5040000F0ABFB002C27D02000E0
:101F800000F0D7F8002822D160682060002020727D
:101F900094484568002D04D12168200000F047F8DE
:101FA00015E0287A002807D000F0D7F82968814288
:101FB00000D20800091A00E029682068884203D28C
:101FC000200000F034F802E0200000F003F800F0F8
:101FD00085FB31BD30B4834A52681369002B06D1AA
:101FE0000368591A01601061002101611DE01C683D
:101FF0000C1902E021001D686419002A15D005683B
:10200000A54209D2691A0160002B02D01C68611A2E
:1020100019601061036108E01A001B69002BE9D107
:10202000291B016010610021016130BC704710B5AF
:102030006C4A5368002B04D00468091B1960002106
:102040001972036101210172506000F09AF810BD0D
:1020500038B5644C6568002D20D000F07EF8296802
:102060000022884201D32A6001E0081A28602A72FF
:1020700005E001696160C068010000D080476068C8
:10208000002802D001680029F3D0002806D0017A88
:10209000002903D10121017200F073F831BD70B540
:1020A000060000F015FB4F4C65682A0028003DD063
:1020B000002E3BD0B54226D1287A002817D000F058
:1020C0004CF83168814200D20800091A0022100041
:1020D00028722869002808D06060026851180160E1
:1020E0000121017200F04DF820E062601EE02869D5
:1020F000002805D06060016832688918016015E029
:102100000020606012E0316801E002001800002841
:102110000CD00369B042F8D1002B05D01800106133
:1021200002685118016001E00020106100F0D6FA49
:1021300070BD2C49496800E00969002903D081423B
:10214000FAD1012070470020704738B505000C0017
:10215000FFF7A5FF2C606C6031BD80B52248006898
:1021600000F004F802BD21480068704710B5040073
:10217000FFF7F9FFA04202D2401E001B10BD001B5A
:1021800010BD80B500681A490860FFF7ECFF1649DA
:10219000086001BD10B582B08024E4052000FFF77F
:1021A000DBFE06E02000FFF7D7FE6846007800F06F
:1021B0000BFB01236A460F490F4800F042FC01283F
:1021C000F0DA0848416800290BD0097A002908D0C4
:1021D0000178052903DA0178491C017013BD00213B
:1021E000017013BD94150010C4040010BC0400104D
:1021F000C0040010180E001000400640022801D153
:10220000012070470020704780B5C0B2022803D17A
:10221000080000F0A3FC02BD44A0006802BD022833
:1022200000D0704780B5080000F0EEFC01BD022828
:1022300000D0704780B5080000F0F6FC01BD80B505
:102240000B001100022803D1180000F01FFD02BD91
:10225000002002BD022800D0704780B5080000F0C1
:1022600042FD01BD80B5022803D1080000F03CFD0D
:1022700002BD002002BD10B50400080011001A00C4
:10228000022C03D1029B00F065FD10BD002010BDA3
:1022900010B50400080011001A00022C02D1029BA4
:1022A00000F092FD10BD80B50B001100022803D193
:1022B000180000F0D7FD02BD002002BD10B50400DB
:1022C000080011001A00022C02D100F025FE10BDFA
:1022D000002010BD80B5022803D1080000F07AFE6E
:1022E00002BD002002BD022800D0704780B5080062
:1022F00000F071FE01BD10B50400080011001A00C5
:10230000022C03D1029B00F081FE10BD0A2010BDFB
:1023100010B50400080011001A00022C02D100F0D0
:10232000D9FE10BD0800C0B210BD000000000000C2
:10233000F8B506000D0017009D4C06986071180056
:10234000A071000AE0711800000C20721800000E45
:10235000607207980100A172090AE1720100090C7C
:102360002173000E60732800E0732000203000F01D
:10237000B9FE39002000203000F0C5FE10222100F7
:102380002000203000F0C7FEEAB2310020002030EB
:1023900000F0C1FE210020312000103000F020FFAD
:1023A000E07C0006A17C09040143607C0002084334
:1023B000217C014308980160F1BDFDB50F000026A6
:1023C00001257C4CF02231462000203000F02FF90E
:1023D000220020321021019801F074FA08986071EF
:1023E0000298A0710298000AE0710298000C207215
:1023F0000298000E607209980100A172090AE17248
:102400000100090C2173000E60730DE07018009A32
:10241000135C6218127C5A400A9B1A54491C1029FA
:10242000F4DB103F1036F6B2BFB2102F0BDB2800E2
:10243000E0736D1C2200203221001031200001F0D9
:10244000C2FA0021EBE7002F15D0E57322002032FD
:1024500021001031200001F0B6FA002109E07018C7
:10246000009A125C63181B7C53400A9A1354491C4F
:1024700089B2B942F3DBF7BD10B584B0089C029471
:10248000079C0194069C0094FFF797FF1FBDF8B5C9
:1024900006000D001700464C2000203000F022FE00
:1024A00039002000203000F02EFEEAB2310020007A
:1024B000203000F030FE210020312000103000F0EC
:1024C0008FFEE07C0006A17C09040143607C0002D1
:1024D0000843217C014300980160F1BDF4B505007B
:1024E0000E001F00334CF02200212000203000F0AD
:1024F0009EF8220020321021009801F0E3F922001A
:1025000020323900280001F05EFA102E07DB20345B
:102510002200103739001035280001F054FAF1BDBF
:10252000F4B584B004000E001F00224DF0220021FB
:102530002800203000F07BF82A00203210212000F3
:1025400001F0C0F910220021684600F070F86C46D6
:1025500001202070062231002000401C00F04FF8BE
:10256000022204A92000C01D00F049F82A002032F0
:102570003900684601F027FA10220021684600F071
:1025800056F802202070062231002000401C00F086
:1025900036F8022204A9E41D200000F030F82035AE
:1025A0002A000A99684601F00EFA05B0F0BD000055
:1025B000600100109802001000B507490868074A3A
:1025C0005043074A80180860064901F0DEFF080002
:1025D00000BD014908607047C80400106D4EC64137
:1025E00039300000FFFFFF7F38B504000D00FFF712
:1025F000E3FF291B491C01F0C5FF081932BD03E0A8
:102600000B780370491C401C13005A1E9BB2002B10
:10261000F6D170478018401E03E00B780370491C08
:10262000401E13005A1E9BB2002BF6D1704701E0EA
:102630000170401C13005A1E9BB2002BF8D170474A
:1026400010B48207920FD300FF249C40E24389011B
:10265000C9B2994003000BD54C481B071B0F083B20
:102660009B089B00C01803681A401143016007E0F3
:1026700047489B089B00C01803681A40114301603B
:1026800010BC7047BFF34F8F424843490860BFF307
:102690004F8FFEE710B5401E80214904884201D3C8
:1026A000012010BD3D4C606003210020C043FFF7B6
:1026B000C7FF0020A06007202060002010BD38491F
:1026C000012282400868374B034013430B60704778
:1026D00072B635480178491C01707047324801785C
:1026E000491E0170C9B2002900D162B6704700B519
:1026F00083B0FDF775FD02F0CFF801231A460021E3
:10270000084602F010F901F0B9FB0020FFF7D7FFEF
:1027100026480068FA21890001F037FFFFF7BAFF69
:1027200000200190009001231A46014602F0D8F9DA
:1027300007BD80B5FFF7CCFFFFF7A4FF01BD00B5D3
:1027400085B0684601F0D8FE009801994140029A90
:102750004A400398504005B000BD1FB504006846CC
:1027600001F0CAFE082269462000FDF7A9FC1FBD42
:1027700010B50F4C2068401C2060A068FFF7F6FCE5
:102780006168884201D3FFF763FC10BD1CED00E0D7
:1027900000E400E00400FA050CED00E010E000E0C9
:1027A00080800440FFFFEF25A21500109C1500104B
:1027B000BC04001010B400231C00047004730381D7
:1027C0004160428110BC704780B53E490A78002ABA
:1027D00010D0A12A29D0A22A2FD0A52A0CD0A62A0F
:1027E00010D0A82A13D0B12A3FD0B22A4ED0B32A93
:1027F0005CD005E0A5220A70FF2801D1A620087050
:10280000012002BD5528FBD1A8200870F8E702007E
:10281000612A01D0412A02D1A1200870F0E7422AA2
:10282000EED1B1220A700873EAE70200742A01D0DF
:10283000542AE5D1A2200870E2E70D2805D1A32093
:10284000087001F04DFB002002BD0A894B899A42B5
:1028500005D1A420087001F043FB002002BD4B68A5
:1028600098540889401C0881CAE702004B899342AA
:1028700005D2B520087001F033FB002002BD4A816B
:102880000A7B50400873B2200870B9E74A680B8988
:10289000D0540A89521C0A810B7B5840087348891E
:1028A00092B28242ACD1B3200870A9E70A7B5040B3
:1028B00002D0B520087001E0B420087001F010FBD0
:1028C000002002BD781500102E490A6801238340BC
:1028D0002D48184382430A6070472A4901228240EA
:1028E00008682A4B034013430B60704710B504007F
:1028F000FFF7EAFF2000FFF7F0FF10BD2449012297
:1029000082400868234B034013430B607047C16843
:102910000069814201D10120704700207047C161E8
:1029200070474069C005C00D7047C16070470161C4
:10293000704781681848084070471849884201D19B
:102940000E2070471649884201D10F207047102091
:10295000704710B50400FFF7F0FFFFF7CFFF0F48F7
:10296000844203D10320FFF7C1FF10BD0C4884420D
:1029700003D10420FFF7BAFF10BD0520FFF7B6FF13
:1029800010BD0000048004400020FEFFFFDF0100B6
:1029900080800440FFFFEF257FFD010000400640DE
:1029A0000080064038B504000D0002F09FF92901AF
:1029B00001F0EBFD401E206231BD38B504000D0072
:1029C00007E02000FFF7ADFF69460870280002F01D
:1029D0003BFA2000FFF7ADFFC007F2D431BD38B598
:1029E00004000D0004E0684601782000FFF797FF1F
:1029F0002000FFF79EFF400705D56946280002F03A
:102A000086FA0028EFD131BDF1B50F0014001D008A
:102A10000421FFF78CFF2A002100380002F02DFA74
:102A2000060039000098FFF7DAFFAA1BA119380049
:102A300002F023FA341804210098FFF776FF2000F3
:102A4000F2BD80B5080011001A0002F079FA02BD4B
:102A500070B504000D001600FFF76BFF40070CD5A2
:102A600031002000FFF7BBFF3000FFF750FF0028C8
:102A700003D004212000FFF75AFF29002000FFF7B0
:102A80009CFF70BD02000800824201D1C0B201E08B
:102A9000501EC0B240B270477B4980000858AC4914
:102AA000884204D04900884203D0002070470120AA
:102AB0007047022070470200914200DB0800704717
:102AC000FFB583B00026354628460090019007E008
:102AD00000981030C0B200900198401CC0B2019024
:102AE0000098602833DA002407E00098210040189D
:102AF0000C99F6B28855761C641C102CE8DA049800
:102B000001994900405A0121A1400842F4D005989A
:102B1000009909194A005118890047183868002897
:102B2000EAD0082039560A00121109070917684629
:102B3000007B40B202F06EFA0028DDD00698797A68
:102B400009014018C0680028CFD06D1CD4E70D984B
:102B500005703000C0B207B0F0BD000080B500BF06
:102B600028A1096802781E2A4AD801A39B5C9F44C9
:102B700084848E8E8E848E8E842C368440444A507B
:102B800054585E84708474787C808484888C1E00A1
:102B9000002101228056FFF775FF010030E0A049B7
:102BA00001228056095C2BE09E4901228056095C77
:102BB00026E09D4924E0FA21890021E0FA21C9009C
:102BC0001EE09A491CE09A491AE08021C90117E0E9
:102BD000FA2189009748FFF707FDFA21C90041183B
:102BE0000EE095490CE095490AE0954908E060211E
:102BF00006E0944904E0002102E0934900E0BD4969
:102C0000080002BD0000000038B54268BA498D4B8B
:102C1000047865002C19A4001B195B7A1B01C918E4
:102C2000407802F027FA31BD10B5002803D0022801
:102C300024D023D310BD00200100B04C0CE04A008A
:102C4000521892009A18AE4B4B431B191360502335
:102C5000137203005372491C7A4B6029EFDBA948B9
:102C60007749088048808880C8800881488106228A
:102C70009020C000181802F0ECF910BD062270492F
:102C80006E4802F0E6F910BD4C2E000080B5091F19
:102C9000012905D9891E0ED0491E012916D920E027
:102CA000052200210023C05602F0B4F9401E8041E5
:102CB000C043C00F02BD052200210023C05602F010
:102CC000A9F9401E8041C043C00F02BD0722002168
:102CD0000023C05602F09EF9401E8041C043C00F41
:102CE00002BD002002BD704738B50179002902D02D
:102CF000012907D02AE006220168504802F0A9F90C
:102D0000012032BD4E4C06220168200002F0A1F9DC
:102D10000025602DF4DA2800C010000F40190011C2
:102D20004100615A01220001281A824011420BD051
:102D30002800062101F026FC0801014341486A00F1
:102D400052199200801801726D1CE2E7002032BD1A
:102D500090D00300F7B582B0002425000821465624
:102D6000092147564068186002984078002824D00E
:102D7000002E01D11C6020E002984068402801D359
:102D800001252700602818D3C006C00E012814D1E1
:102D900068461E21017046700299897A8170FFF79A
:102DA000DDFE060076B2002E07D1250002980078DD
:102DB000002802D00120FFF737FF0398067004981F
:102DC0000770280005B0F0BDF4B584B00D001C00FC
:102DD000052800DB0520607001202056FFF75CFE0F
:102DE000A0700120205600BF18A18200895800BFA2
:102DF00075A2105C02F09EF906000F007448C06DC9
:102E00008047010020000C300290083401940091AA
:102E1000049B2A003000390002F0AAF905B0F0BD89
:102E2000102F0000082F0000B80B000088130000CE
:102E30007017000018FCFFFF20441E1E4C090010F4
:102E400088150010CC0400103333994148E8010084
:102E500048E8010048E8010048E8010048E80100AE
:102E600048E80100F2B58AB00400012026566768E0
:102E7000574D68688047002801D0002038E0E07C8A
:102E8000002807D12078302101F07CFB1C48414309
:102E90005D480F183800E9688847A07C0990012038
:102EA0000890002007900690059004900390A06879
:102EB00080B202900820019000200090012300BF02
:102EC00041A0825D52B2A1781846AF69B847607CD4
:102ED000002802D00CA0815D02E000BF0CA0815D43
:102EE0000D31C9B201206A6D90470A980670012021
:102EF0000BB0F0BD9A990940AC0400106035081C75
:102F0000400D0300FFFF000033333373DEDE0000AB
:102F100033333373DEDE0000F6B58BB004000120DE
:102F2000225609A8401C00BF27A1895C0170634E8E
:102F30009020C0003318624821784D00691889003C
:102F40007118497A09014018022141560220205681
:102F5000FFF7B1FD0700A268616802F065F909A9F1
:102F600008701B4D20784100081880003058E9682F
:102F7000884754480890002007900690059001204B
:102F800004900020039008200290012001906946DF
:102F900025200856009000231A46242009560120B7
:102FA000EE69B047A189C9B201206A6D9047A18935
:102FB000C9B201206A6A90470C9908600B980770A3
:102FC00001200DB0F0BD00000C0B0A09080700003D
:102FD000A46B0000704700B585B0384900913B49AB
:102FE0000191694642780A7202784A7282788A723E
:102FF000C278CA724168039180680490684602F002
:1030000028F905B000BD0000E0F8D11DF6B59DB06F
:1030100006001F0000252C0028006946087204A83D
:10302000602101F03FFA2A4803900622214601F070
:10303000F9FF002802D10120FFF7F6FD7068FFF7C5
:1030400095F83168884214D33D601D4C012322005D
:10305000B17A707A02F013F8070002A8019004A870
:1030600000902300184A0399307AFFF729FD0400E5
:1030700009E06846007A401C694608727068FFF7EC
:1030800075F831680F1A002C0CD0641E21002846F8
:10309000FFF7AAFA04A9085C1D9908701E9805603C
:1030A000284609E06846007A00281E9802D007608A
:1030B0000B2001E005600C201FB0F0BDCC04001017
:1030C000AC040010B80B0000CC040010AC040010DD
:1030D0004C090010881A010049B2002900D50020CF
:1030E000C0B2704710B5040010220021F130FFF784
:1030F0009EFA00208A2149006050F02201462000FB
:10310000FFF795FA10BD80B50B00020010211800E2
:1031100000F0D8FB01BDF0B585B005000E0014002D
:103120008A2040002858002849D010210F1AA742B1
:1031300000D927003A0092B231002818FF239B1CC7
:10314000C018FFF75CFA8A2040002858C0198A216D
:1031500049006850102841D3BC423FD0002006E00F
:103160002918F1310A780B7C53400B70401C102851
:10317000F6DB2A002900F1312800F13000F023FCB1
:10318000F619E41B1BE06818F1300278735C5340B9
:103190000370491C1029F6DB10222900F131684622
:1031A000FFF72DFA2A006946684600F00CFC102251
:1031B00069462800F130FFF722FA1036103C112C36
:1031C00001D30021E6E7220092B23100FF20801CEB
:1031D0002818FFF714FA8A2040002C5005B0F0BDE3
:1031E000F1B588B00C00102200216846FFF71FFAE5
:1031F00022006946684600F0E6FB802100206A460E
:1032000013780B4211D0030007E0D5182E78760012
:103210006F78FF0937432F705B1C0F2BF5DBD37BD7
:103220005B0087255D40D5730EE0030007E0D518ED
:103230002E7876006F78FF0937432F705B1C0F2BB9
:10324000F5DBD37B5B00D3738A235B00E358102B41
:103250000CD10100102956DA6318FF25AD1C5B194B
:103260001D78565C6E401E70491CF3E713780B42C4
:1032700011D0030007E0D5182E7876006F78FF098B
:1032800037432F705B1C0F2BF5DBD37B5B0087254F
:103290005D40D5730EE0030007E0D5182E78760068
:1032A0006F78FF0937432F705B1C0F2BF5DBD37B47
:1032B0005B00D3738A235B00E358E318FF25AD1C42
:1032C000595502E0030061184B558A2149006158A5
:1032D000491C8A235B00E1501029F3D3010008E068
:1032E0006318FF25AD1C5B191D78565C6E401E707F
:1032F000491C1029F4DB06E02118F1310A780B7C17
:1033000053400B70401C1028F6DB10222100F131D5
:1033100004A8FFF774F92200089904A800F053FBF1
:10332000102200216846FFF782F909B0F0BD30B4E1
:10333000012100220368001D002B0BD00468001D32
:103340000C4202D04D466D1E64192260241D1B1FC5
:10335000F0D0FAE730BC70470A7802704A784270C1
:103360008A788270CA78C2700A7902714A79427189
:103370008A798271CA79C2710A7A02724A7A427271
:103380008A7A8272CA7AC2720A7B02734A7B427359
:103390008A7B8273C97BC173704703E00B7803702B
:1033A000491C401C13005A1EDBB2002BF6D170479B
:1033B00002780B785340037042784B785340437047
:1033C00082788B7853408370C278CB785340C37037
:1033D00002790B795340037142794B795340437121
:1033E00082798B7953408371C279CB795340C37111
:1033F000027A0B7A53400372427A4B7A53404372FB
:10340000827A8B7A53408372C27ACB7A5340C372EA
:10341000027B0B7B53400373427B4B7B53404373D4
:10342000827B8B7B53408373C27BC97B5140C173CA
:10343000704710B40B7814785C4004704B78547863
:103440005C4044708B7894785C408470CB78D478FE
:103450005C40C4700B7914795C4004714B795479E9
:103460005C4044718B7994795C408471CB79D479D8
:103470005C40C4710B7A147A5C4004724B7A547AC3
:103480005C4044728B7A947A5C408472CB7AD47AB2
:103490005C40C4720B7B147B5C4004734B7B547B9D
:1034A0005C4044738B7B947B5C408473C97BD27B90
:1034B0004A40C27310BC704780B5FFF779FF01BD69
:1034C0007F4902788A5C027002798A5C0271027A12
:1034D0008A5C0272027B8A5C027342784379CB5C1D
:1034E0004370437ACB5C4371437BCB5C43728A5C11
:1034F00042738278837ACB5C83708A5C8272827931
:10350000837BCB5C83718A5C8273C27BC37ACB5C26
:10351000C373C379CB5CC372C378CB5CC371895C62
:10352000C17070477FB5040021006846FFF714FFA3
:10353000634800BF63A100BFA2A26B461D78565D21
:103540005D794D5D75409E7A865D6E40DD7B455DA3
:10355000754025701D78465D5D79555D75409E7A94
:103560008E5D6E40DD7B455D754065701D78465D06
:103570005D79455D75409E7A965D6E40DD7B4D5D63
:103580007540A5701D784E5D5D79455D75409E7AEC
:10359000865D6E40DD7B555D7540E5701D79565D3D
:1035A0005D7A4D5D75409E7B865D6E40DD78455D44
:1035B000754025711D79465D5D7A555D75409E7B30
:1035C0008E5D6E40DD78455D754065711D79465DA7
:1035D0005D7A455D75409E7B965D6E40DD784D5D04
:1035E0007540A5711D794E5D5D7A455D75409E7B88
:1035F000865D6E40DD78555D7540E5711D7A565DDE
:103600005D7B4D5D75409E78865D6E40DD79455DE4
:10361000754025721D7A465D5D7B555D75409E78CF
:103620008E5D6E40DD79455D754065721D7A465D43
:103630005D7B455D75409E78965D6E40DD794D5DA4
:103640007540A5721D7A4E5D5D7B455D75409E7827
:10365000865D6E40DD79555D7540E5721D7B565D7A
:103660005D784D5D75409E79865D6E40DD7A455D85
:10367000754025731D7B465D5D78555D75409E796F
:103680008E5D6E40DD7A455D754065731D7B465DE0
:103690005D78455D75409E79965D6E40DD7A4D5D45
:1036A0007540A5731D7B495D5D78455D4D409979F9
:1036B000405C6840D97A515C4140E1737FBD0000B5
:1036C000183A0000A584998D0DBDB1545003A97D11
:1036D0001962E69A459D408715EBC90BEC67FDEA38
:1036E000BFF7965BC21CAE6A5A41024F5CF43408C5
:1036F0009373533F0C52655E28A10FB509369B3D6D
:103700002669CD9F1B9E742E2DB2EEFBF64D61CE29
:103710007B3E7197F568002C601FC8EDBE46D94B03
:10372000DED4E84A6B2AE516C5D75594CF1006813A
:10373000F044BAE3F3FEC08AADBC4804DFC1756350
:10374000301A0E6D4C14352FE1A2CC3957F2824756
:10375000ACE72B95A098D17F667EAB83CA29D33C7A
:1037600079E21D763B564E1EDB0A6CE45D6EEFA6D9
:10377000A8A4378B324359B78C64D2E0B4FA07253A
:10378000AF8EE918D5886F7224F1C751237C9C2134
:10379000DDDC86859042C4AAD8050112A35FF9D06A
:1037A000915827B93813B333BB7089A7B62292203A
:1037B00049FF787A8FF88017DA31C6B8C3B077112D
:1037C000CBFCD63AC6F8EEF6FFD6DE916002CE56B6
:1037D000E7B54DEC8F1F89FAEFB28EFB41B35F4521
:1037E0002353E49B75E13D4C6C7EF5836851D1F920
:1037F000E2AB622A0895469D30370A2F0E241BDF64
:10380000CD4E7FEA121D583436DCB45BA476B77D0A
:1038100052DD5E13A6B900C140E379B6D48D67725C
:103820009498B085BBC54FED869A66118AE904FE6F
:10383000A078254BA25D80053F2170F16377AF42F0
:1038400020E5FDBF811826C3BE35882E9355FC7A2E
:10385000C8BA32E6C0199EA344543B0B8CC76B28F0
:10386000A7BC16ADDB647414920C48B89FBD43C46A
:103870003931D3F2D58B6EDA01B19C49D8ACF3CF94
:10388000CAF447106FF04A5C38577397CBA1E83EF3
:1038900096610D0FE07C71CC9006F71CC26AAE6990
:1038A00017993A27D9EB2B22D2A907332D3C15C9FA
:1038B00087AA50A50359091A65D784D082295A1EB0
:1038C0007BA86D2CF6B585B069460C7D21001029CA
:1038D00003D0182901D0202911D1224601000698D1
:1038E000FFF75BFD6846007D1C308000C0B203908E
:1038F0000011401E0699F0310870012532E00020C9
:103900001146F0310870FF205BE0029819280DDBAA
:1039100010290BD140A0865D69466A465278825CC8
:103920004A706A461278825C0A70C75D2000694658
:10393000097D411AC9B20698401801784E40019994
:103940000E700199491C42786B465B7853400B70AE
:1039500082786B461B7853404B70C07847408F701D
:10396000241DE4B2039884422ADA069800190190D3
:10397000001F0678694642784A7082780A70C778D4
:103980006846007D02902000029900F0FBFD0029AE
:10399000BBD1310020A06A465278825C2E0056408E
:1039A0006A466B461B78C35C5370C35D1370475CFB
:1039B00028004000ED091B214D434540EDB2B5E71D
:1039C000002007B0F0BDF0B585B00F001400F02165
:1039D000615C00291DD001006846FFF72AFD012522
:1039E00006E0FFF79FFD31006846FFF765FD6D1C9F
:1039F000EDB228012618F020205C85426846F0D3FD
:103A0000FFF75EFD320069463800FFF712FD002027
:103A100000E0FF2005B0F0BD637C777BF26B6FC5E3
:103A20003001672BFED7AB76CA82C97DFA5947F0C1
:103A3000ADD4A2AF9CA472C0B7FD9326363FF7CC9D
:103A400034A5E5F171D8311504C723C31896059A3A
:103A5000071280E2EB27B27509832C1A1B6E5AA05D
:103A6000523BD6B329E32F8453D100ED20FCB15B48
:103A70006ACBBE394A4C58CFD0EFAAFB434D3385B1
:103A800045F9027F503C9FA851A3408F929D38F585
:103A9000BCB6DA2110FFF3D2CD0C13EC5F974417BC
:103AA000C4A77E3D645D197360814FDC222A908833
:103AB00046EEB814DE5E0BDBE0323A0A4906245CBF
:103AC000C2D3AC629195E479E7C8376D8DD54EA924
:103AD0006C56F4EA657AAE08BA78252E1CA6B4C6F0
:103AE000E8DD741F4BBD8B8A703EB5664803F60E49
:103AF000613557B986C11D9EE1F8981169D98E9438
:103B00009B1E87E9CE5528DF8CA1890DBFE6426850
:103B100041992D0FB054BB1601684907490F022285
:103B20000A430260704780B53548FFF7F5FF01BDD5
:103B3000704738B5934C2078002805D0022827D04C
:103B400014D3032836D048E0C54D2800FEF7A7FA65
:103B50000121002000F0AFFD64212800FEF7F5FAF6
:103B60002800FEF706FA0120207031BDBC4D280068
:103B7000FEF795FA0021084600F09DFDC8212800B7
:103B8000FEF7E3FA2800FEF7F4F90220207031BDB9
:103B9000B34D2800FEF783FA0121002000F08BFDD1
:103BA00064212800FEF7D1FA2800FEF7E2F903208D
:103BB000207031BDAA4D2800FEF771FA0021084699
:103BC00000F079FDFA2189002800FEF7BEFA2800EE
:103BD000FEF7CFF90020207031BD0020207031BDEC
:103BE000000010B50021084600F065FDAF4C0A2129
:103BF0002000FEF7AAFA2000FEF7BBF910BD000076
:103C000000800040F8B505002E00052802D00628E7
:103C100003D009E0FFF7E5FF06E09148FEF73FFA21
:103C20000021084600F047FDA1480068E840C007B1
:103C300000D489E09F4CA8002518286CFCF7DAFA1C
:103C400007000A2E01D00D2E62D19B480090067805
:103C500003229AA12000FCF747FAFFB23A00296C30
:103C60002000C01CFCF72CFAFF1C2C25FFB2E555E8
:103C70007F1C3800401C3100090601D5412105E0B8
:103C80003100490601D54E2100E03021FFB2E15557
:103C900003005B1C3100C90701D531210AE0310066
:103CA000890701D5322105E03100490701D55021AE
:103CB00000E03021C0B22154F00611D5DBB2E5544A
:103CC0005B1C1E0001227E48009949784018FF21A4
:103CD000C43141183000C0B2201801F007FB33187E
:103CE00000988078002821D0DBB2E5545B1C1D00D1
:103CF000009882787248009949784018E22149007A
:103D000041182800C0B2201801F0F0FA2B180DE07D
:103D100003226AA12000FCF7E7F9FFB23A00296C00
:103D20002000C01CFCF7CCF9FF1C3B000D20DBB2CF
:103D3000E0545B1C0A20DBB2E0545B1CDBB22200C7
:103D400060496148FEF760FEF1BD000030B402003A
:103D50000B000024210000E0641C9C420ED2105D88
:103D6000000248400100082001E02900401EF3D075
:103D70004D000904F9D555496940F7E7080080B2BC
:103D800030BC7047A4150010F0B589B006004C4D4A
:103D90008220800028180290FF27FF016822390046
:103DA000FCF7A2F94A48281800902121FFF7CEFF1E
:103DB00004008C208000281801903021FFF7C6FFF6
:103DC000396822040243914201D1002E41D0414C76
:103DD0002000FEF7C2FC03A822A10CC90CC000BF42
:103DE00022A11022FCF780F9082203A92000083044
:103DF000FCF77AF9102205A920001030FCF774F9BD
:103E000000263000202160540127E7642122210090
:103E10000098FCF755F9832080002818009007705F
:103E20003022243421000198FCF75EF900984665A1
:103E3000009886650020C0430099C8659B208000DB
:103E4000281806700321417002218170FCF77FF968
:103E500004E0682239000298FCF746F909B0F0BD89
:103E6000C80B00104D4A2D4D6F64656D2B7E1516E5
:103E700028AED2A6ABF7158809CF4F3C10B500206D
:103E8000FFF782FF0E4C002298214900200000F02D
:103E9000EBFA9622520021000F48FEF78BFC0F49E7
:103EA0009C2080002018FEF75CF810BDC80B0010A5
:103EB000C00B0010AC030010190B001045565F003A
:103EC00058090010040E00100040064021100000A8
:103ED0000D0200009014001078150010333B000014
:103EE000F0B59FB00024C94D287801F055FA009034
:103EF000C7480789FFB22E00204669460871002F87
:103F000001D1012468E20098762810D1022F0ED149
:103F100068783F280BD1BFA1280001F044FA2C1883
:103F2000BD49200001F03FFA2618012454E2009810
:103F30007A2809D1012F07D1B848C06A80470124E7
:103F400020006946087147E2262811D1022F0FD1BF
:103F5000687801F021FA66280AD1B048C06A804723
:103F60000120FFF711FF012420006946087133E2A8
:103F70000098732800D096E0022F00DA93E068786A
:103F80003F282ED1022F2CD1A2A1280001F00BFA3C
:103F90002C188C2080002958200001F0C1F9261827
:103FA0002C2420003070761C8D2080002958300091
:103FB00001F0B6F9361820003070761C9920800088
:103FC0002958300001F0ACF930180470401C04008E
:103FD000982080002958200001F0A2F92618012419
:103FE000FAE13D2800D0F7E1552F00D0F4E1082296
:103FF0002900891C13A801F0A5F9002800D1EBE1E4
:10400000A87A2C2800D0E7E113AF082229000B3151
:104010003800001D01F096F9002800D1DCE1E87CB1
:104020002C2800D0D8E12022290014313800083093
:1040300001F03CF9102800D0CEE13420285C2C2877
:1040400000D0C9E12022290035311837380001F0AD
:104050002DF9102800D0BFE19620800028581D902F
:104060009720800028581E90302213A98C208000B1
:104070002818FCF739F8D6204000285899218900E3
:104080006850D42040002858091F685083208000C1
:1040900028180178FE220A40022111430170FCF722
:1040A00056F8012498E16A2877D1022F75DB6878E9
:1040B0003F2823D1022F21D156A1280001F073F906
:1040C0002C180822C948291805A801F054F908221B
:1040D00005A9200001F00AF924182C202070641C86
:1040E0000822C348291805A801F045F9082205A9A6
:1040F000200001F0FBF8261801246DE13D2800D0D6
:104100006AE1442F00D067E10AAF204620217854AD
:1041100010222900891C0AA801F0C8F8082800D03C
:104120005AE1A87C2C2800D056E110222900133136
:104130003800083001F0BAF8082800D04CE12320FC
:10414000285C2C2800D047E12022290024313800A7
:10415000103001F0ABF8102800D03DE108220AA988
:104160000AA801F008F90822390008310837380098
:1041700001F001F921220AA99C482818FBF7A0FFA9
:1041800083208000281801240178FD220A402100A4
:1041900011430170FBF7DBFF1EE1672800D07CE0D4
:1041A000022F7ADB68783F283AD1022F38D119A143
:1041B000280001F0F8F82C1801229B208000291813
:1041C000200001F093F826182C2420003070761C73
:1041D00001229C482918300001F088F83618200088
:1041E0003070761C012298482918300001F07EF8C2
:1041F00030180470401C040001228320800029181C
:10420000200001F073F826180124E5E05809001099
:10421000781500104F4B2C00806B0000A46B000041
:104220003D2800D0D8E00A2F00D0D5E00222290096
:10423000891C01A8C01C01F039F8012800D0CBE08E
:1042400028792C2800D0C7E002222900491D01A8A6
:10425000801C01F02BF8012800D0BDE0E8792C2863
:1042600000D0B9E002222900083101A8401C01F069
:104270001DF8012800D0AFE06846C0799B21890075
:10428000685468468079491C685468464079491CDE
:104290006854FBF75CFF01249EE06A2803D1012FDC
:1042A00001D1012498E074285BD1052F59DB68788F
:1042B000302802D0312800D08EE0A8782C2800D0F9
:1042C0008AE0A72040002818039002222900C91C78
:1042D00000F0ECFF012800D07EE003980078002871
:1042E0007AD0FF205030281804906878303804992C
:1042F0000870A820400028180290204602990870F3
:10430000062F0EDB68792C280BD13800821F92B261
:104310002900891DFF205230281800F0C7FF02999C
:10432000087083208000285C800755D5052F03D0B6
:104330000298007800284FD00398007800284BD0CE
:10434000E02849DA049909784B1E9B41DB43DB0FD7
:1043500002990A78FF215231691801F028F9040006
:104360003AE0612838D1022F36DB68783F2817D130
:10437000022F15D107A80C2100F094F833A12800D2
:1043800001F011F82C1896208000295807A800F099
:10439000C7FF07A9200001F006F8261801241BE03A
:1043A0003D2819D1B81E0100C90F091849104A004B
:1043B000821A11D101290FDBBA1ED2B22900891C41
:1043C000684600F0BFFF002806D0009896218900BB
:1043D0006850FBF7BCFE0124002C0BD0AE420ED17E
:1043E0001BA1300000F0DFFF361808E00D020000CE
:1043F000150200001AA1300000F0D5FF36180D207C
:104400003070761C0A203070761C2800331A9620F3
:1044100040002B529BB22A000E490F48FEF7F4FAD7
:1044200068460079012804D10420FBF7ECFEFEF772
:1044300080F99622520029000848FEF7BBF91FB008
:10444000F0BD00006D0200006E0200004F4B2C001A
:104450004F4B0000040E001000400640781500107D
:104460004552524F520000001206130A1A43130C11
:104470001A4300BF130030B414001500103902D3E2
:1044800010393CC0FCD2490700D30CC000D504C091
:10449000890002D30280801C002900D5027030BC44
:1044A000704700000022E5E780B5294A904701BD2A
:1044B00000B58BB0322200920190029105A96846A6
:1044C000FFF7F2FF0598C0B20BB000BD00B58BB08E
:1044D000332300930190029103921E480068FA2151
:1044E000890000F052F8049005A96846FFF7DCFF48
:1044F0000598C0B20BB000BD10B58AB004003A20D8
:104500000590694605A8FFF7CFFF002005E0810070
:104510006A46521852686250401C0428F7D300982B
:104520000AB010BD00B58BB03B2200920190029101
:1045300008480068FA21890000F027F8039005A9CF
:104540006846FFF7B1FF0598C0B20BB000BD000090
:10455000F11FFF1F9C150010F446002804D44942A7
:1045600000F013F8404260474042002905D45FD074
:1045700000F00BF8404249426047494200F005F81C
:104580004942604703460B43E6D40022030A8B42AC
:104590000BD203098B4219D243088B422ED2411A07
:1045A00000D20146524110467047FF2209023FD017
:1045B00012068B4205D3121209028B4201D312124A
:1045C000090203098B4219D300E0090AC3098B428F
:1045D00001D3CB01C01A524183098B4201D38B0115
:1045E000C01A524143098B4201D34B01C01A5241B8
:1045F00003098B4201D30B01C01A5241C3088B42FD
:1046000001D3CB00C01A524183088B4201D38B00E7
:10461000C01A524143088B4201D34B00C01A524189
:10462000884200D3401A5241CFD20146104670470B
:1046300008B5FBF7FFFD08BD284901228240086844
:10464000274B034013430B60704724490A6801233A
:1046500083408D48184382430A6070478B4901228A
:1046600082400868C001C0091043086070474901D2
:1046700040188354704701239340890040188E21CD
:10468000890143507047000070B50024A0252D0615
:104690000EE000BF85A0065D320000212800FFF774
:1046A000EAFF0123320000212800FFF7E0FF641C2D
:1046B000012CEEDB70BD10B50C00002809D10123E0
:1046C00063400B220021A0200006FFF7D0FF7048B6
:1046D000047010BD6E480078704700008080044070
:1046E000FFFFEF2510B50720FFF7A6FF0020FFF71B
:1046F000B5FF0120FFF7B2FF0220FFF7AFFF032055
:10470000FFF7ACFF0620FFF7A9FF0720FFF7A6FF82
:104710000920FFF7A3FF0A20FFF7A0FF0B20FFF7F8
:104720009DFF0C20FFF79AFF0D20FFF797FF0E204B
:10473000FFF794FF0F20FFF791FF1020FFF78EFF88
:104740001120FFF78BFF1220FFF788FF1320FFF7E0
:1047500085FF1420FFF782FF1520FFF77FFF16204B
:10476000FFF77CFF1720FFF779FF1820FFF776FF90
:104770000720FFF76AFF474C002211212000FBF7BA
:104780005BFD00220B212000FBF756FD00220421D7
:104790002000FBF751FD002203212000FBF74CFD18
:1047A000002210212000FBF747FD00220F212000EE
:1047B000FBF742FD00220E212000FBF73DFD002209
:1047C0000D212000FBF738FD002208212000FBF717
:1047D00033FD002207212000FBF72EFD00220221DD
:1047E0002000FBF729FD002201212000FBF724FD1A
:1047F000002212212000FBF71FFD00220A212000C9
:10480000FBF71AFD002209212000FBF715FD00220D
:1048100011462000FBF710FD00221E212000FBF7AF
:104820000BFD00221D212000FBF706FD00221C21AC
:104830002000FBF701FD00221B212000FBF7FCFC00
:1048400000221A212000FBF7F7FC0022192120008A
:10485000FBF7F2FC002218212000FBF7EDFC002200
:1048600017212000FBF7E8FC002216212000FBF7AF
:10487000E3FC002215212000FBF7DEFC00221421BE
:104880002000FBF7D9FC10BD000010DAC0C10040C9
:10489000A31500100040044080B5A0200006FBF7DF
:1048A000E3FCFFF71FFFFFF7EFFE01BD0B00000069
:1048B0000121C006C00E814047480160704747494A
:1048C000012282400868464B034013430B60704747
:1048D00042490A68012383404248184382430A60E0
:1048E000704741490860704740490122824008688A
:1048F000C001C00910430860704701683C4A0A4083
:10490000012111430160704741683A4A0A40426000
:104910007047C1607047016170470368364A1A40AA
:1049200011430160704770B5FDF7D2FE0720FFF715
:10493000C6FF0120FFF7D5FF0020FFF7D5FF0021BC
:104940000846FBF797FC04210120FBF793FC0720A6
:10495000FFF7BEFF294D2800FDF7FBFF04212800CB
:10496000FFF7DBFF0121E120400300F0E1F9E12145
:1049700049022800FEF716F82800FFF7BEFF2800BE
:10498000FFF7C2FF1E4CAE0D33000122210028317B
:104990002000143000F050FA33000122942040002F
:1049A0002118200000F048FA01212800FFF7B1FF8C
:1049B00004212800FFF7AFFF0320FFF779FFFDF781
:1049C0008DFE70BD80B50E490A0014310B48FEF70C
:1049D0003FF801BD0000000000E100E080800440DD
:1049E000FFFFEF25000010DA94800440C0C10040B2
:1049F0007DDAFC000603010001DAFC0000400640FD
:104A0000040E00105B490A68012383405A4818438A
:104A100082430A6070475749012282400868574B19
:104A2000034013430B60704710B50400FFF7EAFF23
:104A30002000FFF7F0FF10BD5149012282400868B5
:104A4000504B034013430B6070474D490A680123E4
:104A500083404D48184382430A60704789004018DC
:104A600001684A4A0A400260704701239340890066
:104A7000401888218901435070470268FF23BE33E4
:104A800013400B43036070470268FF23BE338B4320
:104A900013400360704780B53D49884206D10C2021
:104AA000FFF7CAFF0120FFF7BFFF01BD0B20FFF793
:104AB000C3FF0020FFF7B8FF01BD80B50121FFF75C
:104AC000DCFF01BD38B504000D003C21FFF7DCFF21
:104AD00029002000FFF7D1FFF0200003206231BD44
:104AE00010B582B0FDF7F4FD0720FFF7A5FFA02465
:104AF0002406172200212000FFF7B7FF0E216120B6
:104B0000FBF7B8FB0E2200212000FFF7AEFF214C7F
:104B100017212000FFF7A2FF19215220FBF7AAFB63
:104B200007216020FBF7A6FB10212000FFF796FF6E
:104B300006215320FBF79EFB0720FFF786FF144C4E
:104B40002000FFF7A8FF04212000FFF7BBFF124958
:104B5000200000F089FF002069460860200000F076
:104B60009BFF2000FFF7A9FF0C20FFF765FFFDF773
:104B7000B5FD13BD048004400020FEFFFFDF0100EF
:104B800080800440FFFFEF25000010DAFFFBFFFFED
:104B900000C005400040044040420F0079490A68C7
:104BA000012383407848184382430A60704775495F
:104BB000012282400868754B034013430B60704725
:104BC00010B50400FFF7EAFF2000FFF7F0FF10BD6B
:104BD0006F49086070476E480068C0B270476D4901
:104BE000086070476B480068C0B270476A49086047
:104BF000704769480068C0B27047684800687047ED
:104C000067487047674800687047000000B50100BA
:104C10006AA00A0052091207120F92008058C906B2
:104C2000C90E491C4900FFF7B0FC00BD0200080096
:104C3000D106C90E491C484370475B4908600020F3
:104C4000486001204860704758490860002048606B
:104C500001204860704780B555480068C005C00D08
:104C6000FFF7D4FF02BD80B54F4800688007800F72
:104C700004D0012805D0032806D008E0FFF7C0FFC4
:104C800002BDFFF7BAFF02BDFFF7BCFF02BD002067
:104C900002BD80B5FFF7E7FF010046480068400607
:104CA000400EFFF7C3FF02BD80B500203F490968F1
:104CB0008907890F05D0022909D005D3032909D016
:104CC00002BDFFF79DFF02BDFFF7CDFF02BDFFF75D
:104CD000C2FF02BDFFF7DDFF02BD80B5FFF7E4FFB5
:104CE00035490968C9B2FFF750FC02BD38B5FFF776
:104CF00072FF040001D1002418E0FFF7D5FF210066
:104D0000FFF743FC04000025FFF76CFFFF280DD1DF
:104D1000FFF76FFF8021490042180023200E054352
:104D200024022000290000F0CEFE0400200032BD45
:104D3000F8B507000C00FFF7B7FF05003900FFF7D3
:104D400024FC060000D101263000C0B2FFF740FF6E
:104D5000002C11D00220FFF733FFFF20FFF73FFFA9
:104D600028003100FFF711FC00023900FFF70DFCAD
:104D7000C0B2FFF73BFF02E00020FFF730FFFFF774
:104D8000B5FFF2BD048004400020FEFFFFDF0100FC
:104D900094800440F0800440F4800440086D0000DA
:104DA000001BB7000C6D0000408004407080044080
:104DB0002480044008800440788004400000000003
:104DC000C027090090051000C05C1500F0B31A0060
:104DD000200B2000009F2400E0322900C0C62D00D7
:104DE00050973100E06735007038390000093D0008
:104DF0004016400080234300C0304600C16800696F
:104E0000081A704710B50400FFF7F8FF6168081A28
:104E100010BD10B50400FFF7F1FF6168884201DBA7
:104E2000012010BD002010BDC1680069814201D180
:104E300001207047002070470160436082600021BC
:104E40000161C1600120704770B504000E00256843
:104E5000FFF7DFFF002801D0002070BDA2683100FD
:104E6000E06863685B1E03405343E818FBF728F9CA
:104E7000E068401CE060012070BDF2B582B0040023
:104E80001500206801902000FFF7C3FF002801D023
:104E90000020FEBD2000FFF7B5FF01006268531E31
:104EA000E6681F003740009733401B18934201D338
:104EB0000098101A091AA84200DD28000600AD1B50
:104EC000A94200DD29000D00A0683200424302998A
:104ED000019B009F4743D819FBF7F2F8E06883195C
:104EE000E360A0682A004243029F310041437918E1
:104EF0008C46216867687F1E1F404743C81961467A
:104F0000FBF7DEF8E0684019E0607019FEBD70B58F
:104F100004000E002568FFF787FF002801D000205D
:104F200070BDA26820696168491E0140514369183B
:104F30003000FBF7C5F82069401C2061012070BDDE
:104F4000FEB504000D001600206802902000FFF757
:104F50006BFF002801D00020FEBD2000FFF74EFFB0
:104F6000019061684A1E236917001F4000971A408C
:104F700012188A4201D30098081A0199091AB042FE
:104F800000DD30000700F61BB14200DD31000E00ED
:104F9000A0683A0042430299009B4343C918280085
:104FA000FBF78EF82069C1192161A06832004243E5
:104FB0009446226863685B1E0B404343D1186246E7
:104FC00078432818FBF77CF8206980192061B8190C
:104FD000FEBD000030B402000023180008E00124E8
:104FE0009C4025001540A54200D1401C5B1CDBB253
:104FF0008B42F4DBC0B230BC70475A49884201D2C0
:10500000642070475849884202D2FA2080007047D5
:1050100056487047884203DB824201DB012070471B
:1050200000207047F8B5040016000020002C0FD0B7
:105030000D000AE0070010216800205AFFF7CAFFA0
:10504000010038004018C0B26D1CEDB2B542F1D37A
:10505000F2BD002800D1704730B4002908D00023E9
:1050600004E05C000D5B05535B1CDBB29342F8DB94
:1050700030BC704700288A6000D14A607047FFB595
:1050800081B00024E44300273E0003E03C00EF60D1
:10509000761CF6B26846007C864248DA03983101F5
:1050A00045186846007900286846007A26D100280D
:1050B00004D0A868FDF75AF8009000E000976868EF
:1050C000FDF754F80099814203D26868FDF74EF865
:1050D00008E06846007A002803D0A868FDF746F883
:1050E00000E03800E968884200D3EF60E9680029F1
:1050F000CED0081AA042CBD20400C9E70028C5D000
:10510000A868FDF733F8E968884200D3EF60E868E3
:105110000028BDD0A868FDF729F8E968081AA04260
:10512000B6D2A868FDF722F8E9680C1AB0E72000AB
:1051300005B0F0BD70B50E0001218140080000F0FF
:10514000F7FC04000D00300000F0FCFC02000B0036
:105150002000290000F006FD0022304B00F063FD26
:1051600070BD000080EE3600803F5C02102700001A
:10517000FBB514001D006000083800F0D9FC6A4639
:105180000CCA00F050FD06000F00680000F0DAFCC9
:1051900032003B0000F009FE6A460CCA00F0E2FC57
:1051A00006000F0000F0DCFE00F018FF844206D27B
:1051B0003000390000F0D4FE00F010FF00E02000C5
:1051C000099E306068460CC80020154900F02BFD90
:1051D00004000D00306800F0B5FC6A460CCA00F00F
:1051E00022FD00220F4B00F01EFD02000B002000EC
:1051F000290000F03DFE04000D00089800F0A2FC1C
:1052000002000B002000290000F032FE00F0A8FE92
:1052100000F0D2FE0A990860F7BD000000408F4000
:10522000000010400000E03F38B50C0015004000C1
:1052300000F0ECFE0100200000F02AFF290000F041
:1052400027FF00F07DFF00F095FF00F0B5FE40B2B3
:1052500032BDF8B504002068E17A4A00511889008F
:105260004018407A07016068C01905880026C660AA
:10527000607A00280FD1E068FFF7BFFEA84200D394
:105280000500A07A002809D1207A002806D160689C
:10529000C019C660F1BDA07A0028F8D02069454346
:1052A000281A6168C919C860F1BD000030B4030054
:1052B0000020D40714D407E01D782D012C431C7066
:1052C000D40701D45B1C401C1400621EA4B2002C45
:1052D00008D000BF3FA40D786457491C002CEBD5C3
:1052E000002000E0C0B230BC7047000030B41300B2
:1052F0000DE000BF32A40D782D11655D0570401CD6
:105300000D782D072D0F645D0470401C491C14009E
:10531000621EE4B2002CECD15800C0B230BC704721
:1053200080B56A460B001B0E13700B001B0C5370EC
:105330000B001B0A9370D17004226946FFF7D6FF59
:10534000082002BD10B40023036003E004682401B8
:105350002343036013005A1EDBB2002B08D000BFAA
:105360001CA30C781B57491C002BEFD5002000E034
:10537000012010BC704730B40023521ED2B207E0A7
:10538000CC5C8D5CC55484545B1CDBB2521ED2B223
:105390009342F5DB30BC7047010041391A2900D235
:1053A0002030C0B270470200002000E0401C0B78A3
:1053B000491C1370521C002BF8D1C0B2704700007A
:1053C000303132333435363738394142434445463B
:1053D00000000000FFFFFFFFFFFFFFFFFFFFFFFFD9
:1053E000FFFFFFFFFFFFFFFFFFFFFFFFFFFFFFFFCD
:1053F000FFFFFFFFFFFFFFFFFFFFFFFFFFFFFFFFBD
:10540000FFFFFFFF00010203040506070809FFFF75
:10541000FFFFFFFFFF0A0B0C0D0E0FFFFFFFFFFF4B
:10542000FFFFFFFFFFFFFFFFFFFFFFFFFFFFFFFF8C
:10543000FFFFFFFFFF0A0B0C0D0E0FFFFFFFFFFF2B
:10544000FFFFFFFFFFFFFFFFFFFFFFFFFFFFFFFF6C
:10545000FFFFFFFFFFFFFFFFFFFFFFFFFFFFFFFF5C
:10546000FFFFFFFFFFFFFFFFFFFFFFFFFFFFFFFF4C
:10547000FFFFFFFFFFFFFFFFFFFFFFFFFFFFFFFF3C
:10548000FFFFFFFFFFFFFFFFFFFFFFFFFFFFFFFF2C
:10549000FFFFFFFFFFFFFFFFFFFFFFFFFFFFFFFF1C
:1054A000FFFFFFFFFFFFFFFFFFFFFFFFFFFFFFFF0C
:1054B000FFFFFFFFFFFFFFFFFFFFFFFFFFFFFFFFFC
:1054C000FFFFFFFFFFFFFFFFFFFFFFFFFFFFFFFFEC
:1054D000FFFFFFFF80B5012802D0E02809D001BD01
:1054E0000120A24948750020FFF7F4F8C34908706D
:1054F00001BD9E48817B00290DD0002181730321CD
:105500004175BE4905220A70C27B4A70027C8A70CE
:105510000121417001BD4178012904D004290AD13B
:105520000121417001BD02214175B4498289120AED
:105530000A708089487001BD70B588B005AC142030
:10554000207005A8FCF79AF9884E01AD6946707D78
:10555000FCF72AF9002807D00020010029700390E9
:10556000A8812079A87318E0A448B17D002909D149
:1055700000212970317D29710390707DA8812079E7
:10558000A8730AE001212970317D29710390707D93
:10559000A8810820E8732079A87301A8FCF72EFCE5
:1055A000002801D1002000E0012008B070BDFEB548
:1055B00084B007006D4C20004C30FCF770FD0125D5
:1055C0006E4635706846FCF759F900281ED13079CF
:1055D00000281BD00220A07665766846007EA07564
:1055E00027756846007D60756846027D049983488A
:1055F000FAF766FDFFF7A0FF607681490020FCF70F
:10560000F3FFA0620320A076607E00E0002007B0D8
:10561000F0BDF0B589B0554C20004C30FCF73FFD93
:10562000012605AD2E7005A8FCF728F9002827D122
:105630002879002803D00220A076667620E06E4606
:105640000027377020002C30019020003430029069
:1056500020003C3003901420287005A8FCF70EF9B8
:10566000002802D12879307400E037746846FCF7CE
:105670003DFB002802D10420A07601E00320A076A3
:1056800009B0F0BD80B5417800290DD1007800281F
:1056900002D0012804D010E000203449C8750CE085
:1056A00001203249C87508E0042906D15548002177
:1056B000017081700A20FEF7A5FA01202B49487677
:1056C00001BD38B504006078002804D00A284CD108
:1056D000FDF72FF831BD6079012801D1FFF799FF5F
:1056E000224D2878002802D0A889401CA881607B20
:1056F00000283AD0E07801280BD1207B012808D17E
:10570000A06800780100C907C90F29760020FEF7BC
:10571000D2FFC5480100913100220A70EA7D012ABA
:1057200006D1A27C002A01D0802200E040220A702B
:105730000B780122657C002D03D002251D430D70DE
:1057400002E015001D430D700B7810251D430D70F0
:105750004A70E278CA70227B8A70227BA1689530F9
:10576000FAF7AEFC0D20FEF74DFA31BD2C04001007
:1057700010B586B00178002902D001292CD038E07C
:10578000AA4C4078002810D1A9480078002802D1FE
:105790000420A07601E00220A0760620FEF732FA6F
:1057A00000210846FEF787FF23E0684600210170CC
:1057B00022002C32019222003432029222003C322A
:1057C00003920174FCF792FA002802D10420A0761B
:1057D0000FE00320A0760CE04178002909D1934C1A
:1057E0002178002905D00121A173017AE173407A63
:1057F000207401208D49487606B010BD2C1200108F
:10580000DC050000190B00100078042800D0704758
:1058100080B5FFF7FEFE01BDF0B58FB0FCF767FF66
:10582000824C0020A0761EE00399097809180A002E
:10583000D210120F521812115300E3189F8B12014D
:10584000891A8E403E439E83401C01260399497865
:105850008842E9DB6846FCF7E5F80C2028706846CA
:10586000FCF7E0F8A676A07E002809D0022800D137
:10587000ADE055D3042800D1D0E000D2C2E0D0E0A2
:10588000FCF75DFFFCF7A5FE6A4805906A480690A4
:105890006A4807906A480890022204A905A8FBF705
:1058A00083FE684920004C30FCF75BFB02276D4605
:1058B0002F70002028716846FCF7B4F807262E7078
:1058C000002028716846FCF7ADF81B2028703220B4
:1058D00001906846FCF7A6F8172028702E716846DC
:1058E000FCF7A0F8142028702F716846FCF79AF88E
:1058F00000202870544E6436039630468078287114
:105900006846FCF78FF820001C3001900D202870AD
:1059100000220C2120001C30FEF7A6FD002094E799
:10592000494E37003F1D6D463878C00728D5200006
:105930002C30FCF712FF09AF002038703000401DFA
:105940000A9030000D300B9015360C9614202870FC
:105950006846FBF793FF002802D12879387401E0EC
:105960000020387409A8FCF7C1F9002805D10520EA
:10597000FEF748F90420A07675E70320A07672E7C9
:1059800003202870786A01906846FCF74BF80420E1
:105990002870B86A01906846FCF744F80520287022
:1059A0003000303001906846FCF73CF80620287043
:1059B000403601966846FCF735F80126300028701D
:1059C0002E716846FCF72EF80220A0764BE7607E29
:1059D000002808D0012630002075A675FFF77AFD53
:1059E000FFF7AAFD60762078002802D01748A06251
:1059F00005E01748C06CFA2189004843A0620320E3
:105A0000A07630E70420A076A16A20004C30FCF795
:105A10009CFB20004C30FCF7ACFA24E7FCF7BAFB07
:105A200021E70020A0761EE7880A00102C04001051
:105A3000C60B001085560000C356000071570000C9
:105A40000958000013560000600B00108813000076
:105A5000640B001010B50400FFF73FF9616A89B2CA
:105A6000491CFEF792FD10BD38B504000D00FFF78C
:105A700034F92900FEF789FD002801D1012003E057
:105A80000449884200D3481E401E60622000FFF790
:105A9000E1FF32BD0100010010B40F220B7813406A
:105AA0004C78144024011C438B7813401B02234381
:105AB000C978002904D01C00491E0A40130323435F
:105AC000436010BC7047124224D0994228D970B567
:105AD00000251B4202D00C00002109E00024012611
:105AE00049186441944200D3A41A7641F8D3310096
:105AF000012601E0764109D2001864416D41A41AE3
:105B00009D41F7D2A4185D41B619F5D330002200AB
:105B10002B0070BD1B42D8D108B500F057FB08BD63
:105B200001D19042D3D202000B0000210020704727
:105B3000010009D5F446404200F006F80122D207E0
